:100000000C9462000C948A000C948A000C948A0070
:100010000C948A000C948A000C948A000C948A0038
:100020000C948A000C948A000C948A000C948A0028
:100030000C948A000C94FA0D0C948A000C948A009B
:100040000C94580D0C948A000C94C80D0C94A20DBD
:100050000C948A000C948A000C948A000C948A00F8
:100060000C94210E0C948A0000000000240027004C
:100070002A0000000000250028002B0000000000DE
:1000800023002600290004040404040404040202DA
:100090000202020203030303030301020408102007
:1000A0004080010204081020010204081020000012
:1000B0000008000201000003040700000000000027
:1000C0000000400F11241FBECFEFD8E0DEBFCDBF30
:1000D00026E0A0E4B3E001C01D92A33AB207E1F725
:1000E00013E0A0E0B1E0EEE4FAE202C005900D9268
:1000F000A034B107D9F710E0C2E6D0E004C02197E0
:10010000FE010E943E12C136D107C9F70E94BE0F00
:100110000C9425150C9400006F927F928F929F9201
:10012000AF92BF92CF92DF92EF92FF920F931F9305
:10013000CF93DF933C01EB0125EC35E082E06816BC
:100140007104B1F04CF425E835E0B1E06B167104B0
:1001500079F025E435E00CC025E036E0E3E06E16EA
:10016000710431F025E436E0F4E06F16710489F78C
:100170008301000F111F055C1A4FF801A081B181A6
:10018000AA0FBB1FA20FB31FF301EE0FFF1FEE0F4D
:10019000FF1FE95DFA4FCD90DC9011970D2C000CFC
:1001A000EE08FF0880809180A280B3808C189D08A3
:1001B000AE08BF08CD93DC93D801ED90FC90A70169
:1001C000440F551F240F351FD9014D915C91052E09
:1001D000000C660B770BCB01BA01680D791D8A1DE7
:1001E0009B1D6083718382839383F301EE0FFF1F56
:1001F000EE5CFE4FC080D1809301220F331FE901D6
:10020000C35EDA4F96010D2C000C440B550B0E9477
:10021000E21139832883BFEFEB1AFB0AEC14FD04CB
:1002200094F4F801F182E082DF91CF911F910F9158
:10023000FF90EF90DF90CF90BF90AF909F908F9006
:100240007F906F900895D8011D921C92EDCF7F9200
:100250008F929F92AF92BF92CF92DF92EF92FF92D6
:100260000F931F93CF93DF93C4E0D0E0C12CD12C28
:1002700076018EE4782E0BE31FE194EB892E9BE24E
:10028000992E91E1A92EB12C70927C00C8010197A2
:10029000F1F780917A00806480937A0080917A00EF
:1002A00086FDFCCF8091780020917900322F282F95
:1002B000032E000C440B550BC501B4010E94E21142
:1002C000032E000C440B550BC20ED31EE41EF51E6C
:1002D0002197D1F6C701B60124E030E040E050E0BC
:1002E0000E94E211263583E1380794F030938606A8
:1002F00020938506DF91CF911F910F91FF90EF9092
:10030000DF90CF90BF90AF909F908F907F90089597
:1003100088E893E19093860680938506EBCF83303F
:1003200081F028F4813099F08230A9F00895873067
:10033000A9F08830C9F08430B1F4809180008F7DBD
:1003400003C0809180008F7780938000089584B5EA
:100350008F7784BD089584B58F7DFBCF8091B000E9
:100360008F778093B00008958091B0008F7DF9CF92
:10037000CF93DF93282F30E0F901E255FF4F8491AE
:10038000F901E656FF4FD491F901EA57FF4FC491A6
:10039000CC23A1F081110E948F01EC2FF0E0EE0F31
:1003A000FF1FE458FF4FA591B491EC91ED2381E03C
:1003B00090E009F480E0DF91CF91089580E090E033
:1003C000FACF1F93CF93DF93282F30E0F901E25546
:1003D000FF4F8491F901E656FF4FD491F901EA5796
:1003E000FF4FC491CC23A9F0162F81110E948F01D9
:1003F000EC2FF0E0EE0FFF1FEE58FF4FA591B491E8
:100400008FB7F894EC91111108C0D095DE23DC93DE
:100410008FBFDF91CF911F910895DE2BF8CFCF933F
:10042000DF9390E0FC01E656FF4F24918A579F4FDF
:10043000FC0184918823D1F090E0880F991FFC0182
:10044000E859FF4FA591B491FC01EE58FF4FC591BB
:10045000D49161110EC09FB7F8948C91E22FE09572
:100460008E238C932881E223E8839FBFDF91CF9175
:1004700008958FB7F894EC91E22BEC938FBFF6CFF1
:10048000FF920F931F93CF93DF93182FF62E042F15
:10049000E90161E00E940F026F2D812F0E94E101AE
:1004A000002399F0C230D10538F0CC0FDD1FCC0FFE
:1004B000DD1F25972197F1F760E0812FDF91CF9124
:1004C0001F910F91FF900C940F02DF91CF911F911C
:1004D0000F91FF900895E091EA03F091EB033097BC
:1004E00029F01092F3031092F20309940895CF9328
:1004F000DF93AC01E091EC03F091ED033097F1F064
:100500009091F5038091F4039817C0F090E0292FA3
:1005100030E02617370754F4D901A65ABC4F240FF0
:10052000351FE90128812C939F5FF1CF1092F503CD
:100530006093F403CB01DF91CF910994DF91CF91C8
:100540000895AF92BF92CF92DF92EF92FF920F93F6
:100550001F93CF93DF936C017B018B01040F151F59
:10056000EB015E01AE18BF08C017D10759F06991C1
:10057000D601ED91FC910190F081E02DC601099525
:10058000892B79F7C501DF91CF911F910F91FF90D2
:10059000EF90DF90CF90BF90AF900895FC01538D06
:1005A000448D252F30E0842F90E0821B930B54174D
:1005B00010F0CF96089501970895FC01918D828DDA
:1005C000981761F0A28DAE0FBF2FB11D5D968C9173
:1005D000928D9F5F9F73928F90E008958FEF9FEFB2
:1005E0000895FC01918D828D981731F0828DE80F6E
:1005F000F11D858D90E008958FEF9FEF0895FC0128
:10060000918D228D892F90E0805C9F4F821B9109F4
:100610008F739927089588E194E00E94FF0221E0FA
:10062000892B09F420E0822F089580E090E0892B47
:1006300029F00E940B0381110C9400000895FC0125
:10064000A48DA80FB92FB11DA35ABF4F2C91848D33
:1006500090E001968F739927848FA689B7892C9390
:10066000A089B1898C91837080648C93938D848DE3
:10067000981306C00288F389E02D80818F7D8083E6
:100680000895EF92FF920F931F93CF93DF93EC01A6
:1006900081E0888F9B8D8C8D98131AC0E889F98929
:1006A000808185FF15C09FB7F894EE89FF8960832C
:1006B000E889F98980818370806480839FBF81E0AD
:1006C00090E0DF91CF911F910F91FF90EF900895EF
:1006D000F62E0B8D10E00F5F1F4F0F731127E02ECA
:1006E0008C8D8E110CC00FB607FCFACFE889F98902
:1006F000808185FFF5CFCE010E941F03F1CFEB8DE6
:10070000EC0FFD2FF11DE35AFF4FF0829FB7F894D5
:100710000B8FEA89FB8980818062CFCFCF93DF93F3
:10072000EC01888D8823B9F0AA89BB89E889F98909
:100730008C9185FD03C0808186FD0DC00FB607FC3E
:10074000F7CF8C9185FFF2CF808185FFEDCFCE0171
:100750000E941F03E9CFDF91CF9108950895209162
:10076000A003260F3327331F21323105ECF42091EB
:10077000C403FC0190E080E0243069F082E0089539
:10078000A091A0032191AC0140585C4FA40FB52F5C
:10079000B11D2C930196861798F38091A003680FE2
:1007A0006093A00380E0089581E008951092C4034F
:1007B00081E08093C6031092C50361E082E10E944C
:1007C000E10161E083E10E94E101E9EBF0E0808179
:1007D0008E7F808380818D7F808388E48093B800C2
:1007E00085E48093BC0008950895E091F50380911D
:1007F000F403E81730F4F0E0E65AFC4F808190E013
:1008000008958FEF9FEF08959091F5038091F40381
:100810002FEF3FEF981748F4E92FF0E0E65AFC4F2E
:10082000208130E09F5F9093F503C9010895809186
:10083000F4039091F503891B990B0895CF93DF93EF
:10084000CB01EA01642F0E94AF03CE01DF91CF916B
:100850000895CF93DF931F92CDB7DEB7698361E030
:10086000CE0101960E94AF0381E090E00F90DF91EE
:10087000CF91089590E080E008950895FC01E05341
:10088000FE4F2081318188529E4FFC01408189E0DA
:1008900090E00C9440024F925F926F927F928F9201
:1008A0009F92AF92BF92EF92FF920F931F93CF93BD
:1008B000DF938C01FC01EC53FE4FE080F180E456A5
:1008C000F140A081B18197010E9401129B01AC010E
:1008D000A3E0B0E00E941F12812C24E0922EA12CF4
:1008E000B12CA50194010E94E2112901F801E25AFC
:1008F000FF4FA081B18197010E9401129B01AC01C1
:10090000A3E0B0E00E941F12A50194010E94E21131
:10091000E201C20FD31FF801EE59FF4FA081B18150
:1009200097010E9401129B01AC01A3E0B0E00E947C
:100930001F12A50194010E94E211C20FD31FF801FA
:10094000EC59FF4FA081B18197010E9401129B01D8
:10095000AC01A3E0B0E00E941F12A50194010E9427
:10096000E211CE01820F931FDF91CF911F910F9162
:10097000FF90EF90BF90AF909F908F907F906F907F
:100980005F904F90089520917A0090917A00987F1F
:10099000946090937A008E50806480937C00809164
:1009A0007A00806480937A0080917A0086FDFCCF83
:1009B000809178009091790020937A00089581E1E8
:1009C0000E94C304BC0190E080E00E948C0080E1A2
:1009D0000E94C304BC01725081E090E00E948C0030
:1009E0008FE00E94C304BC01725082E090E00E943C
:1009F0008C008EE00E94C304BC01725083E090E042
:100A00000E948C0085E10E94C304BC01725084E006
:100A100090E00C948C00FC01EA52FE4F2081318161
:100A200085529E4FFC01408187E090E00C9440028B
:100A3000FC01EC52FE4F2081318186529E4FFC0119
:100A4000408183E090E00C944002FC01EE52FE4FA6
:100A50002081318187529E4FFC01408188E090E0E7
:100A60000C944002FB0101900020E9F73197AF019F
:100A7000461B570BDC01ED91FC910280F381E02DC8
:100A800009948F929F92AF92BF920F931F93CF932F
:100A9000DF93CDB7DEB7A1970FB6F894DEBF0FBED8
:100AA000CDBF19A2423008F44AE08E010F5D1F4FFE
:100AB000842E912CB12CA12CA50194010E94C0116F
:100AC000E62FB901CA01EA3004F5E05DD801EE93E2
:100AD0008D01232B242B252B79F790E080E01097B4
:100AE00029F0BD0188E194E00E943205A1960FB67D
:100AF000F894DEBF0FBECDBFDF91CF911F910F9154
:100B0000BF90AF909F908F900895E95CDFCFCF9218
:100B1000DF92EF92FF92CF93DF936C01990FEE0873
:100B2000FF08F7FE19C06DE288E194E00E944103DE
:100B3000EC0166277727CB016C197D098E099F0987
:100B40004AE00E9441058C0F9D1FDF91CF91FF90DD
:100B5000EF90DF90CF9008954AE0C701B601DF9192
:100B6000CF91FF90EF90DF90CF900C944105BC01A6
:100B700088E194E00C943205CF93DF93672B81F4E6
:100B8000EC01BC01645C7F4F21F088E194E00E949D
:100B9000320566E671E088E194E00E9432051CAE01
:100BA000DF91CF9108956DE075E085EB94E00E94B0
:100BB000320510920D050895CF93DF9385ED809354
:100BC000BC0080917C0390917D03A0917E03B09145
:100BD0007F030796A11DB11D23E0B695A7959795B4
:100BE00087952A95D1F72091BC0024FD03C010926F
:100BF000C40336C040917C0350917D0360917E0315
:100C000070917F03452B462B472B69F30097A10575
:100C1000B10541F02AE22A95F1F700C00197A10938
:100C2000B109E1CF80917B0391E090937A0388230F
:100C3000B9F0C091B800D091BA008091BC008A7B15
:100C40008093BC0060E082E10E94E10160E083E10A
:100C50000E94E1010E94D603D093BA00C093B8006D
:100C6000DF91CF9108958F929F92AF92BF92CF92D2
:100C7000DF92EF92FF920F931F93CF93DF93EC01DC
:100C80007B016A01890169E671E0C7010E94441293
:100C9000892B09F041C0DE01A45ABF4FFE01EC537D
:100CA000FE4F2D913C91A081B1810E9401129B01C8
:100CB000AC01ADE0B0E00E941F1220E034E040E063
:100CC00050E00E94E2113F932F938DE691E09F93B5
:100CD0008F93C80124E0880F991F2A95E1F7CC96DD
:100CE0008C0F9D1F9F938F930E944D120F900F901A
:100CF0000F900F900F900F90B801CE01DF91CF9120
:100D00001F910F91FF90EF90DF90CF90BF90AF9029
:100D10009F908F900C94BC0564E771E0C7010E941E
:100D20004412892BE9F4DE01A25ABF4FFE01EC53B5
:100D3000FE4F2D913C91A081B1810E9401129B0137
:100D4000AC01A3E0B0E00E941F1220E034E040E0DC
:100D500050E00E94E2113F932F9388E791E0B7CFD4
:100D60006FE771E0C7010E944412892BE9F4DE01AC
:100D7000A05ABF4FFE01EC53FE4F2D913C91A08134
:100D8000B1810E9401129B01AC01A3E0B0E00E947E
:100D90001F1220E034E040E050E00E94E2113F9357
:100DA0002F9383E891E093CF6AE871E0C7010E9436
:100DB0004412892BE9F4DE01AE59BF4FFE01EC531A
:100DC000FE4F2D913C91A081B1810E9401129B01A7
:100DD000AC01A3E0B0E00E941F1220E034E040E04C
:100DE00050E00E94E2113F932F938EE891E06FCF85
:100DF00065E971E0C7010E944412892BE9F4DE0124
:100E0000AC59BF4FFE01EC53FE4F2D913C91A08198
:100E1000B1810E9401129B01AC01A3E0B0E00E94ED
:100E20001F1220E034E040E050E00E94E2113F93C6
:100E30002F9389E991E04BCF60EA71E0C7010E94EE
:100E40004412892B41F4CE010E944B049F938F934F
:100E500084EA91E03CCF6BEA71E0C7010E94441242
:100E6000892B51F4FE01EC53FE4F81818F938081D9
:100E70008F9380EB91E02BCF68EB71E0C7010E946C
:100E80004412892B41F489E00E94B8019F938F930B
:100E90008DEB91E01CCF65EC71E0C7010E9444121C
:100EA000892B41F488E00E94B8019F938F938AECCC
:100EB00091E00DCF62ED71E0C7010E944412892BD1
:100EC00041F483E00E94B8019F938F9387ED91E0F6
:100ED000FECE6FED71E0C7010E944412892B41F4F0
:100EE00087E00E94B8019F938F9384EE91E0EFCE4C
:100EF0006CEE71E0C7010E944412892B79F4C6019F
:100F00000E944A11BC01CE010E943E0489E00E9469
:100F1000B8019F938F9381EF91E0D9CE6AEF71E092
:100F2000C7010E944412892B79F4C6010E944A111C
:100F3000BC01CE010E94250588E00E94B8019F9364
:100F40008F938FEF91E0C3CE68E072E0C7010E94FB
:100F50004412892B79F4C6010E944A11BC01CE01CA
:100F60000E94180583E00E94B8019F938F938DE043
:100F700092E0ADCE66E172E0C7010E944412892B77
:100F800079F4C6010E944A11BC01CE010E940B05F2
:100F900087E00E94B8019F938F938BE192E097CEF8
:100FA00064E272E0C7010E944412892B19F5C60160
:100FB0000E944A117C016E018AE3C81A8EEFD80A9A
:100FC000B7010F2C000C880B990BF7E0660F771F09
:100FD000881F991FFA95D1F723E537E040E050E0EC
:100FE0000E94E211D6012D933C93FF92EF9289E289
:100FF00092E06DCE62E372E0C7010E944412892B39
:1010000011F5C6010E944A117C016E01B8E3CB1AAA
:10101000BEEFDB0ABC01990F880B990BE7E0660F66
:10102000771F881F991FEA95D1F723E537E040E045
:1010300050E00E94E211F60131832083FF92EF928B
:1010400087E392E044CE60E472E0C7010E9444125C
:10105000892B11F5C6010E944A117C016E01F6E34D
:10106000CF1AFEEFDF0ABC01990F880B990B57E0EE
:10107000660F771F881F991F5A95D1F723E537E030
:1010800040E050E00E94E211D6012D933C93FF9284
:10109000EF9285E492E01BCE6EE472E0C7010E94FD
:1010A0004412892B11F5C6010E944A117C016E0180
:1010B000B4E3CB1ABEEFDB0ABC01990F880B990B86
:1010C00047E0660F771F881F991F4A95D1F723E5E0
:1010D00037E040E050E00E94E211F60131832083C6
:1010E000FF92EF9283E592E0F2CD6CE572E0C701EA
:1010F0000E944412892BB9F04E01F2E08F0E911C30
:10110000B12CA12C8E899F89A816B9067CF5D40133
:10111000ED91FD914D01A801B601C7010995BFEF01
:10112000AB1ABB0AEFCFC6010E944A117C016E01C7
:1011300082E3C81A8EEFD80AB7010F2C000C880B77
:10114000990B37E0660F771F881F991F3A95D1F7E3
:1011500023E537E040E050E00E94E211D6012D93F4
:101160003C93FF92EF9281E692E0B1CDDF91CF9177
:101170001F910F91FF90EF90DF90CF90BF90AF90B5
:101180009F908F9008950F931F93CF93DF938B01C0
:1011900065EC72E00E946811EC0167E671E090E096
:1011A00080E00E9468119801AC01BE0181EC94E0DE
:1011B000DF91CF911F910F910C9433068F929F92E4
:1011C000AF92BF92CF92DF92EF92FF920F931F9355
:1011D000CF93DF9388E194E00E94FF02EC01892B1A
:1011E00039F188E194E00E94DD022091E904309118
:1011F000EA04F901EF53FB4F808F2F5F3F4F30938D
:10120000EA042093E9048A3019F02F30310511F7F0
:101210002F533B4FD90158961C921092EA0410921A
:10122000E90470E060E089ED94E00E94C308D2CF49
:1012300020911F05309120058091870690918806A6
:101240008217930734F470E060E081EC94E00E9430
:101250003E042091210530912205809189069091CC
:101260008A068217930734F470E060E081EC94E022
:101270000E942505209123053091240580918B063D
:1012800090918C068217930734F470E060E081EC53
:1012900094E00E9418052091250530912605809143
:1012A0008D0690918E068217930734F470E060E00B
:1012B00081EC94E00E940B0580911F059091200520
:1012C0002091210530912205820F931F2091230543
:1012D00030912405820F931F20912505309126051A
:1012E000820F931F20918F0630919006281739079F
:1012F000C4F470E060E081EC94E00E943E0470E091
:1013000060E081EC94E00E94250570E060E081ECF3
:1013100094E00E94180570E060E081EC94E00E9487
:101320000B0500911D0510911E05C0901F05D09062
:1013300020058091210590912205C80ED91E80912B
:10134000230590912405C80ED91E80912505909102
:101350002605C80ED91E8091560390915703C80EDA
:10136000D91E8091540390915503C81AD90A0D2CA7
:10137000000CEE08FF0860919D0670919E0680911A
:101380009F069091A006A70196010E949C1120E063
:1013900034E040E050E00E94E211200F311F8091C4
:1013A000FB039091FC03821793070CF03FC08091E0
:1013B0000B0490910C04281739070CF0A4C0EDEF32
:1013C000F3E0819191918217930724F42196C8301C
:1013D000D105B9F7CC0FDD1FFE01E550FC4F408170
:1013E0005181CE010296FC01E550FC4F6081718174
:1013F000C25FDE4F0990D881C02D825F9E4FDC0115
:10140000ED91FC914617570789F0EC1BFD0B241B4F
:10141000350BE29FC001E39F900DF29F900D1124C8
:10142000641B750B0E94AC11C60FD71FD0935903D4
:10143000C093580380910D0490910E04081719076A
:1014400010F02A97D4F589E00E94B801892B09F49D
:101450005DC061E089E00E940F0261E088E00E94C7
:101460000F0261E083E00E940F0261E087E00E94CA
:101470000F0260E089E00E94E10160E088E00E94E4
:10148000E10160E083E00E94E10160E087E00E940A
:10149000E1018BE39CE90197F1F760E089E00E94AC
:1014A0000F0260E088E00E940F0260E083E00E948B
:1014B0000F0260E087E00E940F028091500390913C
:1014C0005103A0915203B09153030196A11DB11D88
:1014D000893EE3E09E07A105B1055CF580935003CA
:1014E00090935103A0935203B0935303DF91CF9194
:1014F0001F910F91FF90EF90DF90CF90BF90AF9032
:101500009F908F900895C4E6D0E090CF88E00E942D
:10151000B801892B09F09DCF83E00E94B801892B87
:1015200009F097CF87E00E94B801892B09F091CF8D
:10153000C4CF109250031092510310925203109294
:1015400053030E9427018091250590912605E0E430
:10155000F3E02EE433E0812C912C5401428153813D
:1015600041935193052E000C660B770B840E951E4C
:10157000A61EB71E2E173F0789F790934F0380933F
:101580004E038091400390914103092E000CAA0B59
:10159000BB0BBC01CD01680D791D8A1D9B1D809080
:1015A000F9039090FA03092C000CAA08BB0828E064
:1015B00030E040E050E00E94E21182169306A4065B
:1015C000B50634F470E060E081EC94E00E940B0515
:1015D0008AE692E00E94B70589E00E94B8010E9465
:1015E000870588E00E94B8010E94870583E00E9479
:1015F000B8010E94870587E00E94B8010E94870514
:1016000082E792E00E94B705809185069091860658
:101610000E94870589E792E00E94B70520911D0589
:1016200030911E05A0918506B09186060E94011298
:101630009B01AC01ADE0B0E00E941F12812C24E0C0
:10164000922EA12CB12CA50194010E94E211CA0195
:10165000B901882799274AE00E94410583E892E072
:101660000E94B70580915803909159030E94870505
:101670008CE892E00E94B70520911F05309120056B
:10168000A0918506B09186060E9401129B01AC01D3
:10169000A3E0B0E00E941F12A50194010E94E21194
:1016A000C9010E94870583E992E00E94B705209155
:1016B000210530912205A0918506B09186060E94F1
:1016C00001129B01AC01A3E0B0E00E941F12A50132
:1016D00094010E94E211C9010E9487058BE992E002
:1016E0000E94B7052091230530912405A09185061D
:1016F000B09186060E9401129B01AC01A3E0B0E00C
:101700000E941F12A50194010E94E211C9010E94CA
:10171000870583EA92E00E94B70520912505309164
:101720002605A0918506B09186060E9401129B01B4
:10173000AC01A3E0B0E00E941F12A50194010E9439
:10174000E211C9010E9487058BEA92E00E94B70569
:1017500081EC94E00E944B040E94870585EB92E0A7
:101760000E94B705C8010E9487058FEB92E00E9496
:10177000B70560919D0670919E0680919F0690919D
:10178000A006A70196010E949C11A50194010E9448
:10179000E211C9010E94870566E671E088E194E0E4
:1017A000DF91CF911F910F91FF90EF90DF90CF903D
:1017B000BF90AF909F908F900C9432050F931F9322
:1017C000CF93DF938C01C1ECD4E0CE01815C9440D7
:1017D0008017910744F485EB94E00E9404048AA7E3
:1017E0001BA62196F2CFE1ECF4E0CF01815C94409E
:1017F0008017910724F483A582A73196F6CF61E084
:1018000070E08BEE94E0DF91CF911F910F910C94DB
:10181000C308EF92FF920F931F93CF93DF937C0146
:10182000EB018A0167EC72E00E944412892B39F5C2
:10183000809159038F93809158038F938CEC92E0A1
:101840009F938F93C80124E0880F991F2A95E1F791
:1018500083509B4F9F938F930E944D120F900F9038
:101860000F900F900F900F90B80181EC94E0DF91F2
:10187000CF911F910F91FF90EF900C94BC0564EDF8
:1018800072E0C7010E944412892BE9F4CE010E9444
:101890004A1125E531E0DC010E94181220918506ED
:1018A00030918606032E000C440B550B0E94E2116A
:1018B0003093550320935403DF91CF911F910F91E3
:1018C000FF90EF90089569ED72E0C7010E94441205
:1018D000892BB9F4CE010E944A1125E531E0DC01E3
:1018E0000E9418122091850630918606032E000C66
:1018F000440B550B0E94E21130935703209356037B
:10190000DBCF6EED72E0C7010E944412892B39F4DF
:1019100082EE92E09F938F9383EF92E091CF6AEFF4
:1019200072E0C7010E944412892BE9F489E00E9409
:10193000B801892B31F021E01F922F938FEF92E0B5
:101940007FCF88E00E94B801892BA9F783E00E942D
:10195000B801892B81F787E00E94B80121E0892B2B
:1019600059F720E0E9CFCE010E944A11EC0167E06F
:1019700073E0C7010E944412892B09F5C130D105DB
:1019800089F489E00E94B801892B61F491E080E03C
:1019900020915803309159032A3031050CF490E01E
:1019A000C92FD82FBE0181EC94E00E943E0489E04B
:1019B0000E94B8019F938F938CE093E041CF65E143
:1019C00073E0C7010E944412892B09F5C130D1058B
:1019D00089F488E00E94B801892B61F491E080E0ED
:1019E00020915803309159032A3031050CF490E0CE
:1019F000C92FD82FBE0181EC94E00E94250588E014
:101A00000E94B8019F938F938AE193E019CF63E21C
:101A100073E0C7010E944412892B09F5C130D1053A
:101A200089F483E00E94B801892B61F491E080E0A1
:101A300020915803309159032A3031050CF490E07D
:101A4000C92FD82FBE0181EC94E00E94180583E0D5
:101A50000E94B8019F938F9388E293E0F1CE61E3F7
:101A600073E0C7010E944412892B09F0FDCEC130FA
:101A7000D10589F487E00E94B801892B61F491E0D7
:101A800080E020915803309159032A3031050CF43D
:101A900090E0C92FD82FBE0181EC94E00E940B0585
:101AA00087E00E94B8019F938F9386E393E0C8CEAE
:101AB0001F920F920FB60F9211242F933F938F9383
:101AC0009F93AF93BF938091140490911504A091BC
:101AD0001604B09117043091130423E0230F2D371F
:101AE00058F50196A11DB11D209313048093140491
:101AF00090931504A0931604B093170480910F04DB
:101B000090911004A0911104B09112040196A11DAE
:101B1000B11D80930F0490931004A0931104B0930F
:101B20001204BF91AF919F918F913F912F910F9090
:101B30000FBE0F901F90189526E8230F0296A11D47
:101B4000B11DD2CF1F920F920FB60F9211242F9377
:101B50003F934F935F936F937F938F939F93AF9335
:101B6000BF93EF93FF9388E194E00E941F03FF91DE
:101B7000EF91BF91AF919F918F917F916F915F9105
:101B80004F913F912F910F900FBE0F901F9018957E
:101B90001F920F920FB60F9211242F938F939F9342
:101BA000EF93FF93E0912804F09129048081E09164
:101BB0002E04F0912F0482FD1BC09081809131048E
:101BC0008F5F8F7320913204821741F0E0913104CE
:101BD000F0E0E85EFB4F958F80933104FF91EF9129
:101BE0009F918F912F910F900FBE0F901F9018957E
:101BF0008081F4CF1F920F920FB60F9211242F9372
:101C00003F934F935F936F937F938F939F93AF9384
:101C1000BF93EF93FF93E0910001F09101010995CB
:101C2000FF91EF91BF91AF919F918F917F916F91B4
:101C30005F914F913F912F910F900FBE0F901F908A
:101C400018951F920F920FB60F9211242F933F9366
:101C50004F935F936F937F938F939F93AF93BF93B4
:101C6000EF93FF938091B900887F803609F44AC0D2
:101C7000F0F5883209F4A7C018F5803109F49BC04B
:101C8000B8F4882309F4F9C0883009F494C0FF91AE
:101C9000EF91BF91AF919F918F917F916F915F91E4
:101CA0004F913F912F910F900FBE0F901F9018955D
:101CB000883109F488C0803251F78093C30314C07F
:101CC000803409F49DC040F48033B9F38833F9F6C9
:101CD0008093C30385ECB0C0803509F485C0883596
:101CE00009F496C0883499F60E94DC05D0CF883973
:101CF00009F48CC038F5883729F050F4883611F093
:101D0000803729F683E08093C4031092C20357C042
:101D1000883809F47BC0803919F0803809F0B7CFD2
:101D20008091C203803208F071C0E091C20381E06B
:101D30008E0F8093C2038091BB00F0E0EE55FC4F04
:101D400080833DC0803B39F0E0F4803A09F479C0EB
:101D5000883A09F09CCF84E08093C4031092A103D9
:101D60001092A003E091F003F091F10309958091A6
:101D7000A00381110FC081E08093A0031092800323
:101D800009C0803C09F4A6CF883C09F4A3CF883B66
:101D900009F07DCFE091A10381E08E0F8093A10334
:101DA000F0E0E058FC4F80818093BB009091A1034C
:101DB0008091A00329C08091E9038093BB0085EC4A
:101DC0008093BC0064CF9091E8038091E70398175B
:101DD00058F5E091E80381E08E0F8093E803F0E08E
:101DE000E953FC4F8081E9CFE091E80381E08E0F59
:101DF0008093E8038091BB00F0E0E953FC4F8083BF
:101E00009091E8038091E7039817C8F285E8D8CF4E
:101E1000E091E80381E08E0F8093E8038091BB009E
:101E2000F0E0E953FC4F80838091C60381115CCFC1
:101E300081E08093C50384EA8093BC001092C403C0
:101E400026CF85EC8093BC001092C4038091C2031E
:101E5000803230F4E091C203F0E0EE55FC4F108286
:101E60006091C20370E0E091EE03F091EF0382EA2B
:101E700093E009951092C2030ACF1092C30334CFA6
:101E8000E8E1F4E01382128288EE93E0A0E0B0E093
:101E900084839583A683B78320E431E03183208354
:101EA00025EC30E03587248724EC30E0378726871F
:101EB00020EC30E0318B208B21EC30E0338B228B17
:101EC00022EC30E0358B248B26EC30E0378B268BF0
:101ED000118E128E138E148EE5EBF4E013821282B3
:101EE00084839583A683B78382E591E09183808381
:101EF000E1ECF4E0178A168A11A610A613AE12AE12
:101F000084E691E0918380838CEB91E09093880646
:101F10008093870690938A068093890690938C0617
:101F200080938B0690938E0680938D0680EF96E0CB
:101F30009093900680938F0688E0E2E0F1E0A1E9BB
:101F4000B6E001900D928A95E1F780910A01909197
:101F50000B01A0910C01B0910D0180939906909313
:101F60009A06A0939B06B0939C0610929D06109231
:101F70009E0610929F061092A0060895789484B54C
:101F8000826084BD84B5816084BD85B5826085BD75
:101F900085B5816085BD80916E00816080936E0003
:101FA00010928100809181008260809381008091F5
:101FB00081008160809381008091800081608093A6
:101FC00080008091B10084608093B1008091B00066
:101FD00081608093B00080917A00846080937A0061
:101FE00080917A00826080937A0080917A0081608B
:101FF00080937A0080917A00806880937A001092B2
:10200000C10061E082E00E940F0261E084E00E9472
:102010000F0260E089E00E940F0260E088E00E9409
:102020000F0260E083E00E940F0260E087E00E9400
:102030000F0260E081E10E940F0260E080E10E94F7
:102040000F0260E08FE00E940F0260E08EE00E94CD
:102050000F0260E085E10E940F020E942701C0E2AA
:10206000D0E00E94DF042197E1F789E991E09093A5
:1020700088068093870690938A06809389069093BA
:102080008C0680938B068AEA92E090938E0680936A
:102090008D0680E094E09093900680938F06809167
:1020A000D7049091D8048A30910574F40196FC010C
:1020B000EE0FFF1FEF53FB4F29E03CE031832083FD
:1020C0009093D8048093D704E0912804F0912904D8
:1020D00082E08083E0912404F09125041082E09155
:1020E0002604F091270483E3808310923004E0916A
:1020F0002C04F0912D0486E08083E0912A04F09175
:102100002B04808180618083E0912A04F0912B046C
:10211000808188608083E0912A04F0912B04808183
:1021200080688083E0912A04F0912B0480818F7D68
:1021300080831092F5031092F4031092F30310922F
:10214000F2030E94D6038BE692E09093F103809312
:10215000F00387E792E09093EF038093EE0380E132
:102160008093BA008EED9BE09093ED038093EC0397
:1021700083ED95E09093EB038093EA03C09085068E
:10218000D09086060D2C000CEE08FF0860E175E883
:102190008AE190E0A70196010E94E21130930E04BB
:1021A00020930D048AE190E0A0E0B0E080939D06CA
:1021B00090939E06A0939F06B093A006C0E2D1E044
:1021C0000BEF13E029913991AFE4B0E00E940912BE
:1021D000A70196010E94E211F801219331938F012A
:1021E000F1E0C233DF0771F788EC90E0909392063C
:1021F00080939106909398068093970688EE93E0DB
:1022000090939406809393069093960680939506F8
:1022100010929C0661E087E00E940F0220918506E3
:1022200030918606032E000C440B550B68E274E0D7
:102230008AE190E00E94E2113093FA032093F903BF
:1022400080E1809381001092800081E08093F80308
:1022500020E43FE13093F7032093F60330938700A7
:102260002093860091E1909381002EED38E0309329
:1022700001012093000180936F00C0E0D0E00E9434
:10228000DF042097E1F30E940B038823C1F30E942F
:102290000000F5CFFC0188279927E894219120328E
:1022A000E9F3293010F02E30C8F32B3241F02D32F3
:1022B00039F4689404C00E949411820F911D2191F9
:1022C00020532A30C0F31EF4909581959F4F0895B6
:1022D00041EA56E00E946D110895FA01A191B08182
:1022E000009719F41097E1F0CD01DC01CD010D90BC
:1022F000002011F4C00113C0FB012191222319F029
:102300002015D9F7F3CFFB012191201519F41E9266
:10231000119606C02223C1F70D900020A1F7D0012D
:10232000FA01A193B08308957AE0979F902D879F3B
:10233000802D910D11240895DB018F939F930E94AE
:102340001F12BF91AF91A29F800D911DA39F900D71
:10235000B29F900D1124089597FB072E16F4009458
:1023600007D077FD09D00E942A1207FC05D03EF461
:10237000909581959F4F0895709561957F4F089531
:10238000A1E21A2EAA1BBB1BFD010DC0AA1FBB1F79
:10239000EE1FFF1FA217B307E407F50720F0A21BEB
:1023A000B30BE40BF50B661F771F881F991F1A9458
:1023B00069F760957095809590959B01AC01BD0182
:1023C000CF010895052E97FB1EF400940E94F91189
:1023D00057FD07D00E94C01107FC03D04EF40C94A7
:1023E000F91150954095309521953F4F4F4F5F4FD4
:1023F000089590958095709561957F4F8F4F9F4F71
:1024000008950E940912332312F48A1B9B0B0C942B
:102410001A12A29FB001B39FC001A39F700D811D2E
:102420001124911DB29F700D811D1124911D0895DD
:102430000E940912B7FF0895821B930B08950E9412
:102440000912A59F900DB49F900DA49F800D911D22
:1024500011240895AA1BBB1B51E107C0AA1FBB1F73
:10246000A617B70710F0A61BB70B881F991F5A9520
:10247000A9F780959095BC01CD010895EE0FFF1F3F
:102480000590F491E02D0994FB01DC018D91019000
:1024900080190110D9F3990B0895AEE0B0E0E3E59F
:1024A000F2E10C94FC140D891E8986E08C831A835A
:1024B00009838FEF9FE79E838D83AE01475E5F4F59
:1024C0006F89788DCE0101960E9470122F81388518
:1024D000020F131FF80110822E96E4E00C941815D9
:1024E000ABE0B0E0E6E7F2E10C94EE147C013B01D6
:1024F0008A01FC0117821682838181FFC8C1CE0147
:1025000001965C01F7019381F30193FD859193FF9F
:1025100081913F01882309F453C1853239F493FD39
:10252000859193FF81913F01853229F4B70190E0B5
:102530000E946014E7CF912C212C312CFFE1F31580
:1025400038F08B3211F190F4803209F1833229F1A5
:1025500037FC3CC020ED280F2A3050F536FE20C055
:102560008AE0989E200D1124922E06C08D3291F0A3
:10257000803371F7689430F8F30193FD859193FFF0
:1025800081913F018111DACF21C0689431F86894BC
:1025900032F8F2CF689433F8EFCF689434F8ECCF88
:1025A000EAE02E9E200D1124222E689435F8E4CF07
:1025B0008E3229F436FC04C1689436F8DDCF8C36AF
:1025C00019F4689437F8D8CF8836B1F2982F9F7DE8
:1025D00095549330E0F08336A1F18337C1F1833510
:1025E00009F063C02801F2E04F0E511CF801C080D1
:1025F000D180692D70E036FC02C06FEF7FEFC6011D
:102600000E944A144C01689437F882010AC00C5F9A
:102610001F4FFFE3F98388248394912C6501E8948C
:1026200037F833FE2DC0522C8114910471F55520DA
:1026300009F468CFB70180E290E00E9460145A94D8
:10264000F6CFF801808189830E5F1F4FE4CF280108
:10265000F2E04F0E511CF801C080D180692D70E06E
:1026600036FC02C06FEF7FEFC6010E9455144C018B
:102670008201D5CFB70180E290E00E9460142A94D5
:102680002814190409F0B0F7CECFF60137FC859174
:1026900037FE81916F01B70190E00E9460145110E4
:1026A0005A94F1E08F1A9108BFCF843619F0893619
:1026B00009F077C0F80137FE6BC0608171818281BB
:1026C00093810C5F1F4FF32DFF763F2E97FF09C0BC
:1026D00090958095709561957F4F8F4F9F4F68942F
:1026E00037F82AE030E0A5010E949014C82ECA18DD
:1026F0008C2C432C36FE0CC0E89440F8C91440F4EE
:1027000034FE05C032FC03C0F32DFE7E4F2E892C13
:1027100044FE95C0FE01EC0DF11D8081803309F06F
:1027200087C0242D297E422E842D8870582E43FC8C
:1027300095C040FE8FC09C2C821418F42C0C922C57
:10274000981844FE91C0B70180E390E00E946014A5
:1027500042FE09C088E790E041FE02C088E590E0B3
:10276000B7010E946014C91408F48AC0CA94D12C1D
:102770009FEFC91AD90ACA0CDB1CF60182916F01BE
:10278000B70190E00E946014AC14BD04B1F74FCFC4
:1027900060817181072E000C880B990B0E5F1F4F13
:1027A00092CFD32CE894D4F82AE030E0853739F181
:1027B000232D297FD22E8F3601F148F48835A9F0D8
:1027C000F701868197812B96E2E10C940A158037F8
:1027D00049F08837A9F7D4FE02C06894D2F820E106
:1027E00030E00DC06894D4F8F6CF34FE03C0822FD9
:1027F0008660D82E20E132E002C028E030E0F80107
:10280000D7FE0FC060817181828193810C5F1F4F61
:10281000A5010E949014C82ECA183D2CE89437F8E0
:1028200067CF6081718190E080E00E5F1F4FF0CF35
:1028300042FC02C0839478CF8394839475CF842D17
:10284000867809F471CFF6CFB70180E290E00E945C
:10285000601483948214C0F3512C73CF522C5818F7
:10286000821408F46ECFF8CF842D867809F47BCFDC
:102870008BE241FE80E247FC8DE2B70190E071CF30
:10288000B70180E390E00E9460149A946CCF8FEFC0
:102890009FEF99CFFC010590615070400110D8F76F
:1028A000809590958E0F9F1F0895FC016150704098
:1028B00001900110D8F7809590958E0F9F1F089575
:1028C0000F931F93CF93DF93182F092FEB018B8169
:1028D00081FD09C01FEF0FEF812F902FDF91CF9166
:1028E0001F910F91089582FF14C02E813F818C812A
:1028F0009D81281739073CF4E881F981CF010196C1
:102900009983888310838E819F8101969F838E8314
:10291000E3CFE885F985812F0995892BA1F3DACFDB
:10292000FA01AA27283051F1203181F1E8946F9300
:102930006E7F6E5F7F4F8F4F9F4FAF4FB1E03ED0A6
:10294000B4E03CD0670F781F891F9A1FA11D680F44
:10295000791F8A1F911DA11D6A0F711D811D911D77
:10296000A11D20D009F468943F912AE0269F1124EC
:102970003019305D3193DEF6CF010895462F477050
:10298000405D4193B3E00FD0C9F7F6CF462F4F70AB
:10299000405D4A3318F0495D31FD4052419302D009
:1029A000A9F7EACFB4E0A6959795879577956795AF
:1029B000BA95C9F700976105710508959B01AC01AF
:1029C0000A2E06945795479537952795BA95C9F7D6
:1029D000620F731F841F951FA01D08952F923F92B1
:1029E0004F925F926F927F928F929F92AF92BF921F
:1029F000CF92DF92EF92FF920F931F93CF93DF93CB
:102A0000CDB7DEB7CA1BDB0B0FB6F894DEBF0FBE27
:102A1000CDBF09942A88398848885F846E847D8474
:102A20008C849B84AA84B984C884DF80EE80FD8076
:102A30000C811B81AA81B981CE0FD11D0FB6F894EC
:0E2A4000DEBF0FBECDBFED010895F894FFCFAD
:102A4E00AE033200320032003200010101010000FB
:102A5E000100030005000800330056005F0064000B
:102A6E00D854DB59305E006142630A672767DB6723
:102A7E0061692000200020002000200000000000DE
:102A8E004103A102CE028E03FF02DD02F10200001D
:102A9E00000029041E043A04F40317040404F50389
:102AAE000000000033060D0A0052564200575642EF
:102ABE003A257500524931005749313A2564005282
:102ACE004932005749323A2564005249330057497A
:102ADE00333A256400524934005749343A2564008C
:102AEE00524954005749543A256400525643430004
:102AFE00575643433A2564005243483100574348E2
:102B0E00313A2564005243483200574348323A2541
:102B1E0064005243483300574348333A2564005209
:102B2E0043483400574348343A25640057434831EC
:102B3E0000574348313A3D25640057434832005709
:102B4E004348323A3D2564005743483300574348C3
:102B5E00333A3D2564005743483400574348343ACE
:102B6E003D25640057494C310057494C313A3D25BB
:102B7E00640057494C320057494C323A3D256400A7
:102B8E0057494C330057494C333A3D256400574959
:102B9E004C340057494C343A3D25640057494C5447
:102BAE000057494C543A3D25640053746174653A9C
:102BBE0020002C205643433D006D562C2056427566
:102BCE00733D006D562C20736F633D00252C2049FC
:102BDE00313D006D412C2049323D006D412C204984
:102BEE00333D006D412C2049343D006D412C204970
:102BFE00546F743D006D412C20766261743A002C46
:102C0E0020766472703A0052534F430057534F432D
:102C1E003A25640057494549005749454F005246E9
:102C2E004E004261747465727950616E656C2E69E6
:102C3E006E6F0057464E3A25730052434841005777
:102C4E004348413A256400574350310057435031B1
:102C5E003A3D2564005743503200574350323A3DB7
:102C6E002564005743503300574350333A3D256493
:102C7E00005743503400574350343A3D256400000A
:00000001FF
