:020000040000FA
:100000000C9462000C948A000C948A000C948A0070
:100010000C948A000C948A000C948A000C948A0038
:100020000C948A000C948A000C948A000C948A0028
:100030000C948A000C946F0C0C948A000C948A0027
:100040000C94CD0B0C948A000C943D0C0C94170C62
:100050000C948A000C948A000C948A000C948A00F8
:100060000C94960C0C948A000000000024002700D9
:100070002A0000000000250028002B0000000000DE
:1000800023002600290004040404040404040202DA
:100090000202020203030303030301020408102007
:1000A0004080010204081020010204081020000012
:1000B0000008000201000003040700000000000027
:1000C0000000B50D11241FBECFEFD8E0DEBFCDBFBD
:1000D00026E0A4EEB2E001C01D92A734B207E1F71A
:1000E00012E0A0E0B1E0E8E2F7E202C005900D9274
:1000F000A43EB107D9F710E0C2E6D0E004C02197D2
:10010000FE010E94AB10C136D107C9F70E94330E21
:100110000C9492130C9400006F927F928F929F9296
:10012000AF92BF92CF92DF92EF92FF920F931F9305
:10013000CF93DF933C01EB0129E635E082E06816BE
:100140007104B1F04CF429E235E0B1E06B167104B2
:1001500079F029EE34E00CC029EA35E0E3E06E16D0
:10016000710431F029EE35E0F4E06F16710489F77F
:100170008301000F111F01521B4FF801A081B181B3
:10018000AA0FBB1FA20FB31FF301EE0FFF1FEE0F4D
:10019000FF1FE553FB4FCD90DC9011970D2C000C09
:1001A000EE08FF0880809180A280B3808C189D08A3
:1001B000AE08BF08CD93DC93D801ED90FC90A70169
:1001C000440F551F240F351FD9014D915C91052E09
:1001D000000C660B770BCB01BA01680D791D8A1DE7
:1001E0009B1D6083718382839383F301EE0FFF1F56
:1001F000EE5CFE4FC080D1809301220F331FE901D6
:10020000CF53DB4F96010D2C000C440B550B0E9475
:10021000251039832883BFEFEB1AFB0AEC14FD0489
:1002200094F4F801F182E082DF91CF911F910F9158
:10023000FF90EF90DF90CF90BF90AF909F908F9006
:100240007F906F900895D8011D921C92EDCF7F9200
:100250008F929F92AF92BF92CF92DF92EF92FF92D6
:100260000F931F93CF93DF93C4E0D0E0C12CD12C28
:1002700076018EE4782E0BE31FE194EB892E9BE24E
:10028000992E91E1A92EB12C70927C00C8010197A2
:10029000F1F780917A00806480937A0080917A00EF
:1002A00086FDFCCF8091780020917900322F282F95
:1002B000032E000C440B550BC501B4010E94251000
:1002C000032E000C440B550BC20ED31EE41EF51E6C
:1002D0002197D1F6C701B60124E030E040E050E0BC
:1002E0000E942510263583E1380794F030932A06C2
:1002F00020932906DF91CF911F910F91FF90EF90EE
:10030000DF90CF90BF90AF909F908F907F90089597
:1003100088E893E190932A0680932906EBCF8330F7
:1003200081F028F4813099F08230A9F00895873067
:10033000A9F08830C9F08430B1F4809180008F7DBD
:1003400003C0809180008F7780938000089584B5EA
:100350008F7784BD089584B58F7DFBCF8091B000E9
:100360008F778093B00008958091B0008F7DF9CF92
:10037000CF93DF93282F30E0F901E255FF4F8491AE
:10038000F901E656FF4FD491F901EA57FF4FC491A6
:10039000CC23A1F081110E948F01EC2FF0E0EE0F31
:1003A000FF1FE458FF4FA591B491EC91ED2381E03C
:1003B00090E009F480E0DF91CF91089580E090E033
:1003C000FACF1F93CF93DF93282F30E0F901E25546
:1003D000FF4F8491F901E656FF4FD491F901EA5796
:1003E000FF4FC491CC23A9F0162F81110E948F01D9
:1003F000EC2FF0E0EE0FFF1FEE58FF4FA591B491E8
:100400008FB7F894EC91111108C0D095DE23DC93DE
:100410008FBFDF91CF911F910895DE2BF8CFCF933F
:10042000DF9390E0FC01E656FF4F24918A579F4FDF
:10043000FC0184918823D1F090E0880F991FFC0182
:10044000E859FF4FA591B491FC01EE58FF4FC591BB
:10045000D49161110EC09FB7F8948C91E22FE09572
:100460008E238C932881E223E8839FBFDF91CF9175
:1004700008958FB7F894EC91E22BEC938FBFF6CFF1
:10048000FF920F931F93CF93DF93182FF62E042F15
:10049000E90161E00E940F026F2D812F0E94E101AE
:1004A000002399F0C230D10538F0CC0FDD1FCC0FFE
:1004B000DD1F25972197F1F760E0812FDF91CF9124
:1004C0001F910F91FF900C940F02DF91CF911F911C
:1004D0000F91FF900895E0918E03F0918F03309774
:1004E00029F0109297031092960309940895CF93E0
:1004F000DF93AC01E0919003F09191033097F1F01C
:1005000090919903809198039817C0F090E0292F5B
:1005100030E02617370754F4D901A250BD4F240FFD
:10052000351FE90128812C939F5FF1CF1092990329
:1005300060939803CB01DF91CF910994DF91CF9124
:100540000895AF92BF92CF92DF92EF92FF920F93F6
:100550001F93CF93DF936C017B018B01040F151F59
:10056000EB015E01AE18BF08C017D10759F06991C1
:10057000D601ED91FC910190F081E02DC601099525
:10058000892B79F7C501DF91CF911F910F91FF90D2
:10059000EF90DF90CF90BF90AF900895FC01538D06
:1005A000448D252F30E0842F90E0821B930B54174D
:1005B00010F0CF96089501970895FC01918D828DDA
:1005C000981761F0A28DAE0FBF2FB11D5D968C9173
:1005D000928D9F5F9F73928F90E008958FEF9FEFB2
:1005E0000895FC01918D828D981731F0828DE80F6E
:1005F000F11D858D90E008958FEF9FEF0895FC0128
:10060000918D228D892F90E0805C9F4F821B9109F4
:100610008F73992708958CEB93E00E94FF0221E0ED
:10062000892B09F420E0822F089580E090E0892B47
:1006300029F00E940B0381110C9400000895FC0125
:10064000A48DA80FB92FB11DA35ABF4F2C91848D33
:1006500090E001968F739927848FA689B7892C9390
:10066000A089B1898C91837080648C93938D848DE3
:10067000981306C00288F389E02D80818F7D8083E6
:100680000895EF92FF920F931F93CF93DF93EC01A6
:1006900081E0888F9B8D8C8D98131AC0E889F98929
:1006A000808185FF15C09FB7F894EE89FF8960832C
:1006B000E889F98980818370806480839FBF81E0AD
:1006C00090E0DF91CF911F910F91FF90EF900895EF
:1006D000F62E0B8D10E00F5F1F4F0F731127E02ECA
:1006E0008C8D8E110CC00FB607FCFACFE889F98902
:1006F000808185FFF5CFCE010E941F03F1CFEB8DE6
:10070000EC0FFD2FF11DE35AFF4FF0829FB7F894D5
:100710000B8FEA89FB8980818062CFCFCF93DF93F3
:10072000EC01888D8823B9F0AA89BB89E889F98909
:100730008C9185FD03C0808186FD0DC00FB607FC3E
:10074000F7CF8C9185FFF2CF808185FFEDCFCE0171
:100750000E941F03E9CFDF91CF9108950895209162
:100760004403260F3327331F21323105ECF4209147
:100770006803FC0190E080E0243069F082E0089595
:10078000A09144032191AC014C5D5C4FA40FB52FA7
:10079000B11D2C930196861798F380914403680F3E
:1007A0006093440380E0089581E008951092680307
:1007B00081E080936A031092690361E082E10E9404
:1007C000E10161E083E10E94E101E9EBF0E0808179
:1007D0008E7F808380818D7F808388E48093B800C2
:1007E00085E48093BC0008950895E0919903809179
:1007F0009803E81730F4F0E0E250FD4F808190E07C
:1008000008958FEF9FEF0895909199038091980339
:100810002FEF3FEF981748F4E92FF0E0E250FD4F3B
:10082000208130E09F5F90939903C90108958091E2
:10083000980390919903891B990B0895CF93DF93A7
:10084000CB01EA01642F0E94AF03CE01DF91CF916B
:100850000895CF93DF931F92CDB7DEB7698361E030
:10086000CE0101960E94AF0381E090E00F90DF91EE
:10087000CF91089590E080E008950895FC01E05341
:10088000FE4F2081318188529E4FFC01408189E0DA
:1008900090E00C94400220917A0090917A00987F29
:1008A000946090937A008E50806480937C00809155
:1008B0007A00806480937A0080917A0086FDFCCF74
:1008C000809178009091790020937A00089581E1D9
:1008D0000E944B04BC0190E080E00E948C0080E10B
:1008E0000E944B04BC01725081E090E00E948C0099
:1008F0008FE00E944B04BC01725082E090E00E94A5
:100900008C008EE00E944B04BC01725083E090E0AA
:100910000E948C0085E10E944B04BC01725084E06F
:1009200090E00C948C00FC01EA52FE4F2081318152
:1009300085529E4FFC01408187E090E00C9440027C
:10094000FC01EC52FE4F2081318186529E4FFC010A
:10095000408183E090E00C944002FC01EE52FE4F97
:100960002081318187529E4FFC01408188E090E0D8
:100970000C944002FB0101900020E9F73197AF0190
:10098000461B570BDC01ED91FC910280F381E02DB9
:10099000099461EB74E089E594E00E94BA04109236
:1009A000B1040895CF93DF93672B81F4EC01BC0170
:1009B000645C7F4F21F08CEB93E00E94BA0466E602
:1009C00071E08CEB93E00E94BA041CAEDF91CF91F2
:1009D0000895CF93DF9385ED8093BC008091200331
:1009E00090912103A0912203B09123030796A11DAA
:1009F000B11D23E0B695A795979587952A95D1F7D0
:100A00002091BC0024FD03C01092680336C04091C1
:100A10002003509121036091220370912303452B01
:100A2000462B472B69F30097A105B10541F02AE257
:100A30002A95F1F700C00197A109B109E1CF809192
:100A40001F0391E090931E038823B9F0C091B80072
:100A5000D091BA008091BC008A7B8093BC0060E09A
:100A600082E10E94E10160E083E10E94E1010E94D5
:100A7000D603D093BA00C093B800DF91CF91089508
:100A80004F925F926F927F928F929F92AF92BF929E
:100A9000CF92DF92EF92FF920F931F93CF93DF934A
:100AA000EC017B016A01890169E671E0C7010E94DE
:100AB000B110892B09F045C0DE01A45ABF4FFE01D9
:100AC000EC53FE4F2D913C91A081B1810E944410C6
:100AD0009B01AC01ADE0B0E00E94621020E034E088
:100AE00040E050E00E9425103F932F938DE691E067
:100AF0009F938F93C80124E0880F991F2A95E1F7EF
:100B0000CC968C0F9D1F9F938F930E94BA100F90CD
:100B10000F900F900F900F900F90B801CE01DF91C2
:100B2000CF911F910F91FF90EF90DF90CF90BF90EA
:100B3000AF909F908F907F906F905F904F900C94AC
:100B4000D20464E771E0C7010E94B110892BE9F477
:100B5000DE01A25ABF4FFE01EC53FE4F2D913C9196
:100B6000A081B1810E9444109B01AC01A3E0B0E0E0
:100B70000E94621020E034E040E050E00E94251026
:100B80003F932F9388E791E0B3CF6FE771E0C70100
:100B90000E94B110892BE9F4DE01A05ABF4FFE017B
:100BA000EC53FE4F2D913C91A081B1810E944410E5
:100BB0009B01AC01A3E0B0E00E94621020E034E0B1
:100BC00040E050E00E9425103F932F9383E891E08E
:100BD0008FCF6AE871E0C7010E94B110892BE9F458
:100BE000DE01AE59BF4FFE01EC53FE4F2D913C91FB
:100BF000A081B1810E9444109B01AC01A3E0B0E050
:100C00000E94621020E034E040E050E00E94251095
:100C10003F932F938EE891E06BCF65E971E0C701B8
:100C20000E94B110892BE9F4DE01AC59BF4FFE01DF
:100C3000EC53FE4F2D913C91A081B1810E94441054
:100C40009B01AC01A3E0B0E00E94621020E034E020
:100C500040E050E00E9425103F932F9389E991E0F6
:100C600047CF60EA71E0C7010E94B110892B09F0FB
:100C70005EC0FE01EC53FE4FC080D180E456F140CF
:100C8000A081B18196010E9444109B01AC01A3E0B8
:100C9000B0E00E946210812CA4E09A2EA12CB12C0D
:100CA000A50194010E9425102901FE01E25AFF4F7F
:100CB000A081B18196010E9444109B01AC01A3E088
:100CC000B0E00E946210A50194010E9425107201FB
:100CD000E20EF31EFE01EE59FF4FA081B181960195
:100CE0000E9444109B01AC01A3E0B0E00E9462109E
:100CF000A50194010E942510E20EF31EFE01EC599D
:100D0000FF4FA081B18196010E9444109B01AC016C
:100D1000A3E0B0E00E946210A50194010E9425109A
:100D20002E0D3F1D3F932F9384EA91E0E1CE6BEAB5
:100D300071E0C7010E94B110892B51F4FE01EC5300
:100D4000FE4F81818F9380818F9380EB91E0D0CE95
:100D500068EB71E0C7010E94B110892B41F489E072
:100D60000E94B8019F938F938DEB91E0C1CE65EC0B
:100D700071E0C7010E94B110892B41F488E00E9404
:100D8000B8019F938F938AEC91E0B2CE62ED71E04F
:100D9000C7010E94B110892B41F483E00E94B80181
:100DA0009F938F9387ED91E0A3CE6FED71E0C70124
:100DB0000E94B110892B41F487E00E94B8019F93F3
:100DC0008F9384EE91E094CE6CEE71E0C7010E94A7
:100DD000B110892B79F4C6010E94BF0FBC01CE016E
:100DE0000E943E0489E00E94B8019F938F9381EF97
:100DF00091E07ECE6AEF71E0C7010E94B110892BAD
:100E000079F4C6010E94BF0FBC01CE010E94AD045F
:100E100088E00E94B8019F938F938FEF91E068CE96
:100E200068E072E0C7010E94B110892B79F4C60115
:100E30000E94BF0FBC01CE010E94A00483E00E946B
:100E4000B8019F938F938DE092E052CE66E172E0FD
:100E5000C7010E94B110892B79F4C6010E94BF0F0F
:100E6000BC01CE010E94930487E00E94B8019F93C9
:100E70008F938BE192E03CCE64E272E0C7010E9466
:100E8000B110892B19F5C6010E94BF0F7C016E01BC
:100E90008AE3C81A8EEFD80AB7010F2C000C880B12
:100EA000990BF7E0660F771F881F991FFA95D1F706
:100EB00023E537E040E050E00E942510D6012D9355
:100EC0003C93FF92EF9289E292E012CE62E372E0ED
:100ED000C7010E94B110892B11F5C6010E94BF0FF6
:100EE0007C016E01B8E3CB1ABEEFDB0ABC01990F9F
:100EF000880B990BE7E0660F771F881F991FEA950B
:100F0000D1F723E537E040E050E00E942510F601DC
:100F100031832083FF92EF9287E392E0E9CD60E492
:100F200072E0C7010E94B110892B11F5C6010E9421
:100F3000BF0F7C016E01F6E3CF1AFEEFDF0ABC01A2
:100F4000990F880B990B57E0660F771F881F991F21
:100F50005A95D1F723E537E040E050E00E94251094
:100F6000D6012D933C93FF92EF9285E492E0C0CDA1
:100F70006EE472E0C7010E94B110892B11F5C60121
:100F80000E94BF0F7C016E01B4E3CB1ABEEFDB0AF7
:100F9000BC01990F880B990B47E0660F771F881FDC
:100FA000991F4A95D1F723E537E040E050E00E94D1
:100FB0002510F60131832083FF92EF9283E592E0C2
:100FC00097CD6CE572E0C7010E94B110892BB9F092
:100FD0004E01F2E08F0E911CB12CA12C8E899F89BD
:100FE000A816B9067CF5D401ED91FD914D01A8013B
:100FF000B601C7010995BFEFAB1ABB0AEFCFC60117
:101000000E94BF0F7C016E0182E3C81A8EEFD80ADE
:10101000B7010F2C000C880B990B37E0660F771F78
:10102000881F991F3A95D1F723E537E040E050E05B
:101030000E942510D6012D933C93FF92EF9281E6FA
:1010400092E056CDDF91CF911F910F91FF90EF90DD
:10105000DF90CF90BF90AF909F908F907F906F90D8
:101060005F904F9008950F931F93CF93DF938B0161
:101070006AE672E00E94DD0FEC0167E671E090E045
:1010800080E00E94DD0F9801AC01BE0185E694E08E
:10109000DF91CF911F910F910C944005CF92DF9279
:1010A000EF92FF920F931F93CF93DF938CEB93E01C
:1010B0000E94FF02EC01892B39F18CEB93E00E9436
:1010C000DD0220918D0430918E04F901EB59FB4F24
:1010D000808F2F5F3F4F30938E0420938D048A3092
:1010E00019F02F30310511F72B593B4FD901589684
:1010F0001C9210928E0410928D0470E060E08DE7D7
:1011000094E00E943308D2CF2091C3043091C404EC
:1011100080912B0690912C068217930734F470E08F
:1011200060E085E694E00E943E042091C504309181
:10113000C60480912D0690912E068217930734F4F1
:1011400070E060E085E694E00E94AD042091C70461
:101150003091C80480912F06909130068217930732
:1011600034F470E060E085E694E00E94A0042091F1
:10117000C9043091CA0480913106909132068217D9
:10118000930734F470E060E085E694E00E949304F5
:101190008091C3049091C4042091C5043091C60489
:1011A000820F931F2091C7043091C804820F931FB0
:1011B0002091C9043091CA04820F931F20913306F5
:1011C0003091340628173907C4F470E060E085E6F2
:1011D00094E00E943E0470E060E085E694E00E94A6
:1011E000AD0470E060E085E694E00E94A00470E049
:1011F00060E085E694E00E9493040091C1041091A0
:10120000C204A091C304B091C4048091C50490911C
:10121000C604A80FB91F8091C7049091C804A80FF5
:10122000B91F8091C9049091CA04A80FB91F809179
:10123000FA029091FB02A80FB91F8091F8029091D9
:10124000F902A81BB90B209141063091420640914A
:101250004306509144060E946D1020E034E040E0C7
:1012600050E00E942510200F311F80919F03909124
:10127000A003821793070CF03FC08091AF039091B9
:10128000B003281739070CF0A0C0E1EAF3E0819120
:1012900091918217930724F42196C830D105B9F7AC
:1012A000CC0FDD1FFE01E156FC4F40815181CE0184
:1012B0000296FC01E156FC4F60817181C25FDE4FF6
:1012C0000990D881C02D825F9E4FDC01ED91FC9189
:1012D0004617570789F0EC1BFD0B241B350BE29FCB
:1012E000C001E39F900DF29F900D1124641B750BBC
:1012F0000E941110C60FD71FD093FD02C093FC02AD
:101300008091B1039091B2030817190710F02A9742
:10131000D4F589E00E94B801892B09F459C061E035
:1013200089E00E940F0261E088E00E940F0261E004
:1013300083E00E940F0261E087E00E940F0260E0FC
:1013400089E00E94E10160E088E00E94E10160E044
:1013500083E00E94E10160E087E00E94E1018BE30D
:101360009CE90197F1F760E089E00E940F0260E0DC
:1013700088E00E940F0260E083E00E940F0260E0BC
:1013800087E00E940F028091F4029091F502A091F3
:10139000F602B091F7020196A11DB11D893EE3E06E
:1013A0009E07A105B1053CF58093F4029093F502E8
:1013B000A093F602B093F702DF91CF911F910F91A6
:1013C000FF90EF90DF90CF900895C4E6D0E094CFE7
:1013D00088E00E94B801892B09F0A1CF83E00E9428
:1013E000B801892B09F09BCF87E00E94B801892BB7
:1013F00009F095CFC8CF1092F4021092F502109226
:10140000F6021092F7020E9427014091C904509100
:10141000CA04E4EEF2E062EF72E000E010E098014E
:101420008281938181939193092E000CAA0BBB0BAF
:10143000080F191F2A1F3B1F6E177F0789F750934C
:10144000F3024093F2028091E4029091E502092EAA
:10145000000CAA0BBB0BBC01CD01600F711F821FDA
:10146000931FC0909D03D0909E030D2C000CEE089E
:10147000FF0828E030E040E050E00E942510C2164E
:10148000D306E406F5060CF097CF70E060E085E641
:1014900094E0DF91CF911F910F91FF90EF90DF903B
:1014A000CF900C9493040F931F93CF93DF938C01F1
:1014B000C5E6D4E0CE01855694408017910744F4E8
:1014C00089E594E00E9404048AA71BA62196F2CF26
:1014D000E5E6F4E0CF01855694408017910724F4A7
:1014E00083A582A73196F6CF61E070E08FE894E0A3
:1014F000DF91CF911F910F910C943308EF92FF92DF
:101500000F931F93CF93DF937C01EB018A016CE66D
:1015100072E00E94B110892B39F58091FD028F9302
:101520008091FC028F9381E792E09F938F93C80193
:1015300024E0880F991F2A95E1F78F559B4F9F93C1
:101540008F930E94BA100F900F900F900F900F90F2
:101550000F90B80185E694E0DF91CF911F910F9134
:10156000FF90EF900C94D20469E772E0C7010E94EB
:10157000B110892BE9F4CE010E94BF0F25E531E0BF
:10158000DC010E945B102091290630912A06032E6F
:10159000000C440B550B0E9425103093F902209348
:1015A000F802DF91CF911F910F91FF90EF90089576
:1015B0006EE772E0C7010E94B110892BB9F4CE0129
:1015C0000E94BF0F25E531E0DC010E945B102091F5
:1015D000290630912A06032E000C440B550B0E945D
:1015E00025103093FB022093FA02DBCF63E872E010
:1015F000C7010E94B110892B39F487E892E09F93CC
:101600008F9388E992E091CF6FE972E0C7010E9461
:10161000B110892BE9F489E00E94B801892B31F0DF
:1016200021E01F922F9384EA92E07FCF88E00E940E
:10163000B801892BA9F783E00E94B801892B81F7B3
:1016400087E00E94B80121E0892B59F720E0E9CF1B
:10165000CE010E94BF0FEC016CEA72E0C7010E944C
:10166000B110892B09F5C130D10589F489E00E94B8
:10167000B801892B61F491E080E02091FC02309167
:10168000FD022A3031050CF490E0C92FD82FBE019D
:1016900085E694E00E943E0489E00E94B8019F9391
:1016A0008F9381EB92E041CF6AEB72E0C7010E9419
:1016B000B110892B09F5C130D10589F488E00E9469
:1016C000B801892B61F491E080E02091FC02309117
:1016D000FD022A3031050CF490E0C92FD82FBE014D
:1016E00085E694E00E94AD0488E00E94B8019F93D3
:1016F0008F938FEB92E019CF68EC72E0C7010E94E4
:10170000B110892B09F5C130D10589F483E00E941D
:10171000B801892B61F491E080E02091FC023091C6
:10172000FD022A3031050CF490E0C92FD82FBE01FC
:1017300085E694E00E94A00483E00E94B8019F9394
:101740008F938DEC92E0F1CE66ED72E0C7010E94BE
:10175000B110892B09F0FDCEC130D10589F487E0A5
:101760000E94B801892B61F491E080E02091FC0295
:101770003091FD022A3031050CF490E0C92FD82FAA
:10178000BE0185E694E00E94930487E00E94B801C0
:101790009F938F938BED92E0C8CE1F920F920FB65E
:1017A0000F9211242F933F938F939F93AF93BF93E7
:1017B0008091B8039091B903A091BA03B091BB0393
:1017C0003091B70323E0230F2D3758F50196A11D63
:1017D000B11D2093B7038093B8039093B903A093EE
:1017E000BA03B093BB038091B3039091B403A0916B
:1017F000B503B091B6030196A11DB11D8093B3034B
:101800009093B403A093B503B093B603BF91AF9187
:101810009F918F913F912F910F900FBE0F901F902E
:10182000189526E8230F0296A11DB11DD2CF1F9255
:101830000F920FB60F9211242F933F934F935F9304
:101840006F937F938F939F93AF93BF93EF93FF9388
:101850008CEB93E00E941F03FF91EF91BF91AF913A
:101860009F918F917F916F915F914F913F912F91B8
:101870000F900FBE0F901F9018951F920F920FB6EA
:101880000F9211242F938F939F93EF93FF93E091E7
:10189000CC03F091CD038081E091D203F091D3038A
:1018A00082FD1BC090818091D5038F5F8F73209143
:1018B000D603821741F0E091D503F0E0E454FC4FE9
:1018C000958F8093D503FF91EF919F918F912F91E9
:1018D0000F900FBE0F901F9018958081F4CF1F922C
:1018E0000F920FB60F9211242F933F934F935F9354
:1018F0006F937F938F939F93AF93BF93EF93FF93D8
:10190000E0910001F09101010995FF91EF91BF91E4
:10191000AF919F918F917F916F915F914F913F9187
:101920002F910F900FBE0F901F9018951F920F923E
:101930000FB60F9211242F933F934F935F936F93A2
:101940007F938F939F93AF93BF93EF93FF93809178
:10195000B900887F803609F44AC0F0F5883209F46E
:10196000A7C018F5803109F49BC0B8F4882309F4A6
:10197000F9C0883009F494C0FF91EF91BF91AF9105
:101980009F918F917F916F915F914F913F912F9197
:101990000F900FBE0F901F901895883109F488C0E2
:1019A000803251F78093670314C0803409F49DC0DE
:1019B00040F48033B9F38833F9F68093670385ECFC
:1019C000B0C0803509F485C0883509F496C08834E4
:1019D00099F60E94E904D0CF883909F48CC038F513
:1019E000883729F050F4883611F0803729F683E0E3
:1019F000809368031092660357C0883809F47BC04F
:101A0000803919F0803809F0B7CF809166038032B1
:101A100008F071C0E091660381E08E0F8093660349
:101A20008091BB00F0E0EA5BFC4F80833DC0803BCF
:101A300039F0E0F4803A09F479C0883A09F09CCF93
:101A400084E0809368031092450310924403E09170
:101A50009403F091950309958091440381110FC07F
:101A600081E0809344031092240309C0803C09F470
:101A7000A6CF883C09F4A3CF883B09F07DCFE09145
:101A8000450381E08E0F80934503F0E0EC5DFC4F51
:101A900080818093BB00909145038091440329C0CD
:101AA00080918D038093BB0085EC8093BC0064CF54
:101AB00090918C0380918B03981758F5E0918C03DB
:101AC00081E08E0F80938C03F0E0E559FC4F80811C
:101AD000E9CFE0918C0381E08E0F80938C0380919D
:101AE000BB00F0E0E559FC4F808390918C0380911E
:101AF0008B039817C8F285E8D8CFE0918C0381E07A
:101B00008E0F80938C038091BB00F0E0E559FC4F71
:101B1000808380916A0381115CCF81E080936903A7
:101B200084EA8093BC001092680326CF85EC8093F2
:101B3000BC001092680380916603803230F4E0911B
:101B40006603F0E0EA5BFC4F10826091660370E090
:101B5000E0919203F091930386E493E0099510924B
:101B600066030ACF1092670334CFECEBF3E01382E5
:101B7000128288EE93E0A0E0B0E084839583A68390
:101B8000B78320E431E03183208325EC30E03587D2
:101B9000248724EC30E03787268720EC30E0318B37
:101BA000208B21EC30E0338B228B22EC30E0358B24
:101BB000248B26EC30E0378B268B118E128E138E01
:101BC000148EE9E5F4E01382128284839583A68360
:101BD000B78382E591E091838083E5E6F4E0178A9C
:101BE000168A11A610A613AE12AE84E691E0918378
:101BF00080838CEB91E090932C0680932B0690933E
:101C00002E0680932D069093300680932F06909396
:101C100032068093310680EF96E0909334068093ED
:101C2000330688E0E2E0F1E0A5E3B6E001900D9232
:101C30008A95E1F780910A0190910B01A0910C0126
:101C4000B0910D0180933D0690933E06A0933F0610
:101C5000B09340061092410610924206109243063D
:101C6000109244060895789484B5826084BD84B54A
:101C7000816084BD85B5826085BD85B5816085BD87
:101C800080916E00816080936E001092810080913F
:101C900081008260809381008091810081608093C7
:101CA0008100809180008160809380008091B100EC
:101CB00084608093B1008091B00081608093B00017
:101CC00080917A00846080937A0080917A008260AB
:101CD00080937A0080917A00816080937A0080916D
:101CE0007A00806880937A001092C10061E082E0FF
:101CF0000E940F0261E084E00E940F0260E089E030
:101D00000E940F0260E088E00E940F0260E083E022
:101D10000E940F0260E087E00E940F0260E081E114
:101D20000E940F0260E080E10E940F0260E08FE0FD
:101D30000E940F0260E08EE00E940F0260E085E1E9
:101D40000E940F020E942701C0E2D0E00E946704B7
:101D50002197E1F789E991E090932C0680932B0677
:101D600090932E0680932D069093300680932F0635
:101D70008AEA92E0909332068093310680E094E004
:101D8000909334068093330680917B0490917C0479
:101D90008A30910574F40196FC01EE0FFF1FEB5998
:101DA000FB4F2EE73AE03183208390937C048093AD
:101DB0007B04E091CC03F091CD0382E08083E0913D
:101DC000C803F091C9031082E091CA03F091CB03DC
:101DD00083E380831092D403E091D003F091D10388
:101DE00086E08083E091CE03F091CF038081806113
:101DF0008083E091CE03F091CF038081886080835F
:101E0000E091CE03F091CF03808180688083E091E0
:101E1000CE03F091CF0380818F7D80831092990350
:101E20001092980310929703109296030E94D60383
:101E30008BE692E0909395038093940387E792E07A
:101E4000909393038093920380E18093BA0083E59B
:101E50009AE0909391038093900389EC94E090939F
:101E60008F0380938E03C0902906D0902A060D2CF4
:101E7000000CEE08FF0860E175E88AE190E0A70138
:101E800096010E9425103093B2032093B1038AE19A
:101E900090E0A0E0B0E08093410690934206A093CA
:101EA0004306B0934406C0E2D1E00FE913E0299164
:101EB0003991AFE4B0E00E944C10A70196010E9456
:101EC0002510F801219331938F01F1E0C233DF0730
:101ED00071F788EC90E090933606809335069093E6
:101EE0003C0680933B0688EE93E0909338068093FF
:101EF000370690933A06809339061092400661E0C7
:101F000087E00E940F022091290630912A06032EB5
:101F1000000C440B550B68E274E08AE190E00E94EB
:101F2000251030939E0320939D0380E180938100D0
:101F30001092800081E080939C0320E43FE1309385
:101F40009B0320939A03309387002093860091E1AE
:101F5000909381002EE438E030930101209300013A
:101F600080936F00C0E0D0E00E9467042097E1F307
:101F70000E940B038823C1F30E940000F5CFFC01EF
:101F800088279927E89421912032E9F3293010F02D
:101F90002E30C8F32B3241F02D3239F4689404C04E
:101FA0000E940910820F911D219120532A30C0F305
:101FB0001EF4909581959F4F089545E456E00E9448
:101FC000E20F0895FA01A191B081009719F41097DA
:101FD000E1F0CD01DC01CD010D90002011F4C00134
:101FE00013C0FB012191222319F02015D9F7F3CF5B
:101FF000FB012191201519F41E92119606C022238F
:10200000C1F70D900020A1F7D001FA01A193B08390
:1020100008957AE0979F902D879F802D910D112430
:10202000089597FB072E16F4009407D077FD09D08A
:102030000E94751007FC05D03EF4909581959F4F46
:102040000895709561957F4F0895052E97FB1EF4B6
:1020500000940E943C1057FD07D00E94891007FC95
:1020600003D04EF40C943C1050954095309521953A
:102070003F4F4F4F5F4F08959095809570956195B4
:102080007F4F8F4F9F4F08950E944C10332312F4BF
:102090008A1B9B0B0C945D10A29FB001B39FC001E3
:1020A000A39F700D811D1124911DB29F700D811D84
:1020B0001124911D08950E944C10B7FF0895821BB2
:1020C000930B08950E944C10A59F900DB49F900D06
:1020D000A49F800D911D11240895B7FF0C946210E8
:1020E0000E946210821B930B0895AA1BBB1B51E137
:1020F00007C0AA1FBB1FA617B70710F0A61BB70B78
:10210000881F991F5A95A9F780959095BC01CD011C
:102110000895A1E21A2EAA1BBB1BFD010DC0AA1F28
:10212000BB1FEE1FFF1FA217B307E407F50720F040
:10213000A21BB30BE40BF50B661F771F881F991FBB
:102140001A9469F760957095809590959B01AC0104
:10215000BD01CF010895EE0FFF1F0590F491E02D12
:102160000994FB01DC018D91019080190110D9F3D4
:10217000990B0895AEE0B0E0E0ECF0E10C94691347
:102180000D891E8986E08C831A8309838FEF9FE770
:102190009E838D83AE01475E5F4F6F89788DCE0140
:1021A00001960E94DD102F813885020F131FF80160
:1021B00010822E96E4E00C948513ABE0B0E0E3EEE1
:1021C000F0E10C945B137C013B018A01FC01178256
:1021D0001682838181FFC8C1CE0101965C01F7019F
:1021E0009381F30193FD859193FF81913F018823B2
:1021F00009F453C1853239F493FD859193FF8191A0
:102200003F01853229F4B70190E00E94CD12E7CF5B
:10221000912C212C312CFFE1F31538F08B3211F188
:1022200090F4803209F1833229F137FC3CC020ED73
:10223000280F2A3050F536FE20C08AE0989E200DE7
:102240001124922E06C08D3291F0803371F768947C
:1022500030F8F30193FD859193FF81913F01811146
:10226000DACF21C0689431F8689432F8F2CF6894DC
:1022700033F8EFCF689434F8ECCFEAE02E9E200DCF
:102280001124222E689435F8E4CF8E3229F436FCDE
:1022900004C1689436F8DDCF8C3619F4689437F8A9
:1022A000D8CF8836B1F2982F9F7D95549330E0F0C7
:1022B0008336A1F18337C1F1833509F063C028016A
:1022C000F2E04F0E511CF801C080D180692D70E002
:1022D00036FC02C06FEF7FEFC6010E94B7124C01BF
:1022E000689437F882010AC00C5F1F4FFFE3F9833F
:1022F00088248394912C6501E89437F833FE2DC02F
:10230000522C8114910471F5552009F468CFB7015E
:1023100080E290E00E94CD125A94F6CFF8018081BD
:1023200089830E5F1F4FE4CF2801F2E04F0E511C4E
:10233000F801C080D180692D70E036FC02C06FEFDB
:102340007FEFC6010E94C2124C018201D5CFB701B6
:1023500080E290E00E94CD122A942814190409F01A
:10236000B0F7CECFF60137FC859137FE81916F0132
:10237000B70190E00E94CD1251105A94F1E08F1AEB
:102380009108BFCF843619F0893609F077C0F8017B
:1023900037FE6BC060817181828193810C5F1F4F1A
:1023A000F32DFF763F2E97FF09C09095809570958D
:1023B00061957F4F8F4F9F4F689437F82AE030E048
:1023C000A5010E94FD12C82ECA188C2C432C36FE83
:1023D0000CC0E89440F8C91440F434FE05C032FC47
:1023E00003C0F32DFE7E4F2E892C44FE95C0FE01C6
:1023F000EC0DF11D8081803309F087C0242D297EEA
:10240000422E842D8870582E43FC95C040FE8FC00C
:102410009C2C821418F42C0C922C981844FE91C019
:10242000B70180E390E00E94CD1242FE09C088E728
:1024300090E041FE02C088E590E0B7010E94CD1215
:10244000C91408F48AC0CA94D12C9FEFC91AD90ABA
:10245000CA0CDB1CF60182916F01B70190E00E946B
:10246000CD12AC14BD04B1F74FCF60817181072E3E
:10247000000C880B990B0E5F1F4F92CFD32CE89462
:10248000D4F82AE030E0853739F1232D297FD22E88
:102490008F3601F148F48835A9F0F70186819781DC
:1024A0002B96E2E10C947713803749F08837A9F72F
:1024B000D4FE02C06894D2F820E130E00DC06894E8
:1024C000D4F8F6CF34FE03C0822F8660D82E20E1E8
:1024D00032E002C028E030E0F801D7FE0FC0608192
:1024E0007181828193810C5F1F4FA5010E94FD12B3
:1024F000C82ECA183D2CE89437F867CF60817181E7
:1025000090E080E00E5F1F4FF0CF42FC02C083944A
:1025100078CF8394839475CF842D867809F471CF16
:10252000F6CFB70180E290E00E94CD12839482142E
:10253000C0F3512C73CF522C5818821408F46ECF6C
:10254000F8CF842D867809F47BCF8BE241FE80E2C0
:1025500047FC8DE2B70190E071CFB70180E390E0D6
:102560000E94CD129A946CCF8FEF9FEF99CFFC0110
:102570000590615070400110D8F7809590958E0FAE
:102580009F1F0895FC016150704001900110D8F721
:10259000809590958E0F9F1F08950F931F93CF9353
:1025A000DF93182F092FEB018B8181FD09C01FEFED
:1025B0000FEF812F902FDF91CF911F910F910895F1
:1025C00082FF14C02E813F818C819D81281739079D
:1025D0003CF4E881F981CF010196998388831083C7
:1025E0008E819F8101969F838E83E3CFE885F98555
:1025F000812F0995892BA1F3DACFFA01AA27283078
:1026000051F1203181F1E8946F936E7F6E5F7F4FBF
:102610008F4F9F4FAF4FB1E03ED0B4E03CD0670F3B
:10262000781F891F9A1FA11D680F791F8A1F911D8E
:10263000A11D6A0F711D811D911DA11D20D009F4DE
:1026400068943F912AE0269F11243019305D319320
:10265000DEF6CF010895462F4770405D4193B3E009
:102660000FD0C9F7F6CF462F4F70405D4A3318F0B0
:10267000495D31FD4052419302D0A9F7EACFB4E061
:10268000A6959795879577956795BA95C9F7009719
:102690006105710508959B01AC010A2E06945795BA
:1026A000479537952795BA95C9F7620F731F841F11
:1026B000951FA01D08952F923F924F925F926F92A7
:1026C0007F928F929F92AF92BF92CF92DF92EF92C2
:1026D000FF920F931F93CF93DF93CDB7DEB7CA1B43
:1026E000DB0B0FB6F894DEBF0FBECDBF09942A886E
:1026F000398848885F846E847D848C849B84AA8416
:10270000B984C884DF80EE80FD800C811B81AA81A2
:10271000B981CE0FD11D0FB6F894DEBF0FBECDBF6D
:10272000ED010895F894FFCFAE033200320032007D
:102730003200010101010000010003000500080052
:10274000330056005F006400D854DB59305E0061EE
:1027500042630A672767DB67616920002000200069
:1027600020002000000000004103A102CE028E03E1
:10277000FF02DD02F1020000000029041E043A04F9
:10278000F40317040404F5030000000040050D0ADB
:1027900000525642005756423A25750052493100C0
:1027A0005749313A256400524932005749323A2597
:1027B0006400524933005749333A25640052493482
:1027C000005749343A256400524954005749543A55
:1027D0002564005256434300575643433A2564004C
:1027E0005243483100574348313A25640052434828
:1027F0003200574348323A25640052434833005769
:102800004348333A25640052434834005743483420
:102810003A2564005743483100574348313A3D2533
:1028200064005743483200574348323A3D2564001C
:102830005743483300574348333A3D2564005743D4
:10284000483400574348343A3D25640057494C31D9
:102850000057494C313A3D25640057494C320057E6
:10286000494C323A3D25640057494C330057494C96
:10287000333A3D25640057494C340057494C343AAB
:102880003D25640057494C540057494C543A3D2566
:1028900064003A0052534F430057534F433A256464
:1028A0000057494549005749454F0052464E00429E
:1028B00061747465727950616E656C2E696E6F001B
:1028C00057464E3A2573005243484100574348410A
:1028D0003A2564005743503100574350313A3D2563
:1028E00064005743503200574350323A3D2564004C
:1028F0005743503300574350333A3D256400574304
:0C290000503400574350343A3D25640029
:107E0000112484B714BE81FFF0D085E080938100F7
:107E100082E08093C00088E18093C10086E0809377
:107E2000C20080E18093C4008EE0C9D0259A86E02C
:107E300020E33CEF91E0309385002093840096BBD3
:107E4000B09BFECF1D9AA8958150A9F7CC24DD24C4
:107E500088248394B5E0AB2EA1E19A2EF3E0BF2EE7
:107E6000A2D0813461F49FD0082FAFD0023811F036
:107E7000013811F484E001C083E08DD089C08234E0
:107E800011F484E103C0853419F485E0A6D080C0E4
:107E9000853579F488D0E82EFF2485D0082F10E0AE
:107EA000102F00270E291F29000F111F8ED06801E7
:107EB0006FC0863521F484E090D080E0DECF843638
:107EC00009F040C070D06FD0082F6DD080E0C81688
:107ED00080E7D80618F4F601B7BEE895C0E0D1E017
:107EE00062D089930C17E1F7F0E0CF16F0E7DF06D8
:107EF00018F0F601B7BEE89568D007B600FCFDCFD4
:107F0000A601A0E0B1E02C9130E011968C91119780
:107F100090E0982F8827822B932B1296FA010C0160
:107F200087BEE89511244E5F5F4FF1E0A038BF0790
:107F300051F7F601A7BEE89507B600FCFDCF97BE46
:107F4000E89526C08437B1F42ED02DD0F82E2BD052
:107F50003CD0F601EF2C8F010F5F1F4F84911BD097
:107F6000EA94F801C1F70894C11CD11CFA94CF0C13
:107F7000D11C0EC0853739F428D08EE10CD085E9AC
:107F80000AD08FE07ACF813511F488E018D01DD067
:107F900080E101D065CF982F8091C00085FFFCCF94
:107FA0009093C60008958091C00087FFFCCF809118
:107FB000C00084FD01C0A8958091C6000895E0E648
:107FC000F0E098E1908380830895EDDF803219F02E
:107FD00088E0F5DFFFCF84E1DECF1F93182FE3DFCA
:107FE0001150E9F7F2DF1F91089580E0E8DFEE27F6
:047FF000FF270994CA
:027FFE00040479
:00000001FF
