:100000000C9462000C948A000C948A000C948A0070
:100010000C948A000C948A000C948A000C948A0038
:100020000C948A000C948A000C948A000C948A0028
:100030000C948A000C94970B0C948A000C948A0000
:100040000C94F50A0C948A000C94650B0C943F0BED
:100050000C948A000C948A000C948A000C948A00F8
:100060000C94BE0B0C948A000000000024002700B2
:100070002A0000000000250028002B0000000000DE
:1000800023002600290004040404040404040202DA
:100090000202020203030303030301020408102007
:1000A0004080010204081020010204081020000012
:1000B0000008000201000003040700000000000027
:1000C0000000DD0C11241FBECFEFD8E0DEBFCDBF96
:1000D00025E0ACE9B2E001C01D92AD3DB207E1F709
:1000E00012E0A0E0B1E0E6E2F5E202C005900D9278
:1000F000AC39B107D9F710E0C2E6D0E004C02197CF
:10010000FE010E94AA0FC136D107C9F70E945B0DFC
:100110000C9491120C9400007F928F929F92AF9258
:10012000BF92CF92DF92EF92FF920F931F93CF93E4
:10013000DF93C4E0D0E0C12CD12C76018EE4782E80
:100140000BE31FE194EB892E9BE2992E91E1A92EFE
:10015000B12C70927C00C8010197F1F780917A0070
:10016000806480937A0080917A0086FDFCCF809134
:10017000780020917900322F282F032E000C440B99
:10018000550BC501B4010E94380F032E000C440B1F
:10019000550BC20ED31EE41EF51E2197D1F6C701E2
:1001A000B60124E030E040E050E00E94380F2635F0
:1001B00083E1380794F03093C0052093BF05DF91A9
:1001C000CF911F910F91FF90EF90DF90CF90BF9054
:1001D000AF909F908F907F90089588E893E19093DF
:1001E000C0058093BF05EBCF6F927F928F929F9255
:1001F000AF92BF92CF92DF92EF92FF920F931F9335
:10020000CF93DF933C01EB012FEF34E082E06816DF
:100210007104B1F04CF42FEB34E0B1E06B167104D3
:1002200079F02FE734E00CC02FE335E0E3E06E1601
:10023000710431F02FE735E0F4E06F16710489F7AF
:100240008301000F111F0B581B4FF801A081B181D2
:10025000AA0FBB1FA20FB31FF301EE0FFF1FEE0F7C
:10026000FF1FEF59FB4FCD90DC9011970D2C000C28
:10027000EE08FF0880809180A280B3808C189D08D2
:10028000AE08BF08CD93DC93D801ED90FC90A70198
:10029000440F551F240F351FD9014D915C91052E38
:1002A000000C660B770BCB01BA01680D791D8A1D16
:1002B0009B1D6083718382839383F301EE0FFF1F85
:1002C000E25FFE4FC080D1809301220F331FE9010E
:1002D000C95ADB4F96010D2C000C440B550B0E94A4
:1002E000380F39832883BFEFEB1AFB0AEC14FD04A7
:1002F00094F4F801F182E082DF91CF911F910F9188
:10030000FF90EF90DF90CF90BF90AF909F908F9035
:100310007F906F900895D8011D921C92EDCF83308D
:1003200081F028F4813099F08230A9F00895873067
:10033000A9F08830C9F08430B1F4809180008F7DBD
:1003400003C0809180008F7780938000089584B5EA
:100350008F7784BD089584B58F7DFBCF8091B000E9
:100360008F778093B00008958091B0008F7DF9CF92
:10037000CF93DF93282F30E0F901E255FF4F8491AE
:10038000F901E656FF4FD491F901EA57FF4FC491A6
:10039000CC23A1F081110E948F01EC2FF0E0EE0F31
:1003A000FF1FE458FF4FA591B491EC91ED2381E03C
:1003B00090E009F480E0DF91CF91089580E090E033
:1003C000FACF1F93CF93DF93282F30E0F901E25546
:1003D000FF4F8491F901E656FF4FD491F901EA5796
:1003E000FF4FC491CC23A9F0162F81110E948F01D9
:1003F000EC2FF0E0EE0FFF1FEE58FF4FA591B491E8
:100400008FB7F894EC91111108C0D095DE23DC93DE
:100410008FBFDF91CF911F910895DE2BF8CFCF933F
:10042000DF9390E0FC01E656FF4F24918A579F4FDF
:10043000FC0184918823D1F090E0880F991FFC0182
:10044000E859FF4FA591B491FC01EE58FF4FC591BB
:10045000D49161110EC09FB7F8948C91E22FE09572
:100460008E238C932881E223E8839FBFDF91CF9175
:1004700008958FB7F894EC91E22BEC938FBFF6CFF1
:10048000FF920F931F93CF93DF93182FF62E042F15
:10049000E90161E00E940F026F2D812F0E94E101AE
:1004A000002399F0C230D10538F0CC0FDD1FCC0FFE
:1004B000DD1F25972197F1F760E0812FDF91CF9124
:1004C0001F910F91FF900C940F02DF91CF911F911C
:1004D0000F91FF9008950895E0913203F091330356
:1004E000309729F010923B0310923A030994089533
:1004F000CF93DF93AC01E0913403F0913503309753
:10050000F1F090913D0380913C039817C0F090E08A
:10051000292F30E02617370754F4D901AE55BD4FC7
:10052000240F351FE90128812C939F5FF1CF109292
:100530003D0360933C03CB01DF91CF910994DF91A0
:10054000CF910895AF92BF92CF92DF92EF92FF9238
:100550000F931F93CF93DF936C017B018B01040FEB
:10056000151FEB015E01AE18BF08C017D10759F087
:100570006991D601ED91FC910190F081E02DC601C9
:100580000995892B79F7C501DF91CF911F910F91C3
:10059000FF90EF90DF90CF90BF90AF900895FC0157
:1005A000538D448D252F30E0842F90E0821B930BD8
:1005B000541710F0CF96089501970895FC01918D7E
:1005C000828D981761F0A28DAE0FBF2FB11D5D9681
:1005D0008C91928D9F5F9F73928F90E008958FEF23
:1005E0009FEF0895FC01918D828D981731F0828DD7
:1005F000E80FF11D858D90E008958FEF9FEF08952E
:10060000FC01918D228D892F90E0805C9F4F821B91
:1006100091098F739927089582E593E00E94000362
:1006200021E0892B09F420E0822F089580E090E0FA
:10063000892B29F00E940C0381110C94000008956D
:10064000FC01A48DA80FB92FB11DA35ABF4F2C9147
:10065000848D90E001968F739927848FA689B7893E
:100660002C93A089B1898C91837080648C93938D35
:10067000848D981306C00288F389E02D80818F7DD8
:1006800080830895EF92FF920F931F93CF93DF9390
:10069000EC0181E0888F9B8D8C8D98131AC0E889BE
:1006A000F989808185FF15C09FB7F894EE89FF898D
:1006B0006083E889F98980818370806480839FBF2B
:1006C00081E090E0DF91CF911F910F91FF90EF902B
:1006D0000895F62E0B8D10E00F5F1F4F0F7311273B
:1006E000E02E8C8D8E110CC00FB607FCFACFE88976
:1006F000F989808185FFF5CFCE010E942003F1CFDB
:10070000EB8DEC0FFD2FF11DE35AFF4FF0829FB7E9
:10071000F8940B8FEA89FB8980818062CFCFCF93D9
:10072000DF93EC01888D8823B9F0AA89BB89E88919
:10073000F9898C9185FD03C0808186FD0DC00FB6BF
:1007400007FCF7CF8C9185FFF2CF808185FFEDCF3D
:10075000CE010E942003E9CFDF91CF91089520912F
:10076000E802260F3327331F21323105ECF42091A4
:100770000C03FC0190E080E0243069F082E00895F1
:10078000A091E8022191AC0148535D4FA40FB52F11
:10079000B11D2C930196861798F38091E802680F9B
:1007A0006093E80280E0089581E0089510920C03C0
:1007B00081E080930E0310920D0361E082E10E94BC
:1007C000E10161E083E10E94E101E9EBF0E0808179
:1007D0008E7F808380818D7F808388E48093B800C2
:1007E00085E48093BC0008950895E0913D038091D5
:1007F0003C03E81730F4F0E0EE55FD4F808190E0C7
:1008000008958FEF9FEF089590913D0380913C03F1
:100810002FEF3FEF981748F4E92FF0E0EE55FD4F2A
:10082000208130E09F5F90933D03C901089580913E
:100830003C0390913D03891B990B0895CF93DF935F
:10084000CB01EA01642F0E94AF03CE01DF91CF916B
:100850000895CF93DF931F92CDB7DEB7698361E030
:10086000CE0101960E94AF0381E090E00F90DF91EE
:10087000CF91089590E080E008950895FC01EA5238
:10088000FE4F2081318185529E4FFC01408187E0DF
:1008900090E00C944002FC01EC52FE4F208131812B
:1008A00086529E4FFC01408183E090E00C94400210
:1008B000FC01EE52FE4F2081318187529E4FFC0198
:1008C000408188E090E00C944002FC01E053FE4F30
:1008D0002081318188529E4FFC01408189E090E067
:1008E0000C94400220917A0090917A00987F946055
:1008F00090937A008E50806480937C0080917A007F
:10090000806480937A0080917A0086FDFCCF80918C
:1009100078009091790020937A00089581E10E94F7
:100920007204BC0190E080E00E94F40080E10E942B
:100930007204BC01725081E090E00E94F4008FE0EC
:100940000E947204BC01725082E090E00E94F400A8
:100950008EE00E947204BC01725083E090E00E941D
:10096000F40085E10E947204BC01725084E090E0C2
:100970000C94F400FB0101900020E9F73197AF01DE
:10098000461B570BDC01ED91FC910280F381E02DB9
:10099000099467E474E08FEE93E00E94BA04109229
:1009A00047040895CF93DF93D0E0C0E0009731F083
:1009B000BC0182E593E00E94BA04EC0162E471E0BC
:1009C00082E593E00E94BA048C0F9D1FDF91CF91C6
:1009D0000895CF93DF936115710531F06130710592
:1009E00049F0DF91CF910895EC01CC960E94D2049A
:1009F0001CAEF7CF845B9F4FDF91CF910C94D20454
:100A0000CF93DF9385ED8093BC008091C4029091D9
:100A1000C502A091C602B091C7020796A11DB11DE3
:100A200023E0B695A795979587952A95D1F72091BC
:100A3000BC0024FD03C010920C0336C04091C402D8
:100A40005091C5026091C6027091C702452B462B9A
:100A5000472B69F30097A105B10541F02AE22A95D9
:100A6000F1F700C00197A109B109E1CF8091C3025C
:100A700091E09093C2028823B9F0C091B800D09160
:100A8000BA008091BC008A7B8093BC0060E082E168
:100A90000E94E10160E083E10E94E1010E94D6032F
:100AA000D093BA00C093B800DF91CF9108954F92D0
:100AB0005F926F927F928F929F92AF92BF92CF92EE
:100AC000DF92EF92FF920F931F93CF93DF93EC018E
:100AD0007B016A01890165E471E0C7010E94B00FE2
:100AE000892B09F045C0DE01A45ABF4FFE01EC532B
:100AF000FE4F2D913C91A081B1810E94570F9B0127
:100B0000AC01ADE0B0E00E94750F20E034E040E0C1
:100B100050E00E94380F3F932F9389E491E09F9318
:100B20008F93C80124E0880F991F2A95E1F7CC968E
:100B30008C0F9D1F9F938F930E94B90F0F900F9062
:100B40000F900F900F900F90B801CE01DF91CF91D1
:100B50001F910F91FF90EF90DF90CF90BF90AF90DB
:100B60009F908F907F906F905F904F900C94E904CE
:100B700060E571E0C7010E94B00F892BE9F4DE0146
:100B8000A25ABF4FFE01EC53FE4F2D913C91A08124
:100B9000B1810E94570F9B01AC01A3E0B0E00E941D
:100BA000750F20E034E040E050E00E94380F3F93A2
:100BB0002F9384E591E0B3CF6BE571E0C7010E940C
:100BC000B00F892BE9F4DE01A05ABF4FFE01EC53B0
:100BD000FE4F2D913C91A081B1810E94570F9B0146
:100BE000AC01A3E0B0E00E94750F20E034E040E0EB
:100BF00050E00E94380F3F932F938FE591E08FCF05
:100C000066E671E0C7010E94B00F892BE9F4DE01AE
:100C1000AE59BF4FFE01EC53FE4F2D913C91A08188
:100C2000B1810E94570F9B01AC01A3E0B0E00E948C
:100C3000750F20E034E040E050E00E94380F3F9311
:100C40002F938AE691E06BCF61E771E0C7010E94C4
:100C5000B00F892BE9F4DE01AC59BF4FFE01EC5314
:100C6000FE4F2D913C91A081B1810E94570F9B01B5
:100C7000AC01A3E0B0E00E94750F20E034E040E05A
:100C800050E00E94380F3F932F9385E791E047CFC4
:100C90006CE771E0C7010E94B00F892B09F05EC0BC
:100CA000FE01EC53FE4FC080D180E456F140A0819C
:100CB000B18196010E94570F9B01AC01A3E0B0E007
:100CC0000E94750F812CA4E09A2EA12CB12CA501B5
:100CD00094010E94380F2901FE01E25AFF4FA081C2
:100CE000B18196010E94570F9B01AC01A3E0B0E0D7
:100CF0000E94750FA50194010E94380F7201E20E47
:100D0000F31EFE01EE59FF4FA081B18196010E94B2
:100D1000570F9B01AC01A3E0B0E00E94750FA50145
:100D200094010E94380FE20EF31EFE01EC59FF4FB2
:100D3000A081B18196010E94570F9B01AC01A3E0F5
:100D4000B0E00E94750FA50194010E94380F2E0D8E
:100D50003F1D3F932F9380E891E0E1CE67E871E07B
:100D6000C7010E94B00F892B51F4FE01EC53FE4FD6
:100D700081818F9380818F938CE891E0D0CE64E95C
:100D800071E0C7010E94B00F892B41F489E00E94F5
:100D9000B8019F938F9389E991E0C1CE61EA71E038
:100DA000C7010E94B00F892B41F488E00E94B8016E
:100DB0009F938F9386EA91E0B2CE6EEA71E0C7010D
:100DC0000E94B00F892B41F483E00E94B8019F93E9
:100DD0008F9383EB91E0A3CE6BEB71E0C7010E9490
:100DE000B00F892B41F487E00E94B8019F938F9345
:100DF00080EC91E094CE68EC71E0C7010E94B00FE6
:100E0000892B79F4C6010E94E60EBC01CE010E9436
:100E1000650489E00E94B8019F938F938DEC91E067
:100E20007ECE66ED71E0C7010E94B00F892B79F488
:100E3000C6010E94E60EBC01CE010E94580488E063
:100E40000E94B8019F938F938BED91E068CE64EE82
:100E500071E0C7010E94B00F892B79F4C6010E948E
:100E6000E60EBC01CE010E944B0483E00E94B80153
:100E70009F938F9389EE91E052CE62EF71E0C701AC
:100E80000E94B00F892B79F4C6010E94E60EBC01C6
:100E9000CE010E943E0487E00E94B8019F938F9389
:100EA00087EF91E03CCE60E072E0C7010E94B00F96
:100EB000892B19F5C6010E94E60E7C016E018AE3BA
:100EC000C81A8EEFD80AB7010F2C000C880B990BAB
:100ED000F7E0660F771F881F991FFA95D1F723E572
:100EE00037E040E050E00E94380FD6012D933C934C
:100EF000FF92EF9285E092E012CE6EE072E0C701C1
:100F00000E94B00F892B11F5C6010E94E60E7C01EC
:100F10006E01B8E3CB1ABEEFDB0ABC01990F880B58
:100F2000990BE7E0660F771F881F991FEA95D1F7A5
:100F300023E537E040E050E00E94380FF6013183AE
:100F40002083FF92EF9283E192E0E9CD6CE172E0C1
:100F5000C7010E94B00F892B11F5C6010E94E60E51
:100F60007C016E01F6E3CF1AFEEFDF0ABC01990F98
:100F7000880B990B57E0660F771F881F991F5A95AA
:100F8000D1F723E537E040E050E00E94380FD6016A
:100F90002D933C93FF92EF9281E292E0C0CD6AE202
:100FA00072E0C7010E94B00F892B11F5C6010E94A3
:100FB000E60E7C016E01B4E3CB1ABEEFDB0ABC0186
:100FC000990F880B990B47E0660F771F881F991FB1
:100FD0004A95D1F723E537E040E050E00E94380F12
:100FE000F60131832083FF92EF928FE292E097CD5A
:100FF00068E372E0C7010E94B00F892BB9F04E017F
:10100000F2E08F0E911CB12CA12C8E899F89A8161D
:10101000B9067CF5D401ED91FD914D01A801B60111
:10102000C7010995BFEFAB1ABB0AEFCFC6010E94FB
:10103000E60E7C016E0182E3C81A8EEFD80AB70172
:101040000F2C000C880B990B37E0660F771F881F59
:10105000991F3A95D1F723E537E040E050E00E9430
:10106000380FD6012D933C93FF92EF928DE392E0DF
:1010700056CDDF91CF911F910F91FF90EF90DF90B0
:10108000CF90BF90AF909F908F907F906F905F9028
:101090004F9008950F931F93CF93DF938B0166E4D6
:1010A00072E00E94040FEC0163E471E090E080E0E4
:1010B0000E94040F9801AC01BE018BEF93E0DF9119
:1010C000CF911F910F910C9457050F931F9382E5B9
:1010D00093E00E940003892B31F182E593E00E94A6
:1010E000DE022091230430912404F901E550FC4FE5
:1010F000808F2F5F3F4F30932404209323048A3046
:1011000019F02F30310519F725503C4FF901108E99
:10111000109224041092230470E060E083E194E0D4
:101120000E944A08D4CF0E948E0420915904309125
:101130005A048091C1059091C2058217930734F437
:1011400070E060E08BEF93E00E94650420915B0407
:1011500030915C048091C3059091C4058217930778
:1011600034F470E060E08BEF93E00E94580420912B
:101170005D0430915E048091C5059091C60582178B
:10118000930734F470E060E08BEF93E00E944B042F
:1011900020915F04309160048091C7059091C8054B
:1011A0008217930734F470E060E08BEF93E00E94C5
:1011B0003E048091590490915A0420915B0430912F
:1011C0005C04820F931F20915D0430915E04820FB6
:1011D000931F20915F0430916004820F931F209130
:1011E000C9053091CA0528173907C4F470E060E0DA
:1011F0008BEF93E00E94650470E060E08BEF93E07A
:101200000E94580470E060E08BEF93E00E944B0472
:1012100070E060E08BEF93E00E943E040091570481
:1012200010915804809145039091460308171907BF
:1012300078F1A0915904B0915A0480915B04909187
:101240005C04A80FB91F80915D0490915E04A80F03
:10125000B91F80915F0490916004A80FB91F20917D
:10126000D7053091D8054091D9055091DA050E94F3
:10127000800F20E034E040E050E00E94380F809181
:10128000470390914803821B930B08171907D0F569
:1012900089E00E94B801892B09F450C061E089E01F
:1012A0000E940F0261E088E00E940F0261E083E08B
:1012B0000E940F0261E087E00E940F0260E089E077
:1012C0000E94E10160E088E00E94E10160E083E0CB
:1012D0000E94E10160E087E00E94E1018BE39CE96C
:1012E0000197F1F760E089E00E940F0260E088E07A
:1012F0000E940F0260E083E00E940F0260E087E03E
:101300000E940F0280919E0290919F02A091A002E4
:10131000B091A1020196A11DB11D893EF3E09F0786
:10132000A105B105F4F480939E0290939F02A093CF
:10133000A002B093A1021F910F91089588E00E942E
:10134000B801892B09F0AACF83E00E94B801892B4C
:1013500009F0A4CF87E00E94B801892B09F09ECF45
:10136000D1CF10929E0210929F021092A002109272
:10137000A1020E948C00A0919C02B0919D0227E0E6
:1013800030E00E946E0F00915F0410916004012E06
:10139000000C220B330B600F711F821F931F28E07C
:1013A00030E040E050E00E94380F30939D022093DF
:1013B0009C028091410390914203821793070CF0A5
:1013C000BACF70E060E08BEF93E01F910F910C9427
:1013D0003E040F931F93CF93DF938C01CBEFD3E0A9
:1013E000CE018B5F93408017910744F48FEE93E01A
:1013F0000E9404048AA71BA62196F2CFEBEFF3E02C
:10140000CF018B5F93408017910724F483A582A7B7
:101410003196F6CF61E070E085E294E0DF91CF9104
:101420001F910F910C944A08CF92DF92EF92FF9296
:101430000F931F93CF93DF937C01EB018A0168E444
:1014400072E00E94B00F892B39F58CE492E09F93F3
:101450008F938DE592E09F938F93C80124E0880FCE
:10146000991F2A95E1F7895C9B4F9F938F930E9468
:10147000B90F0F900F900F900F900F900F90B80131
:101480008BEF93E0DF91CF911F910F91FF90EF9041
:10149000DF90CF900C94E904CE010E94E60EEC019F
:1014A000C0905704D090580464E672E0C7010E94CF
:1014B000B00F892B09F5C130D10589F489E00E946C
:1014C000B801892B61F491E080E0209143033091D1
:1014D0004403C216D30608F490E0C92FD82FBE01EA
:1014E0008BEF93E00E94650489E00E94B8019F930E
:1014F0008F9389E692E0AFCF62E772E0C7010E9466
:10150000B00F892B09F5C130D10589F488E00E941C
:10151000B801892B61F491E080E020914303309180
:101520004403C216D30608F490E0C92FD82FBE0199
:101530008BEF93E00E94580488E00E94B8019F93CB
:101540008F9387E792E087CF60E872E0C7010E943F
:10155000B00F892B09F5C130D10589F483E00E94D1
:10156000B801892B61F491E080E020914303309130
:101570004403C216D30608F490E0C92FD82FBE0149
:101580008BEF93E00E944B0483E00E94B8019F938D
:101590008F9385E892E05FCF6EE872E0C7010E940A
:1015A000B00F892B09F06BCFC130D10589F487E0EA
:1015B0000E94B801892B61F491E080E020914303FF
:1015C00030914403C216D30608F490E0C92FD82FF7
:1015D000BE018BEF93E00E943E0487E00E94B801B9
:1015E0009F938F9383E992E036CF1F920F920FB6AD
:1015F0000F9211242F933F938F939F93AF93BF9399
:1016000080914E0390914F03A0915003B0915103EC
:1016100030914D0323E0230F2D3758F50196A11D7E
:10162000B11D20934D0380934E0390934F03A093DD
:101630005003B09351038091490390914A03A091C4
:101640004B03B0914C030196A11DB11D809349033A
:1016500090934A03A0934B03B0934C03BF91AF9177
:101660009F918F913F912F910F900FBE0F901F90E0
:10167000189526E8230F0296A11DB11DD2CF1F9207
:101680000F920FB60F9211242F933F934F935F93B6
:101690006F937F938F939F93AF93BF93EF93FF933A
:1016A00082E593E00E942003FF91EF91BF91AF91FB
:1016B0009F918F917F916F915F914F913F912F916A
:1016C0000F900FBE0F901F9018951F920F920FB69C
:1016D0000F9211242F938F939F93EF93FF93E09199
:1016E0006203F09163038081E0916803F0916903E4
:1016F00082FD1BC0908180916B038F5F8F7320915F
:101700006C03821741F0E0916B03F0E0EE5AFC4F5E
:10171000958F80936B03FF91EF919F918F912F9104
:101720000F900FBE0F901F9018958081F4CF1F92DD
:101730000F920FB60F9211242F933F934F935F9305
:101740006F937F938F939F93AF93BF93EF93FF9389
:10175000E0910001F09101010995FF91EF91BF9196
:10176000AF919F918F917F916F915F914F913F9139
:101770002F910F900FBE0F901F9018951F920F92F0
:101780000FB60F9211242F933F934F935F936F9354
:101790007F938F939F93AF93BF93EF93FF9380912A
:1017A000B900887F803609F44AC0F0F5883209F420
:1017B000A7C018F5803109F49BC0B8F4882309F458
:1017C000F9C0883009F494C0FF91EF91BF91AF91B7
:1017D0009F918F917F916F915F914F913F912F9149
:1017E0000F900FBE0F901F901895883109F488C094
:1017F000803251F780930B0314C0803409F49DC0EC
:1018000040F48033B9F38833F9F680930B0385EC09
:10181000B0C0803509F485C0883509F496C0883495
:1018200099F60E940005D0CF883909F48CC038F5AC
:10183000883729F050F4883611F0803729F683E094
:1018400080930C0310920A0357C0883809F47BC0B8
:10185000803919F0803809F0B7CF80910A038032BF
:1018600008F071C0E0910A0381E08E0F80930A03B3
:101870008091BB00F0E0E651FD4F80833DC0803B8E
:1018800039F0E0F4803A09F479C0883A09F09CCF45
:1018900084E080930C031092E9021092E802E09138
:1018A0003803F091390309958091E80281110FC046
:1018B00081E08093E8021092C80209C0803C09F4DC
:1018C000A6CF883C09F4A3CF883B09F07DCFE091F7
:1018D000E90281E08E0F8093E902F0E0E853FD4FCA
:1018E00080818093BB009091E9028091E80229C039
:1018F000809131038093BB0085EC8093BC0064CF62
:101900009091300380912F03981758F5E0913003A0
:1019100081E08E0F80933003F0E0E15FFC4F808127
:10192000E9CFE091300381E08E0F80933003809106
:10193000BB00F0E0E15FFC4F808390913003809129
:101940002F039817C8F285E8D8CFE091300381E0E3
:101950008E0F809330038091BB00F0E0E15FFC4F7D
:10196000808380910E0381115CCF81E080930D0311
:1019700084EA8093BC0010920C0326CF85EC809300
:10198000BC0010920C0380910A03803230F4E09185
:101990000A03F0E0E651FD4F108260910A0370E007
:1019A000E0913603F09137038AEE92E009951092A8
:1019B0000A030ACF10920B0334CFE2E5F3E013825F
:1019C000128288EE93E0A0E0B0E084839583A68342
:1019D000B7832CE131E03183208325EC30E035877B
:1019E000248724EC30E03787268720EC30E0318BE9
:1019F000208B21EC30E0338B228B22EC30E0358BD6
:101A0000248B26EC30E0378B268B118E128E138EB2
:101A1000148EEFEEF3E01382128284839583A68303
:101A2000B7838EE291E091838083EBEFF3E0178A36
:101A3000168A11A610A613AE12AE80E491E091832F
:101A400080838CEB91E09093C2058093C1059093C5
:101A5000C4058093C3059093C6058093C5059093F4
:101A6000C8058093C70580EF96E09093CA058093E0
:101A7000C90588E0E2E0F1E0ABECB5E001900D9241
:101A80008A95E1F780910A0190910B01A0910C01D8
:101A9000B0910D018093D3059093D405A093D50503
:101AA000B093D6051092D7051092D8051092D9059B
:101AB0001092DA050895789484B5826084BD84B567
:101AC000816084BD85B5826085BD85B5816085BD39
:101AD00080916E00816080936E00109281008091F1
:101AE0008100826080938100809181008160809379
:101AF0008100809180008160809380008091B1009E
:101B000084608093B1008091B00081608093B000C8
:101B100080917A00846080937A0080917A0082605C
:101B200080937A0080917A00816080937A0080911E
:101B30007A00806880937A001092C10061E082E0B0
:101B40000E940F0261E084E00E940F0260E089E0E1
:101B50000E940F0260E088E00E940F0260E083E0D4
:101B60000E940F0260E087E00E940F0260E081E1C6
:101B70000E940F0260E080E10E940F0260E08FE0AF
:101B80000E940F0260E08EE00E940F0260E085E19B
:101B90000E940F020E948C00C0E2D0E00E948E04DE
:101BA0002197E1F789E991E09093C2058093C105FF
:101BB0009093C4058093C3059093C6058093C50593
:101BC0008AEA92E09093C8058093C70580E094E08C
:101BD0009093CA058093C9058091110490911204D5
:101BE0008A30910574F40196FC01EE0FFF1FE55059
:101BF000FC4F24E13AE031832083909312048093D8
:101C00001104E0916203F091630382E08083E0912C
:101C10005E03F0915F031082E0916003F091610335
:101C200083E3808310926A03E0916603F091670377
:101C300086E08083E0916403F09165038081806198
:101C40008083E0916403F0916503808188608083E4
:101C5000E0916403F0916503808180688083E09166
:101C60006403F091650380818F7D808310923D0332
:101C700010923C0310923B0310923A030E94D60349
:101C80008CE692E0909339038093380388E792E0E2
:101C90009093370380933603C0E1C093BA0089EE76
:101CA00099E0909335038093340389EC94E090930A
:101CB000330380933203C090BF05D090C0050D2C34
:101CC000000CEE08FF0860E573E787E390E0A701EA
:101CD00096010E94380F309348032093470360E237
:101CE0007AE085E390E0A70196010E94380F3093D7
:101CF00046032093450360E87CED89E390E0A7016B
:101D000096010E94380F30934403209343038EE5DD
:101D100090E0A0E0B0E08093D7059093D805A09321
:101D2000D905B093DA0588EC90E09093CC058093C8
:101D3000CB059093D2058093D10588EE93E09093E4
:101D4000CE058093CD059093D0058093CF0510925A
:101D5000D60561E087E00E940F022091BF05309117
:101D6000C005032E000C440B550B68E274E08AE1B9
:101D700090E00E94380F3093420320934103C093B8
:101D800081001092800081E08093400320E43FE1D5
:101D900030933F0320933E033093870020938600C7
:101DA00091E19093810025E638E030930101209382
:101DB000000180936F00C0E0D0E02097F1F30E9413
:101DC0000C038823D1F30E940000F7CFFC01882781
:101DD0009927E89421912032E9F3293010F02E3030
:101DE000C8F32B3241F02D3239F4689404C00E94BC
:101DF000300F820F911D219120532A30C0F31EF421
:101E0000909581959F4F08954BED55E00E94090FE5
:101E10000895FA01A191B081009719F41097E1F0AB
:101E2000CD01DC01CD010D90002011F4C00113C0E3
:101E3000FB012191222319F02015D9F7F3CFFB01E3
:101E40002191201519F41E92119606C02223C1F784
:101E50000D900020A1F7D001FA01A193B08308955D
:101E60007AE0979F902D879F802D910D11240895E2
:101E7000052E97FB1EF400940E944F0F57FD07D0CC
:101E80000E94880F07FC03D04EF40C944F0F50951E
:101E90004095309521953F4F4F4F5F4F0895909556
:101EA0008095709561957F4F8F4F9F4F08950E9449
:101EB0005F0F332312F48A1B9B0B0C94700FA29FAD
:101EC000B001B39FC001A39F700D811D1124911D0E
:101ED000B29F700D811D1124911D08950E945F0F06
:101EE000B7FF0895821B930B08950E945F0FA59F73
:101EF000900DB49F900DA49F800D911D1124089505
:101F0000B7FF0C94750F0E94750F821B930B0895F9
:101F1000A1E21A2EAA1BBB1BFD010DC0AA1FBB1FED
:101F2000EE1FFF1FA217B307E407F50720F0A21B5F
:101F3000B30BE40BF50B661F771F881F991F1A94CC
:101F400069F760957095809590959B01AC01BD01F6
:101F5000CF010895EE0FFF1F0590F491E02D099435
:101F6000FB01DC018D91019080190110D9F3990BCF
:101F70000895AEE0B0E0EFEBFFE00C9468120D893D
:101F80001E8986E08C831A8309838FEF9FE79E83E7
:101F90008D83AE01475E5F4F6F89788DCE010196CC
:101FA0000E94DC0F2F813885020F131FF801108269
:101FB0002E96E4E00C948412ABE0B0E0E2EEFFE099
:101FC0000C945A127C013B018A01FC011782168293
:101FD000838181FFC8C1CE0101965C01F701938125
:101FE000F30193FD859193FF81913F01882309F4CB
:101FF00053C1853239F493FD859193FF81913F015F
:10200000853229F4B70190E00E94CC11E7CF912CE2
:10201000212C312CFFE1F31538F08B3211F190F4C3
:10202000803209F1833229F137FC3CC020ED280FC2
:102030002A3050F536FE20C08AE0989E200D1124EB
:10204000922E06C08D3291F0803371F7689430F88B
:10205000F30193FD859193FF81913F018111DACFC7
:1020600021C0689431F8689432F8F2CF689433F85C
:10207000EFCF689434F8ECCFEAE02E9E200D1124C7
:10208000222E689435F8E4CF8E3229F436FC04C150
:10209000689436F8DDCF8C3619F4689437F8D8CFC9
:1020A0008836B1F2982F9F7D95549330E0F08336B7
:1020B000A1F18337C1F1833509F063C02801F2E053
:1020C0004F0E511CF801C080D180692D70E036FCA4
:1020D00002C06FEF7FEFC6010E94B6114C016894F9
:1020E00037F882010AC00C5F1F4FFFE3F983882491
:1020F0008394912C6501E89437F833FE2DC0522C5F
:102100008114910471F5552009F468CFB70180E27C
:1021100090E00E94CC115A94F6CFF8018081898317
:102120000E5F1F4FE4CF2801F2E04F0E511CF80163
:10213000C080D180692D70E036FC02C06FEF7FEF68
:10214000C6010E94C1114C018201D5CFB70180E2C6
:1021500090E00E94CC112A942814190409F0B0F7D9
:10216000CECFF60137FC859137FE81916F01B70123
:1021700090E00E94CC1151105A94F1E08F1A91080E
:10218000BFCF843619F0893609F077C0F80137FEE1
:102190006BC060817181828193810C5F1F4FF32D31
:1021A000FF763F2E97FF09C09095809570956195B9
:1021B0007F4F8F4F9F4F689437F82AE030E0A5019A
:1021C0000E94FC11C82ECA188C2C432C36FE0CC061
:1021D000E89440F8C91440F434FE05C032FC03C052
:1021E000F32DFE7E4F2E892C44FE95C0FE01EC0D92
:1021F000F11D8081803309F087C0242D297E422E75
:10220000842D8870582E43FC95C040FE8FC09C2CB6
:10221000821418F42C0C922C981844FE91C0B7012B
:1022200080E390E00E94CC1142FE09C088E790E074
:1022300041FE02C088E590E0B7010E94CC11C914AC
:1022400008F48AC0CA94D12C9FEFC91AD90ACA0CC3
:10225000DB1CF60182916F01B70190E00E94CC1166
:10226000AC14BD04B1F74FCF60817181072E000C13
:10227000880B990B0E5F1F4F92CFD32CE894D4F8A4
:102280002AE030E0853739F1232D297FD22E8F3691
:1022900001F148F48835A9F0F701868197812B96E2
:1022A000E2E10C947612803749F08837A9F7D4FE22
:1022B00002C06894D2F820E130E00DC06894D4F8F0
:1022C000F6CF34FE03C0822F8660D82E20E132E0A4
:1022D00002C028E030E0F801D7FE0FC060817181B4
:1022E000828193810C5F1F4FA5010E94FC11C82EB3
:1022F000CA183D2CE89437F867CF6081718190E06F
:1023000080E00E5F1F4FF0CF42FC02C0839478CF75
:102310008394839475CF842D867809F471CFF6CF9A
:10232000B70180E290E00E94CC1183948214C0F344
:10233000512C73CF522C5818821408F46ECFF8CF5A
:10234000842D867809F47BCF8BE241FE80E247FC46
:102350008DE2B70190E071CFB70180E390E00E9479
:10236000CC119A946CCF8FEF9FEF99CFFC01059021
:10237000615070400110D8F7809590958E0F9F1F87
:102380000895FC016150704001900110D8F78095CC
:1023900090958E0F9F1F08950F931F93CF93DF93F8
:1023A000182F092FEB018B8181FD09C01FEF0FEF63
:1023B000812F902FDF91CF911F910F91089582FF70
:1023C00014C02E813F818C819D81281739073CF4F0
:1023D000E881F981CF0101969983888310838E81EA
:1023E0009F8101969F838E83E3CFE885F985812FB6
:1023F0000995892BA1F3DACFFA01AA27283051F1E8
:10240000203181F1E8946F936E7F6E5F7F4F8F4F25
:102410009F4FAF4FB1E03ED0B4E03CD0670F781F84
:10242000891F9A1FA11D680F791F8A1F911DA11D69
:102430006A0F711D811D911DA11D20D009F46894A2
:102440003F912AE0269F11243019305D3193DEF64A
:10245000CF010895462F4770405D4193B3E00FD000
:10246000C9F7F6CF462F4F70405D4A3318F0495DEB
:1024700031FD4052419302D0A9F7EACFB4E0A695CE
:102480009795879577956795BA95C9F700976105F0
:10249000710508959B01AC010A2E06945795479546
:1024A00037952795BA95C9F7620F731F841F951F3B
:1024B000A01D08952F923F924F925F926F927F924C
:1024C0008F929F92AF92BF92CF92DF92EF92FF9244
:1024D0000F931F93CF93DF93CDB7DEB7CA1BDB0BF0
:1024E0000FB6F894DEBF0FBECDBF09942A88398895
:1024F00048885F846E847D848C849B84AA84B9849C
:10250000C884DF80EE80FD800C811B81AA81B981A7
:10251000CE0FD11D0FB6F894DEBF0FBECDBFED01BB
:062520000895F894FFCFBE
:102526006B0232003200320032000101010120004C
:102536002000200020002000000000004203A2022C
:10254600CF028F030003DE02F2020000000029041E
:102556001E043A04F40317040404F5030000000003
:1025660057050D0A00525642005756423A25750045
:10257600524931005749313A2564005249320057D1
:1025860049323A256400524933005749333A2564A3
:1025960000524934005749343A25640052495400E0
:1025A6005749543A2564005256434300575643430D
:1025B6003A2564005243483100574348313A25646E
:1025C600005243483200574348323A25640052438A
:1025D600483300574348333A256400524348340091
:1025E600574348343A256400574348310057434817
:1025F600313A3D2564005743483200574348323A42
:102606003D2564005743483300574348333A3D2538
:1026160064005743483400574348343A3D25640024
:1026260057494C310057494C313A3D2564005749CA
:102636004C320057494C323A3D25640057494C33D9
:102646000057494C333A3D25640057494C340057EE
:10265600494C343A3D25640057494C540057494C7F
:10266600543A3D2564003A0052464E004261747465
:1026760065727950616E656C2E696E6F0057464EB5
:102686003A2573005743503100574350313A3D25A0
:1026960064005743503200574350323A3D25640098
:1026A6005743503300574350333A3D256400574350
:0C26B600503400574350343A3D25640076
:00000001FF
