:100000000C9462000C948A000C948A000C948A0070
:100010000C948A000C948A000C948A000C948A0038
:100020000C948A000C948A000C948A000C948A0028
:100030000C948A000C94AB0A0C948A000C948A00ED
:100040000C94090A0C948A000C94790A0C94530AB3
:100050000C948A000C948A000C948A000C948A00F8
:100060000C94D20A0C948A0000000000240027009F
:100070002A0000000000250028002B0000000000DE
:1000800023002600290004040404040404040202DA
:100090000202020203030303030301020408102007
:1000A0004080010204081020010204081020000012
:1000B0000008000201000003040700000000000027
:1000C0000000F10B11241FBECFEFD8E0DEBFCDBF83
:1000D00024E0A8E5B2E001C01D92A13DB207E1F71E
:1000E00012E0A0E0B1E0ECECF2E202C005900D926B
:1000F000A835B107D9F710E0C2E6D0E004C02197D7
:10010000FE010E947D0EC136D107C9F70E945C0C2A
:100110000C9464110C9400007F928F929F92AF9286
:10012000BF92CF92DF92EF92FF920F931F93CF93E4
:10013000DF93C4E0D0E0C12CD12C76018EE4782E80
:100140000BE31FE194EB892E9BE2992E91E1A92EFE
:10015000B12C70927C00C8010197F1F780917A0070
:10016000806480937A0080917A0086FDFCCF809134
:10017000780020917900322F282F032E000C440B99
:10018000550BC501B4010E940B0E032E000C440B4D
:10019000550BC20ED31EE41EF51E2197D1F6C701E2
:1001A000B60124E030E040E050E00E940B0E26351E
:1001B00083E1380794F03093BE042093BD04DF91AF
:1001C000CF911F910F91FF90EF90DF90CF90BF9054
:1001D000AF909F908F907F90089588E893E19093DF
:1001E000BE048093BD04EBCF6F927F928F929F925B
:1001F000AF92BF92CF92DF92EF92FF920F931F9335
:10020000CF93DF933C01EB012DE534E082E06816EB
:100210007104B1F04CF42DE334E0B1E06B167104DD
:1002200079F025E334E00CC02DE734E0E3E06E160E
:10023000710431F02DE934E0F4E06F16710489F7B0
:100240008301000F111F055D1B4FF801A081B181D3
:10025000AA0FBB1FA20FB31FF301EE0FFF1FEE0F7C
:10026000FF1FE95EFB4FCD90DC9011970D2C000C29
:10027000EE08FF0880809180A280B3808C189D08D2
:10028000AE08BF08CD93DC93D801ED90FC90A70198
:10029000440F551F240F351FD9014D915C91052E38
:1002A000000C660B770BCB01BA01680D791D8A1D16
:1002B0009B1D6083718382839383F301EE0FFF1F85
:1002C000EE5FFE4FC080D1809301220F331FE90102
:1002D000C35FDB4F96010D2C000C440B550B0E94A5
:1002E0000B0E39832883BFEFEB1AFB0AEC14FD04D5
:1002F00094F4F801F182E082DF91CF911F910F9188
:10030000FF90EF90DF90CF90BF90AF909F908F9035
:100310007F906F900895D8011D921C92EDCF83308D
:1003200081F028F4813099F08230A9F00895873067
:10033000A9F08830C9F08430B1F4809180008F7DBD
:1003400003C0809180008F7780938000089584B5EA
:100350008F7784BD089584B58F7DFBCF8091B000E9
:100360008F778093B00008958091B0008F7DF9CF92
:10037000CF93DF93282F30E0F901E255FF4F8491AE
:10038000F901E656FF4FD491F901EA57FF4FC491A6
:10039000CC23A1F081110E948F01EC2FF0E0EE0F31
:1003A000FF1FE458FF4FA591B491EC91ED2381E03C
:1003B00090E009F480E0DF91CF91089580E090E033
:1003C000FACF1F93CF93DF93282F30E0F901E25546
:1003D000FF4F8491F901E656FF4FD491F901EA5796
:1003E000FF4FC491CC23A9F0162F81110E948F01D9
:1003F000EC2FF0E0EE0FFF1FEE58FF4FA591B491E8
:100400008FB7F894EC91111108C0D095DE23DC93DE
:100410008FBFDF91CF911F910895DE2BF8CFCF933F
:10042000DF9390E0FC01E656FF4F24918A579F4FDF
:10043000FC0184918823D1F090E0880F991FFC0182
:10044000E859FF4FA591B491FC01EE58FF4FC591BB
:10045000D49161110EC09FB7F8948C91E22FE09572
:100460008E238C932881E223E8839FBFDF91CF9175
:1004700008958FB7F894EC91E22BEC938FBFF6CFF1
:100480000F931F93CF93DF93182F062FEA0161E09C
:100490000E940F02602F812F0E94E101C230D1051E
:1004A00038F0CC0FDD1FCC0FDD1F25972197F1F71A
:1004B00060E0812FDF91CF911F910F910C940F027B
:1004C0000895E091EC02F091ED02309729F010923E
:1004D000F5021092F40209940895CF93DF93AC01D2
:1004E000E091EE02F091EF023097F1F09091F70277
:1004F0008091F6029817C0F090E0292F30E026177F
:10050000370754F4D901A45ABD4F240F351FE90110
:1005100028812C939F5FF1CF1092F7026093F6022F
:10052000CB01DF91CF910994DF91CF910895AF92E4
:10053000BF92CF92DF92EF92FF920F931F93CF93D0
:10054000DF936C017B018B01040F151FEB015E0132
:10055000AE18BF08C017D10759F06991D601ED91C7
:10056000FC910190F081E02DC6010995892B79F766
:10057000C501DF91CF911F910F91FF90EF90DF9018
:10058000CF90BF90AF900895FC01538D448D252FDF
:1005900030E0842F90E0821B930B541710F0CF961D
:1005A000089501970895FC01918D828D981761F04F
:1005B000A28DAE0FBF2FB11D5D968C91928D9F5F66
:1005C0009F73928F90E008958FEF9FEF0895FC0145
:1005D000918D828D981731F0828DE80FF11D858DF8
:1005E00090E008958FEF9FEF0895FC01918D228D8B
:1005F000892F90E0805C9F4F821B91098F73992710
:10060000089588E093E00E94F50221E0892B09F427
:1006100020E0822F089580E090E0892B29F00E944D
:10062000010381110C9400000895FC01A48DA80F12
:10063000B92FB11DA35ABF4F2C91848D90E0019624
:100640008F739927848FA689B7892C93A089B18944
:100650008C91837080648C93938D848D981306C0E5
:100660000288F389E02D80818F7D80830895EF9249
:10067000FF920F931F93CF93DF93EC0181E0888F5C
:100680009B8D8C8D98131AC0E889F989808185FF2C
:1006900015C09FB7F894EE89FF896083E889F989CE
:1006A00080818370806480839FBF81E090E0DF91D0
:1006B000CF911F910F91FF90EF900895F62E0B8D23
:1006C00010E00F5F1F4F0F731127E02E8C8D8E11DE
:1006D0000CC00FB607FCFACFE889F989808185FF45
:1006E000F5CFCE010E941503F1CFEB8DEC0FFD2F5E
:1006F000F11DE35AFF4FF0829FB7F8940B8FEA8900
:10070000FB8980818062CFCFCF93DF93EC01888D0E
:100710008823B9F0AA89BB89E889F9898C9185FD7C
:1007200003C0808186FD0DC00FB607FCF7CF8C910A
:1007300085FFF2CF808185FFEDCFCE010E941503AA
:10074000E9CFDF91CF9108952091A202260F3327A0
:10075000331F21323105ECF42091C602FC0190E0F8
:1007600080E0243069F082E00895A091A2022191F6
:10077000AC014E575D4FA40FB52FB11D2C930196C0
:10078000861798F38091A202680F6093A20280E01E
:10079000089581E008951092C60281E08093C80216
:1007A0001092C70261E082E10E94E10161E083E111
:1007B0000E94E101E9EBF0E080818E7F80838081FF
:1007C0008D7F808388E48093B80085E48093BC00AB
:1007D00008950895E091F7028091F602E81730F449
:1007E000F0E0E45AFD4F808190E008958FEF9FEF95
:1007F00008959091F7028091F6022FEF3FEF98173E
:1008000048F4E92FF0E0E45AFD4F208130E09F5F8B
:100810009093F702C90108958091F6029091F70232
:10082000891B990B0895CF93DF93CB01EA01642FC5
:100830000E94A403CE01DF91CF910895CF93DF935F
:100840001F92CDB7DEB7698361E0CE0101960E94A9
:10085000A40381E090E00F90DF91CF91089590E0A4
:1008600080E008950895885E9E4FFC01408151818B
:1008700087E090E00C94400220917A0090917A00F9
:10088000987F946090937A008E50806480937C006F
:1008900080917A00806480937A0080917A0086FD4E
:1008A000FCCF809178009091790020937A00089590
:1008B00081E10E943C04BC0190E080E00E94F400D1
:1008C00080E10E943C04BC01725081E090E00E94F3
:1008D000F4008FE00E943C04BC01725082E090E082
:1008E0000E94F4008EE00E943C04BC01725083E040
:1008F00090E00E94F40085E10E943C04BC0172502B
:1009000084E090E00C94F400FB0101900020E9F7F2
:100910003197AF01461B570BDC01ED91FC91028032
:10092000F381E02D09946DEF73E085EA93E00E9476
:1009300084041092FD030895CF93DF93D0E0C0E0CC
:10094000009731F0BC0188E093E00E948404EC0140
:1009500066E371E088E093E00E9484048C0F9D1FA1
:10096000DF91CF910895CF93DF936115710531F039
:100970006130710549F0DF91CF910895EC01CC967B
:100980000E949C041CAEF7CF845B9F4FDF91CF91F8
:100990000C949C04CF93DF9385ED8093BC008091F1
:1009A0007E0290917F02A0918002B0918102079611
:1009B000A11DB11D23E0B695A795979587952A951A
:1009C000D1F72091BC0024FD03C01092C60236C0AE
:1009D00040917E0250917F0260918002709181026D
:1009E000452B462B472B69F30097A105B10541F034
:1009F0002AE22A95F1F700C00197A109B109E1CFD8
:100A000080917D0291E090937C028823B9F0C0919F
:100A1000B800D091BA008091BC008A7B8093BC0062
:100A200060E082E10E94E10160E083E10E94E10177
:100A30000E94CB03D093BA00C093B800DF91CF914E
:100A40000895CF93DF93EA0169E371E00E94830E7A
:100A5000892B09F58DE391E09F938F938EE491E0CC
:100A60009F938F93CE0124E0880F991F2A95E1F779
:100A700083519C4F9F938F930E948C0E0F900F90E9
:100A80000F900F900F900F90BE0181EB93E0DF91DC
:100A9000CF910C94B304DF91CF9108954F925F9260
:100AA0006F927F928F929F92AF92BF92CF92DF927E
:100AB000EF92FF920F931F93CF93DF93EC017B0193
:100AC0006A01890165E571E0C7010E94830E892BE7
:100AD00009F045C0DE01A45ABF4FFE01E45FFE4F9E
:100AE0002D913C91A081B1810E942A0E9B01AC0105
:100AF000ADE0B0E00E94480E20E034E040E050E07D
:100B00000E940B0E3F932F9389E591E09F938F9363
:100B1000C80124E0880F991F2A95E1F7CC968C0F25
:100B20009D1F9F938F930E948C0E0F900F900F909C
:100B30000F900F900F90B801CE01DF91CF911F91D0
:100B40000F91FF90EF90DF90CF90BF90AF909F906C
:100B50008F907F906F905F904F900C94B30460E6FD
:100B600071E0C7010E94830E892BE9F4DE01A25ACD
:100B7000BF4FFE01E45FFE4F2D913C91A081B181FA
:100B80000E942A0E9B01AC01A3E0B0E00E94480E37
:100B900020E034E040E050E00E940B0E3F932F93A2
:100BA00084E691E0B3CF6BE671E0C7010E94830E4B
:100BB000892BE9F4DE01A05ABF4FFE01E45FFE4F2E
:100BC0002D913C91A081B1810E942A0E9B01AC0124
:100BD000A3E0B0E00E94480E20E034E040E050E0A6
:100BE0000E940B0E3F932F938FE691E08FCF66E725
:100BF00071E0C7010E94830E892BE9F4DE01AE5932
:100C0000BF4FFE01E45FFE4F2D913C91A081B18169
:100C10000E942A0E9B01AC01A3E0B0E00E94480EA6
:100C200020E034E040E050E00E940B0E3F932F9311
:100C30008AE791E06BCF61E871E0C7010E94830E03
:100C4000892BE9F4DE01AC59BF4FFE01E45FFE4F92
:100C50002D913C91A081B1810E942A0E9B01AC0193
:100C6000A3E0B0E00E94480E20E034E040E050E015
:100C70000E940B0E3F932F9385E891E047CF6CE8DD
:100C800071E0C7010E94830E892B09F05EC0FE014E
:100C9000E45FFE4FC080D180EC5AF109A081B181A0
:100CA00096010E942A0E9B01AC01A3E0B0E00E94D5
:100CB000480E812CA4E09A2EA12CB12CA501940100
:100CC0000E940B0E2901FE01E25AFF4FA081B18163
:100CD00096010E942A0E9B01AC01A3E0B0E00E94A5
:100CE000480EA50194010E940B0E7201E20EF31E44
:100CF000FE01EE59FF4FA081B18196010E942A0E9C
:100D00009B01AC01A3E0B0E00E94480EA501940154
:100D10000E940B0EE20EF31EFE01EC59FF4FA08164
:100D2000B18196010E942A0E9B01AC01A3E0B0E0C4
:100D30000E94480EA50194010E940B0E2E0D3F1D2E
:100D40003F932F9380E991E0E1CE67E971E0C7011D
:100D50000E94830E892B51F4FE01E45FFE4F8181D6
:100D60008F9380818F938CE991E0D0CE64EA71E01B
:100D7000C7010E94830E892B41F489E00E94B801CB
:100D80009F938F9389EA91E0C1CE61EB71E0C70137
:100D90000E94830E892B41F488E00E94B8019F9342
:100DA0008F9386EB91E0B2CE6EEB71E0C7010E94AB
:100DB000830E892B41F483E00E94B8019F938F93A7
:100DC00083EC91E0A3CE6BEC71E0C7010E94830E2F
:100DD000892B41F487E00E94B8019F938F9380EDA7
:100DE00091E094CE68ED71E0C7010E94830E892BDB
:100DF000A9F4C6010E94B90DF82EE92EFE01E85EA5
:100E0000FE4F40815181682F792F89E090E00E9448
:100E10004002EF92FF928DED91E078CE66EE71E0A8
:100E2000C7010E94830E892BA9F4C6010E94B90D47
:100E3000F82EE92EFE01E85EFE4F40815181682FB9
:100E4000792F88E090E00E944002EF92FF928BEEB3
:100E500091E05CCE64EF71E0C7010E94830E892BA4
:100E6000A9F4C6010E94B90DF82EE92EFE01E85E34
:100E7000FE4F40815181682F792F83E090E00E94DE
:100E80004002EF92FF9289EF91E040CE62E072E083
:100E9000C7010E94830E892B79F4C6010E94B90D07
:100EA000F82EE92E682F792FCE010E943304EF929D
:100EB000FF9287E092E02ACE60E172E0C7010E94D3
:100EC000830E892B19F5C6010E94B90D7C016E01B4
:100ED00082EFC81A8EEFD80AB7010F2C000C880BCE
:100EE000990BF7E0660F771F881F991FFA95D1F7C6
:100EF00023E537E040E050E00E940B0ED6012D9331
:100F00003C93FF92EF9285E192E000CE6EE172E0B9
:100F1000C7010E94830E892B11F5C6010E94B90DED
:100F20007C016E01B0EFCB1ABEEFDB0ABC01990F5A
:100F3000880B990BE7E0660F771F881F991FEA95CA
:100F4000D1F723E537E040E050E00E940B0EF601B8
:100F500031832083FF92EF9283E292E0D7CD6CE25F
:100F600072E0C7010E94830E892B11F5C6010E9411
:100F7000B90D7C016E01FEEECF1AFEEFDF0ABC0157
:100F8000990F880B990B57E0660F771F881F991FE1
:100F90005A95D1F723E537E040E050E00E940B0E70
:100FA000D6012D933C93FF92EF9281E392E0AECD78
:100FB0006AE372E0C7010E94830E892B11F5C60116
:100FC0000E94B90D7C016E01BCEECB1ABEEFDB0AAC
:100FD000BC01990F880B990B47E0660F771F881F9C
:100FE000991F4A95D1F723E537E040E050E00E9491
:100FF0000B0EF60131832083FF92EF928FE392E094
:1010000085CD68E472E0C7010E94830E892BB9F098
:101010004E01F2E08F0E911CB12CA12C8E899F897C
:10102000A816B9067CF5D401ED91FD914D01A801FA
:10103000B601C7010995BFEFAB1ABB0AEFCFC601D6
:101040000E94B90D7C016E018AEEC81A8EEFD80A93
:10105000B7010F2C000C880B990B37E0660F771F38
:10106000881F991F3A95D1F723E537E040E050E01B
:101070000E940B0ED6012D933C93FF92EF928DE4CC
:1010800092E044CDDF91CF911F910F91FF90EF90AF
:10109000DF90CF90BF90AF909F908F907F906F9098
:1010A0005F904F9008950F931F93CF93DF938B0121
:1010B00066E572E00E94D70DEC0167E371E090E015
:1010C00080E00E94D70D9801AC01BE0181EB93E056
:1010D000DF91CF911F910F910C944E05CF93DF9329
:1010E00088E093E00E94F502892B31F188E093E0DB
:1010F0000E94D3022091D9033091DA03F901EF5411
:10110000FC4F808F2F5F3F4F3093DA032093D9033A
:101110008A3019F02F30310519F72F543C4FF9015F
:10112000108E1092DA031092D90370E060E089EC1F
:1011300093E00E945308D4CF0E94580420910F04DA
:10114000309110048091BF049091C00482179307DE
:1011500054F44091C9045091CA0470E060E089E001
:1011600090E00E944002209111043091120480917D
:10117000C1049091C2048217930754F44091C904AA
:101180005091CA0470E060E088E090E00E94400264
:1011900020911304309114048091C3049091C404ED
:1011A0008217930754F44091C9045091CA0470E027
:1011B00060E083E090E00E944002209115043091AD
:1011C00016048091C5049091C6048217930734F4E5
:1011D00070E060E081EB93E00E94330480910F04A3
:1011E000909110042091110430911204820F931FEA
:1011F0002091130430911404820F931F2091150441
:1012000030911604820F931F2091C7043091C804B7
:101210002817390724F54091C9045091CA0470E099
:1012200060E089E090E00E9440024091C904509142
:10123000CA0470E060E088E090E00E9440024091C3
:10124000C9045091CA0470E060E083E090E00E941D
:10125000400270E060E081EB93E00E943304C091B3
:101260000D04D0910E048091FB029091FC02C817EE
:10127000D90778F1A0910F04B09110048091110466
:1012800090911204A80FB91F809113049091140437
:10129000A80FB91F8091150490911604A80FB91FCB
:1012A0002091CB043091CC044091CD045091CE04D8
:1012B0000E94530E20E034E040E050E00E940B0E0C
:1012C0008091FD029091FE02821B930BC817D907F3
:1012D000D0F589E00E94B801892B09F450C061E083
:1012E00089E00E940F0261E088E00E940F0261E045
:1012F00083E00E940F0261E087E00E940F0260E03D
:1013000089E00E94E10160E088E00E94E10160E084
:1013100083E00E94E10160E087E00E94E1018BE34D
:101320009CE90197F1F760E089E00E940F0260E01C
:1013300088E00E940F0260E083E00E940F0260E0FC
:1013400087E00E940F028091580290915902A0916B
:101350005A02B0915B020196A11DB11D893EF3E0D6
:101360009F07A105B105F4F48093580290935902A8
:10137000A0935A02B0935B02DF91CF91089588E069
:101380000E94B801892B09F0AACF83E00E94B8011E
:10139000892B09F0A4CF87E00E94B801892B09F0BE
:1013A0009ECFD1CF109258021092590210925A0239
:1013B00010925B02DF91CF910C948C000F931F93DE
:1013C000CF93DF938C01C1EBD3E0CE01815B9340DF
:1013D0008017910744F485EA93E00E94F9038AA7F5
:1013E0001BA62196F2CFE1EBF3E0CF01815B9340A6
:1013F0008017910724F483A582A73196F6CF61E088
:1014000070E08BED93E0DF91CF911F910F910C94E1
:1014100053081F920F920FB60F9211242F933F93F0
:101420008F939F93AF93BF93809104039091050393
:10143000A0910603B09107033091030323E0230F2B
:101440002D3758F50196A11DB11D209303038093FC
:10145000040390930503A0930603B09307038091C0
:10146000FF0290910003A0910103B0910203019645
:10147000A11DB11D8093FF0290930003A09301036F
:10148000B0930203BF91AF919F918F913F912F91A4
:101490000F900FBE0F901F90189526E8230F02960D
:1014A000A11DB11DD2CF1F920F920FB60F92112422
:1014B0002F933F934F935F936F937F938F939F935C
:1014C000AF93BF93EF93FF9388E093E00E941503DF
:1014D000FF91EF91BF91AF919F918F917F916F910C
:1014E0005F914F913F912F910F900FBE0F901F90E2
:1014F00018951F920F920FB60F9211242F938F936E
:101500009F93EF93FF93E0911803F091190380816B
:10151000E0911E03F0911F0382FD1BC0908180911A
:1015200021038F5F8F7320912203821741F0E09196
:101530002103F0E0E85FFC4F958F80932103FF913A
:10154000EF919F918F912F910F900FBE0F901F9051
:1015500018958081F4CF1F920F920FB60F9211242D
:101560002F933F934F935F936F937F938F939F93AB
:10157000AF93BF93EF93FF93E0910001F0910101CE
:101580000995FF91EF91BF91AF919F918F917F91BD
:101590006F915F914F913F912F910F900FBE0F90E0
:1015A0001F9018951F920F920FB60F9211242F9330
:1015B0003F934F935F936F937F938F939F93AF93DB
:1015C000BF93EF93FF938091B900887F803609F431
:1015D0004AC0F0F5883209F4A7C018F5803109F443
:1015E0009BC0B8F4882309F4F9C0883009F494C08A
:1015F000FF91EF91BF91AF919F918F917F916F91EB
:101600005F914F913F912F910F900FBE0F901F90C0
:101610001895883109F488C0803251F78093C5024B
:1016200014C0803409F49DC040F48033B9F388338A
:10163000F9F68093C50285ECB0C0803509F485C009
:10164000883509F496C0883499F60E94CA04D0CF30
:10165000883909F48CC038F5883729F050F4883679
:1016600011F0803729F683E08093C6021092C402FD
:1016700057C0883809F47BC0803919F0803809F0E8
:10168000B7CF8091C402803208F071C0E091C402EB
:1016900081E08E0F8093C4028091BB00F0E0EC5596
:1016A000FD4F80833DC0803B39F0E0F4803A09F47F
:1016B00079C0883A09F09CCF84E08093C6021092EA
:1016C000A3021092A202E091F202F091F3020995B6
:1016D0008091A20281110FC081E08093A20210923A
:1016E000820209C0803C09F4A6CF883C09F4A3CF4C
:1016F000883B09F07DCFE091A30281E08E0F8093BB
:10170000A302F0E0EE57FD4F80818093BB009091E3
:10171000A3028091A20229C08091EB028093BB00BA
:1017200085EC8093BC0064CF9091EA028091E9023D
:10173000981758F5E091EA0281E08E0F8093EA0253
:10174000F0E0E753FD4F8081E9CFE091EA0281E0CC
:101750008E0F8093EA028091BB00F0E0E753FD4FCB
:1017600080839091EA028091E9029817C8F285E897
:10177000D8CFE091EA0281E08E0F8093EA02809157
:10178000BB00F0E0E753FD4F80838091C8028111D8
:101790005CCF81E08093C70284EA8093BC00109202
:1017A000C60226CF85EC8093BC001092C6028091C1
:1017B000C402803230F4E091C402F0E0EC55FD4FF9
:1017C00010826091C40270E0E091F002F091F102A9
:1017D00084EA92E009951092C4020ACF1092C502E1
:1017E00034CFE8E0F3E01382128288EE93E0A0E0C9
:1017F000B0E084839583A683B78320E131E0318311
:10180000208325EC30E03587248724EC30E03787CF
:10181000268720EC30E0318B208B21EC30E0338BBD
:10182000228B22EC30E0358B248B26EC30E0378B9A
:10183000268B118E128E138E148EE5EAF3E013823E
:10184000128284839583A683B78382E291E0918399
:101850008083E1EBF3E0178A168A11A610A613AE77
:1018600012AE84E391E0918380838CEB91E09093BE
:10187000C0048093BF049093C2048093C1049093EA
:10188000C4048093C3049093C6048093C50480EF7E
:1018900096E09093C8048093C70482E390E090930D
:1018A000CA048093C9041092CB041092CC04109205
:1018B000CD041092CE040895789484B5826084BDDE
:1018C00084B5816084BD85B5826085BD85B5816044
:1018D00085BD80916E00816080936E0010928100C2
:1018E000809181008260809381008091810081607D
:1018F000809381008091800081608093800080913E
:10190000B10084608093B1008091B00081608093C9
:10191000B00080917A00846080937A0080917A0090
:10192000826080937A0080917A00816080937A004F
:1019300080917A00806880937A001092C10061E003
:1019400082E00E940F0261E084E00E940F0260E0EA
:1019500089E00E940F0260E088E00E940F0260E0D0
:1019600083E00E940F0260E087E00E940F0260E0C7
:1019700081E10E940F0260E080E10E940F0260E0BE
:101980008FE00E940F0260E08EE00E940F0260E094
:1019900085E10E940F020E948C00C0E1D0E00E940D
:1019A00058042197E1F789E991E09093C00480936E
:1019B000BF049093C2048093C1049093C4048093A5
:1019C000C3049093C6048093C50480E094E0909390
:1019D000C8048093C7048091C7039091C8038A30DC
:1019E000910574F40196FC01EE0FFF1FEF54FC4FBC
:1019F00021E235E0318320839093C8038093C703AD
:101A0000E0911803F091190382E08083E0911403C0
:101A1000F09115031082E0911603F091170383E310
:101A2000808310922003E0911C03F0911D0386E057
:101A30008083E0911A03F0911B0380818061808391
:101A4000E0911A03F0911B03808188608083E0910C
:101A50001A03F0911B03808180688083E0911A0350
:101A6000F0911B0380818F7D80831092F70210928A
:101A7000F6021092F5021092F4020E94CB0381E666
:101A800092E09093F3028093F2028DE692E09093BD
:101A9000F1028093F002C0E1C093BA008EED99E0AC
:101AA0009093EF028093EE0283E994E09093ED022D
:101AB0008093EC02C090BD04D090BE040D2C000CAD
:101AC000EE08FF0860EE7EEA8EE390E0A701960143
:101AD0000E940B0E3093FE022093FD0260E27AE03A
:101AE00085E390E0A70196010E940B0E3093FC0263
:101AF0002093FB028EE590E0A0E0B0E08093CB0461
:101B00009093CC04A093CD04B093CE0461E070E038
:101B100081EB93E00E94330488EE93E09093CA0433
:101B20008093C904C09381001092800081E080936B
:101B3000FA0220E43FE13093F9022093F802309357
:101B400087002093860091E1909381002EE638E093
:101B5000309301012093000180936F00C0E0D0E03A
:101B60002097F1F30E9401038823D1F30E94000023
:101B7000F7CFFC0188279927E89421912032E9F3D7
:101B8000293010F02E30C8F32B3241F02D3239F4C9
:101B9000689404C00E94030E820F911D219120536E
:101BA0002A30C0F31EF4909581959F4F08954FEC15
:101BB00054E00E94DC0D0895FA01A191B0810097D4
:101BC00019F41097E1F0CD01DC01CD010D9000205A
:101BD00011F4C00113C0FB012191222319F020153B
:101BE000D9F7F3CFFB012191201519F41E9211961C
:101BF00006C02223C1F70D900020A1F7D001FA0101
:101C0000A193B08308957AE0979F902D879F802DB0
:101C1000910D11240895052E97FB1EF400940E9447
:101C2000220E57FD07D00E945B0E07FC03D04EF436
:101C30000C94220E50954095309521953F4F4F4F73
:101C40005F4F089590958095709561957F4F8F4F68
:101C50009F4F08950E94320E332312F48A1B9B0B70
:101C60000C94430EA29FB001B39FC001A39F700DBF
:101C7000811D1124911DB29F700D811D1124911D94
:101C800008950E94320EB7FF0895821B930B0895AA
:101C90000E94320EA59F900DB49F900DA49F800DC1
:101CA000911D11240895B7FF0C94480E0E94480E10
:101CB000821B930B0895A1E21A2EAA1BBB1BFD01E8
:101CC0000DC0AA1FBB1FEE1FFF1FA217B307E4071B
:101CD000F50720F0A21BB30BE40BF50B661F771F73
:101CE000881F991F1A9469F7609570958095909553
:101CF0009B01AC01BD01CF010895EE0FFF1F0590C0
:101D0000F491E02D0994FB01DC018D910190801983
:101D10000110D9F3990B0895AEE0B0E0E2E9FEE0DE
:101D20000C943B110D891E8986E08C831A830983EC
:101D30008FEF9FE79E838D83AE01475E5F4F6F8974
:101D4000788DCE0101960E94AF0E2F813885020F4B
:101D5000131FF80110822E96E4E00C945711ABE0AB
:101D6000B0E0E5EBFEE00C942D117C013B018A0113
:101D7000FC0117821682838181FFC8C1CE010196C2
:101D80005C01F7019381F30193FD859193FF8191AC
:101D90003F01882309F453C1853239F493FD8591BD
:101DA00093FF81913F01853229F4B70190E00E94B1
:101DB0009F10E7CF912C212C312CFFE1F31538F047
:101DC0008B3211F190F4803209F1833229F137FC22
:101DD0003CC020ED280F2A3050F536FE20C08AE0A6
:101DE000989E200D1124922E06C08D3291F08033E2
:101DF00071F7689430F8F30193FD859193FF819119
:101E00003F018111DACF21C0689431F8689432F82B
:101E1000F2CF689433F8EFCF689434F8ECCFEAE06F
:101E20002E9E200D1124222E689435F8E4CF8E3298
:101E300029F436FC04C1689436F8DDCF8C3619F4E9
:101E4000689437F8D8CF8836B1F2982F9F7D955493
:101E50009330E0F08336A1F18337C1F1833509F087
:101E600063C02801F2E04F0E511CF801C080D18000
:101E7000692D70E036FC02C06FEF7FEFC6010E9453
:101E800089104C01689437F882010AC00C5F1F4F1B
:101E9000FFE3F98388248394912C6501E89437F853
:101EA00033FE2DC0522C8114910471F5552009F494
:101EB00068CFB70180E290E00E949F105A94F6CF5D
:101EC000F801808189830E5F1F4FE4CF2801F2E083
:101ED0004F0E511CF801C080D180692D70E036FC96
:101EE00002C06FEF7FEFC6010E9494104C01820187
:101EF000D5CFB70180E290E00E949F102A94281469
:101F0000190409F0B0F7CECFF60137FC859137FE02
:101F100081916F01B70190E00E949F1051105A9477
:101F2000F1E08F1A9108BFCF843619F0893609F095
:101F300077C0F80137FE6BC0608171818281938127
:101F40000C5F1F4FF32DFF763F2E97FF09C0909532
:101F50008095709561957F4F8F4F9F4F689437F8AC
:101F60002AE030E0A5010E94CF10C82ECA188C2CA0
:101F7000432C36FE0CC0E89440F8C91440F434FEFB
:101F800005C032FC03C0F32DFE7E4F2E892C44FE8B
:101F900095C0FE01EC0DF11D8081803309F087C0F2
:101FA000242D297E422E842D8870582E43FC95C006
:101FB00040FE8FC09C2C821418F42C0C922C981884
:101FC00044FE91C0B70180E390E00E949F1042FE62
:101FD00009C088E790E041FE02C088E590E0B701C3
:101FE0000E949F10C91408F48AC0CA94D12C9FEF94
:101FF000C91AD90ACA0CDB1CF60182916F01B7011C
:1020000090E00E949F10AC14BD04B1F74FCF6081E7
:102010007181072E000C880B990B0E5F1F4F92CF1A
:10202000D32CE894D4F82AE030E0853739F1232D19
:10203000297FD22E8F3601F148F48835A9F0F701B7
:10204000868197812B96E2E10C944911803749F003
:102050008837A9F7D4FE02C06894D2F820E130E0B6
:102060000DC06894D4F8F6CF34FE03C0822F86608A
:10207000D82E20E132E002C028E030E0F801D7FE9F
:102080000FC060817181828193810C5F1F4FA50118
:102090000E94CF10C82ECA183D2CE89437F867CF9D
:1020A0006081718190E080E00E5F1F4FF0CF42FCB5
:1020B00002C0839478CF8394839475CF842D8678DF
:1020C00009F471CFF6CFB70180E290E00E949F1033
:1020D00083948214C0F3512C73CF522C581882145D
:1020E00008F46ECFF8CF842D867809F47BCF8BE28D
:1020F00041FE80E247FC8DE2B70190E071CFB7016D
:1021000080E390E00E949F109A946CCF8FEF9FEF36
:1021100099CFFC010590615070400110D8F780956F
:1021200090958E0F9F1F0895FC01615070400190A3
:102130000110D8F7809590958E0F9F1F08950F93EB
:102140001F93CF93DF93182F092FEB018B8181FD14
:1021500009C01FEF0FEF812F902FDF91CF911F91BB
:102160000F91089582FF14C02E813F818C819D8143
:10217000281739073CF4E881F981CF01019699834A
:10218000888310838E819F8101969F838E83E3CF06
:10219000E885F985812F0995892BA1F3DACFFA011A
:1021A000AA27283051F1203181F1E8946F936E7F96
:1021B0006E5F7F4F8F4F9F4FAF4FB1E03ED0B4E087
:1021C0003CD0670F781F891F9A1FA11D680F791FC8
:1021D0008A1F911DA11D6A0F711D811D911DA11DD9
:1021E00020D009F468943F912AE0269F11243019E9
:1021F000305D3193DEF6CF010895462F4770405D84
:102200004193B3E00FD0C9F7F6CF462F4F70405D32
:102210004A3318F0495D31FD4052419302D0A9F78D
:10222000EACFB4E0A6959795879577956795BA9587
:10223000C9F700976105710508959B01AC010A2E4D
:1022400006945795479537952795BA95C9F7620F24
:10225000731F841F951FA01D08952F923F924F92C8
:102260005F926F927F928F929F92AF92BF92CF9226
:10227000DF92EF92FF920F931F93CF93DF93CDB72F
:10228000DEB7CA1BDB0B0FB6F894DEBF0FBECDBFA7
:1022900009942A88398848885F846E847D848C8478
:1022A0009B84AA84B984C884DF80EE80FD800C8181
:1022B0001B81AA81B981CE0FD11D0FB6F894DEBF64
:0C22C0000FBECDBFED010895F894FFCFD4
:1022CC00600204001000100010001000000000005C
:1022DC0037039702C4028403F502D302E70200001D
:1022EC0000001E0413042F04E9030C04F903EA0391
:1022FC00000000004E050D0A0052464E00345F539C
:10230C006D61727450616E656C2E696E6F0057460C
:10231C004E3A257300525642005756423A257500E4
:10232C00524931005749313A25640052493200571D
:10233C0049323A256400524933005749333A2564EF
:10234C0000524934005749343A256400524954002C
:10235C005749543A25640052564343005756434359
:10236C003A2564005243483100574348313A2564BA
:10237C00005243483200574348323A2564005243D6
:10238C00483300574348333A2564005243483400DD
:10239C00574348343A256400574348310057434863
:1023AC00313A3D2564005743483200574348323A8E
:1023BC003D2564005743483300574348333A3D2585
:1023CC0064005743483400574348343A3D25640071
:1023DC0057494C310057494C313A3D256400574917
:1023EC004C320057494C323A3D25640057494C3326
:1023FC000057494C333A3D25640057494C3400573B
:10240C00494C343A3D25640057494C540057494CCB
:08241C00543A3D2564003A002A
:00000001FF
