:020000040000FA
:100000000C9462000C948A000C948A000C948A0070
:100010000C948A000C948A000C948A000C948A0038
:100020000C948A000C948A000C948A000C948A0028
:100030000C948A000C94B00A0C948A000C948A00E8
:100040000C940E0A0C948A000C947E0A0C94580AA4
:100050000C948A000C948A000C948A000C948A00F8
:100060000C94D70A0C948A0000000000240027009A
:100070002A0000000000250028002B0000000000DE
:1000800023002600290004040404040404040202DA
:100090000202020203030303030301020408102007
:1000A0004080010204081020010204081020000012
:1000B0000008000201000003040700000000000027
:1000C0000000F60B11241FBECFEFD8E0DEBFCDBF7E
:1000D00024E0A0E6B2E001C01D92AF3DB207E1F717
:1000E00012E0A0E0B1E0ECEEF2E202C005900D9269
:1000F000A036B107D9F710E0C2E6D0E004C02197DE
:10010000FE010E948D0EC136D107C9F70E94640C12
:100110000C9474110C9400007F928F929F92AF9276
:10012000BF92CF92DF92EF92FF920F931F93CF93E4
:10013000DF93C4E0D0E0C12CD12C76018EE4782E80
:100140000BE31FE194EB892E9BE2992E91E1A92EFE
:10015000B12C70927C00C8010197F1F780917A0070
:10016000806480937A0080917A0086FDFCCF809134
:10017000780020917900322F282F032E000C440B99
:10018000550BC501B4010E941B0E032E000C440B3D
:10019000550BC20ED31EE41EF51E2197D1F6C701E2
:1001A000B60124E030E040E050E00E941B0E26350E
:1001B00083E1380794F03093C6042093C504DF919F
:1001C000CF911F910F91FF90EF90DF90CF90BF9054
:1001D000AF909F908F907F90089588E893E19093DF
:1001E000C6048093C504EBCF6F927F928F929F924B
:1001F000AF92BF92CF92DF92EF92FF920F931F9335
:10020000CF93DF933C01EB0125E634E082E06816F2
:100210007104B1F04CF425E434E0B1E06B167104E4
:1002200079F02DE334E00CC025E834E0E3E06E160D
:10023000710431F025EA34E0F4E06F16710489F7B7
:100240008301000F111F0D5C1B4FF801A081B181CC
:10025000AA0FBB1FA20FB31FF301EE0FFF1FEE0F7C
:10026000FF1FE15EFB4FCD90DC9011970D2C000C31
:10027000EE08FF0880809180A280B3808C189D08D2
:10028000AE08BF08CD93DC93D801ED90FC90A70198
:10029000440F551F240F351FD9014D915C91052E38
:1002A000000C660B770BCB01BA01680D791D8A1D16
:1002B0009B1D6083718382839383F301EE0FFF1F85
:1002C000E65FFE4FC080D1809301220F331FE9010A
:1002D000CB5EDB4F96010D2C000C440B550B0E949E
:1002E0001B0E39832883BFEFEB1AFB0AEC14FD04C5
:1002F00094F4F801F182E082DF91CF911F910F9188
:10030000FF90EF90DF90CF90BF90AF909F908F9035
:100310007F906F900895D8011D921C92EDCF83308D
:1003200081F028F4813099F08230A9F00895873067
:10033000A9F08830C9F08430B1F4809180008F7DBD
:1003400003C0809180008F7780938000089584B5EA
:100350008F7784BD089584B58F7DFBCF8091B000E9
:100360008F778093B00008958091B0008F7DF9CF92
:10037000CF93DF93282F30E0F901E255FF4F8491AE
:10038000F901E656FF4FD491F901EA57FF4FC491A6
:10039000CC23A1F081110E948F01EC2FF0E0EE0F31
:1003A000FF1FE458FF4FA591B491EC91ED2381E03C
:1003B00090E009F480E0DF91CF91089580E090E033
:1003C000FACF1F93CF93DF93282F30E0F901E25546
:1003D000FF4F8491F901E656FF4FD491F901EA5796
:1003E000FF4FC491CC23A9F0162F81110E948F01D9
:1003F000EC2FF0E0EE0FFF1FEE58FF4FA591B491E8
:100400008FB7F894EC91111108C0D095DE23DC93DE
:100410008FBFDF91CF911F910895DE2BF8CFCF933F
:10042000DF9390E0FC01E656FF4F24918A579F4FDF
:10043000FC0184918823D1F090E0880F991FFC0182
:10044000E859FF4FA591B491FC01EE58FF4FC591BB
:10045000D49161110EC09FB7F8948C91E22FE09572
:100460008E238C932881E223E8839FBFDF91CF9175
:1004700008958FB7F894EC91E22BEC938FBFF6CFF1
:100480000F931F93CF93DF93182F062FEA0161E09C
:100490000E940F02602F812F0E94E101C230D1051E
:1004A00038F0CC0FDD1FCC0FDD1F25972197F1F71A
:1004B00060E0812FDF91CF911F910F910C940F027B
:1004C0000895E091F402F091F502309729F010922E
:1004D000FD021092FC0209940895CF93DF93AC01C2
:1004E000E091F602F091F7023097F1F09091FF025F
:1004F0008091FE029817C0F090E0292F30E0261777
:10050000370754F4D901AC59BD4F240F351FE90109
:1005100028812C939F5FF1CF1092FF026093FE021F
:10052000CB01DF91CF910994DF91CF910895AF92E4
:10053000BF92CF92DF92EF92FF920F931F93CF93D0
:10054000DF936C017B018B01040F151FEB015E0132
:10055000AE18BF08C017D10759F06991D601ED91C7
:10056000FC910190F081E02DC6010995892B79F766
:10057000C501DF91CF911F910F91FF90EF90DF9018
:10058000CF90BF90AF900895FC01538D448D252FDF
:1005900030E0842F90E0821B930B541710F0CF961D
:1005A000089501970895FC01918D828D981761F04F
:1005B000A28DAE0FBF2FB11D5D968C91928D9F5F66
:1005C0009F73928F90E008958FEF9FEF0895FC0145
:1005D000918D828D981731F0828DE80FF11D858DF8
:1005E00090E008958FEF9FEF0895FC01918D228D8B
:1005F000892F90E0805C9F4F821B91098F73992710
:10060000089580E193E00E94F50221E0892B09F42E
:1006100020E0822F089580E090E0892B29F00E944D
:10062000010381110C9400000895FC01A48DA80F12
:10063000B92FB11DA35ABF4F2C91848D90E0019624
:100640008F739927848FA689B7892C93A089B18944
:100650008C91837080648C93938D848D981306C0E5
:100660000288F389E02D80818F7D80830895EF9249
:10067000FF920F931F93CF93DF93EC0181E0888F5C
:100680009B8D8C8D98131AC0E889F989808185FF2C
:1006900015C09FB7F894EE89FF896083E889F989CE
:1006A00080818370806480839FBF81E090E0DF91D0
:1006B000CF911F910F91FF90EF900895F62E0B8D23
:1006C00010E00F5F1F4F0F731127E02E8C8D8E11DE
:1006D0000CC00FB607FCFACFE889F989808185FF45
:1006E000F5CFCE010E941503F1CFEB8DEC0FFD2F5E
:1006F000F11DE35AFF4FF0829FB7F8940B8FEA8900
:10070000FB8980818062CFCFCF93DF93EC01888D0E
:100710008823B9F0AA89BB89E889F9898C9185FD7C
:1007200003C0808186FD0DC00FB607FCF7CF8C910A
:1007300085FFF2CF808185FFEDCFCE010E941503AA
:10074000E9CFDF91CF9108952091AA02260F332798
:10075000331F21323105ECF42091CE02FC0190E0F0
:1007600080E0243069F082E00895A091AA022191EE
:10077000AC0146575D4FA40FB52FB11D2C930196C8
:10078000861798F38091AA02680F6093AA0280E00E
:10079000089581E008951092CE0281E08093D00206
:1007A0001092CF0261E082E10E94E10161E083E109
:1007B0000E94E101E9EBF0E080818E7F80838081FF
:1007C0008D7F808388E48093B80085E48093BC00AB
:1007D00008950895E091FF028091FE02E81730F439
:1007E000F0E0EC59FD4F808190E008958FEF9FEF8E
:1007F00008959091FF028091FE022FEF3FEF98172E
:1008000048F4E92FF0E0EC59FD4F208130E09F5F84
:100810009093FF02C90108958091FE029091FF021A
:10082000891B990B0895CF93DF93CB01EA01642FC5
:100830000E94A403CE01DF91CF910895CF93DF935F
:100840001F92CDB7DEB7698361E0CE0101960E94A9
:10085000A40381E090E00F90DF91CF91089590E0A4
:1008600080E00895089520917A0090917A00987F11
:10087000946090937A008E50806480937C00809185
:100880007A00806480937A0080917A0086FDFCCFA4
:10089000809178009091790020937A00089581E109
:1008A0000E943304BC0190E080E00E94F40080E1EB
:1008B0000E943304BC01725081E090E00E94F40079
:1008C0008FE00E943304BC01725082E090E00E94ED
:1008D000F4008EE00E943304BC01725083E090E08B
:1008E0000E94F40085E10E943304BC01725084E050
:1008F00090E00C94F400FB0101900020E9F731979F
:10090000AF01461B570BDC01ED91FC910280F38196
:10091000E02D099465E074E08DEA93E00E947B0489
:10092000109205040895CF93DF93D0E0C0E00097C4
:1009300031F0BC0180E193E00E947B04EC016EE3A6
:1009400071E080E193E00E947B048C0F9D1FDF919A
:10095000CF910895CF93DF936115710531F0613028
:10096000710549F0DF91CF910895EC01CC960E947A
:1009700093041CAEF7CF845B9F4FDF91CF910C9413
:100980009304CF93DF9385ED8093BC008091860222
:1009900090918702A0918802B09189020796A11DCB
:1009A000B11D23E0B695A795979587952A95D1F720
:1009B0002091BC0024FD03C01092CE0236C04091AD
:1009C0008602509187026091880270918902452BBE
:1009D000462B472B69F30097A105B10541F02AE2A8
:1009E0002A95F1F700C00197A109B109E1CF8091E3
:1009F000850291E0909384028823B9F0C091B800F9
:100A0000D091BA008091BC008A7B8093BC0060E0EA
:100A100082E10E94E10160E083E10E94E1010E9425
:100A2000CB03D093BA00C093B800DF91CF91089563
:100A3000CF93DF93EA0161E471E00E94930E892B6A
:100A400009F585E491E09F938F9386E591E09F936C
:100A50008F93CE0124E0880F991F2A95E1F78B50E0
:100A60009C4F9F938F930E949C0E0F900F900F901E
:100A70000F900F900F90BE0189EB93E0DF91CF9123
:100A80000C94AA04DF91CF9108954F925F926F92D8
:100A90007F928F929F92AF92BF92CF92DF92EF920E
:100AA000FF920F931F93CF93DF93EC017B016A01B9
:100AB00089016DE571E0C7010E94930E892B09F051
:100AC00045C0DE01A45ABF4FFE01E45FFE4F2D91E9
:100AD0003C91A081B1810E943A0E9B01AC01ADE036
:100AE000B0E00E94580E20E034E040E050E00E9468
:100AF0001B0E3F932F9381E691E09F938F93C80144
:100B000024E0880F991F2A95E1F7CC968C0F9D1F42
:100B10009F938F930E949C0E0F900F900F900F90B9
:100B20000F900F90B801CE01DF91CF911F910F91DF
:100B3000FF90EF90DF90CF90BF90AF909F908F90FD
:100B40007F906F905F904F900C94AA0468E671E0DC
:100B5000C7010E94930E892BE9F4DE01A25ABF4F10
:100B6000FE01E45FFE4F2D913C91A081B1810E9476
:100B70003A0E9B01AC01A3E0B0E00E94580E20E0C9
:100B800034E040E050E00E941B0E3F932F938CE630
:100B900091E0B3CF63E771E0C7010E94930E892B08
:100BA000E9F4DE01A05ABF4FFE01E45FFE4F2D9134
:100BB0003C91A081B1810E943A0E9B01AC01A3E05F
:100BC000B0E00E94580E20E034E040E050E00E9487
:100BD0001B0E3F932F9387E791E08FCF6EE771E075
:100BE000C7010E94930E892BE9F4DE01AE59BF4F75
:100BF000FE01E45FFE4F2D913C91A081B1810E94E6
:100C00003A0E9B01AC01A3E0B0E00E94580E20E038
:100C100034E040E050E00E941B0E3F932F9382E8A7
:100C200091E06BCF69E871E0C7010E94930E892BB8
:100C3000E9F4DE01AC59BF4FFE01E45FFE4F2D9198
:100C40003C91A081B1810E943A0E9B01AC01A3E0CE
:100C5000B0E00E94580E20E034E040E050E00E94F6
:100C60001B0E3F932F938DE891E047CF64E971E02D
:100C7000C7010E94930E892B09F05EC0FE01E45F5C
:100C8000FE4FC080D180EC5AF109A081B18196015C
:100C90000E943A0E9B01AC01A3E0B0E00E94580E06
:100CA000812CA4E09A2EA12CB12CA50194010E94C4
:100CB0001B0E2901FE01E25AFF4FA081B18196016E
:100CC0000E943A0E9B01AC01A3E0B0E00E94580ED6
:100CD000A50194010E941B0E7201E20EF31EFE019B
:100CE000EE59FF4FA081B18196010E943A0E9B01FF
:100CF000AC01A3E0B0E00E94580EA50194010E944F
:100D00001B0EE20EF31EFE01EC59FF4FA081B181D4
:100D100096010E943A0E9B01AC01A3E0B0E00E9454
:100D2000580EA50194010E941B0E2E0D3F1D3F93EE
:100D30002F9388E991E0E1CE6FE971E0C7010E944D
:100D4000930E892B51F4FE01E45FFE4F81818F9356
:100D500080818F9384EA91E0D0CE6CEA71E0C70184
:100D60000E94930E892B41F489E00E94B8019F9361
:100D70008F9381EB91E0C1CE69EB71E0C7010E94D6
:100D8000930E892B41F488E00E94B8019F938F93C2
:100D90008EEB91E0B2CE66EC71E0C7010E94930E3B
:100DA000892B41F483E00E94B8019F938F938BECD1
:100DB00091E0A3CE63ED71E0C7010E94930E892BF1
:100DC00041F487E00E94B8019F938F9388ED91E0F2
:100DD00094CE60EE71E0C7010E94930E892BA9F4B6
:100DE000C6010E94C90DF82EE92EFE01E85EFE4FF5
:100DF00040815181682F792F89E090E00E94400264
:100E0000EF92FF9285EE91E078CE6EEE71E0C70131
:100E10000E94930E892BA9F4C6010E94C90DF82ED9
:100E2000E92EFE01E65EFE4F40815181682F792F49
:100E300088E090E00E944002EF92FF9283EF91E001
:100E40005CCE6CEF71E0C7010E94930E892BA9F470
:100E5000C6010E94C90DF82EE92EFE01E45EFE4F88
:100E600040815181682F792F83E090E00E944002F9
:100E7000EF92FF9281E092E040CE6AE072E0C7011B
:100E80000E94930E892BA9F4C6010E94C90DF82E69
:100E9000E92EFE01E25EFE4F40815181682F792FDD
:100EA00087E090E00E944002EF92FF928FE092E094
:100EB00024CE68E172E0C7010E94930E892B19F5D8
:100EC000C6010E94C90D7C016E0182EFC81A8EEF27
:100ED000D80AB7010F2C000C880B990BF7E0660FAE
:100EE000771F881F991FFA95D1F723E537E040E077
:100EF00050E00E941B0ED6012D933C93FF92EF927F
:100F00008DE192E0FACD66E272E0C7010E94930E95
:100F1000892B11F5C6010E94C90D7C016E01B0EF4D
:100F2000CB1ABEEFDB0ABC01990F880B990BE7E0E7
:100F3000660F771F881F991FEA95D1F723E537E0E1
:100F400040E050E00E941B0EF60131832083FF92A7
:100F5000EF928BE292E0D1CD64E372E0C7010E9490
:100F6000930E892B11F5C6010E94C90D7C016E01FB
:100F7000FEEECF1AFEEFDF0ABC01990F880B990B2A
:100F800057E0660F771F881F991F5A95D1F723E501
:100F900037E040E050E00E941B0ED6012D933C93B9
:100FA000FF92EF9289E392E0A8CD62E472E0C7017C
:100FB0000E94930E892B11F5C6010E94C90D7C0178
:100FC0006E01BCEECB1ABEEFDB0ABC01990F880B99
:100FD000990B47E0660F771F881F991F4A95D1F735
:100FE00023E537E040E050E00E941B0EF60131831C
:100FF0002083FF92EF9287E492E07FCD60E572E07C
:10100000C7010E94930E892BB9F04E01F2E08F0EBA
:10101000911CB12CA12C8E899F89A816B9067CF54C
:10102000D401ED91FD914D01A801B601C7010995CB
:10103000BFEFAB1ABB0AEFCFC6010E94C90D7C01FE
:101040006E018AEEC81A8EEFD80AB7010F2C000C79
:10105000880B990B37E0660F771F881F991F3A9509
:10106000D1F723E537E040E050E00E941B0ED601A7
:101070002D933C93FF92EF9285E592E03ECDDF9178
:10108000CF911F910F91FF90EF90DF90CF90BF9085
:10109000AF909F908F907F906F905F904F9008954A
:1010A0000F931F93CF93DF938B016EE572E00E9445
:1010B000E70DEC016FE371E090E080E00E94E70D46
:1010C0009801AC01BE0189EB93E0DF91CF911F91B4
:1010D0000F910C944505CF93DF9380E193E00E943C
:1010E000F502892B31F180E193E00E94D302209137
:1010F000E1033091E203F901E754FC4F808F2F5F49
:101100003F4F3093E2032093E1038A3019F02F30F0
:10111000310519F727543C4FF901108E1092E20364
:101120001092E10370E060E081ED93E00E945008CE
:10113000D4CF0E944F04209117043091180480915D
:10114000C7049091C8048217930754F44091D104C6
:101150005091D20470E060E089E090E00E9440028B
:101160002091190430911A048091C9049091CA0405
:101170008217930754F44091D3045091D40470E043
:1011800060E088E090E00E94400220911B043091D2
:101190001C048091CB049091CC048217930754F4E3
:1011A0004091D5045091D60470E060E083E090E077
:1011B0000E94400220911D0430911E048091CD04B4
:1011C0009091CE048217930754F44091D704509124
:1011D000D80470E060E087E090E00E9440028091D7
:1011E0001704909118042091190430911A04820F69
:1011F000931F20911B0430911C04820F931F209198
:101200001D0430911E04820F931F2091CF04309152
:10121000D0042817390744F54091D1045091D204E5
:1012200070E060E089E090E00E9440024091D304C9
:101230005091D40470E060E088E090E00E944002A9
:101240004091D5045091D60470E060E083E090E0D6
:101250000E9440024091D7045091D80470E060E0B1
:1012600087E090E00E944002C0911504D0911604DE
:101270008091030390910403C817D90778F1A091D6
:101280001704B09118048091190490911A04A80FC2
:10129000B91F80911B0490911C04A80FB91F809165
:1012A0001D0490911E04A80FB91F2091D9043091FC
:1012B000DA044091DB045091DC040E94630E20E0CC
:1012C00034E040E050E00E941B0E809105039091B5
:1012D0000603821B930BC817D907D0F589E00E943B
:1012E000B801892B09F450C061E089E00E940F0227
:1012F00061E088E00E940F0261E083E00E940F023B
:1013000061E087E00E940F0260E089E00E94E10155
:1013100060E088E00E94E10160E083E00E94E1017A
:1013200060E087E00E94E1018BE39CE90197F1F71F
:1013300060E089E00E940F0260E088E00E940F02F6
:1013400060E083E00E940F0260E087E00E940F02ED
:101350008091600290916102A0916202B09163025B
:101360000196A11DB11D893EF3E09F07A105B105BE
:10137000F4F48093600290936102A0936202B093B0
:101380006302DF91CF91089588E00E94B801892B14
:1013900009F0AACF83E00E94B801892B09F0A4CFFD
:1013A00087E00E94B801892B09F09ECFD1CF10921F
:1013B0006002109261021092620210926302DF9149
:1013C000CF910C948C000F931F93CF93DF938C01DC
:1013D000C9EBD3E0CE01895B93408017910744F4B9
:1013E0008DEA93E00E94F9038AA71BA62196F2CF0B
:1013F000E9EBF3E0CF01895B93408017910724F478
:1014000083A582A73196F6CF61E070E083EE93E08A
:10141000DF91CF911F910F910C9450081F920F9262
:101420000FB60F9211242F933F938F939F93AF93F7
:10143000BF9380910C0390910D03A0910E03B09186
:101440000F0330910B0323E0230F2D3758F501963E
:10145000A11DB11D20930B0380930C0390930D03EA
:10146000A0930E03B0930F0380910703909108039C
:10147000A0910903B0910A030196A11DB11D8093AB
:10148000070390930803A0930903B0930A03BF9145
:10149000AF919F918F913F912F910F900FBE0F9021
:1014A0001F90189526E8230F0296A11DB11DD2CFDB
:1014B0001F920F920FB60F9211242F933F934F93C9
:1014C0005F936F937F938F939F93AF93BF93EF93AC
:1014D000FF9380E193E00E941503FF91EF91BF918C
:1014E000AF919F918F917F916F915F914F913F91BC
:1014F0002F910F900FBE0F901F9018951F920F9273
:101500000FB60F9211242F938F939F93EF93FF9316
:10151000E0912003F09121038081E0912603F09176
:10152000270382FD1BC09081809129038F5F8F73F9
:1015300020912A03821741F0E0912903F0E0E05F57
:10154000FC4F958F80932903FF91EF919F918F918D
:101550002F910F900FBE0F901F9018958081F4CFA0
:101560001F920F920FB60F9211242F933F934F9318
:101570005F936F937F938F939F93AF93BF93EF93FB
:10158000FF93E0910001F09101010995FF91EF9126
:10159000BF91AF919F918F917F916F915F914F918B
:1015A0003F912F910F900FBE0F901F9018951F9293
:1015B0000F920FB60F9211242F933F934F935F9387
:1015C0006F937F938F939F93AF93BF93EF93FF930B
:1015D0008091B900887F803609F44AC0F0F58832DE
:1015E00009F4A7C018F5803109F49BC0B8F488232A
:1015F00009F4F9C0883009F494C0FF91EF91BF91CC
:10160000AF919F918F917F916F915F914F913F919A
:101610002F910F900FBE0F901F901895883109F4ED
:1016200088C0803251F78093CD0214C0803409F411
:101630009DC040F48033B9F38833F9F68093CD022E
:1016400085ECB0C0803509F485C0883509F496C0B2
:10165000883499F60E94C104D0CF883909F48CC02F
:1016600038F5883729F050F4883611F0803729F69C
:1016700083E08093CE021092CC0257C0883809F4E0
:101680007BC0803919F0803809F0B7CF8091CC0247
:10169000803208F071C0E091CC0281E08E0F80931F
:1016A000CC028091BB00F0E0E455FD4F80833DC04B
:1016B000803B39F0E0F4803A09F479C0883A09F0C7
:1016C0009CCF84E08093CE021092AB021092AA02CB
:1016D000E091FA02F091FB0209958091AA02811132
:1016E0000FC081E08093AA0210928A0209C0803C58
:1016F00009F4A6CF883C09F4A3CF883B09F07DCF3D
:10170000E091AB0281E08E0F8093AB02F0E0E657F0
:10171000FD4F80818093BB009091AB028091AA0223
:1017200029C08091F3028093BB0085EC8093BC00BC
:1017300064CF9091F2028091F102981758F5E091F0
:10174000F20281E08E0F8093F202F0E0EF52FD4F43
:101750008081E9CFE091F20281E08E0F8093F20266
:101760008091BB00F0E0EF52FD4F80839091F20238
:101770008091F1029817C8F285E8D8CFE091F20283
:1017800081E08E0F8093F2028091BB00F0E0EF5277
:10179000FD4F80838091D00281115CCF81E08093E6
:1017A000CF0284EA8093BC001092CE0226CF85EC53
:1017B0008093BC001092CE028091CC02803230F433
:1017C000E091CC02F0E0E455FD4F10826091CC0234
:1017D00070E0E091F802F091F9028CEA92E009954C
:1017E0001092CC020ACF1092CD0234CFE0E1F3E0A8
:1017F0001382128288EE93E0A0E0B0E084839583A8
:10180000A683B78328E131E03183208325EC30E0E3
:101810003587248724EC30E03787268720EC30E0BA
:10182000318B208B21EC30E0338B228B22EC30E0AB
:10183000358B248B26EC30E0378B268B118E128E65
:10184000138E148EEDEAF3E0138212828483958363
:10185000A683B7838AE291E091838083E9EBF3E08A
:10186000178A168A11A610A613AE12AE8CE391E069
:10187000918380838CEB91E09093C8048093C7049C
:101880009093CA048093C9049093CC048093CB04B2
:101890009093CE048093CD0480EF96E09093D00493
:1018A0008093CF0488E0E2E0F1E0A1EDB4E00190A4
:1018B0000D928A95E1F71092D9041092DA041092F1
:1018C000DB041092DC040895789484B5826084BDB2
:1018D00084B5816084BD85B5826085BD85B5816034
:1018E00085BD80916E00816080936E0010928100B2
:1018F000809181008260809381008091810081606D
:10190000809381008091800081608093800080912D
:10191000B10084608093B1008091B00081608093B9
:10192000B00080917A00846080937A0080917A0080
:10193000826080937A0080917A00816080937A003F
:1019400080917A00806880937A001092C10061E0F3
:1019500082E00E940F0261E084E00E940F0260E0DA
:1019600089E00E940F0260E088E00E940F0260E0C0
:1019700083E00E940F0260E087E00E940F0260E0B7
:1019800081E10E940F0260E080E10E940F0260E0AE
:101990008FE00E940F0260E08EE00E940F0260E084
:1019A00085E10E940F020E948C00C0E1D0E00E94FD
:1019B0004F042197E1F789E991E09093C80480935F
:1019C000C7049093CA048093C9049093CC04809375
:1019D000CB049093CE048093CD0480E094E0909368
:1019E000D0048093CF048091CF039091D0038A30AC
:1019F000910574F40196FC01EE0FFF1FE754FC4FB4
:101A000028E135E0318320839093D0038093CF0386
:101A1000E0912003F091210382E08083E0911C0398
:101A2000F0911D031082E0911E03F0911F0383E3E8
:101A3000808310922803E0912403F091250386E02F
:101A40008083E0912203F091230380818061808371
:101A5000E0912203F0912303808188608083E091EC
:101A60002203F0912303808180688083E091220328
:101A7000F091230380818F7D80831092FF0210926A
:101A8000FE021092FD021092FC020E94CB0381E63E
:101A900092E09093FB028093FA028DE692E090939D
:101AA000F9028093F802C0E1C093BA0083EE99E096
:101AB0009093F7028093F6028AE894E09093F502FF
:101AC0008093F402C090C504D090C6040D2C000C85
:101AD000EE08FF0860E573E787E390E0A701960151
:101AE0000E941B0E309306032093050360E27AE008
:101AF00085E390E0A70196010E941B0E309304033A
:101B0000209303038EE590E0A0E0B0E08093D90439
:101B10009093DA04A093DB04B093DC0488EC90E0AB
:101B20009093D2048093D1049093D4048093D304EF
:101B30009093D6048093D50488EE93E09093D804D4
:101B40008093D704C09381001092800081E080933D
:101B5000020320E43FE1309301032093000330931C
:101B600087002093860091E1909381002BE638E076
:101B7000309301012093000180936F00C0E0D0E01A
:101B80002097F1F30E9401038823D1F30E94000003
:101B9000F7CFFC0188279927E89421912032E9F3B7
:101BA000293010F02E30C8F32B3241F02D3239F4A9
:101BB000689404C00E94130E820F911D219120533E
:101BC0002A30C0F31EF4909581959F4F08954DEDF6
:101BD00054E00E94EC0D0895FA01A191B0810097A4
:101BE00019F41097E1F0CD01DC01CD010D9000203A
:101BF00011F4C00113C0FB012191222319F020151B
:101C0000D9F7F3CFFB012191201519F41E921196FB
:101C100006C02223C1F70D900020A1F7D001FA01E0
:101C2000A193B08308957AE0979F902D879F802D90
:101C3000910D11240895052E97FB1EF400940E9427
:101C4000320E57FD07D00E946B0E07FC03D04EF4F6
:101C50000C94320E50954095309521953F4F4F4F43
:101C60005F4F089590958095709561957F4F8F4F48
:101C70009F4F08950E94420E332312F48A1B9B0B40
:101C80000C94530EA29FB001B39FC001A39F700D8F
:101C9000811D1124911DB29F700D811D1124911D74
:101CA00008950E94420EB7FF0895821B930B08957A
:101CB0000E94420EA59F900DB49F900DA49F800D91
:101CC000911D11240895B7FF0C94580E0E94580ED0
:101CD000821B930B0895A1E21A2EAA1BBB1BFD01C8
:101CE0000DC0AA1FBB1FEE1FFF1FA217B307E407FB
:101CF000F50720F0A21BB30BE40BF50B661F771F53
:101D0000881F991F1A9469F7609570958095909532
:101D10009B01AC01BD01CF010895EE0FFF1F05909F
:101D2000F491E02D0994FB01DC018D910190801963
:101D30000110D9F3990B0895AEE0B0E0E2EAFEE0BD
:101D40000C944B110D891E8986E08C831A830983BC
:101D50008FEF9FE79E838D83AE01475E5F4F6F8954
:101D6000788DCE0101960E94BF0E2F813885020F1B
:101D7000131FF80110822E96E4E00C946711ABE07B
:101D8000B0E0E5ECFEE00C943D117C013B018A01E2
:101D9000FC0117821682838181FFC8C1CE010196A2
:101DA0005C01F7019381F30193FD859193FF81918C
:101DB0003F01882309F453C1853239F493FD85919D
:101DC00093FF81913F01853229F4B70190E00E9491
:101DD000AF10E7CF912C212C312CFFE1F31538F017
:101DE0008B3211F190F4803209F1833229F137FC02
:101DF0003CC020ED280F2A3050F536FE20C08AE086
:101E0000989E200D1124922E06C08D3291F08033C1
:101E100071F7689430F8F30193FD859193FF8191F8
:101E20003F018111DACF21C0689431F8689432F80B
:101E3000F2CF689433F8EFCF689434F8ECCFEAE04F
:101E40002E9E200D1124222E689435F8E4CF8E3278
:101E500029F436FC04C1689436F8DDCF8C3619F4C9
:101E6000689437F8D8CF8836B1F2982F9F7D955473
:101E70009330E0F08336A1F18337C1F1833509F067
:101E800063C02801F2E04F0E511CF801C080D180E0
:101E9000692D70E036FC02C06FEF7FEFC6010E9433
:101EA00099104C01689437F882010AC00C5F1F4FEB
:101EB000FFE3F98388248394912C6501E89437F833
:101EC00033FE2DC0522C8114910471F5552009F474
:101ED00068CFB70180E290E00E94AF105A94F6CF2D
:101EE000F801808189830E5F1F4FE4CF2801F2E063
:101EF0004F0E511CF801C080D180692D70E036FC76
:101F000002C06FEF7FEFC6010E94A4104C01820156
:101F1000D5CFB70180E290E00E94AF102A94281438
:101F2000190409F0B0F7CECFF60137FC859137FEE2
:101F300081916F01B70190E00E94AF1051105A9447
:101F4000F1E08F1A9108BFCF843619F0893609F075
:101F500077C0F80137FE6BC0608171818281938107
:101F60000C5F1F4FF32DFF763F2E97FF09C0909512
:101F70008095709561957F4F8F4F9F4F689437F88C
:101F80002AE030E0A5010E94DF10C82ECA188C2C70
:101F9000432C36FE0CC0E89440F8C91440F434FEDB
:101FA00005C032FC03C0F32DFE7E4F2E892C44FE6B
:101FB00095C0FE01EC0DF11D8081803309F087C0D2
:101FC000242D297E422E842D8870582E43FC95C0E6
:101FD00040FE8FC09C2C821418F42C0C922C981864
:101FE00044FE91C0B70180E390E00E94AF1042FE32
:101FF00009C088E790E041FE02C088E590E0B701A3
:102000000E94AF10C91408F48AC0CA94D12C9FEF63
:10201000C91AD90ACA0CDB1CF60182916F01B701FB
:1020200090E00E94AF10AC14BD04B1F74FCF6081B7
:102030007181072E000C880B990B0E5F1F4F92CFFA
:10204000D32CE894D4F82AE030E0853739F1232DF9
:10205000297FD22E8F3601F148F48835A9F0F70197
:10206000868197812B96E2E10C945911803749F0D3
:102070008837A9F7D4FE02C06894D2F820E130E096
:102080000DC06894D4F8F6CF34FE03C0822F86606A
:10209000D82E20E132E002C028E030E0F801D7FE7F
:1020A0000FC060817181828193810C5F1F4FA501F8
:1020B0000E94DF10C82ECA183D2CE89437F867CF6D
:1020C0006081718190E080E00E5F1F4FF0CF42FC95
:1020D00002C0839478CF8394839475CF842D8678BF
:1020E00009F471CFF6CFB70180E290E00E94AF1003
:1020F00083948214C0F3512C73CF522C581882143D
:1021000008F46ECFF8CF842D867809F47BCF8BE26C
:1021100041FE80E247FC8DE2B70190E071CFB7014C
:1021200080E390E00E94AF109A946CCF8FEF9FEF06
:1021300099CFFC010590615070400110D8F780954F
:1021400090958E0F9F1F0895FC0161507040019083
:102150000110D8F7809590958E0F9F1F08950F93CB
:102160001F93CF93DF93182F092FEB018B8181FDF4
:1021700009C01FEF0FEF812F902FDF91CF911F919B
:102180000F91089582FF14C02E813F818C819D8123
:10219000281739073CF4E881F981CF01019699832A
:1021A000888310838E819F8101969F838E83E3CFE6
:1021B000E885F985812F0995892BA1F3DACFFA01FA
:1021C000AA27283051F1203181F1E8946F936E7F76
:1021D0006E5F7F4F8F4F9F4FAF4FB1E03ED0B4E067
:1021E0003CD0670F781F891F9A1FA11D680F791FA8
:1021F0008A1F911DA11D6A0F711D811D911DA11DB9
:1022000020D009F468943F912AE0269F11243019C8
:10221000305D3193DEF6CF010895462F4770405D63
:102220004193B3E00FD0C9F7F6CF462F4F70405D12
:102230004A3318F0495D31FD4052419302D0A9F76D
:10224000EACFB4E0A6959795879577956795BA9567
:10225000C9F700976105710508959B01AC010A2E2D
:1022600006945795479537952795BA95C9F7620F04
:10227000731F841F951FA01D08952F923F924F92A8
:102280005F926F927F928F929F92AF92BF92CF9206
:10229000DF92EF92FF920F931F93CF93DF93CDB70F
:1022A000DEB7CA1BDB0B0FB6F894DEBF0FBECDBF87
:1022B00009942A88398848885F846E847D848C8458
:1022C0009B84AA84B984C884DF80EE80FD800C8161
:1022D0001B81AA81B981CE0FD11D0FB6F894DEBF44
:1022E0000FBECDBFED010895F894FFCF600232001C
:1022F0003200320032000400100010001000100004
:102300000000000037039702C4028403F502D302E1
:10231000E702000000001E0413042F04E9030C046C
:10232000F903EA030000000045050D0A0052464E7D
:1023300000345F536D61727450616E656C2E696E0E
:102340006F0057464E3A2573005256420057564288
:102350003A257500524931005749313A25640052F7
:102360004932005749323A256400524933005749EF
:10237000333A256400524934005749343A25640001
:10238000524954005749543A256400525643430079
:10239000575643433A256400524348310057434857
:1023A000313A2564005243483200574348323A25B7
:1023B00064005243483300574348333A256400527F
:1023C00043483400574348343A2564005743483162
:1023D00000574348313A3D2564005743483200577F
:1023E0004348323A3D256400574348330057434839
:1023F000333A3D2564005743483400574348343A44
:102400003D25640057494C310057494C313A3D2530
:10241000640057494C320057494C323A3D2564001C
:1024200057494C330057494C333A3D2564005749CE
:102430004C340057494C343A3D25640057494C54BC
:0C2440000057494C543A3D2564003A0016
:107E0000112484B714BE81FFF0D085E080938100F7
:107E100082E08093C00088E18093C10086E0809377
:107E2000C20080E18093C4008EE0C9D0259A86E02C
:107E300020E33CEF91E0309385002093840096BBD3
:107E4000B09BFECF1D9AA8958150A9F7CC24DD24C4
:107E500088248394B5E0AB2EA1E19A2EF3E0BF2EE7
:107E6000A2D0813461F49FD0082FAFD0023811F036
:107E7000013811F484E001C083E08DD089C08234E0
:107E800011F484E103C0853419F485E0A6D080C0E4
:107E9000853579F488D0E82EFF2485D0082F10E0AE
:107EA000102F00270E291F29000F111F8ED06801E7
:107EB0006FC0863521F484E090D080E0DECF843638
:107EC00009F040C070D06FD0082F6DD080E0C81688
:107ED00080E7D80618F4F601B7BEE895C0E0D1E017
:107EE00062D089930C17E1F7F0E0CF16F0E7DF06D8
:107EF00018F0F601B7BEE89568D007B600FCFDCFD4
:107F0000A601A0E0B1E02C9130E011968C91119780
:107F100090E0982F8827822B932B1296FA010C0160
:107F200087BEE89511244E5F5F4FF1E0A038BF0790
:107F300051F7F601A7BEE89507B600FCFDCF97BE46
:107F4000E89526C08437B1F42ED02DD0F82E2BD052
:107F50003CD0F601EF2C8F010F5F1F4F84911BD097
:107F6000EA94F801C1F70894C11CD11CFA94CF0C13
:107F7000D11C0EC0853739F428D08EE10CD085E9AC
:107F80000AD08FE07ACF813511F488E018D01DD067
:107F900080E101D065CF982F8091C00085FFFCCF94
:107FA0009093C60008958091C00087FFFCCF809118
:107FB000C00084FD01C0A8958091C6000895E0E648
:107FC000F0E098E1908380830895EDDF803219F02E
:107FD00088E0F5DFFFCF84E1DECF1F93182FE3DFCA
:107FE0001150E9F7F2DF1F91089580E0E8DFEE27F6
:047FF000FF270994CA
:027FFE00040479
:00000001FF
