:100000000C9462000C948A000C948A000C948A0070
:100010000C948A000C948A000C948A000C948A0038
:100020000C948A000C948A000C948A000C948A0028
:100030000C948A000C94EF0E0C948A000C948A00A5
:100040000C944D0E0C948A000C94BD0E0C94970EDB
:100050000C948A000C948A000C948A000C948A00F8
:100060000C94160F0C948A00000000002400270056
:100070002A0000000000250028002B0000000000DE
:1000800023002600290004040404040404040202DA
:100090000202020203030303030301020408102007
:1000A0004080010204081020010204081020000012
:1000B0000008000201000003040700000000000027
:1000C0000000351011241FBECFEFD8E0DEBFCDBF3A
:1000D00026E0AAE5B3E001C01D92A33CB207E1F718
:1000E00013E0A0E0B1E0ECEDFCE202C005900D925F
:1000F000AA35B107D9F710E0C2E6D0E004C02197D5
:10010000FE010E948513C136D107C9F70E94B310C2
:100110000C946C160C940000CF93DF93E8E2F4E0AB
:1001200030E020E041915191481759072CF42F5F9E
:100130003F4F28303105B1F7220F331FF901EA5D37
:10014000FB4F0190F081E02DA9014E5F5F4FDA0176
:10015000AA5DBB4F6D917C91265D3E4FD9012D91DB
:100160003C91465D5E4FEA01A881B981E617F70729
:1001700091F0A21BB30BAC014E1B5F0BA49FC001FF
:10018000A59F900DB49F900D11246E1B7F0B0E94B4
:10019000EB12260F371FC901DF91CF9108956F929F
:1001A0007F928F929F92AF92BF92CF92DF92EF9207
:1001B000FF920F931F93CF93DF933C01EB0125EE4A
:1001C00035E082E068167104B1F04CF425EA35E0C0
:1001D000B1E06B16710479F025E635E00CC025E23C
:1001E00036E0E3E06E16710431F025E636E0F4E027
:1001F0006F16710489F78301000F111F055A1A4FFA
:10020000F801A081B181AA0FBB1FA20FB31FF30198
:10021000EE0FFF1FEE0FFF1FE95BFA4FCD90DC9052
:1002200011970D2C000CEE08FF0880809180A280B1
:10023000B3808C189D08AE08BF08CD93DC93D8011D
:10024000ED90FC90A701440F551F240F351FD901D5
:100250004D915C91052E000C660B770BCB01BA011A
:10026000680D791D8A1D9B1D608371838283938332
:10027000F301EE0FFF1FE05EFE4FC080D1809301BF
:10028000220F331FE901C35CDA4F96010D2C000CDD
:10029000440B550B0E94211339832883BFEFEB1ABF
:1002A000FB0AEC14FD0494F4F801F182E082DF9182
:1002B000CF911F910F91FF90EF90DF90CF90BF9063
:1002C000AF909F908F907F906F900895D8011D926E
:1002D0001C92EDCF7F928F929F92AF92BF92CF925E
:1002E000DF92EF92FF920F931F93CF93DF93C4E0BF
:1002F000D0E0C12CD12C76018EE4782E0BE31FE1E7
:1003000094EB892E9BE2992E91E1A92EB12C70924B
:100310007C00C8010197F1F780917A008064809396
:100320007A0080917A0086FDFCCF80917800209140
:100330007900322F282F032E000C440B550BC501DA
:10034000B4010E942113032E000C440B550BC20E66
:10035000D31EE41EF51E2197D1F6C701B60124E095
:1003600030E040E050E00E942113263583E1380759
:1003700094F03093A6062093A506DF91CF911F91AC
:100380000F91FF90EF90DF90CF90BF90AF909F9034
:100390008F907F90089588E893E19093A6068093CC
:1003A000A506EBCF833081F028F4813099F08230BC
:1003B000A9F008958730A9F08830C9F08430B1F4ED
:1003C000809180008F7D03C0809180008F77809323
:1003D0008000089584B58F7784BD089584B58F7D9E
:1003E000FBCF8091B0008F778093B000089580910B
:1003F000B0008F7DF9CFCF93DF93282F30E0F90144
:10040000E255FF4F8491F901E656FF4FD491F9016F
:10041000EA57FF4FC491CC23A1F081110E94D20171
:10042000EC2FF0E0EE0FFF1FE458FF4FA591B491C1
:10043000EC91ED2381E090E009F480E0DF91CF9131
:10044000089580E090E0FACF1F93CF93DF93282F99
:1004500030E0F901E255FF4F8491F901E656FF4F74
:10046000D491F901EA57FF4FC491CC23A9F0162F7C
:1004700081110E94D201EC2FF0E0EE0FFF1FEE5829
:10048000FF4FA591B4918FB7F894EC91111108C06A
:10049000D095DE23DC938FBFDF91CF911F9108951C
:1004A000DE2BF8CFCF93DF9390E0FC01E656FF4FB1
:1004B00024918A579F4FFC0184918823D1F090E0CA
:1004C000880F991FFC01E859FF4FA591B491FC01D9
:1004D000EE58FF4FC591D49161110EC09FB7F894AB
:1004E0008C91E22FE0958E238C932881E223E88380
:1004F0009FBFDF91CF9108958FB7F894EC91E22BD5
:10050000EC938FBFF6CFFF920F931F93CF93DF93A0
:10051000182FF62E042FE90161E00E9452026F2D80
:10052000812F0E942402002399F0C230D10538F0B7
:10053000CC0FDD1FCC0FDD1F25972197F1F760E071
:10054000812FDF91CF911F910F91FF900C94520258
:10055000DF91CF911F910F91FF900895E0910804D2
:10056000F0910904309729F01092110410921004B0
:1005700009940895CF93DF93AC01E0910A04F091C0
:100580000B043097F1F090911304809112049817A6
:10059000C0F090E0292F30E02617370754F4D90136
:1005A000A858BC4F240F351FE90128812C939F5F69
:1005B000F1CF1092130460931204CB01DF91CF911D
:1005C0000994DF91CF910895AF92BF92CF92DF92BD
:1005D000EF92FF920F931F93CF93DF936C017B01F8
:1005E0008B01040F151FEB015E01AE18BF08C01789
:1005F000D10759F06991D601ED91FC910190F081FC
:10060000E02DC6010995892B79F7C501DF91CF91BE
:100610001F910F91FF90EF90DF90CF90BF90AF9020
:100620000895FC01538D448D252F30E0842F90E0F8
:10063000821B930B541710F0CF96089501970895DD
:10064000FC01918D828D981761F0A28DAE0FBF2FA6
:10065000B11D5D968C91928D9F5F9F73928F90E0FC
:1006600008958FEF9FEF0895FC01918D828D98176B
:1006700031F0828DE80FF11D858D90E008958FEFA8
:100680009FEF0895FC01918D228D892F90E0805C71
:100690009F4F821B91098F739927089588E394E0F7
:1006A0000E94420321E0892B09F420E0822F089563
:1006B00080E090E0892B29F00E944E0381110C9478
:1006C00000000895FC01A48DA80FB92FB11DA35AF5
:1006D000BF4F2C91848D90E001968F739927848F62
:1006E000A689B7892C93A089B1898C918370806485
:1006F0008C93938D848D981306C00288F389E02D26
:1007000080818F7D80830895EF92FF920F931F93D6
:10071000CF93DF93EC0181E0888F9B8D8C8D9813B4
:100720001AC0E889F989808185FF15C09FB7F894C0
:10073000EE89FF896083E889F9898081837080640C
:1007400080839FBF81E090E0DF91CF911F910F9157
:10075000FF90EF900895F62E0B8D10E00F5F1F4F66
:100760000F731127E02E8C8D8E110CC00FB607FC75
:10077000FACFE889F989808185FFF5CFCE010E9403
:100780006203F1CFEB8DEC0FFD2FF11DE35AFF4F0C
:10079000F0829FB7F8940B8FEA89FB898081806291
:1007A000CFCFCF93DF93EC01888D8823B9F0AA894E
:1007B000BB89E889F9898C9185FD03C0808186FD1C
:1007C0000DC00FB607FCF7CF8C9185FFF2CF80816B
:1007D00085FFEDCFCE010E946203E9CFDF91CF917B
:1007E000089508952091BE03260F3327331F213229
:1007F0003105ECF42091E203FC0190E080E024302C
:1008000069F082E00895A091BE032191AC014256A7
:100810005C4FA40FB52FB11D2C930196861798F34A
:100820008091BE03680F6093BE0380E0089581E06D
:1008300008951092E20381E08093E4031092E303B1
:1008400061E082E10E94240261E083E10E942402CF
:10085000E9EBF0E080818E7F808380818D7F8083D3
:1008600088E48093B80085E48093BC0008950895DF
:10087000E091130480911204E81730F4F0E0E85896
:10088000FC4F808190E008958FEF9FEF0895909145
:100890001304809112042FEF3FEF981748F4E92FCB
:1008A000F0E0E858FC4F208130E09F5F9093130404
:1008B000C90108958091120490911304891B990B2A
:1008C0000895CF93DF93CB01EA01642F0E94F203D6
:1008D000CE01DF91CF910895CF93DF931F92CDB7D3
:1008E000DEB7698361E0CE0101960E94F20381E0E8
:1008F00090E00F90DF91CF91089590E080E008950F
:100900000895FC01E053FE4F2081318188529E4FB3
:10091000FC01408189E090E00C9483024F925F9249
:100920006F927F928F929F92AF92BF92EF92FF92BF
:100930000F931F93CF93DF938C01FC01EC53FE4F79
:10094000E080F180E456F140A081B18197010E94DE
:1009500040139B01AC01A3E0B0E00E945E13812C28
:1009600024E0922EA12CB12CA50194010E94211308
:100970002901F801E25AFF4FA081B18197010E943D
:1009800040139B01AC01A3E0B0E00E945E13A501FF
:1009900094010E942113E201C20FD31FF801EE5906
:1009A000FF4FA081B18197010E9440139B01AC01D0
:1009B000A3E0B0E00E945E13A50194010E94211300
:1009C000C20FD31FF801EC59FF4FA081B1819701ED
:1009D0000E9440139B01AC01A3E0B0E00E945E13B3
:1009E000A50194010E942113CE01820F931FDF9174
:1009F000CF911F910F91FF90EF90BF90AF909F907C
:100A00008F907F906F905F904F90089520917A0023
:100A100090917A00987F946090937A008E508064D1
:100A200080937C0080917A00806480937A0080912A
:100A30007A0086FDFCCF8091780090917900209318
:100A40007A00089581E10E940605BC0190E080E0F3
:100A50000E94CF0080E10E940605BC01725081E037
:100A600090E00E94CF008FE00E940605BC0172500A
:100A700082E090E00E94CF008EE00E940605BC015B
:100A8000725083E090E00E94CF0085E10E9406054D
:100A9000BC01725084E090E00C94CF00FC01EA525B
:100AA000FE4F2081318185529E4FFC01408187E0BD
:100AB00090E00C948302FC01EC52FE4F20813181C6
:100AC00086529E4FFC01408183E090E00C948302AB
:100AD000FC01EE52FE4F2081318187529E4FFC0176
:100AE000408188E090E00C948302FB01019000209B
:100AF000E9F73197AF01461B570BDC01ED91FC91F3
:100B00000280F381E02D09948F929F92AF92BF9261
:100B10000F931F93CF93DF93CDB7DEB7A1970FB697
:100B2000F894DEBF0FBECDBF19A2423008F44AE0F0
:100B30008E010F5D1F4F842E912CB12CA12CA5018D
:100B400094010E94FF12E62FB901CA01EA3004F5B0
:100B5000E05DD801EE938D01232B242B252B79F713
:100B600090E080E0109729F0BD0188E394E00E94B6
:100B70007505A1960FB6F894DEBF0FBECDBFDF910D
:100B8000CF911F910F91BF90AF909F908F9008953C
:100B9000E95CDFCFCF92DF92EF92FF92CF93DF93AA
:100BA0006B017C016DE288E394E00E948403EC0118
:100BB00066277727CB016C197D098E099F094AE0CA
:100BC0000E9484058C0F9D1FDF91CF91FF90EF90C5
:100BD000DF90CF900895BC01990F880B990B97FD7A
:100BE0000C94CA054AE00C948405BC0188E394E0A7
:100BF0000C947505CF93DF93672B81F4EC01BC0156
:100C0000645C7F4F21F088E394E00E94750566E6FE
:100C100071E088E394E00E9475051CAEDF91CF91EE
:100C200008958F929F92AF92BF92CF92DF92EF92F0
:100C3000FF920F931F93CF93DF93EC017B016A0127
:100C4000890169E671E0C7010E948B13892B09F0C5
:100C500041C0DE01A45ABF4FFE01EC53FE4F2D915F
:100C60003C91A081B1810E9440139B01AC01ADE099
:100C7000B0E00E945E1320E034E040E050E00E94CB
:100C800021133F932F938DE691E09F938F93C8019B
:100C900024E0880F991F2A95E1F7CC968C0F9D1FB1
:100CA0009F938F930E9494130F900F900F900F902B
:100CB0000F900F90B801CE01DF91CF911F910F914E
:100CC000FF90EF90DF90CF90BF90AF909F908F906C
:100CD0000C94FA0564E771E0C7010E948B13892B1D
:100CE000E9F4DE01A25ABF4FFE01EC53FE4F2D91F5
:100CF0003C91A081B1810E9440139B01AC01A3E013
:100D0000B0E00E945E1320E034E040E050E00E943A
:100D100021133F932F9388E791E0B7CF6FE771E0FE
:100D2000C7010E948B13892BE9F4DE01A05ABF4F43
:100D3000FE01EC53FE4F2D913C91A081B1810E94A8
:100D400040139B01AC01A3E0B0E00E945E1320E0E1
:100D500034E040E050E00E9421133F932F9383E85A
:100D600091E093CF6AE871E0C7010E948B13892B51
:100D7000E9F4DE01AE59BF4FFE01EC53FE4F2D9159
:100D80003C91A081B1810E9440139B01AC01A3E082
:100D9000B0E00E945E1320E034E040E050E00E94AA
:100DA00021133F932F938EE891E06FCF65E971E0B7
:100DB000C7010E948B13892BE9F4DE01AC59BF4FA8
:100DC000FE01EC53FE4F2D913C91A081B1810E9418
:100DD00040139B01AC01A3E0B0E00E945E1320E051
:100DE00034E040E050E00E9421133F932F9389E9C3
:100DF00091E04BCF60EA71E0C7010E948B13892B11
:100E000041F4CE010E948E049F938F9384EA91E077
:100E10003CCF6BEA71E0C7010E948B13892B51F420
:100E2000FE01EC53FE4F81818F9380818F9380EB85
:100E300091E02BCF68EB71E0C7010E948B13892BE7
:100E400041F489E00E94FB019F938F938DEB91E029
:100E50001CCF65EC71E0C7010E948B13892B41F414
:100E600088E00E94FB019F938F938AEC91E00DCF65
:100E700062ED71E0C7010E948B13892B41F483E07E
:100E80000E94FB019F938F9387ED91E0FECE6FED63
:100E900071E0C7010E948B13892B41F487E00E9407
:100EA000FB019F938F9384EE91E0EFCE6CEE71E0A7
:100EB000C7010E948B13892B79F4C6010E94891205
:100EC000BC01CE010E94810489E00E94FB019F9336
:100ED0008F9381EF91E0D9CE6AEF71E0C7010E9454
:100EE0008B13892B79F4C6010E948912BC01CE01B3
:100EF0000E94680588E00E94FB019F938F938FEF0B
:100F000091E0C3CE68E072E0C7010E948B13892B89
:100F100079F4C6010E948912BC01CE010E945B05D2
:100F200083E00E94FB019F938F938DE092E0ADCE12
:100F300066E172E0C7010E948B13892B79F4C60128
:100F40000E948912BC01CE010E944E0587E00E94DA
:100F5000FB019F938F938BE192E097CE64E272E066
:100F6000C7010E948B13892B19F5C6010E948912B3
:100F70007C016E018AE3C81A8EEFD80AB7010F2CE4
:100F8000000C880B990BF7E0660F771F881F991FDD
:100F9000FA95D1F723E537E040E050E00E942113B5
:100FA000D6012D933C93FF92EF9289E292E06DCEB1
:100FB00062E372E0C7010E948B13892B11F5C60111
:100FC0000E9489127C016E01B8E3CB1ABEEFDB0AE6
:100FD000BC01990F880B990BE7E0660F771F881FFC
:100FE000991FEA95D1F723E537E040E050E00E94F1
:100FF0002113F60131832083FF92EF9287E392E081
:1010000044CE60E472E0C7010E948B13892B11F576
:10101000C6010E9489127C016E01F6E3CF1AFEEF31
:10102000DF0ABC01990F880B990B57E0660F771FF9
:10103000881F991F5A95D1F723E537E040E050E02B
:101040000E942113D6012D933C93FF92EF9285E4E9
:1010500092E01BCE6EE472E0C7010E948B13892BD5
:1010600011F5C6010E9489127C016E01B4E3CB1A0E
:10107000BEEFDB0ABC01990F880B990B47E0660FA6
:10108000771F881F991F4A95D1F723E537E040E085
:1010900050E00E942113F60131832083FF92EF92EA
:1010A00083E592E0F2CD6CE572E0C7010E948B13FC
:1010B000892BB9F04E01F2E08F0E911CB12CA12CBE
:1010C0008E899F89A816B9067CF5D401ED91FD9112
:1010D0004D01A801B601C7010995BFEFAB1ABB0AC4
:1010E000EFCFC6010E9489127C016E0182E3C81A0B
:1010F0008EEFD80AB7010F2C000C880B990B37E044
:10110000660F771F881F991F3A95D1F723E537E0BF
:1011100040E050E00E942113D6012D933C93FF92B2
:10112000EF9281E692E0B1CDDF91CF911F910F91C7
:10113000FF90EF90DF90CF90BF90AF909F908F90F7
:1011400008950F931F93CF93DF938B016DEB72E0A4
:101150000E94A712EC0167E671E090E080E00E9437
:10116000A7129801AC01BE0181EE94E0DF91CF910E
:101170001F910F910C941106CF92DF92EF92FF9284
:101180000F931F93CF93DF9388E394E00E94420371
:10119000EC01892B31F188E394E00E942003209137
:1011A000090530910A05F901EF51FB4F808F2F5F40
:1011B0003F4F30930A05209309058A3019F02F30EC
:1011C000310511F72F513B4FF901108E10920A058E
:1011D0001092090570E060E089EF94E00E94A10898
:1011E000D3CF20913F05309140058091A706909183
:1011F000A8068217930734F470E060E081EE94E073
:101200000E94810420914105309142058091A906F8
:101210009091AA068217930734F470E060E081EEA3
:1012200094E00E9468052091430530914405809127
:10123000AB069091AC068217930734F470E060E03F
:1012400081EE94E00E945B052091450530914605B2
:101250008091AD069091AE068217930734F470E04A
:1012600060E081EE94E00E944E0580913F059091F0
:1012700040052091410530914205820F931F209136
:10128000430530914405820F931F2091450530910D
:101290004605820F931F2091AF063091B0062817A4
:1012A0003907C4F470E060E081EE94E00E948104AC
:1012B00070E060E081EE94E00E94680570E060E01C
:1012C00081EE94E00E945B0570E060E081EE94E0C6
:1012D0000E944E0500913D0510913E0520913F056D
:1012E000309140058091410590914205280F391FAA
:1012F0008091430590914405280F391F8091450541
:1013000090914605280F391F8091740390917503C1
:10131000280F391F8091720390917303281B390B9A
:10132000032E000C440B550BC0906E03D0906F033E
:10133000E0907003F0907103C20ED31EE41EF51E00
:10134000C0926E03D0926F03E0927003F09271032B
:101350006091BD067091BE068091BF069091C00657
:101360000E94DB1220E034E040E050E00E942113B4
:10137000200F311F80912604909127048217930734
:1013800084F48091360490913704C4E6D0E02817A5
:1013900039070CF040C0C9010E948C00EC01059790
:1013A000D4F589E00E94FB01892B09F456C061E065
:1013B00089E00E94520261E088E00E94520261E0EE
:1013C00083E00E94520261E087E00E94520260E0E6
:1013D00089E00E94240260E088E00E94240260E02C
:1013E00083E00E94240260E087E00E9424028BE3F5
:1013F0009CE90197F1F760E089E00E94520260E009
:1014000088E00E94520260E083E00E94520260E0A5
:1014100087E00E94520280916A0390916B03A09131
:101420006C03B0916D030196A11DB11D893EF3E0DF
:101430009F07A105B10524F580936A0390936B0380
:10144000A0936C03B0936D03DF91CF911F910F9127
:10145000FF90EF90DF90CF90089588E00E94FB010D
:10146000892B09F0A4CF83E00E94FB01892B09F0AE
:101470009ECF87E00E94FB01892B09F098CFCBCF4C
:1014800010926A0310926B0310926C0310926D031A
:101490000E946A01CE010A978135910508F447C17F
:1014A0009E01A0E0B5E90E94401324E630E040E050
:1014B00050E00E94211320931704309318044093A6
:1014C000190450931A04D0937703C09376032091A4
:1014D000450530914605EAE5F3E048E653E0C12CC6
:1014E000D12C76018281938181939193092E000CF6
:1014F000AA0BBB0BC80ED91EEA1EFB1E4E175F07B8
:1015000089F7309369032093680380915A0390917F
:101510005B03092E000CAA0BBB0BBC01CD016C0DAB
:101520007D1D8E1D9F1DC0901B04D0901C040D2C92
:10153000000CEE08FF0828E030E040E050E00E9498
:101540002113C216D306E406F50634F470E060E019
:1015500081EE94E00E944E058AE692E00E94F50535
:1015600089E00E94FB010E94EB0588E00E94FB01DC
:101570000E94EB0583E00E94FB010E94EB0587E0DF
:101580000E94FB010E94EB0582E792E00E94F505B4
:101590008091A5069091A6060E94EB0589E792E04E
:1015A0000E94F50520913D0530913E05A091A506CC
:1015B000B091A6060E9440139B01AC01ADE0B0E0E3
:1015C0000E945E13C12C24E0D22EE12CF12CA70145
:1015D00096010E942113CA01B901882799274AE080
:1015E0000E94840583E892E00E94F50580917603CD
:1015F000909177030E94EB058CE892E00E94F5053C
:1016000020913F0530914005A091A506B091A60616
:101610000E9440139B01AC01A3E0B0E00E945E1366
:10162000A70196010E942113C9010E94EB0583E9DD
:1016300092E00E94F5052091410530914205A0916C
:10164000A506B091A6060E9440139B01AC01A3E041
:10165000B0E00E945E13A70196010E942113C90108
:101660000E94EB058BE992E00E94F505209143056D
:1016700030914405A091A506B091A6060E944013A2
:101680009B01AC01A3E0B0E00E945E13A7019601AC
:101690000E942113C9010E94EB0583EA92E00E9497
:1016A000F5052091450530914605A091A506B0911C
:1016B000A6060E9440139B01AC01A3E0B0E00E948B
:1016C0005E13A70196010E942113C9010E94EB0538
:1016D0008BEA92E00E94F50581EE94E00E948E0470
:1016E0000E94EB0585EB92E00E94F505C8010E947F
:1016F000EB058FEB92E00E94F50560911704709165
:1017000018048091190490911A0497FF74C00E94E4
:10171000CA0566E671E088E394E0DF91CF911F91FE
:101720000F91FF90EF90DF90CF900C947505C7015B
:10173000B60128EE33E040E050E00E942113C901D9
:101740002091A5063091A606DC010E9440139B0162
:10175000AC01A3E0B0E00E945E1320E034E040E082
:1017600050E00E942113C901330FAA0BBB0B20913B
:101770001704309118044091190450911A04281B41
:10178000390B4A0B5B0B20931704309318044093DA
:10179000190450931A0410926E0310926F03109262
:1017A000700310927103A4E6B0E00E945E1320E083
:1017B00035E94FEF5FEF0E942113309377032093B9
:1017C00076032A5031092135310508F480CE9E0177
:1017D000A0E0B5E90E94401324E630E040E050E08C
:1017E0000E94211320931704309318044093190486
:1017F00050931A046CCE4AE00E9484058ACF0F935E
:101800001F93CF93DF938C01C1EED4E0CE01815EB4
:1018100094408017910744F485ED94E00E944704BA
:101820008AA71BA62196F2CFE1EEF4E0CF01815EFC
:1018300094408017910724F483A582A73196F6CFB0
:1018400061E070E08BE095E0DF91CF911F910F9107
:101850000C94A108EF92FF920F931F93CF93DF9305
:101860007C01EB018A0167EC72E00E948B13892BEB
:10187000E9F4809177038F93809176038F938CECBA
:1018800092E09F938F93C80124E0880F991F2A95B7
:10189000E1F7835E9A4F9F938F930E9494130F906A
:1018A0000F900F900F900F900F902BC064ED72E08F
:1018B000C7010E948B13892B79F580911A048F93AD
:1018C000809119048F93809118048F93809117044D
:1018D0008F9389ED92E09F938F93C80134E0880F36
:1018E000991F3A95E1F7835E9A4F9F938F930E94D9
:1018F00094138DB79EB708960FB6F8949EBF0FBE8F
:101900008DBFB80181EE94E0DF91CF911F910F91CF
:10191000FF90EF900C94FA0561EE72E0C7010E940F
:101920008B13892BE9F4CE010E94891225E531E061
:10193000DC010E9457132091A5063091A606032EC4
:10194000000C440B550B0E9421133093730320931A
:101950007203DF91CF911F910F91FF90EF90089547
:1019600066EE72E0C7010E948B13892BB9F4CE0199
:101970000E94891225E531E0DC010E945713209175
:10198000A5063091A606032E000C440B550B0E94B1
:1019900021133093750320937403DBCF6BEE72E059
:1019A000C7010E948B13892B39F48FEE92E09F932D
:1019B0008F9380E093E065CF67E073E0C7010E94FA
:1019C0008B13892BE9F489E00E94FB01892B31F00C
:1019D00021E01F922F938CE093E053CF88E00E9488
:1019E000FB01892BA9F783E00E94FB01892B81F77A
:1019F00087E00E94FB0121E0892B59F720E0E9CF25
:101A0000CE010E948912EC0164E173E0C7010E94DB
:101A10008B13892B09F5C130D10589F489E00E9427
:101A2000FB01892B61F491E080E0209176033091F5
:101A30007703253031050CF490E0C92FD82FBE0173
:101A400081EE94E00E94810489E00E94FB019F9353
:101A50008F9389E193E015CF62E273E0C7010E94A2
:101A60008B13892B09F5C130D10589F488E00E94D8
:101A7000FB01892B61F491E080E0209176033091A5
:101A80007703253031050CF490E0C92FD82FBE0123
:101A900081EE94E00E94680588E00E94FB019F931C
:101AA0008F9387E293E0EDCE60E373E0C7010E947D
:101AB0008B13892B09F5C130D10589F483E00E948D
:101AC000FB01892B61F491E080E020917603309155
:101AD0007703253031050CF490E0C92FD82FBE01D3
:101AE00081EE94E00E945B0583E00E94FB019F93DE
:101AF0008F9385E393E0C5CE6EE373E0C7010E9448
:101B00008B13892B09F5C130D10589F487E00E9438
:101B1000FB01892B61F491E080E020917603309104
:101B20007703253031050CF490E0C92FD82FBE0182
:101B300081EE94E00E944E0587E00E94FB019F9396
:101B40008F9383E493E09DCE6CE473E0C7010E9421
:101B50008B13892B09F0D5CEC130D10569F4809162
:101B600076039091770305973CF489E00E94FB018E
:101B7000892BF1F4D0E0C0E0BE0181EE94E00E9438
:101B80008104BE0181EE94E00E946805BE0181EEF1
:101B900094E00E945B05BE0181EE94E00E944E0538
:101BA00089E00E94FB019F938F9381E593E069CECA
:101BB00088E00E94FB01892BE9F283E00E94FB018F
:101BC000892BC1F287E00E94FB0131E020E0892BE4
:101BD00009F430E0C32FD22FCFCF6DE275E085ED51
:101BE00094E00E94750510922D050895CF93DF9320
:101BF00085ED8093BC0080919A0390919B03A09106
:101C00009C03B0919D030796A11DB11D23E0B695DD
:101C1000A795979587952A95D1F72091BC0024FD2B
:101C200003C01092E20336C040919A0350919B0387
:101C300060919C0370919D03452B462B472B69F3C4
:101C40000097A105B10541F02AE22A95F1F700C0FD
:101C50000197A109B109E1CF8091990391E0909397
:101C600098038823B9F0C091B800D091BA00809150
:101C7000BC008A7B8093BC0060E082E10E94240269
:101C800060E083E10E9424020E941904D093BA000C
:101C9000C093B800DF91CF9108951F920F920FB6B5
:101CA0000F9211242F933F938F939F93AF93BF93E2
:101CB0008091220490912304A0912404B0912504E2
:101CC0003091210423E0230F2D3758F50196A11DF3
:101CD000B11D209321048093220490932304A093A8
:101CE0002404B093250480911D0490911E04A091BA
:101CF0001F04B09120040196A11DB11D80931D0405
:101D000090931E04A0931F04B0932004BF91AF9141
:101D10009F918F913F912F910F900FBE0F901F9029
:101D2000189526E8230F0296A11DB11DD2CF1F9250
:101D30000F920FB60F9211242F933F934F935F93FF
:101D40006F937F938F939F93AF93BF93EF93FF9383
:101D500088E394E00E946203FF91EF91BF91AF91FD
:101D60009F918F917F916F915F914F913F912F91B3
:101D70000F900FBE0F901F9018951F920F920FB6E5
:101D80000F9211242F938F939F93EF93FF93E091E2
:101D90004804F09149048081E0914E04F0914F0491
:101DA00082FD1BC09081809151048F5F8F732091C1
:101DB0005204821741F0E0915104F0E0E85CFB4FDF
:101DC000958F80935104FF91EF919F918F912F9167
:101DD0000F900FBE0F901F9018958081F4CF1F9227
:101DE0000F920FB60F9211242F933F934F935F934F
:101DF0006F937F938F939F93AF93BF93EF93FF93D3
:101E0000E0910001F09101010995FF91EF91BF91DF
:101E1000AF919F918F917F916F915F914F913F9182
:101E20002F910F900FBE0F901F9018951F920F9239
:101E30000FB60F9211242F933F934F935F936F939D
:101E40007F938F939F93AF93BF93EF93FF93809173
:101E5000B900887F803609F44AC0F0F5883209F469
:101E6000A7C018F5803109F49BC0B8F4882309F4A1
:101E7000F9C0883009F494C0FF91EF91BF91AF9100
:101E80009F918F917F916F915F914F913F912F9192
:101E90000F900FBE0F901F901895883109F488C0DD
:101EA000803251F78093E10314C0803409F49DC05F
:101EB00040F48033B9F38833F9F68093E10385EC7D
:101EC000B0C0803509F485C0883509F496C08834DF
:101ED00099F60E94F60DD0CF883909F48CC038F5F8
:101EE000883729F050F4883611F0803729F683E0DE
:101EF0008093E2031092E00357C0883809F47BC056
:101F0000803919F0803809F0B7CF8091E003803232
:101F100008F071C0E091E00381E08E0F8093E00350
:101F20008091BB00F0E0E054FC4F80833DC0803BDB
:101F300039F0E0F4803A09F479C0883A09F09CCF8E
:101F400084E08093E2031092BF031092BE03E091FD
:101F50000E04F0910F0409958091BE0381110FC00A
:101F600081E08093BE0310929E0309C0803C09F477
:101F7000A6CF883C09F4A3CF883B09F07DCFE09140
:101F8000BF0381E08E0F8093BF03F0E0E256FC4F69
:101F900080818093BB009091BF038091BE0329C0D4
:101FA000809107048093BB0085EC8093BC0064CFD4
:101FB0009091060480910504981758F5E091060465
:101FC00081E08E0F80930604F0E0EB51FC4F80819E
:101FD000E9CFE091060481E08E0F809306048091A2
:101FE000BB00F0E0EB51FC4F8083909106048091A0
:101FF00005049817C8F285E8D8CFE091060481E07F
:102000008E0F809306048091BB00F0E0EB51FC4FF3
:1020100080838091E40381115CCF81E08093E303AE
:1020200084EA8093BC001092E20326CF85EC809373
:10203000BC001092E2038091E003803230F4E09122
:10204000E003F0E0E054FC4F10826091E00370E0A8
:10205000E0910C04F0910D0480EC93E0099510924E
:10206000E0030ACF1092E10334CFE8E3F4E01382F7
:10207000128288EE93E0A0E0B0E084839583A6838B
:10208000B78320E431E03183208325EC30E03587CD
:10209000248724EC30E03787268720EC30E0318B32
:1020A000208B21EC30E0338B228B22EC30E0358B1F
:1020B000248B26EC30E0378B268B118E128E138EFC
:1020C000148EE5EDF4E01382128284839583A68357
:1020D000B78382E591E091838083E1EEF4E0178A93
:1020E000168A11A610A613AE12AE84E691E0918373
:1020F00080838CEB91E09093A8068093A706909341
:10210000AA068093A9069093AC068093AB069093A1
:10211000AE068093AD0680EF96E09093B006809374
:10212000AF0688E0E2E0F1E0A1EBB6E001900D92AD
:102130008A95E1F780910A0190910B01A0910C0121
:10214000B0910D018093B9069093BA06A093BB0697
:10215000B093BC061092BD061092BE061092BF0648
:102160001092C0060895789484B5826084BD84B5C9
:10217000816084BD85B5826085BD85B5816085BD82
:1021800080916E00816080936E001092810080913A
:1021900081008260809381008091810081608093C2
:1021A0008100809180008160809380008091B100E7
:1021B00084608093B1008091B00081608093B00012
:1021C00080917A00846080937A0080917A008260A6
:1021D00080937A0080917A00816080937A00809168
:1021E0007A00806880937A001092C10061E082E0FA
:1021F0000E94520261E084E00E94520260E089E0A5
:102200000E94520260E088E00E94520260E083E097
:102210000E94520260E087E00E94520260E081E189
:102220000E94520260E080E10E94520260E08FE072
:102230000E94520260E08EE00E94520260E085E15E
:102240000E9452020E946A01C0E2D0E00E94220570
:102250002197E1F789E991E09093A8068093A7067A
:102260009093AA068093A9069093AC068093AB0640
:102270008AEA92E09093AE068093AD0680E094E007
:102280009093B0068093AF068091F7049091F80484
:102290008A30910574F40196FC01EE0FFF1FEF5197
:1022A000FB4F2AE23CE0318320839093F804809333
:1022B000F704E0914804F091490482E08083E091C2
:1022C0004404F09145041082E0914604F0914704E3
:1022D00083E3808310925004E0914C04F0914D040C
:1022E00086E08083E0914A04F0914B048081806114
:1022F0008083E0914A04F0914B0480818860808360
:10230000E0914A04F0914B04808180688083E091E1
:102310004A04F0914B0480818F7D808310921304D6
:102320001092120410921104109210040E941904C9
:102330008EEA92E090930F0480930E048AEB92E071
:1023400090930D0480930C0480E18093BA008FEF8A
:102350009BE090930B0480930A048DEE9DE0909394
:102360000904809308048AE190E0A0E0B0E0809343
:10237000BD069093BE06A093BF06B093C006C09062
:10238000A506D090A6060D2C000CEE08FF08CEE0A6
:10239000D1E006E214E029913991AFE4B0E00E9467
:1023A0004813A70196010E942113F801219331934C
:1023B0008F01F1E0C032DF0771F788EC90E0909375
:1023C000B2068093B1069093B8068093B70688EE64
:1023D00093E09093B4068093B3069093B6068093EF
:1023E000B5061092BC0661E087E00E94520220917F
:1023F000A5063091A606032E000C440B550B68E28F
:1024000074E08AE190E00E94211330931C04209331
:102410001B0480E1809381001092800081E0809312
:10242000160420E43FE13093150420931404309304
:1024300087002093860091E1909381002CEB38E097
:10244000309301012093000180936F00A0913F051C
:10245000B09140058091410590914205A80FB91FA8
:102460008091430590914405A80FB91F80914505BF
:1024700090914605A80FB91F2091BD063091BE0668
:102480004091BF065091C0060E94691320E034E0DD
:1024900040E050E00E94211380913D0590913E055F
:1024A000280F391F809126049091270482179307E3
:1024B00054F580913604909137042817390734F584
:1024C000C9010E948C009C01A0E0B5E90E94401364
:1024D00024E630E040E050E00E94211320931704EE
:1024E000309318044093190450931A04C0E0D0E0CC
:1024F0000E9422052097E1F30E944E038823C1F336
:102500000E940000F5CF90E080E0DDCF84E690E00F
:10251000DACFFC0188279927E89421912032E9F34A
:10252000293010F02E30C8F32B3241F02D3239F41F
:10253000689404C00E94D312820F911D21912053F0
:102540002A30C0F31EF4909581959F4F089541EC79
:1025500056E00E94AC120895FA01A191B081009753
:1025600019F41097E1F0CD01DC01CD010D900020B0
:1025700011F4C00113C0FB012191222319F0201591
:10258000D9F7F3CFFB012191201519F41E92119672
:1025900006C02223C1F70D900020A1F7D001FA0157
:1025A000A193B08308957AE0979F902D879F802D07
:1025B000910D11240895DB018F939F930E945E1368
:1025C000BF91AF91A29F800D911DA39F900DB29FCF
:1025D000900D1124089597FB072E16F4009407D050
:1025E00077FD09D00E94711307FC05D03EF4909549
:1025F00081959F4F0895709561957F4F0895A1E251
:102600001A2EAA1BBB1BFD010DC0AA1FBB1FEE1F6C
:10261000FF1FA217B307E407F50720F0A21BB30BB7
:10262000E40BF50B661F771F881F991F1A9469F733
:1026300060957095809590959B01AC01BD01CF018F
:102640000895052E97FB1EF400940E94381357FD41
:1026500007D00E94FF1207FC03D04EF40C943813ED
:1026600050954095309521953F4F4F4F5F4F0895BE
:1026700090958095709561957F4F8F4F9F4F0895EE
:102680000E944813332312F48A1B9B0B0C9459139A
:10269000A29FB001B39FC001A39F700D811D1124A3
:1026A000911DB29F700D811D1124911D08950E94EE
:1026B0004813B7FF0895821B930B08950E94481397
:1026C000A59F900DB49F900DA49F800D911D112486
:1026D0000895B7FF0C945E130E945E13821B930B48
:1026E0000895AA1BBB1B51E107C0AA1FBB1FA61759
:1026F000B70710F0A61BB70B881F991F5A95A9F7AB
:1027000080959095BC01CD010895EE0FFF1F0590B7
:10271000F491E02D0994FB01DC018D910190801969
:102720000110D9F3990B0895AEE0B0E0EAE9F3E1C6
:102730000C9443160D891E8986E08C831A830983C5
:102740008FEF9FE79E838D83AE01475E5F4F6F895A
:10275000788DCE0101960E94B7132F813885020F24
:10276000131FF80110822E96E4E00C945F16ABE084
:10277000B0E0EDEBF3E10C9435167C013B018A01EE
:10278000FC0117821682838181FFC8C1CE010196A8
:102790005C01F7019381F30193FD859193FF819192
:1027A0003F01882309F453C1853239F493FD8591A3
:1027B00093FF81913F01853229F4B70190E00E9497
:1027C000A715E7CF912C212C312CFFE1F31538F020
:1027D0008B3211F190F4803209F1833229F137FC08
:1027E0003CC020ED280F2A3050F536FE20C08AE08C
:1027F000989E200D1124922E06C08D3291F08033C8
:1028000071F7689430F8F30193FD859193FF8191FE
:102810003F018111DACF21C0689431F8689432F811
:10282000F2CF689433F8EFCF689434F8ECCFEAE055
:102830002E9E200D1124222E689435F8E4CF8E327E
:1028400029F436FC04C1689436F8DDCF8C3619F4CF
:10285000689437F8D8CF8836B1F2982F9F7D955479
:102860009330E0F08336A1F18337C1F1833509F06D
:1028700063C02801F2E04F0E511CF801C080D180E6
:10288000692D70E036FC02C06FEF7FEFC6010E9439
:1028900091154C01689437F882010AC00C5F1F4FF4
:1028A000FFE3F98388248394912C6501E89437F839
:1028B00033FE2DC0522C8114910471F5552009F47A
:1028C00068CFB70180E290E00E94A7155A94F6CF36
:1028D000F801808189830E5F1F4FE4CF2801F2E069
:1028E0004F0E511CF801C080D180692D70E036FC7C
:1028F00002C06FEF7FEFC6010E949C154C01820160
:10290000D5CFB70180E290E00E94A7152A94281441
:10291000190409F0B0F7CECFF60137FC859137FEE8
:1029200081916F01B70190E00E94A71551105A9450
:10293000F1E08F1A9108BFCF843619F0893609F07B
:1029400077C0F80137FE6BC060817181828193810D
:102950000C5F1F4FF32DFF763F2E97FF09C0909518
:102960008095709561957F4F8F4F9F4F689437F892
:102970002AE030E0A5010E94D715C82ECA188C2C79
:10298000432C36FE0CC0E89440F8C91440F434FEE1
:1029900005C032FC03C0F32DFE7E4F2E892C44FE71
:1029A00095C0FE01EC0DF11D8081803309F087C0D8
:1029B000242D297E422E842D8870582E43FC95C0EC
:1029C00040FE8FC09C2C821418F42C0C922C98186A
:1029D00044FE91C0B70180E390E00E94A71542FE3B
:1029E00009C088E790E041FE02C088E590E0B701A9
:1029F0000E94A715C91408F48AC0CA94D12C9FEF6D
:102A0000C91AD90ACA0CDB1CF60182916F01B70101
:102A100090E00E94A715AC14BD04B1F74FCF6081C0
:102A20007181072E000C880B990B0E5F1F4F92CF00
:102A3000D32CE894D4F82AE030E0853739F1232DFF
:102A4000297FD22E8F3601F148F48835A9F0F7019D
:102A5000868197812B96E2E10C945116803749F0DC
:102A60008837A9F7D4FE02C06894D2F820E130E09C
:102A70000DC06894D4F8F6CF34FE03C0822F866070
:102A8000D82E20E132E002C028E030E0F801D7FE85
:102A90000FC060817181828193810C5F1F4FA501FE
:102AA0000E94D715C82ECA183D2CE89437F867CF76
:102AB0006081718190E080E00E5F1F4FF0CF42FC9B
:102AC00002C0839478CF8394839475CF842D8678C5
:102AD00009F471CFF6CFB70180E290E00E94A7150C
:102AE00083948214C0F3512C73CF522C5818821443
:102AF00008F46ECFF8CF842D867809F47BCF8BE273
:102B000041FE80E247FC8DE2B70190E071CFB70152
:102B100080E390E00E94A7159A946CCF8FEF9FEF0F
:102B200099CFFC010590615070400110D8F7809555
:102B300090958E0F9F1F0895FC0161507040019089
:102B40000110D8F7809590958E0F9F1F08950F93D1
:102B50001F93CF93DF93182F092FEB018B8181FDFA
:102B600009C01FEF0FEF812F902FDF91CF911F91A1
:102B70000F91089582FF14C02E813F818C819D8129
:102B8000281739073CF4E881F981CF010196998330
:102B9000888310838E819F8101969F838E83E3CFEC
:102BA000E885F985812F0995892BA1F3DACFFA0100
:102BB000AA27283051F1203181F1E8946F936E7F7C
:102BC0006E5F7F4F8F4F9F4FAF4FB1E03ED0B4E06D
:102BD0003CD0670F781F891F9A1FA11D680F791FAE
:102BE0008A1F911DA11D6A0F711D811D911DA11DBF
:102BF00020D009F468943F912AE0269F11243019CF
:102C0000305D3193DEF6CF010895462F4770405D69
:102C10004193B3E00FD0C9F7F6CF462F4F70405D18
:102C20004A3318F0495D31FD4052419302D0A9F773
:102C3000EACFB4E0A6959795879577956795BA956D
:102C4000C9F700976105710508959B01AC010A2E33
:102C500006945795479537952795BA95C9F7620F0A
:102C6000731F841F951FA01D08952F923F924F92AE
:102C70005F926F927F928F929F92AF92BF92CF920C
:102C8000DF92EF92FF920F931F93CF93DF93CDB715
:102C9000DEB7CA1BDB0B0FB6F894DEBF0FBECDBF8D
:102CA00009942A88398848885F846E847D848C845E
:102CB0009B84AA84B984C884DF80EE80FD800C8167
:102CC0001B81AA81B981CE0FD11D0FB6F894DEBF4A
:0C2CD0000FBECDBFED010895F894FFCFBA
:102CDC00F103320032003200320001010101AFA9D0
:102CEC00B6B361BCFFC184C614CE4ECEB6CFC1D232
:102CFC002000200020002000200000000100030024
:102D0C0005000800330056005F006400000000005E
:102D1C008403E4021103D1034203200334030000B3
:102D2C0000006C0461047D0437045A044704380421
:102D3C000000000011060D0A005256420057564280
:102D4C003A257500524931005749313A25640052F1
:102D5C004932005749323A256400524933005749E9
:102D6C00333A256400524934005749343A256400FB
:102D7C00524954005749543A256400525643430073
:102D8C00575643433A256400524348310057434851
:102D9C00313A2564005243483200574348323A25B1
:102DAC0064005243483300574348333A2564005279
:102DBC0043483400574348343A256400574348315C
:102DCC0000574348313A3D25640057434832005779
:102DDC004348323A3D256400574348330057434833
:102DEC00333A3D2564005743483400574348343A3E
:102DFC003D25640057494C310057494C313A3D252B
:102E0C00640057494C320057494C323A3D25640016
:102E1C0057494C330057494C333A3D2564005749C8
:102E2C004C340057494C343A3D25640057494C54B6
:102E3C000057494C543A3D25640053746174653A0B
:102E4C0020002C205643433D006D562C20564275D5
:102E5C00733D006D562C20736F633D00252C20496B
:102E6C00313D006D412C2049323D006D412C2049F3
:102E7C00333D006D412C2049343D006D412C2049DF
:102E8C00546F743D006D412C20766261743A002CB5
:102E9C002063636E743A0052534F430057534F43B1
:102EAC003A25640052434E540057434E543A25641D
:102EBC000057494549005749454F0052464E00427C
:102ECC0061747465727950616E656C2E696E6F00F9
:102EDC0057464E3A257300524348410057434841E8
:102EEC003A2564005743503100574350313A3D2541
:102EFC0064005743503200574350323A3D2564002A
:102F0C005743503300574350333A3D2564005743E1
:102F1C00503400574350343A3D25640057435041D8
:0A2F2C0000574350413A3D25640070
:00000001FF
