:020000040000FA
:100000000C9462000C948A000C948A000C948A0070
:100010000C948A000C948A000C948A000C948A0038
:100020000C948A000C948A000C948A000C948A0028
:100030000C948A000C94440B0C948A000C948A0053
:100040000C94A20A0C948A000C94120B0C94EC0AE7
:100050000C948A000C948A000C948A000C948A00F8
:100060000C946B0B0C948A00000000002400270005
:100070002A0000000000250028002B0000000000DE
:1000800023002600290004040404040404040202DA
:100090000202020203030303030301020408102007
:1000A0004080010204081020010204081020000012
:1000B0000008000201000003040700000000000027
:1000C00000008A0C11241FBECFEFD8E0DEBFCDBFE9
:1000D00025E0A8E9B2E001C01D92A931B207E1F71D
:1000E00012E0A0E0B1E0ECE2F4E202C005900D9273
:1000F000A839B107D9F710E0C2E6D0E004C02197D3
:10010000FE010E942D0FC136D107C9F70E94F80CDD
:100110000C9414120C9400007F928F929F92AF92D5
:10012000BF92CF92DF92EF92FF920F931F93CF93E4
:10013000DF93C4E0D0E0C12CD12C76018EE4782E80
:100140000BE31FE194EB892E9BE2992E91E1A92EFE
:10015000B12C70927C00C8010197F1F780917A0070
:10016000806480937A0080917A0086FDFCCF809134
:10017000780020917900322F282F032E000C440B99
:10018000550BC501B4010E94BB0E032E000C440B9D
:10019000550BC20ED31EE41EF51E2197D1F6C701E2
:1001A000B60124E030E040E050E00E94BB0E26356E
:1001B00083E1380794F0309300052093FF04DF912A
:1001C000CF911F910F91FF90EF90DF90CF90BF9054
:1001D000AF909F908F907F90089588E893E19093DF
:1001E00000058093FF04EBCF6F927F928F929F92D6
:1001F000AF92BF92CF92DF92EF92FF920F931F9335
:10020000CF93DF933C01EB012FE934E082E06816E5
:100210007104B1F04CF42FE734E0B1E06B167104D7
:1002200079F027E734E00CC02FEB34E0E3E06E1602
:10023000710431F02FED34E0F4E06F16710489F7AA
:100240008301000F111F03591B4FF801A081B181D9
:10025000AA0FBB1FA20FB31FF301EE0FFF1FEE0F7C
:10026000FF1FE75AFB4FCD90DC9011970D2C000C2F
:10027000EE08FF0880809180A280B3808C189D08D2
:10028000AE08BF08CD93DC93D801ED90FC90A70198
:10029000440F551F240F351FD9014D915C91052E38
:1002A000000C660B770BCB01BA01680D791D8A1D16
:1002B0009B1D6083718382839383F301EE0FFF1F85
:1002C000E65FFE4FC080D1809301220F331FE9010A
:1002D000C15BDB4F96010D2C000C440B550B0E94AB
:1002E000BB0E39832883BFEFEB1AFB0AEC14FD0425
:1002F00094F4F801F182E082DF91CF911F910F9188
:10030000FF90EF90DF90CF90BF90AF909F908F9035
:100310007F906F900895D8011D921C92EDCF83308D
:1003200081F028F4813099F08230A9F00895873067
:10033000A9F08830C9F08430B1F4809180008F7DBD
:1003400003C0809180008F7780938000089584B5EA
:100350008F7784BD089584B58F7DFBCF8091B000E9
:100360008F778093B00008958091B0008F7DF9CF92
:10037000CF93DF93282F30E0F901E255FF4F8491AE
:10038000F901E656FF4FD491F901EA57FF4FC491A6
:10039000CC23A1F081110E948F01EC2FF0E0EE0F31
:1003A000FF1FE458FF4FA591B491EC91ED2381E03C
:1003B00090E009F480E0DF91CF91089580E090E033
:1003C000FACF1F93CF93DF93282F30E0F901E25546
:1003D000FF4F8491F901E656FF4FD491F901EA5796
:1003E000FF4FC491CC23A9F0162F81110E948F01D9
:1003F000EC2FF0E0EE0FFF1FEE58FF4FA591B491E8
:100400008FB7F894EC91111108C0D095DE23DC93DE
:100410008FBFDF91CF911F910895DE2BF8CFCF933F
:10042000DF9390E0FC01E656FF4F24918A579F4FDF
:10043000FC0184918823D1F090E0880F991FFC0182
:10044000E859FF4FA591B491FC01EE58FF4FC591BB
:10045000D49161110EC09FB7F8948C91E22FE09572
:100460008E238C932881E223E8839FBFDF91CF9175
:1004700008958FB7F894EC91E22BEC938FBFF6CFF1
:100480000F931F93CF93DF93182F062FEA0161E09C
:100490000E940F02602F812F0E94E101C230D1051E
:1004A00038F0CC0FDD1FCC0FDD1F25972197F1F71A
:1004B00060E0812FDF91CF911F910F910C940F027B
:1004C0000895E0912C03F0912D03309729F01092BC
:1004D00035031092340309940895CF93DF93AC0150
:1004E000E0912E03F0912F033097F1F090913703B4
:1004F000809136039817C0F090E0292F30E026173E
:10050000370754F4D901A456BD4F240F351FE90114
:1005100028812C939F5FF1CF1092370360933603AD
:10052000CB01DF91CF910994DF91CF910895AF92E4
:10053000BF92CF92DF92EF92FF920F931F93CF93D0
:10054000DF936C017B018B01040F151FEB015E0132
:10055000AE18BF08C017D10759F06991D601ED91C7
:10056000FC910190F081E02DC6010995892B79F766
:10057000C501DF91CF911F910F91FF90EF90DF9018
:10058000CF90BF90AF900895FC01538D448D252FDF
:1005900030E0842F90E0821B930B541710F0CF961D
:1005A000089501970895FC01918D828D981761F04F
:1005B000A28DAE0FBF2FB11D5D968C91928D9F5F66
:1005C0009F73928F90E008958FEF9FEF0895FC0145
:1005D000918D828D981731F0828DE80FF11D858DF8
:1005E00090E008958FEF9FEF0895FC01918D228D8B
:1005F000892F90E0805C9F4F821B91098F73992710
:1006000008958AE493E00E94F50221E0892B09F421
:1006100020E0822F089580E090E0892B29F00E944D
:10062000010381110C9400000895FC01A48DA80F12
:10063000B92FB11DA35ABF4F2C91848D90E0019624
:100640008F739927848FA689B7892C93A089B18944
:100650008C91837080648C93938D848D981306C0E5
:100660000288F389E02D80818F7D80830895EF9249
:10067000FF920F931F93CF93DF93EC0181E0888F5C
:100680009B8D8C8D98131AC0E889F989808185FF2C
:1006900015C09FB7F894EE89FF896083E889F989CE
:1006A00080818370806480839FBF81E090E0DF91D0
:1006B000CF911F910F91FF90EF900895F62E0B8D23
:1006C00010E00F5F1F4F0F731127E02E8C8D8E11DE
:1006D0000CC00FB607FCFACFE889F989808185FF45
:1006E000F5CFCE010E941503F1CFEB8DEC0FFD2F5E
:1006F000F11DE35AFF4FF0829FB7F8940B8FEA8900
:10070000FB8980818062CFCFCF93DF93EC01888D0E
:100710008823B9F0AA89BB89E889F9898C9185FD7C
:1007200003C0808186FD0DC00FB607FCF7CF8C910A
:1007300085FFF2CF808185FFEDCFCE010E941503AA
:10074000E9CFDF91CF9108952091E202260F332760
:10075000331F21323105ECF420910603FC0190E0B7
:1007600080E0243069F082E00895A091E2022191B6
:10077000AC014E535D4FA40FB52FB11D2C930196C4
:10078000861798F38091E202680F6093E20280E09E
:10079000089581E008951092060381E08093080394
:1007A0001092070361E082E10E94E10161E083E1D0
:1007B0000E94E101E9EBF0E080818E7F80838081FF
:1007C0008D7F808388E48093B80085E48093BC00AB
:1007D00008950895E091370380913603E81730F4C7
:1007E000F0E0E456FD4F808190E008958FEF9FEF99
:1007F000089590913703809136032FEF3FEF9817BC
:1008000048F4E92FF0E0E456FD4F208130E09F5F8F
:1008100090933703C901089580913603909137036F
:10082000891B990B0895CF93DF93CB01EA01642FC5
:100830000E94A403CE01DF91CF910895CF93DF935F
:100840001F92CDB7DEB7698361E0CE0101960E94A9
:10085000A40381E090E00F90DF91CF91089590E0A4
:1008600080E008950895825E9E4FFC014081518191
:1008700087E090E00C944002845E9E4FFC01408132
:10088000518183E090E00C944002865E9E4FFC0113
:100890004081518188E090E00C944002885E9E4F38
:1008A000FC014081518189E090E00C94400220914C
:1008B0007A0090917A00987F946090937A008E509D
:1008C000806480937C0080917A00806480937A00B9
:1008D00080917A0086FDFCCF80917800909179001C
:1008E00020937A00089581E10E945704BC0190E0B2
:1008F00080E00E94F40080E10E945704BC01725025
:1009000081E090E00E94F4008FE00E945704BC0157
:10091000725082E090E00E94F4008EE00E94570442
:10092000BC01725083E090E00E94F40085E10E94D7
:100930005704BC01725084E090E00C94F400FB0179
:1009400001900020E9F73197AF01461B570BDC01FE
:10095000ED91FC910280F381E02D09946FE374E046
:1009600087EE93E00E949F0410923F040895CF9376
:10097000DF93D0E0C0E0009731F0BC018AE493E05F
:100980000E949F04EC016EE371E08AE493E00E9410
:100990009F048C0F9D1FDF91CF910895CF93DF931C
:1009A0006115710531F06130710549F0DF91CF912A
:1009B0000895EC01CC960E94B7041CAEF7CF845B7F
:1009C0009F4FDF91CF910C94B704CF93DF9385EDC8
:1009D0008093BC008091BE029091BF02A091C002A2
:1009E000B091C1020796A11DB11D23E0B695A79550
:1009F000979587952A95D1F72091BC0024FD03C0D7
:100A00001092060336C04091BE025091BF02609121
:100A1000C0027091C102452B462B472B69F300970A
:100A2000A105B10541F02AE22A95F1F700C001972E
:100A3000A109B109E1CF8091BD0291E09093BC0280
:100A40008823B9F0C091B800D091BA008091BC0061
:100A50008A7B8093BC0060E082E10E94E10160E05B
:100A600083E10E94E1010E94CB03D093BA00C093BE
:100A7000B800DF91CF9108954F925F926F927F926D
:100A80008F929F92AF92BF92CF92DF92EF92FF929E
:100A90000F931F93CF93DF93EC017B016A018901D0
:100AA00061E471E0C7010E94330F892B09F045C052
:100AB000DE01A45ABF4FFE01E45FFE4F2D913C9131
:100AC000A081B1810E94DA0E9B01AC01ADE0B0E0E3
:100AD0000E94F80E20E034E040E050E00E94BB0E9F
:100AE0003F932F9385E491E09F938F93C80124E077
:100AF000880F991F2A95E1F7CC968C0F9D1F9F9325
:100B00008F930E943C0F0F900F900F900F900F90BB
:100B10000F90B801CE01DF91CF911F910F91FF90FF
:100B2000EF90DF90CF90BF90AF909F908F907F908D
:100B30006F905F904F900C94CE046CE471E0C7010D
:100B40000E94330F892BE9F4DE01A25ABF4FFE0148
:100B5000E45FFE4F2D913C91A081B1810E94DA0E9D
:100B60009B01AC01A3E0B0E00E94F80E20E034E06D
:100B700040E050E00E94BB0E3F932F9380E591E050
:100B8000B3CF67E571E0C7010E94330F892BE9F409
:100B9000DE01A05ABF4FFE01E45FFE4F2D913C9154
:100BA000A081B1810E94DA0E9B01AC01A3E0B0E00C
:100BB0000E94F80E20E034E040E050E00E94BB0EBE
:100BC0003F932F938BE591E08FCF62E671E0C701F1
:100BD0000E94330F892BE9F4DE01AE59BF4FFE01AD
:100BE000E45FFE4F2D913C91A081B1810E94DA0E0D
:100BF0009B01AC01A3E0B0E00E94F80E20E034E0DD
:100C000040E050E00E94BB0E3F932F9386E691E0B8
:100C10006BCF6DE671E0C7010E94330F892BE9F4B9
:100C2000DE01AC59BF4FFE01E45FFE4F2D913C91B8
:100C3000A081B1810E94DA0E9B01AC01A3E0B0E07B
:100C40000E94F80E20E034E040E050E00E94BB0E2D
:100C50003F932F9381E791E047CF68E771E0C701A9
:100C60000E94330F892B09F05EC0FE01E45FFE4F46
:100C7000C080D180EC5AF109A081B18196010E9417
:100C8000DA0E9B01AC01A3E0B0E00E94F80E812CCB
:100C9000A4E09A2EA12CB12CA50194010E94BB0EB8
:100CA0002901FE01E25AFF4FA081B18196010E9405
:100CB000DA0E9B01AC01A3E0B0E00E94F80EA501A2
:100CC00094010E94BB0E7201E20EF31EFE01EE596A
:100CD000FF4FA081B18196010E94DA0E9B01AC0109
:100CE000A3E0B0E00E94F80EA50194010E94BB0EA3
:100CF000E20EF31EFE01EC59FF4FA081B181960177
:100D00000E94DA0E9B01AC01A3E0B0E00E94F80E55
:100D1000A50194010E94BB0E2E0D3F1D3F932F9302
:100D20008CE791E0E1CE63E871E0C7010E94330FE8
:100D3000892B51F4FE01E45FFE4F81818F93808106
:100D40008F9388E891E0D0CE60E971E0C7010E94FE
:100D5000330F892B41F489E00E94B8019F938F9350
:100D600085E991E0C1CE6DE971E0C7010E94330FC2
:100D7000892B41F488E00E94B8019F938F9382EA07
:100D800091E0B2CE6AEA71E0C7010E94330F892B6D
:100D900041F483E00E94B8019F938F938FEA91E022
:100DA000A3CE67EB71E0C7010E94330F892B41F49A
:100DB00087E00E94B8019F938F938CEB91E094CED3
:100DC00064EC71E0C7010E94330F892B79F4C601EE
:100DD0000E94690EF82EE92E682F792FCE010E940D
:100DE0004E04EF92FF9289EC91E07ECE62ED71E0CD
:100DF000C7010E94330F892B79F4C6010E94690E46
:100E0000F82EE92E682F792FCE010E944504EF922B
:100E1000FF9287ED91E068CE60EE71E0C7010E941D
:100E2000330F892B79F4C6010E94690EF82EE92E42
:100E3000682F792FCE010E943C04EF92FF9285EE3D
:100E400091E052CE6EEE71E0C7010E94330F892B04
:100E500079F4C6010E94690EF82EE92E682F792FC9
:100E6000CE010E943304EF92FF9283EF91E03CCEDB
:100E70006CEF71E0C7010E94330F892B19F5C60191
:100E80000E94690E7C016E0182EFC81A8EEFD80AAB
:100E9000B7010F2C000C880B990BF7E0660F771F3A
:100EA000881F991FFA95D1F723E537E040E050E01D
:100EB0000E94BB0ED6012D933C93FF92EF9281E0EE
:100EC00092E012CE6AE072E0C7010E94330F892BD4
:100ED00011F5C6010E94690E7C016E01B0EFCB1ABC
:100EE000BEEFDB0ABC01990F880B990BE7E0660F98
:100EF000771F881F991FEA95D1F723E537E040E077
:100F000050E00E94BB0EF60131832083FF92EF92E6
:100F10008FE092E0E9CD68E172E0C7010E94330FF3
:100F2000892B11F5C6010E94690E7C016E01FEEE4F
:100F3000CF1AFEEFDF0ABC01990F880B990B57E01F
:100F4000660F771F881F991F5A95D1F723E537E061
:100F500040E050E00E94BB0ED6012D933C93FF92DF
:100F6000EF928DE192E0C0CD66E272E0C7010E948F
:100F7000330F892B11F5C6010E94690E7C016E01A9
:100F8000BCEECB1ABEEFDB0ABC01990F880B990BA4
:100F900047E0660F771F881F991F4A95D1F723E511
:100FA00037E040E050E00E94BB0EF6013183208321
:100FB000FF92EF928BE292E097CD64E372E0C7017B
:100FC0000E94330F892BB9F04E01F2E08F0E911C75
:100FD000B12CA12C8E899F89A816B9067CF5D40165
:100FE000ED91FD914D01A801B601C7010995BFEF33
:100FF000AB1ABB0AEFCFC6010E94690E7C016E01DD
:101000008AEEC81A8EEFD80AB7010F2C000C880B95
:10101000990B37E0660F771F881F991F3A95D1F714
:1010200023E537E040E050E00E94BB0ED6012D934F
:101030003C93FF92EF9289E392E056CDDF91CF91FE
:101040001F910F91FF90EF90DF90CF90BF90AF90E6
:101050009F908F907F906F905F904F9008950F9327
:101060001F93CF93DF938B0162E472E00E94870E9F
:10107000EC016FE371E090E080E00E94870E980140
:10108000AC01BE0183EF93E0DF91CF911F910F91EF
:101090000C943C05CF93DF938AE493E00E94F50221
:1010A000892B31F18AE493E00E94D30220911B0442
:1010B00030911C04F901ED50FC4F808F2F5F3F4FA2
:1010C00030931C0420931B048A3019F02F30310513
:1010D00019F72D503C4FF901108E10921C041092FC
:1010E0001B0470E060E08BE094E00E942F08D4CFF6
:1010F0000E947304209151043091520480910105A3
:10110000909102058217930734F470E060E083EF5A
:1011100093E00E944E042091530430915404809136
:101120000305909104058217930734F470E060E0A2
:1011300083EF93E00E9445042091550430915604BA
:1011400080910505909106058217930734F470E0AD
:1011500060E083EF93E00E943C04209157043091BB
:10116000580480910705909108058217930734F47D
:1011700070E060E083EF93E00E94330480915104BB
:10118000909152042091530430915404820F931F84
:101190002091550430915604820F931F20915704DB
:1011A00030915804820F931F2091090530910A0550
:1011B00028173907C4F470E060E083EF93E00E94E1
:1011C0004E0470E060E083EF93E00E94450470E01D
:1011D00060E083EF93E00E943C0470E060E083EF06
:1011E00093E00E943304C0914F04D0915004809149
:1011F0003D0390913E03C817D90778F1A09151049F
:10120000B09152048091530490915404A80FB91FD7
:101210008091550490915604A80FB91F80915704EE
:1012200090915804A80FB91F20911305309114050F
:1012300040911505509116050E94030F20E034E0FF
:1012400040E050E00E94BB0E80913F03909140032C
:10125000821B930BC817D907D0F589E00E94B8010B
:10126000892B09F450C061E089E00E940F0261E01F
:1012700088E00E940F0261E083E00E940F0261E0BB
:1012800087E00E940F0260E089E00E94E10160E0D7
:1012900088E00E94E10160E083E00E94E10160E0FB
:1012A00087E00E94E1018BE39CE90197F1F760E0A0
:1012B00089E00E940F0260E088E00E940F0260E077
:1012C00083E00E940F0260E087E00E940F0280919D
:1012D000980290919902A0919A02B0919B02019676
:1012E000A11DB11D893EF3E09F07A105B105F4F4EE
:1012F0008093980290939902A0939A02B0939B02D4
:10130000DF91CF91089588E00E94B801892B09F000
:10131000AACF83E00E94B801892B09F0A4CF87E00F
:101320000E94B801892B09F09ECFD1CF109298026C
:101330001092990210929A0210929B02DF91CF9123
:101340000C948C000F931F93CF93DF938C01C3EF0A
:10135000D3E0CE01835F93408017910744F487EE7A
:1013600093E00E94F9038AA71BA62196F2CFE3EF30
:10137000F3E0CF01835F93408017910724F483A5A6
:1013800082A73196F6CF61E070E08DE194E0DF91C5
:10139000CF911F910F910C942F08CF92DF92EF9273
:1013A000FF920F931F93CF93DF937C01EB018A0190
:1013B00064E472E00E94330F892B39F588E492E0EF
:1013C0009F938F9389E592E09F938F93C80124E0C8
:1013D000880F991F2A95E1F7815D9B4F9F938F930B
:1013E0000E943C0F0F900F900F900F900F900F9056
:1013F000B80183EF93E0DF91CF911F910F91FF90A0
:10140000EF90DF90CF900C94CE04CE010E94690E35
:10141000EC01C0904F04D090500460E672E0C70128
:101420000E94330F892BF1F4C130D10589F489E092
:101430000E94B801892B61F491E080E020913B0388
:1014400030913C03C216D30608F490E0C92FD82F80
:10145000BE0183EF93E00E944E04DF93CF9385E6B5
:1014600092E0B2CF6EE672E0C7010E94330F892B83
:10147000F1F4C130D10589F488E00E94B801892BCC
:1014800061F491E080E020913B0330913C03C2166F
:10149000D30608F490E0C92FD82FBE0183EF93E064
:1014A0000E944504DF93CF9383E792E08DCF6CE7F2
:1014B00072E0C7010E94330F892BF1F4C130D105CE
:1014C00089F483E00E94B801892B61F491E080E007
:1014D00020913B0330913C03C216D30608F490E000
:1014E000C92FD82FBE0183EF93E00E943C04DF9305
:1014F000CF9381E892E068CF6AE872E0C7010E946A
:10150000330F892B09F074CFC130D10589F487E0FE
:101510000E94B801892B61F491E080E020913B03A7
:1015200030913C03C216D30608F490E0C92FD82F9F
:10153000BE0183EF93E00E943304DF93CF938FE8E3
:1015400092E042CF1F920F920FB60F9211242F9369
:101550003F938F939F93AF93BF9380914603909156
:101560004703A0914803B09149033091450323E01C
:10157000230F2D3758F50196A11DB11D209345036A
:101580008093460390934703A0934803B093490385
:101590008091410390914203A0914303B091440391
:1015A0000196A11DB11D8093410390934203A09326
:1015B0004303B0934403BF91AF919F918F913F91AB
:1015C0002F910F900FBE0F901F90189526E8230FB4
:1015D0000296A11DB11DD2CF1F920F920FB60F928E
:1015E00011242F933F934F935F936F937F938F9328
:1015F0009F93AF93BF93EF93FF938AE493E00E948E
:101600001503FF91EF91BF91AF919F918F917F91C2
:101610006F915F914F913F912F910F900FBE0F905F
:101620001F9018951F920F920FB60F9211242F93AF
:101630008F939F93EF93FF93E0915A03F0915B0395
:101640008081E0916003F091610382FD1BC0908175
:10165000809163038F5F8F7320916403821741F041
:10166000E0916303F0E0E65BFC4F958F80936303AA
:10167000FF91EF919F918F912F910F900FBE0F903F
:101680001F9018958081F4CF1F920F920FB60F9282
:1016900011242F933F934F935F936F937F938F9377
:1016A0009F93AF93BF93EF93FF93E0910001F0916D
:1016B00001010995FF91EF91BF91AF919F918F919A
:1016C0007F916F915F914F913F912F910F900FBE3E
:1016D0000F901F9018951F920F920FB60F92112422
:1016E0002F933F934F935F936F937F938F939F932A
:1016F000AF93BF93EF93FF938091B900887F8036BB
:1017000009F44AC0F0F5883209F4A7C018F5803111
:1017100009F49BC0B8F4882309F4F9C0883009F4AF
:1017200094C0FF91EF91BF91AF919F918F917F9165
:101730006F915F914F913F912F910F900FBE0F903E
:101740001F901895883109F488C0803251F7809332
:10175000050314C0803409F49DC040F48033B9F30C
:101760008833F9F68093050385ECB0C0803509F421
:1017700085C0883509F496C0883499F60E94E5043E
:10178000D0CF883909F48CC038F5883729F050F467
:10179000883611F0803729F683E080930603109293
:1017A000040357C0883809F47BC0803919F08038A9
:1017B00009F0B7CF80910403803208F071C0E09146
:1017C000040381E08E0F809304038091BB00F0E05E
:1017D000EC51FD4F80833DC0803B39F0E0F4803A0E
:1017E00009F479C0883A09F09CCF84E0809306031D
:1017F0001092E3021092E202E0913203F09133037F
:1018000009958091E20281110FC081E08093E2028C
:101810001092C20209C0803C09F4A6CF883C09F4AA
:10182000A3CF883B09F07DCFE091E30281E08E0FEA
:101830008093E302F0E0EE53FD4F80818093BB0084
:101840009091E3028091E20229C080912B03809362
:10185000BB0085EC8093BC0064CF90912A038091FB
:101860002903981758F5E0912A0381E08E0F8093A1
:101870002A03F0E0E75FFC4F8081E9CFE0912A0383
:1018800081E08E0F80932A038091BB00F0E0E75F38
:10189000FC4F808390912A03809129039817C8F206
:1018A00085E8D8CFE0912A0381E08E0F80932A0348
:1018B0008091BB00F0E0E75FFC4F808380910803DC
:1018C00081115CCF81E08093070384EA8093BC00A0
:1018D0001092060326CF85EC8093BC00109206037D
:1018E00080910403803230F4E0910403F0E0EC5185
:1018F000FD4F10826091040370E0E0913003F0919D
:10190000310384EE92E00995109204030ACF1092FD
:10191000050334CFEAE4F3E01382128288EE93E009
:10192000A0E0B0E084839583A683B78328E131E00B
:101930003183208325EC30E03587248724EC30E0A8
:101940003787268720EC30E0318B208B21EC30E08C
:10195000338B228B22EC30E0358B248B26EC30E06D
:10196000378B268B118E128E138E148EE7EEF3E0DA
:101970001382128284839583A683B7838AE291E0DF
:1019800091838083E3EFF3E0178A168A11A610A6ED
:1019900013AE12AE8CE391E0918380838CEB91E0E7
:1019A00090930205809301059093040580930305AD
:1019B000909306058093050590930805809307058D
:1019C00080EF96E090930A058093090588E0E2E0B5
:1019D000F1E0ABE0B5E001900D928A95E1F710924D
:1019E000130510921405109215051092160508950E
:1019F000789484B5826084BD84B5816084BD85B5EA
:101A0000826085BD85B5816085BD80916E008160F5
:101A100080936E001092810080918100826080939B
:101A2000810080918100816080938100809180009D
:101A30008160809380008091B10084608093B100C8
:101A40008091B00081608093B00080917A008460C2
:101A500080937A0080917A00826080937A008091EE
:101A60007A00816080937A0080917A008068809308
:101A70007A001092C10061E082E00E940F0261E0F2
:101A800084E00E940F0260E089E00E940F0260E0A3
:101A900088E00E940F0260E083E00E940F0260E095
:101AA00087E00E940F0260E081E10E940F0260E087
:101AB00080E10E940F0260E08FE00E940F0260E070
:101AC0008EE00E940F0260E085E10E940F020E94FA
:101AD0008C00C0E1D0E00E9473042197E1F789E90E
:101AE00091E0909302058093010590930405809303
:101AF0000305909306058093050590930805809350
:101B0000070580E094E090930A0580930905809191
:101B1000090490910A048A30910574F40196FC013D
:101B2000EE0FFF1FED50FC4F2DEC39E03183208389
:101B300090930A0480930904E0915A03F0915B03A7
:101B400082E08083E0915603F09157031082E09188
:101B50005803F091590383E3808310926203E0916C
:101B60005E03F0915F0386E08083E0915C03F09177
:101B70005D03808180618083E0915C03F0915D036F
:101B8000808188608083E0915C03F0915D038081B7
:101B900080688083E0915C03F0915D0380818F7D9C
:101BA00080831092370310923603109235031092FF
:101BB00034030E94CB0381E692E090933303809339
:101BC00032038DE692E09093310380933003C0E1BD
:101BD000C093BA0082EA99E090932F0380932E037A
:101BE0008EEA94E090932D0380932C03C090FF0421
:101BF000D09000050D2C000CEE08FF0860E573E79F
:101C000087E390E0A70196010E94BB0E309340034A
:101C100020933F0360E27AE085E390E0A70196011C
:101C20000E94BB0E30933E0320933D0360E87CEDA1
:101C300089E390E0A70196010E94BB0E30933C031C
:101C400020933B038EE590E0A0E0B0E08093130585
:101C500090931405A0931505B093160588EC90E0B9
:101C600090930C0580930B059093100580930F05BE
:101C700088EE93E090930E0580930D0590931205E6
:101C800080931105C09381001092800081E08093C1
:101C90003A0320E43FE13093390320933803309333
:101CA00087002093860091E1909381002AE438E038
:101CB000309301012093000180936F00C0E0D0E0D9
:101CC0002097F1F30E9401038823D1F30E940000C2
:101CD000F7CFFC0188279927E89421912032E9F376
:101CE000293010F02E30C8F32B3241F02D3239F468
:101CF000689404C00E94B30E820F911D219120535D
:101D00002A30C0F31EF4909581959F4F089547E1C6
:101D100055E00E948C0E0895FA01A191B0810097C0
:101D200019F41097E1F0CD01DC01CD010D900020F8
:101D300011F4C00113C0FB012191222319F02015D9
:101D4000D9F7F3CFFB012191201519F41E921196BA
:101D500006C02223C1F70D900020A1F7D001FA019F
:101D6000A193B08308957AE0979F902D879F802D4F
:101D7000910D11240895052E97FB1EF400940E94E6
:101D8000D20E57FD07D00E940B0F07FC03D04EF474
:101D90000C94D20E50954095309521953F4F4F4F62
:101DA0005F4F089590958095709561957F4F8F4F07
:101DB0009F4F08950E94E20E332312F48A1B9B0B5F
:101DC0000C94F30EA29FB001B39FC001A39F700DAE
:101DD000811D1124911DB29F700D811D1124911D33
:101DE00008950E94E20EB7FF0895821B930B089599
:101DF0000E94E20EA59F900DB49F900DA49F800DB0
:101E0000911D11240895B7FF0C94F80E0E94F80E4E
:101E1000821B930B0895A1E21A2EAA1BBB1BFD0186
:101E20000DC0AA1FBB1FEE1FFF1FA217B307E407B9
:101E3000F50720F0A21BB30BE40BF50B661F771F11
:101E4000881F991F1A9469F76095709580959095F1
:101E50009B01AC01BD01CF010895EE0FFF1F05905E
:101E6000F491E02D0994FB01DC018D910190801922
:101E70000110D9F3990B0895AEE0B0E0E2E4FFE081
:101E80000C94EB110D891E8986E08C831A830983DB
:101E90008FEF9FE79E838D83AE01475E5F4F6F8913
:101EA000788DCE0101960E945F0F2F813885020F39
:101EB000131FF80110822E96E4E00C940712ABE099
:101EC000B0E0E5E6FFE00C94DD117C013B018A0106
:101ED000FC0117821682838181FFC8C1CE01019661
:101EE0005C01F7019381F30193FD859193FF81914B
:101EF0003F01882309F453C1853239F493FD85915C
:101F000093FF81913F01853229F4B70190E00E944F
:101F10004F11E7CF912C212C312CFFE1F31538F034
:101F20008B3211F190F4803209F1833229F137FCC0
:101F30003CC020ED280F2A3050F536FE20C08AE044
:101F4000989E200D1124922E06C08D3291F0803380
:101F500071F7689430F8F30193FD859193FF8191B7
:101F60003F018111DACF21C0689431F8689432F8CA
:101F7000F2CF689433F8EFCF689434F8ECCFEAE00E
:101F80002E9E200D1124222E689435F8E4CF8E3237
:101F900029F436FC04C1689436F8DDCF8C3619F488
:101FA000689437F8D8CF8836B1F2982F9F7D955432
:101FB0009330E0F08336A1F18337C1F1833509F026
:101FC00063C02801F2E04F0E511CF801C080D1809F
:101FD000692D70E036FC02C06FEF7FEFC6010E94F2
:101FE00039114C01689437F882010AC00C5F1F4F09
:101FF000FFE3F98388248394912C6501E89437F8F2
:1020000033FE2DC0522C8114910471F5552009F432
:1020100068CFB70180E290E00E944F115A94F6CF4A
:10202000F801808189830E5F1F4FE4CF2801F2E021
:102030004F0E511CF801C080D180692D70E036FC34
:1020400002C06FEF7FEFC6010E9444114C01820174
:10205000D5CFB70180E290E00E944F112A94281456
:10206000190409F0B0F7CECFF60137FC859137FEA1
:1020700081916F01B70190E00E944F1151105A9465
:10208000F1E08F1A9108BFCF843619F0893609F034
:1020900077C0F80137FE6BC06081718182819381C6
:1020A0000C5F1F4FF32DFF763F2E97FF09C09095D1
:1020B0008095709561957F4F8F4F9F4F689437F84B
:1020C0002AE030E0A5010E947F11C82ECA188C2C8E
:1020D000432C36FE0CC0E89440F8C91440F434FE9A
:1020E00005C032FC03C0F32DFE7E4F2E892C44FE2A
:1020F00095C0FE01EC0DF11D8081803309F087C091
:10210000242D297E422E842D8870582E43FC95C0A4
:1021100040FE8FC09C2C821418F42C0C922C981822
:1021200044FE91C0B70180E390E00E944F1142FE4F
:1021300009C088E790E041FE02C088E590E0B70161
:102140000E944F11C91408F48AC0CA94D12C9FEF81
:10215000C91AD90ACA0CDB1CF60182916F01B701BA
:1021600090E00E944F11AC14BD04B1F74FCF6081D5
:102170007181072E000C880B990B0E5F1F4F92CFB9
:10218000D32CE894D4F82AE030E0853739F1232DB8
:10219000297FD22E8F3601F148F48835A9F0F70156
:1021A000868197812B96E2E10C94F911803749F0F2
:1021B0008837A9F7D4FE02C06894D2F820E130E055
:1021C0000DC06894D4F8F6CF34FE03C0822F866029
:1021D000D82E20E132E002C028E030E0F801D7FE3E
:1021E0000FC060817181828193810C5F1F4FA501B7
:1021F0000E947F11C82ECA183D2CE89437F867CF8B
:102200006081718190E080E00E5F1F4FF0CF42FC53
:1022100002C0839478CF8394839475CF842D86787D
:1022200009F471CFF6CFB70180E290E00E944F1120
:1022300083948214C0F3512C73CF522C58188214FB
:1022400008F46ECFF8CF842D867809F47BCF8BE22B
:1022500041FE80E247FC8DE2B70190E071CFB7010B
:1022600080E390E00E944F119A946CCF8FEF9FEF24
:1022700099CFFC010590615070400110D8F780950E
:1022800090958E0F9F1F0895FC0161507040019042
:102290000110D8F7809590958E0F9F1F08950F938A
:1022A0001F93CF93DF93182F092FEB018B8181FDB3
:1022B00009C01FEF0FEF812F902FDF91CF911F915A
:1022C0000F91089582FF14C02E813F818C819D81E2
:1022D000281739073CF4E881F981CF0101969983E9
:1022E000888310838E819F8101969F838E83E3CFA5
:1022F000E885F985812F0995892BA1F3DACFFA01B9
:10230000AA27283051F1203181F1E8946F936E7F34
:102310006E5F7F4F8F4F9F4FAF4FB1E03ED0B4E025
:102320003CD0670F781F891F9A1FA11D680F791F66
:102330008A1F911DA11D6A0F711D811D911DA11D77
:1023400020D009F468943F912AE0269F1124301987
:10235000305D3193DEF6CF010895462F4770405D22
:102360004193B3E00FD0C9F7F6CF462F4F70405DD1
:102370004A3318F0495D31FD4052419302D0A9F72C
:10238000EACFB4E0A6959795879577956795BA9526
:10239000C9F700976105710508959B01AC010A2EEC
:1023A00006945795479537952795BA95C9F7620FC3
:1023B000731F841F951FA01D08952F923F924F9267
:1023C0005F926F927F928F929F92AF92BF92CF92C5
:1023D000DF92EF92FF920F931F93CF93DF93CDB7CE
:1023E000DEB7CA1BDB0B0FB6F894DEBF0FBECDBF46
:1023F00009942A88398848885F846E847D848C8417
:102400009B84AA84B984C884DF80EE80FD800C811F
:102410001B81AA81B981CE0FD11D0FB6F894DEBF02
:102420000FBECDBFED010895F894FFCF60023200DA
:1024300032003200320004001000100010001000C2
:102440000000000037039702C4028403F502D302A0
:10245000E702000000001E0413042F04E9030C042B
:10246000F903EA03000000003C050D0A0052564241
:10247000005756423A257500524931005749313AC2
:10248000256400524932005749323A2564005249C6
:1024900033005749333A25640052493400574934D0
:1024A0003A256400524954005749543A2564005271
:1024B00056434300575643433A256400524348313C
:1024C00000574348313A256400524348320057438D
:1024D00048323A2564005243483300574348333A60
:1024E0002564005243483400574348343A25640079
:1024F0005743483100574348313A3D25640057431C
:10250000483200574348323A3D2564005743483328
:1025100000574348333A3D25640057434834005739
:102520004348343A3D25640057494C310057494CE3
:10253000313A3D25640057494C320057494C323AF4
:102540003D25640057494C330057494C333A3D25EB
:10255000640057494C340057494C343A3D256400D7
:1025600057494C540057494C543A3D2564003A00B1
:1025700052464E004261747465727950616E656CAA
:102580002E696E6F0057464E3A25730057435031FF
:1025900000574350313A3D256400574350320057AD
:1025A0004350323A3D25640057435033005743505F
:1025B000333A3D2564005743503400574350343A72
:0425C0003D25640051
:107E0000112484B714BE81FFF0D085E080938100F7
:107E100082E08093C00088E18093C10086E0809377
:107E2000C20080E18093C4008EE0C9D0259A86E02C
:107E300020E33CEF91E0309385002093840096BBD3
:107E4000B09BFECF1D9AA8958150A9F7CC24DD24C4
:107E500088248394B5E0AB2EA1E19A2EF3E0BF2EE7
:107E6000A2D0813461F49FD0082FAFD0023811F036
:107E7000013811F484E001C083E08DD089C08234E0
:107E800011F484E103C0853419F485E0A6D080C0E4
:107E9000853579F488D0E82EFF2485D0082F10E0AE
:107EA000102F00270E291F29000F111F8ED06801E7
:107EB0006FC0863521F484E090D080E0DECF843638
:107EC00009F040C070D06FD0082F6DD080E0C81688
:107ED00080E7D80618F4F601B7BEE895C0E0D1E017
:107EE00062D089930C17E1F7F0E0CF16F0E7DF06D8
:107EF00018F0F601B7BEE89568D007B600FCFDCFD4
:107F0000A601A0E0B1E02C9130E011968C91119780
:107F100090E0982F8827822B932B1296FA010C0160
:107F200087BEE89511244E5F5F4FF1E0A038BF0790
:107F300051F7F601A7BEE89507B600FCFDCF97BE46
:107F4000E89526C08437B1F42ED02DD0F82E2BD052
:107F50003CD0F601EF2C8F010F5F1F4F84911BD097
:107F6000EA94F801C1F70894C11CD11CFA94CF0C13
:107F7000D11C0EC0853739F428D08EE10CD085E9AC
:107F80000AD08FE07ACF813511F488E018D01DD067
:107F900080E101D065CF982F8091C00085FFFCCF94
:107FA0009093C60008958091C00087FFFCCF809118
:107FB000C00084FD01C0A8958091C6000895E0E648
:107FC000F0E098E1908380830895EDDF803219F02E
:107FD00088E0F5DFFFCF84E1DECF1F93182FE3DFCA
:107FE0001150E9F7F2DF1F91089580E0E8DFEE27F6
:047FF000FF270994CA
:027FFE00040479
:00000001FF
