:100000000C9462000C948A000C948A000C948A0070
:100010000C948A000C948A000C948A000C948A0038
:100020000C948A000C948A000C948A000C948A0028
:100030000C948A000C94C30E0C948A000C948A00D1
:100040000C94210E0C948A000C94910E0C946B0E5F
:100050000C948A000C948A000C948A000C948A00F8
:100060000C94EA0E0C948A00000000002400270083
:100070002A0000000000250028002B0000000000DE
:1000800023002600290004040404040404040202DA
:100090000202020203030303030301020408102007
:1000A0004080010204081020010204081020000012
:1000B0000008000201000003040700000000000027
:1000C0000000091011241FBECFEFD8E0DEBFCDBF66
:1000D00026E0AEE4B3E001C01D92A73BB207E1F712
:1000E00013E0A0E0B1E0E4E8FCE202C005900D926C
:1000F000AE34B107D9F710E0C2E6D0E004C02197D2
:10010000FE010E945913C136D107C9F70E9487101A
:100110000C9440160C940000CF93DF93ECE1F4E0D4
:1001200030E020E041915191481759072CF42F5F9E
:100130003F4F28303105B1F7220F331FF901E65E3A
:10014000FB4F0190F081E02DA9014E5F5F4FDA0176
:10015000A65EBB4F6D917C91265D3E4FD9012D91DE
:100160003C91465D5E4FEA01A881B981E617F70729
:1001700091F0A21BB30BAC014E1B5F0BA49FC001FF
:10018000A59F900DB49F900D11246E1B7F0B0E94B4
:10019000BF12260F371FC901DF91CF9108956F92CB
:1001A0007F928F929F92AF92BF92CF92DF92EF9207
:1001B000FF920F931F93CF93DF933C01EB0129ED47
:1001C00035E082E068167104B1F04CF429E935E0BD
:1001D000B1E06B16710479F029E535E00CC029E136
:1001E00036E0E3E06E16710431F029E536E0F4E024
:1001F0006F16710489F78301000F111F015B1A4FFD
:10020000F801A081B181AA0FBB1FA20FB31FF30198
:10021000EE0FFF1FEE0FFF1FE55CFA4FCD90DC9055
:1002200011970D2C000CEE08FF0880809180A280B1
:10023000B3808C189D08AE08BF08CD93DC93D8011D
:10024000ED90FC90A701440F551F240F351FD901D5
:100250004D915C91052E000C660B770BCB01BA011A
:10026000680D791D8A1D9B1D608371838283938332
:10027000F301EE0FFF1FE05EFE4FC080D1809301BF
:10028000220F331FE901CF5CDA4F96010D2C000CD1
:10029000440B550B0E94F51239832883BFEFEB1AEC
:1002A000FB0AEC14FD0494F4F801F182E082DF9182
:1002B000CF911F910F91FF90EF90DF90CF90BF9063
:1002C000AF909F908F907F906F900895D8011D926E
:1002D0001C92EDCF7F928F929F92AF92BF92CF925E
:1002E000DF92EF92FF920F931F93CF93DF93C4E0BF
:1002F000D0E0C12CD12C76018EE4782E0BE31FE1E7
:1003000094EB892E9BE2992E91E1A92EB12C70924B
:100310007C00C8010197F1F780917A008064809396
:100320007A0080917A0086FDFCCF80917800209140
:100330007900322F282F032E000C440B550BC501DA
:10034000B4010E94F512032E000C440B550BC20E93
:10035000D31EE41EF51E2197D1F6C701B60124E095
:1003600030E040E050E00E94F512263583E1380786
:1003700094F030939A0620939906DF91CF911F91C4
:100380000F91FF90EF90DF90CF90BF90AF909F9034
:100390008F907F90089588E893E190939A068093D8
:1003A0009906EBCF833081F028F4813099F08230C8
:1003B000A9F008958730A9F08830C9F08430B1F4ED
:1003C000809180008F7D03C0809180008F77809323
:1003D0008000089584B58F7784BD089584B58F7D9E
:1003E000FBCF8091B0008F778093B000089580910B
:1003F000B0008F7DF9CFCF93DF93282F30E0F90144
:10040000E255FF4F8491F901E656FF4FD491F9016F
:10041000EA57FF4FC491CC23A1F081110E94D20171
:10042000EC2FF0E0EE0FFF1FE458FF4FA591B491C1
:10043000EC91ED2381E090E009F480E0DF91CF9131
:10044000089580E090E0FACF1F93CF93DF93282F99
:1004500030E0F901E255FF4F8491F901E656FF4F74
:10046000D491F901EA57FF4FC491CC23A9F0162F7C
:1004700081110E94D201EC2FF0E0EE0FFF1FEE5829
:10048000FF4FA591B4918FB7F894EC91111108C06A
:10049000D095DE23DC938FBFDF91CF911F9108951C
:1004A000DE2BF8CFCF93DF9390E0FC01E656FF4FB1
:1004B00024918A579F4FFC0184918823D1F090E0CA
:1004C000880F991FFC01E859FF4FA591B491FC01D9
:1004D000EE58FF4FC591D49161110EC09FB7F894AB
:1004E0008C91E22FE0958E238C932881E223E88380
:1004F0009FBFDF91CF9108958FB7F894EC91E22BD5
:10050000EC938FBFF6CFFF920F931F93CF93DF93A0
:10051000182FF62E042FE90161E00E9452026F2D80
:10052000812F0E942402002399F0C230D10538F0B7
:10053000CC0FDD1FCC0FDD1F25972197F1F760E071
:10054000812FDF91CF911F910F91FF900C94520258
:10055000DF91CF911F910F91FF900895E091FC03DF
:10056000F091FD03309729F01092050410920404D5
:1005700009940895CF93DF93AC01E091FE03F091CD
:10058000FF033097F1F090910704809106049817CB
:10059000C0F090E0292F30E02617370754F4D90136
:1005A000A459BC4F240F351FE90128812C939F5F6C
:1005B000F1CF1092070460930604CB01DF91CF9135
:1005C0000994DF91CF910895AF92BF92CF92DF92BD
:1005D000EF92FF920F931F93CF93DF936C017B01F8
:1005E0008B01040F151FEB015E01AE18BF08C01789
:1005F000D10759F06991D601ED91FC910190F081FC
:10060000E02DC6010995892B79F7C501DF91CF91BE
:100610001F910F91FF90EF90DF90CF90BF90AF9020
:100620000895FC01538D448D252F30E0842F90E0F8
:10063000821B930B541710F0CF96089501970895DD
:10064000FC01918D828D981761F0A28DAE0FBF2FA6
:10065000B11D5D968C91928D9F5F9F73928F90E0FC
:1006600008958FEF9FEF0895FC01918D828D98176B
:1006700031F0828DE80FF11D858D90E008958FEFA8
:100680009FEF0895FC01918D228D892F90E0805C71
:100690009F4F821B91098F73992708958CE294E0F4
:1006A0000E94420321E0892B09F420E0822F089563
:1006B00080E090E0892B29F00E944E0381110C9478
:1006C00000000895FC01A48DA80FB92FB11DA35AF5
:1006D000BF4F2C91848D90E001968F739927848F62
:1006E000A689B7892C93A089B1898C918370806485
:1006F0008C93938D848D981306C00288F389E02D26
:1007000080818F7D80830895EF92FF920F931F93D6
:10071000CF93DF93EC0181E0888F9B8D8C8D9813B4
:100720001AC0E889F989808185FF15C09FB7F894C0
:10073000EE89FF896083E889F9898081837080640C
:1007400080839FBF81E090E0DF91CF911F910F9157
:10075000FF90EF900895F62E0B8D10E00F5F1F4F66
:100760000F731127E02E8C8D8E110CC00FB607FC75
:10077000FACFE889F989808185FFF5CFCE010E9403
:100780006203F1CFEB8DEC0FFD2FF11DE35AFF4F0C
:10079000F0829FB7F8940B8FEA89FB898081806291
:1007A000CFCFCF93DF93EC01888D8823B9F0AA894E
:1007B000BB89E889F9898C9185FD03C0808186FD1C
:1007C0000DC00FB607FCF7CF8C9185FFF2CF80816B
:1007D00085FFEDCFCE010E946203E9CFDF91CF917B
:1007E000089508952091B203260F3327331F213235
:1007F0003105ECF42091D603FC0190E080E0243038
:1008000069F082E00895A091B2032191AC014E56A7
:100810005C4FA40FB52FB11D2C930196861798F34A
:100820008091B203680F6093B20380E0089581E085
:1008300008951092D60381E08093D8031092D703D5
:1008400061E082E10E94240261E083E10E942402CF
:10085000E9EBF0E080818E7F808380818D7F8083D3
:1008600088E48093B80085E48093BC0008950895DF
:10087000E091070480910604E81730F4F0E0E459B1
:10088000FC4F808190E008958FEF9FEF0895909145
:100890000704809106042FEF3FEF981748F4E92FE3
:1008A000F0E0E459FC4F208130E09F5F9093070413
:1008B000C90108958091060490910704891B990B42
:1008C0000895CF93DF93CB01EA01642F0E94F203D6
:1008D000CE01DF91CF910895CF93DF931F92CDB7D3
:1008E000DEB7698361E0CE0101960E94F20381E0E8
:1008F00090E00F90DF91CF91089590E080E008950F
:100900000895FC01E053FE4F2081318188529E4FB3
:10091000FC01408189E090E00C9483024F925F9249
:100920006F927F928F929F92AF92BF92EF92FF92BF
:100930000F931F93CF93DF938C01FC01EC53FE4F79
:10094000E080F180E456F140A081B18197010E94DE
:1009500014139B01AC01A3E0B0E00E943213812C80
:1009600024E0922EA12CB12CA50194010E94F51235
:100970002901F801E25AFF4FA081B18197010E943D
:1009800014139B01AC01A3E0B0E00E943213A50157
:1009900094010E94F512E201C20FD31FF801EE5933
:1009A000FF4FA081B18197010E9414139B01AC01FC
:1009B000A3E0B0E00E943213A50194010E94F51259
:1009C000C20FD31FF801EC59FF4FA081B1819701ED
:1009D0000E9414139B01AC01A3E0B0E00E9432130B
:1009E000A50194010E94F512CE01820F931FDF91A1
:1009F000CF911F910F91FF90EF90BF90AF909F907C
:100A00008F907F906F905F904F90089520917A0023
:100A100090917A00987F946090937A008E508064D1
:100A200080937C0080917A00806480937A0080912A
:100A30007A0086FDFCCF8091780090917900209318
:100A40007A00089581E10E940605BC0190E080E0F3
:100A50000E94CF0080E10E940605BC01725081E037
:100A600090E00E94CF008FE00E940605BC0172500A
:100A700082E090E00E94CF008EE00E940605BC015B
:100A8000725083E090E00E94CF0085E10E9406054D
:100A9000BC01725084E090E00C94CF00FC01EA525B
:100AA000FE4F2081318185529E4FFC01408187E0BD
:100AB00090E00C948302FC01EC52FE4F20813181C6
:100AC00086529E4FFC01408183E090E00C948302AB
:100AD000FC01EE52FE4F2081318187529E4FFC0176
:100AE000408188E090E00C948302FB01019000209B
:100AF000E9F73197AF01461B570BDC01ED91FC91F3
:100B00000280F381E02D09948F929F92AF92BF9261
:100B10000F931F93CF93DF93CDB7DEB7A1970FB697
:100B2000F894DEBF0FBECDBF19A2423008F44AE0F0
:100B30008E010F5D1F4F842E912CB12CA12CA5018D
:100B400094010E94D312E62FB901CA01EA3004F5DC
:100B5000E05DD801EE938D01232B242B252B79F713
:100B600090E080E0109729F0BD018CE294E00E94B3
:100B70007505A1960FB6F894DEBF0FBECDBFDF910D
:100B8000CF911F910F91BF90AF909F908F9008953C
:100B9000E95CDFCFCF92DF92EF92FF92CF93DF93AA
:100BA0006B017C016DE28CE294E00E948403EC0115
:100BB00066277727CB016C197D098E099F094AE0CA
:100BC0000E9484058C0F9D1FDF91CF91FF90EF90C5
:100BD000DF90CF900895BC01990F880B990B97FD7A
:100BE0000C94CA054AE00C948405BC018CE294E0A4
:100BF0000C947505CF93DF93672B81F4EC01BC0156
:100C0000645C7F4F21F08CE294E00E94750566E6FB
:100C100071E08CE294E00E9475051CAEDF91CF91EB
:100C2000089561E275E089EC94E00E9475051092E8
:100C300021050895CF93DF9385ED8093BC008091CB
:100C40008E0390918F03A0919003B091910307962A
:100C5000A11DB11D23E0B695A795979587952A9577
:100C6000D1F72091BC0024FD03C01092D60336C0FA
:100C700040918E0350918F03609190037091910386
:100C8000452B462B472B69F30097A105B10541F091
:100C90002AE22A95F1F700C00197A109B109E1CF35
:100CA00080918D0391E090938C038823B9F0C091DB
:100CB000B800D091BA008091BC008A7B8093BC00C0
:100CC00060E082E10E94240260E083E10E9424024D
:100CD0000E941904D093BA00C093B800DF91CF915D
:100CE00008958F929F92AF92BF92CF92DF92EF9230
:100CF000FF920F931F93CF93DF93EC017B016A0167
:100D0000890169E671E0C7010E945F13892B09F030
:100D100041C0DE01A45ABF4FFE01EC53FE4F2D919E
:100D20003C91A081B1810E9414139B01AC01ADE004
:100D3000B0E00E94321320E034E040E050E00E9436
:100D4000F5123F932F938DE691E09F938F93C80107
:100D500024E0880F991F2A95E1F7CC968C0F9D1FF0
:100D60009F938F930E9468130F900F900F900F9096
:100D70000F900F90B801CE01DF91CF911F910F918D
:100D8000FF90EF90DF90CF90BF90AF909F908F90AB
:100D90000C94FA0564E771E0C7010E945F13892B88
:100DA000E9F4DE01A25ABF4FFE01EC53FE4F2D9134
:100DB0003C91A081B1810E9414139B01AC01A3E07E
:100DC000B0E00E94321320E034E040E050E00E94A6
:100DD000F5123F932F9388E791E0B7CF6FE771E06B
:100DE000C7010E945F13892BE9F4DE01A05ABF4FAF
:100DF000FE01EC53FE4F2D913C91A081B1810E94E8
:100E000014139B01AC01A3E0B0E00E94321320E078
:100E100034E040E050E00E94F5123F932F9383E8C6
:100E200091E093CF6AE871E0C7010E945F13892BBC
:100E3000E9F4DE01AE59BF4FFE01EC53FE4F2D9198
:100E40003C91A081B1810E9414139B01AC01A3E0ED
:100E5000B0E00E94321320E034E040E050E00E9415
:100E6000F5123F932F938EE891E06FCF65E971E023
:100E7000C7010E945F13892BE9F4DE01AC59BF4F13
:100E8000FE01EC53FE4F2D913C91A081B1810E9457
:100E900014139B01AC01A3E0B0E00E94321320E0E8
:100EA00034E040E050E00E94F5123F932F9389E92F
:100EB00091E04BCF60EA71E0C7010E945F13892B7C
:100EC00041F4CE010E948E049F938F9384EA91E0B7
:100ED0003CCF6BEA71E0C7010E945F13892B51F48C
:100EE000FE01EC53FE4F81818F9380818F9380EBC5
:100EF00091E02BCF68EB71E0C7010E945F13892B53
:100F000041F489E00E94FB019F938F938DEB91E068
:100F10001CCF65EC71E0C7010E945F13892B41F47F
:100F200088E00E94FB019F938F938AEC91E00DCFA4
:100F300062ED71E0C7010E945F13892B41F483E0E9
:100F40000E94FB019F938F9387ED91E0FECE6FEDA2
:100F500071E0C7010E945F13892B41F487E00E9472
:100F6000FB019F938F9384EE91E0EFCE6CEE71E0E6
:100F7000C7010E945F13892B79F4C6010E945D129C
:100F8000BC01CE010E94810489E00E94FB019F9375
:100F90008F9381EF91E0D9CE6AEF71E0C7010E9493
:100FA0005F13892B79F4C6010E945D12BC01CE014A
:100FB0000E94680588E00E94FB019F938F938FEF4A
:100FC00091E0C3CE68E072E0C7010E945F13892BF5
:100FD00079F4C6010E945D12BC01CE010E945B053E
:100FE00083E00E94FB019F938F938DE092E0ADCE52
:100FF00066E172E0C7010E945F13892B79F4C60194
:101000000E945D12BC01CE010E944E0587E00E9445
:10101000FB019F938F938BE192E097CE64E272E0A5
:10102000C7010E945F13892B19F5C6010E945D124A
:101030007C016E018AE3C81A8EEFD80AB7010F2C23
:10104000000C880B990BF7E0660F771F881F991F1C
:10105000FA95D1F723E537E040E050E00E94F51221
:10106000D6012D933C93FF92EF9289E292E06DCEF0
:1010700062E372E0C7010E945F13892B11F5C6017C
:101080000E945D127C016E01B8E3CB1ABEEFDB0A51
:10109000BC01990F880B990BE7E0660F771F881F3B
:1010A000991FEA95D1F723E537E040E050E00E9430
:1010B000F512F60131832083FF92EF9287E392E0ED
:1010C00044CE60E472E0C7010E945F13892B11F5E2
:1010D000C6010E945D127C016E01F6E3CF1AFEEF9D
:1010E000DF0ABC01990F880B990B57E0660F771F39
:1010F000881F991F5A95D1F723E537E040E050E06B
:101100000E94F512D6012D933C93FF92EF9285E455
:1011100092E01BCE6EE472E0C7010E945F13892B40
:1011200011F5C6010E945D127C016E01B4E3CB1A79
:10113000BEEFDB0ABC01990F880B990B47E0660FE5
:10114000771F881F991F4A95D1F723E537E040E0C4
:1011500050E00E94F512F60131832083FF92EF9256
:1011600083E592E0F2CD6CE572E0C7010E945F1367
:10117000892BB9F04E01F2E08F0E911CB12CA12CFD
:101180008E899F89A816B9067CF5D401ED91FD9151
:101190004D01A801B601C7010995BFEFAB1ABB0A03
:1011A000EFCFC6010E945D127C016E0182E3C81A76
:1011B0008EEFD80AB7010F2C000C880B990B37E083
:1011C000660F771F881F991F3A95D1F723E537E0FF
:1011D00040E050E00E94F512D6012D933C93FF921F
:1011E000EF9281E692E0B1CDDF91CF911F910F9107
:1011F000FF90EF90DF90CF90BF90AF909F908F9037
:1012000008950F931F93CF93DF938B016DEB72E0E3
:101210000E947B12EC0167E671E090E080E00E94A2
:101220007B129801AC01BE0185ED94E0DF91CF9176
:101230001F910F910C947106CF92DF92EF92FF9263
:101240000F931F93CF93DF938CE294E00E944203AD
:10125000EC01892B31F18CE294E00E942003209173
:10126000FD043091FE04F901EB52FB4F808F2F5F9C
:101270003F4F3093FE042093FD048A3019F02F3045
:10128000310511F72B523B4FF901108E1092FE04DD
:101290001092FD0470E060E08DEE94E00E94010980
:1012A000D3CF209133053091340580919B069091E6
:1012B0009C068217930734F470E060E085ED94E0BB
:1012C0000E948104209135053091360580919D065C
:1012D00090919E068217930734F470E060E085EDEC
:1012E00094E00E946805209137053091380580917F
:1012F0009F069091A0068217930734F470E060E097
:1013000085ED94E00E945B052091390530913A0506
:101310008091A1069091A2068217930734F470E0A1
:1013200060E085ED94E00E944E0580913305909138
:1013300034052091350530913605820F931F209199
:10134000370530913805820F931F20913905309170
:101350003A05820F931F2091A3063091A406281707
:101360003907C4F470E060E085ED94E00E948104E8
:1013700070E060E085ED94E00E94680570E060E058
:1013800085ED94E00E945B0570E060E085ED94E0FF
:101390000E944E05009131051091320520913305D0
:1013A000309134058091350590913605280F391F0D
:1013B0008091370590913805280F391F80913905A4
:1013C00090913A05280F391F809168039091690325
:1013D000280F391F8091660390916703281B390BF2
:1013E000032E000C440B550BC0906203D090630396
:1013F000E0906403F0906503C20ED31EE41EF51E58
:10140000C0926203D0926303E0926403F09265039A
:101410006091B1067091B2068091B3069091B406C6
:101420000E94AF1220E034E040E050E00E94F5124C
:10143000200F311F80911A0490911B04821793078B
:1014400084F480912A0490912B04C4E6D0E02817FC
:1014500039070CF040C0C9010E948C00EC010597CF
:10146000D4F589E00E94FB01892B09F456C061E0A4
:1014700089E00E94520261E088E00E94520261E02D
:1014800083E00E94520261E087E00E94520260E025
:1014900089E00E94240260E088E00E94240260E06B
:1014A00083E00E94240260E087E00E9424028BE334
:1014B0009CE90197F1F760E089E00E94520260E048
:1014C00088E00E94520260E083E00E94520260E0E5
:1014D00087E00E94520280915E0390915F03A09189
:1014E0006003B09161030196A11DB11D893EF3E037
:1014F0009F07A105B10524F580935E0390935F03D8
:10150000A0936003B0936103DF91CF911F910F917E
:10151000FF90EF90DF90CF90089588E00E94FB014C
:10152000892B09F0A4CF83E00E94FB01892B09F0ED
:101530009ECF87E00E94FB01892B09F098CFCBCF8B
:1015400010925E0310925F03109260031092610389
:101550000E946A01CE010A978135910508F447C1BE
:101560009E01A0E0B5E90E94141324E630E040E0BB
:1015700050E00E94F51220930B0430930C0440932A
:101580000D0450930E04D0936B03C0936A03209113
:10159000390530913A05EEE4F3E04CE553E0C12C17
:1015A000D12C76018281938181939193092E000C35
:1015B000AA0BBB0BC80ED91EEA1EFB1E4E175F07F7
:1015C00089F730935D0320935C0380914E039091E3
:1015D0004F03092E000CAA0BBB0BBC01CD016C0DF7
:1015E0007D1D8E1D9F1DC0900F04D09010040D2CEA
:1015F000000CEE08FF0828E030E040E050E00E94D8
:10160000F512C216D306E406F50634F470E060E085
:1016100085ED94E00E944E058AE692E00E94F50571
:1016200089E00E94FB010E94EB0588E00E94FB011B
:101630000E94EB0583E00E94FB010E94EB0587E01E
:101640000E94FB010E94EB0582E792E00E94F505F3
:101650008091990690919A060E94EB0589E792E0A5
:101660000E94F5052091310530913205A09199062F
:10167000B0919A060E9414139B01AC01ADE0B0E05A
:101680000E943213C12C24E0D22EE12CF12CA701B0
:1016900096010E94F512CA01B901882799274AE0EC
:1016A0000E94840583E892E00E94F50580916A0318
:1016B00090916B030E94EB058CE892E00E94F50587
:1016C0002091330530913405A0919906B0919A0686
:1016D0000E9414139B01AC01A3E0B0E00E943213FE
:1016E000A70196010E94F512C9010E94EB0583E94A
:1016F00092E00E94F5052091350530913605A091C4
:101700009906B0919A060E9414139B01AC01A3E0C4
:10171000B0E00E943213A70196010E94F512C901A0
:101720000E94EB058BE992E00E94F50520913705B8
:1017300030913805A0919906B0919A060E94141331
:101740009B01AC01A3E0B0E00E943213A701960117
:101750000E94F512C9010E94EB0583EA92E00E9403
:10176000F5052091390530913A05A0919906B0917F
:101770009A060E9414139B01AC01A3E0B0E00E9402
:101780003213A70196010E94F512C9010E94EB05D0
:101790008BEA92E00E94F50585ED94E00E948E04AC
:1017A0000E94EB0585EB92E00E94F505C8010E94BE
:1017B000EB058FEB92E00E94F50560910B047091B0
:1017C0000C0480910D0490910E0497FF74C00E9448
:1017D000CA0566E671E08CE294E0DF91CF911F913B
:1017E0000F91FF90EF90DF90CF900C947505C7019B
:1017F000B60128EE33E040E050E00E94F512C90146
:101800002091990630919A06DC010E9414139B01E5
:10181000AC01A3E0B0E00E94321320E034E040E0ED
:1018200050E00E94F512C901330FAA0BBB0B2091A7
:101830000B0430910C0440910D0450910E04281BB0
:10184000390B4A0B5B0B20930B0430930C04409331
:101850000D0450930E0410926203109263031092D1
:10186000640310926503A4E6B0E00E94321320E006
:1018700035E94FEF5FEF0E94F51230936B03209331
:101880006A032A5031092135310508F480CE9E01C2
:10189000A0E0B5E90E94141324E630E040E050E0F7
:1018A0000E94F51220930B0430930C0440930D0416
:1018B00050930E046CCE4AE00E9484058ACF0F93A9
:1018C0001F93CF93DF938C01C5EDD4E0CE01855DEE
:1018D00094408017910744F489EC94E00E944704F7
:1018E0008AA71BA62196F2CFE5EDF4E0CF01855D36
:1018F00094408017910724F483A582A73196F6CFF0
:1019000061E070E08FEF94E0DF91CF911F910F9134
:101910000C940109EF92FF920F931F93CF93DF93E3
:101920007C01EB018A0167EC72E00E945F13892B56
:1019300039F580916B038F9380916A038F938CECC0
:1019400092E09F938F93C80124E0880F991F2A95F6
:10195000E1F78F5E9A4F9F938F930E9468130F90C9
:101960000F900F900F900F900F90B80185ED94E0BD
:10197000DF91CF911F910F91FF90EF900C94FA059A
:1019800064ED72E0C7010E945F13892BE9F4CE0178
:101990000E945D1225E531E0DC010E942B132091AD
:1019A000990630919A06032E000C440B550B0E94A9
:1019B000F5123093670320936603DF91CF911F9157
:1019C0000F91FF90EF90089569ED72E0C7010E94BA
:1019D0005F13892BB9F4CE010E945D1225E531E039
:1019E000DC010E942B132091990630919A06032E58
:1019F000000C440B550B0E94F512309369032093A1
:101A00006803DBCF6EED72E0C7010E945F13892B84
:101A100039F482EE92E09F938F9383EF92E091CF1F
:101A20006AEF72E0C7010E945F13892BE9F489E035
:101A30000E94FB01892B31F021E01F922F938FEF41
:101A400092E07FCF88E00E94FB01892BA9F783E019
:101A50000E94FB01892B81F787E00E94FB0121E0B6
:101A6000892B59F720E0E9CFCE010E945D12EC01ED
:101A700067E073E0C7010E945F13892B09F5C1304D
:101A8000D10589F489E00E94FB01892B61F491E082
:101A900080E020916A0330916B03253031050CF40E
:101AA00090E0C92FD82FBE0185ED94E00E948104FB
:101AB00089E00E94FB019F938F938CE093E041CFDC
:101AC00065E173E0C7010E945F13892B09F5C130FE
:101AD000D10589F488E00E94FB01892B61F491E033
:101AE00080E020916A0330916B03253031050CF4BE
:101AF00090E0C92FD82FBE0185ED94E00E946805C3
:101B000088E00E94FB019F938F938AE193E019CFB5
:101B100063E273E0C7010E945F13892B09F5C130AE
:101B2000D10589F483E00E94FB01892B61F491E0E7
:101B300080E020916A0330916B03253031050CF46D
:101B400090E0C92FD82FBE0185ED94E00E945B057F
:101B500083E00E94FB019F938F9388E293E0F1CE94
:101B600061E373E0C7010E945F13892B09F5C1305F
:101B7000D10589F487E00E94FB01892B61F491E093
:101B800080E020916A0330916B03253031050CF41D
:101B900090E0C92FD82FBE0185ED94E00E944E053C
:101BA00087E00E94FB019F938F9386E393E0C9CE69
:101BB0006FE373E0C7010E945F13892B09F0D5CE54
:101BC000C130D10569F480916A0390916B03059748
:101BD0003CF489E00E94FB01892BF1F4D0E0C0E0E5
:101BE000BE0185ED94E00E948104BE0185ED94E084
:101BF0000E946805BE0185ED94E00E945B05BE0170
:101C000085ED94E00E944E0589E00E94FB019F93C0
:101C10008F9384E493E095CE88E00E94FB01892BAA
:101C2000E9F283E00E94FB01892BC1F287E00E9468
:101C3000FB0131E020E0892B09F430E0C32FD22FE3
:101C4000CFCF1F920F920FB60F9211242F933F9375
:101C50008F939F93AF93BF93809116049091170435
:101C6000A0911804B09119043091150423E0230FBA
:101C70002D3758F50196A11DB11D209315048093B1
:101C8000160490931704A0931804B093190480913C
:101C9000110490911204A0911304B09114040196C0
:101CA000A11DB11D8093110490931204A0931304FD
:101CB000B0931404BF91AF919F918F913F912F9159
:101CC0000F900FBE0F901F90189526E8230F0296D5
:101CD000A11DB11DD2CF1F920F920FB60F921124EA
:101CE0002F933F934F935F936F937F938F939F9324
:101CF000AF93BF93EF93FF938CE294E00E94620353
:101D0000FF91EF91BF91AF919F918F917F916F91D3
:101D10005F914F913F912F910F900FBE0F901F90A9
:101D200018951F920F920FB60F9211242F938F9335
:101D30009F93EF93FF93E0913C04F0913D048081E9
:101D4000E0914204F091430482FD1BC09081809198
:101D500045048F5F8F7320914604821741F0E09114
:101D60004504F0E0E45DFB4F958F80934504FF91BF
:101D7000EF919F918F912F910F900FBE0F901F9019
:101D800018958081F4CF1F920F920FB60F921124F5
:101D90002F933F934F935F936F937F938F939F9373
:101DA000AF93BF93EF93FF93E0910001F091010196
:101DB0000995FF91EF91BF91AF919F918F917F9185
:101DC0006F915F914F913F912F910F900FBE0F90A8
:101DD0001F9018951F920F920FB60F9211242F93F8
:101DE0003F934F935F936F937F938F939F93AF93A3
:101DF000BF93EF93FF938091B900887F803609F4F9
:101E00004AC0F0F5883209F4A7C018F5803109F40A
:101E10009BC0B8F4882309F4F9C0883009F494C051
:101E2000FF91EF91BF91AF919F918F917F916F91B2
:101E30005F914F913F912F910F900FBE0F901F9088
:101E40001895883109F488C0803251F78093D50302
:101E500014C0803409F49DC040F48033B9F3883352
:101E6000F9F68093D50385ECB0C0803509F485C0C0
:101E7000883509F496C0883499F60E941A06D0CFA6
:101E8000883909F48CC038F5883729F050F4883641
:101E900011F0803729F683E08093D6031092D403A3
:101EA00057C0883809F47BC0803919F0803809F0B0
:101EB000B7CF8091D403803208F071C0E091D40391
:101EC00081E08E0F8093D4038091BB00F0E0EC544E
:101ED000FC4F80833DC0803B39F0E0F4803A09F448
:101EE00079C0883A09F09CCF84E08093D6031092A1
:101EF000B3031092B203E0910204F0910304099538
:101F00008091B20381110FC081E08093B2031092DF
:101F1000920309C0803C09F4A6CF883C09F4A3CF02
:101F2000883B09F07DCFE091B30381E08E0F809371
:101F3000B303F0E0EE56FC4F80818093BB0090919C
:101F4000B3038091B20329C08091FB038093BB004F
:101F500085EC8093BC0064CF9091FA038091F903E3
:101F6000981758F5E091FA0381E08E0F8093FA03F9
:101F7000F0E0E752FC4F8081E9CFE091FA0381E085
:101F80008E0F8093FA038091BB00F0E0E752FC4F84
:101F900080839091FA038091F9039817C8F285E83D
:101FA000D8CFE091FA0381E08E0F8093FA038091FD
:101FB000BB00F0E0E752FC4F80838091D803811191
:101FC0005CCF81E08093D70384EA8093BC001092B9
:101FD000D60326CF85EC8093BC001092D603809167
:101FE000D403803230F4E091D403F0E0EC54FC4FA1
:101FF00010826091D40370E0E0910004F09101043C
:1020000084EB93E009951092D4030ACF1092D50384
:1020100034CFECE2F4E01382128288EE93E0A0E089
:10202000B0E084839583A683B78320E431E03183D5
:10203000208325EC30E03587248724EC30E0378797
:10204000268720EC30E0318B208B21EC30E0338B85
:10205000228B22EC30E0358B248B26EC30E0378B62
:10206000268B118E128E138E148EE9ECF4E01382FF
:10207000128284839583A683B78382E591E091835E
:102080008083E5EDF4E0178A168A11A610A613AE38
:1020900012AE84E691E0918380838CEB91E0909383
:1020A0009C0680939B0690939E0680939D0690933A
:1020B000A00680939F069093A2068093A10680EFCE
:1020C00096E09093A4068093A30688E0E2E0F1E016
:1020D000A5EAB6E001900D928A95E1F780910A0198
:1020E00090910B01A0910C01B0910D018093AD0670
:1020F0009093AE06A093AF06B093B0061092B106CF
:102100001092B2061092B3061092B4060895789415
:1021100084B5826084BD84B5816084BD85B58260EC
:1021200085BD85B5816085BD80916E00816080939D
:102130006E00109281008091810082608093810006
:102140008091810081608093810080918000816016
:10215000809380008091B10084608093B100809171
:10216000B00081608093B00080917A008460809399
:102170007A0080917A00826080937A0080917A0060
:10218000816080937A0080917A00806880937A00E1
:102190001092C10061E082E00E94520261E084E09E
:1021A0000E94520260E089E00E94520260E088E0F2
:1021B0000E94520260E083E00E94520260E087E0E9
:1021C0000E94520260E081E10E94520260E080E1E0
:1021D0000E94520260E08FE00E94520260E08EE0B6
:1021E0000E94520260E085E10E9452020E946A0150
:1021F000C0E2D0E00E9422052197E1F789E991E051
:1022000090939C0680939B0690939E0680939D06D8
:102210009093A00680939F068AEA92E09093A2068C
:102220008093A10680E094E09093A4068093A30697
:102230008091EB049091EC048A30910574F401963E
:10224000FC01EE0FFF1FEB52FB4F2AE83CE031830D
:1022500020839093EC048093EB04E0913C04F09194
:102260003D0482E08083E0913804F09139041082CB
:10227000E0913A04F0913B0483E38083109244049C
:10228000E0914004F091410486E08083E0913E04B7
:10229000F0913F04808180618083E0913E04F09161
:1022A0003F04808188608083E0913E04F0913F0488
:1022B000808180688083E0913E04F0913F048081BA
:1022C0008F7D8083109207041092060410920504FB
:1022D000109204040E9419048EEA92E09093030481
:1022E000809302048AEB92E09093010480930004AF
:1022F00080E18093BA008FE59CE09093FF03809388
:10230000FE0381E196E09093FD038093FC038AE154
:1023100090E0A0E0B0E08093B1069093B206A09365
:10232000B306B093B406C0909906D0909A060D2CCF
:10233000000CEE08FF08CEE0D1E00AE114E029919C
:102340003991AFE4B0E00E941C13A70196010E94EE
:10235000F512F801219331938F01F1E0C032DF07CC
:1023600071F788EC90E09093A6068093A506909371
:10237000AC068093AB0688EE93E09093A80680931A
:10238000A7069093AA068093A9061092B00661E072
:1023900087E00E9452022091990630919A06032EFE
:1023A000000C440B550B68E274E08AE190E00E9457
:1023B000F5123093100420930F0480E18093810084
:1023C0001092800081E080930A0420E43FE1309382
:1023D000090420930804309387002093860091E13C
:1023E000909381002CE139E03093010120930001AA
:1023F00080936F00A0913305B0913405809135052D
:1024000090913605A80FB91F809137059091380536
:10241000A80FB91F8091390590913A05A80FB91FEF
:102420002091B1063091B2064091B3065091B406A6
:102430000E943D1320E034E040E050E00E94F5129D
:102440008091310590913205280F391F80911A042F
:1024500090911B048217930754F580912A04909160
:102460002B042817390734F5C9010E948C009C0100
:10247000A0E0B5E90E94141324E630E040E050E00B
:102480000E94F51220930B0430930C0440930D042A
:1024900050930E04C0E0D0E00E9422052097E1F3A3
:1024A0000E944E038823C1F30E940000F5CF90E004
:1024B00080E0DDCF84E690E0DACFFC018827992721
:1024C000E89421912032E9F3293010F02E30C8F33E
:1024D0002B3241F02D3239F4689404C00E94A712C7
:1024E000820F911D219120532A30C0F31EF4909544
:1024F00081959F4F089545EB56E00E948012089504
:10250000FA01A191B081009719F41097E1F0CD0183
:10251000DC01CD010D90002011F4C00113C0FB01BE
:102520002191222319F02015D9F7F3CFFB01219136
:10253000201519F41E92119606C02223C1F70D90A2
:102540000020A1F7D001FA01A193B08308957AE0A9
:10255000979F902D879F802D910D11240895DB0169
:102560008F939F930E943213BF91AF91A29F800DD2
:10257000911DA39F900DB29F900D1124089597FB7C
:10258000072E16F4009407D077FD09D00E9445135A
:1025900007FC05D03EF4909581959F4F0895709566
:1025A00061957F4F0895A1E21A2EAA1BBB1BFD0166
:1025B0000DC0AA1FBB1FEE1FFF1FA217B307E40722
:1025C000F50720F0A21BB30BE40BF50B661F771F7A
:1025D000881F991F1A9469F760957095809590955A
:1025E0009B01AC01BD01CF010895052E97FB1EF4A0
:1025F00000940E940C1357FD07D00E94D31207FCD1
:1026000003D04EF40C940C135095409530952195C1
:102610003F4F4F4F5F4F089590958095709561950E
:102620007F4F8F4F9F4F08950E941C13332312F446
:102630008A1B9B0B0C942D13A29FB001B39FC0016A
:10264000A39F700D811D1124911DB29F700D811DDE
:102650001124911D08950E941C13B7FF0895821B39
:10266000930B08950E941C13A59F900DB49F900D8D
:10267000A49F800D911D11240895B7FF0C9432136F
:102680000E943213821B930B0895AA1BBB1B51E1BE
:1026900007C0AA1FBB1FA617B70710F0A61BB70BD2
:1026A000881F991F5A95A9F780959095BC01CD0177
:1026B0000895EE0FFF1F0590F491E02D0994FB01A2
:1026C000DC018D91019080190110D9F3990B0895C7
:1026D000AEE0B0E0EEE6F3E10C9417160D891E892A
:1026E00086E08C831A8309838FEF9FE79E838D8317
:1026F000AE01475E5F4F6F89788DCE0101960E94D3
:102700008B132F813885020F131FF80110822E962C
:10271000E4E00C943316ABE0B0E0E1E9F3E10C94B3
:1027200009167C013B018A01FC0117821682838114
:1027300081FFC8C1CE0101965C01F7019381F301CD
:1027400093FD859193FF81913F01882309F453C143
:10275000853239F493FD859193FF81913F01853254
:1027600029F4B70190E00E947B15E7CF912C212C32
:10277000312CFFE1F31538F08B3211F190F48032F7
:1027800009F1833229F137FC3CC020ED280F2A30B3
:1027900050F536FE20C08AE0989E200D1124922E1E
:1027A00006C08D3291F0803371F7689430F8F301F0
:1027B00093FD859193FF81913F018111DACF21C073
:1027C000689431F8689432F8F2CF689433F8EFCF18
:1027D000689434F8ECCFEAE02E9E200D1124222ECE
:1027E000689435F8E4CF8E3229F436FC04C168943D
:1027F00036F8DDCF8C3619F4689437F8D8CF8836A0
:10280000B1F2982F9F7D95549330E0F08336A1F17B
:102810008337C1F1833509F063C02801F2E04F0E20
:10282000511CF801C080D180692D70E036FC02C0D7
:102830006FEF7FEFC6010E9465154C01689437F871
:1028400082010AC00C5F1F4FFFE3F9838824839441
:10285000912C6501E89437F833FE2DC0522C811479
:10286000910471F5552009F468CFB70180E290E03A
:102870000E947B155A94F6CFF801808189830E5F00
:102880001F4FE4CF2801F2E04F0E511CF801C08029
:10289000D180692D70E036FC02C06FEF7FEFC6017A
:1028A0000E9470154C018201D5CFB70180E290E003
:1028B0000E947B152A942814190409F0B0F7CECF92
:1028C000F60137FC859137FE81916F01B70190E0E9
:1028D0000E947B1551105A94F1E08F1A9108BFCFD6
:1028E000843619F0893609F077C0F80137FE6BC0DD
:1028F00060817181828193810C5F1F4FF32DFF7680
:102900003F2E97FF09C090958095709561957F4FF8
:102910008F4F9F4F689437F82AE030E0A5010E945E
:10292000AB15C82ECA188C2C432C36FE0CC0E8946C
:1029300040F8C91440F434FE05C032FC03C0F32D46
:10294000FE7E4F2E892C44FE95C0FE01EC0DF11D3C
:102950008081803309F087C0242D297E422E842D6A
:102960008870582E43FC95C040FE8FC09C2C82146A
:1029700018F42C0C922C981844FE91C0B70180E3F7
:1029800090E00E947B1542FE09C088E790E041FE7E
:1029900002C088E590E0B7010E947B15C91408F4D5
:1029A0008AC0CA94D12C9FEFC91AD90ACA0CDB1C61
:1029B000F60182916F01B70190E00E947B15AC1483
:1029C000BD04B1F74FCF60817181072E000C880BD9
:1029D000990B0E5F1F4F92CFD32CE894D4F82AE0C6
:1029E00030E0853739F1232D297FD22E8F3601F142
:1029F00048F48835A9F0F701868197812B96E2E1AA
:102A00000C942516803749F08837A9F7D4FE02C008
:102A10006894D2F820E130E00DC06894D4F8F6CF85
:102A200034FE03C0822F8660D82E20E132E002C03F
:102A300028E030E0F801D7FE0FC06081718182810B
:102A400093810C5F1F4FA5010E94AB15C82ECA18B9
:102A50003D2CE89437F867CF6081718190E080E089
:102A60000E5F1F4FF0CF42FC02C0839478CF839457
:102A7000839475CF842D867809F471CFF6CFB70192
:102A800080E290E00E947B1583948214C0F3512C65
:102A900073CF522C5818821408F46ECFF8CF842DBF
:102AA000867809F47BCF8BE241FE80E247FC8DE221
:102AB000B70190E071CFB70180E390E00E947B15F1
:102AC0009A946CCF8FEF9FEF99CFFC0105906150E6
:102AD00070400110D8F7809590958E0F9F1F089534
:102AE000FC016150704001900110D8F780959095DD
:102AF0008E0F9F1F08950F931F93CF93DF93182F6F
:102B0000092FEB018B8181FD09C01FEF0FEF812F92
:102B1000902FDF91CF911F910F91089582FF14C0E4
:102B20002E813F818C819D81281739073CF4E881F3
:102B3000F981CF0101969983888310838E819F81CB
:102B400001969F838E83E3CFE885F985812F0995D0
:102B5000892BA1F3DACFFA01AA27283051F12031CD
:102B600081F1E8946F936E7F6E5F7F4F8F4F9F4F21
:102B7000AF4FB1E03ED0B4E03CD0670F781F891F63
:102B80009A1FA11D680F791F8A1F911DA11D6A0F31
:102B9000711D811D911DA11D20D009F468943F91E4
:102BA0002AE0269F11243019305D3193DEF6CF01E3
:102BB0000895462F4770405D4193B3E00FD0C9F7A9
:102BC000F6CF462F4F70405D4A3318F0495D31FD16
:102BD0004052419302D0A9F7EACFB4E0A695979569
:102BE000879577956795BA95C9F70097610571053F
:102BF00008959B01AC010A2E069457954795379589
:102C00002795BA95C9F7620F731F841F951FA01DE2
:102C100008952F923F924F925F926F927F928F9280
:102C20009F92AF92BF92CF92DF92EF92FF920F935B
:102C30001F93CF93DF93CDB7DEB7CA1BDB0B0FB665
:102C4000F894DEBF0FBECDBF09942A883988488822
:102C50005F846E847D848C849B84AA84B984C884B8
:102C6000DF80EE80FD800C811B81AA81B981CE0FAF
:102C7000D11D0FB6F894DEBF0FBECDBFED01089594
:042C8000F894FFCFF6
:102C8400F103320032003200320001010101AFA928
:102C9400B6B361BCFFC184C614CE4ECEB6CFC1D28A
:102CA400200020002000200020000000010003007C
:102CB40005000800330056005F00640000000000B7
:102CC4008403E4021103D10342032003340300000C
:102CD40000006C0461047D0437045A04470438047A
:102CE4000000000071060D0A005256420057564279
:102CF4003A257500524931005749313A256400524A
:102D04004932005749323A25640052493300574941
:102D1400333A256400524934005749343A25640053
:102D2400524954005749543A2564005256434300CB
:102D3400575643433A2564005243483100574348A9
:102D4400313A2564005243483200574348323A2509
:102D540064005243483300574348333A25640052D1
:102D640043483400574348343A25640057434831B4
:102D740000574348313A3D256400574348320057D1
:102D84004348323A3D25640057434833005743488B
:102D9400333A3D2564005743483400574348343A96
:102DA4003D25640057494C310057494C313A3D2583
:102DB400640057494C320057494C323A3D2564006F
:102DC40057494C330057494C333A3D256400574921
:102DD4004C340057494C343A3D25640057494C540F
:102DE4000057494C543A3D25640053746174653A64
:102DF40020002C205643433D006D562C205642752E
:102E0400733D006D562C20736F633D00252C2049C3
:102E1400313D006D412C2049323D006D412C20494B
:102E2400333D006D412C2049343D006D412C204937
:102E3400546F743D006D412C20766261743A002C0D
:102E44002063636E743A0052534F430057534F4309
:102E54003A25640057494549005749454F005246B1
:102E64004E004261747465727950616E656C2E69AE
:102E74006E6F0057464E3A2573005243484100573F
:102E84004348413A25640057435031005743503179
:102E94003A3D2564005743503200574350323A3D7F
:102EA4002564005743503300574350333A3D25645B
:102EB400005743503400574350343A3D256400577B
:0E2EC40043504100574350413A3D2564000001
:00000001FF
