:100000000C9462000C948A000C948A000C948A0070
:100010000C948A000C948A000C948A000C948A0038
:100020000C948A000C948A000C948A000C948A0028
:100030000C948A000C94D60D0C948A000C948A00BF
:100040000C94340D0C948A000C94A40D0C947E0D29
:100050000C948A000C948A000C948A000C948A00F8
:100060000C94FD0D0C948A00000000002400270071
:100070002A0000000000250028002B0000000000DE
:1000800023002600290004040404040404040202DA
:100090000202020203030303030301020408102007
:1000A0004080010204081020010204081020000012
:1000B0000008000201000003040700000000000027
:1000C00000001C0F11241FBECFEFD8E0DEBFCDBF54
:1000D00026E0A2E3B3E001C01D92A539B207E1F723
:1000E00013E0A0E0B1E0E6E0FAE202C005900D9274
:1000F000A233B107D9F710E0C2E6D0E004C02197DF
:10010000FE010E941A12C136D107C9F70E949A0F48
:100110000C9401150C9400006F927F928F929F9225
:10012000AF92BF92CF92DF92EF92FF920F931F9305
:10013000CF93DF933C01EB0127EB35E082E06816BB
:100140007104B1F04CF427E735E0B1E06B167104AF
:1001500079F027E335E00CC027EF35E0E3E06E16D9
:10016000710431F027E336E0F4E06F16710489F78B
:100170008301000F111F035D1A4FF801A081B181A7
:10018000AA0FBB1FA20FB31FF301EE0FFF1FEE0F4D
:10019000FF1FE75EFA4FCD90DC9011970D2C000CFD
:1001A000EE08FF0880809180A280B3808C189D08A3
:1001B000AE08BF08CD93DC93D801ED90FC90A70169
:1001C000440F551F240F351FD9014D915C91052E09
:1001D000000C660B770BCB01BA01680D791D8A1DE7
:1001E0009B1D6083718382839383F301EE0FFF1F56
:1001F000EE5CFE4FC080D1809301220F331FE901D6
:10020000C15FDA4F96010D2C000C440B550B0E9478
:10021000BE1139832883BFEFEB1AFB0AEC14FD04EF
:1002200094F4F801F182E082DF91CF911F910F9158
:10023000FF90EF90DF90CF90BF90AF909F908F9006
:100240007F906F900895D8011D921C92EDCF7F9200
:100250008F929F92AF92BF92CF92DF92EF92FF92D6
:100260000F931F93CF93DF93C4E0D0E0C12CD12C28
:1002700076018EE4782E0BE31FE194EB892E9BE24E
:10028000992E91E1A92EB12C70927C00C8010197A2
:10029000F1F780917A00806480937A0080917A00EF
:1002A00086FDFCCF8091780020917900322F282F95
:1002B000032E000C440B550BC501B4010E94BE1166
:1002C000032E000C440B550BC20ED31EE41EF51E6C
:1002D0002197D1F6C701B60124E030E040E050E0BC
:1002E0000E94BE11263583E1380794F030937806DA
:1002F00020937706DF91CF911F910F91FF90EF90A0
:10030000DF90CF90BF90AF909F908F907F90089597
:1003100088E893E19093780680937706EBCF83305B
:1003200081F028F4813099F08230A9F00895873067
:10033000A9F08830C9F08430B1F4809180008F7DBD
:1003400003C0809180008F7780938000089584B5EA
:100350008F7784BD089584B58F7DFBCF8091B000E9
:100360008F778093B00008958091B0008F7DF9CF92
:10037000CF93DF93282F30E0F901E255FF4F8491AE
:10038000F901E656FF4FD491F901EA57FF4FC491A6
:10039000CC23A1F081110E948F01EC2FF0E0EE0F31
:1003A000FF1FE458FF4FA591B491EC91ED2381E03C
:1003B00090E009F480E0DF91CF91089580E090E033
:1003C000FACF1F93CF93DF93282F30E0F901E25546
:1003D000FF4F8491F901E656FF4FD491F901EA5796
:1003E000FF4FC491CC23A9F0162F81110E948F01D9
:1003F000EC2FF0E0EE0FFF1FEE58FF4FA591B491E8
:100400008FB7F894EC91111108C0D095DE23DC93DE
:100410008FBFDF91CF911F910895DE2BF8CFCF933F
:10042000DF9390E0FC01E656FF4F24918A579F4FDF
:10043000FC0184918823D1F090E0880F991FFC0182
:10044000E859FF4FA591B491FC01EE58FF4FC591BB
:10045000D49161110EC09FB7F8948C91E22FE09572
:100460008E238C932881E223E8839FBFDF91CF9175
:1004700008958FB7F894EC91E22BEC938FBFF6CFF1
:10048000FF920F931F93CF93DF93182FF62E042F15
:10049000E90161E00E940F026F2D812F0E94E101AE
:1004A000002399F0C230D10538F0CC0FDD1FCC0FFE
:1004B000DD1F25972197F1F760E0812FDF91CF9124
:1004C0001F910F91FF900C940F02DF91CF911F911C
:1004D0000F91FF900895E091DC03F091DD033097D8
:1004E00029F01092E5031092E40309940895CF9344
:1004F000DF93AC01E091DE03F091DF033097F1F080
:100500009091E7038091E6039817C0F090E0292FBF
:1005100030E02617370754F4D901A45BBC4F240FF1
:10052000351FE90128812C939F5FF1CF1092E703DB
:100530006093E603CB01DF91CF910994DF91CF91D6
:100540000895AF92BF92CF92DF92EF92FF920F93F6
:100550001F93CF93DF936C017B018B01040F151F59
:10056000EB015E01AE18BF08C017D10759F06991C1
:10057000D601ED91FC910190F081E02DC601099525
:10058000892B79F7C501DF91CF911F910F91FF90D2
:10059000EF90DF90CF90BF90AF900895FC01538D06
:1005A000448D252F30E0842F90E0821B930B54174D
:1005B00010F0CF96089501970895FC01918D828DDA
:1005C000981761F0A28DAE0FBF2FB11D5D968C9173
:1005D000928D9F5F9F73928F90E008958FEF9FEFB2
:1005E0000895FC01918D828D981731F0828DE80F6E
:1005F000F11D858D90E008958FEF9FEF0895FC0128
:10060000918D228D892F90E0805C9F4F821B9109F4
:100610008F73992708958AE094E00E94FF0221E0F9
:10062000892B09F420E0822F089580E090E0892B47
:1006300029F00E940B0381110C9400000895FC0125
:10064000A48DA80FB92FB11DA35ABF4F2C91848D33
:1006500090E001968F739927848FA689B7892C9390
:10066000A089B1898C91837080648C93938D848DE3
:10067000981306C00288F389E02D80818F7D8083E6
:100680000895EF92FF920F931F93CF93DF93EC01A6
:1006900081E0888F9B8D8C8D98131AC0E889F98929
:1006A000808185FF15C09FB7F894EE89FF8960832C
:1006B000E889F98980818370806480839FBF81E0AD
:1006C00090E0DF91CF911F910F91FF90EF900895EF
:1006D000F62E0B8D10E00F5F1F4F0F731127E02ECA
:1006E0008C8D8E110CC00FB607FCFACFE889F98902
:1006F000808185FFF5CFCE010E941F03F1CFEB8DE6
:10070000EC0FFD2FF11DE35AFF4FF0829FB7F894D5
:100710000B8FEA89FB8980818062CFCFCF93DF93F3
:10072000EC01888D8823B9F0AA89BB89E889F98909
:100730008C9185FD03C0808186FD0DC00FB607FC3E
:10074000F7CF8C9185FFF2CF808185FFEDCFCE0171
:100750000E941F03E9CFDF91CF9108950895209162
:100760009203260F3327331F21323105ECF42091F9
:10077000B603FC0190E080E0243069F082E0089547
:10078000A09192032191AC014E585C4FA40FB52F5C
:10079000B11D2C930196861798F380919203680FF0
:1007A0006093920380E0089581E008951092B6036B
:1007B00081E08093B8031092B70361E082E10E9468
:1007C000E10161E083E10E94E101E9EBF0E0808179
:1007D0008E7F808380818D7F808388E48093B800C2
:1007E00085E48093BC0008950895E091E70380912B
:1007F000E603E81730F4F0E0E45BFC4F808190E022
:1008000008958FEF9FEF08959091E7038091E6039D
:100810002FEF3FEF981748F4E92FF0E0E45BFC4F2F
:10082000208130E09F5F9093E703C9010895809194
:10083000E6039091E703891B990B0895CF93DF930B
:10084000CB01EA01642F0E94AF03CE01DF91CF916B
:100850000895CF93DF931F92CDB7DEB7698361E030
:10086000CE0101960E94AF0381E090E00F90DF91EE
:10087000CF91089590E080E0089508954F925F929F
:100880006F927F928F929F92AF92BF92EF92FF9260
:100890000F931F93CF93DF938C01FC01EC53FE4F1A
:1008A000E080F180E456F140A081B18197010E947F
:1008B000DD119B01AC01A3E0B0E00E94FB11812C93
:1008C00024E0922EA12CB12CA50194010E94BE110E
:1008D0002901F801E25AFF4FA081B18197010E94DE
:1008E000DD119B01AC01A3E0B0E00E94FB11A5016A
:1008F00094010E94BE11E201C20FD31FF801EE590C
:10090000FF4FA081B18197010E94DD119B01AC01D5
:10091000A3E0B0E00E94FB11A50194010E94BE116A
:10092000C20FD31FF801EC59FF4FA081B18197018D
:100930000E94DD119B01AC01A3E0B0E00E94FB111D
:10094000A50194010E94BE11CE01820F931FDF9179
:10095000CF911F910F91FF90EF90BF90AF909F901C
:100960008F907F906F905F904F900895FC01EA52B6
:10097000FE4F2081318185529E4FFC01408187E0EE
:1009800090E00C944002FC01EC52FE4F208131813A
:1009900086529E4FFC01408183E090E00C9440021F
:1009A000FC01EE52FE4F2081318187529E4FFC01A7
:1009B000408188E090E00C944002FC01E053FE4F3F
:1009C0002081318188529E4FFC01408189E090E076
:1009D0000C94400220917A0090917A00987F946064
:1009E00090937A008E50806480937C0080917A008E
:1009F000806480937A0080917A0086FDFCCF80919C
:100A000078009091790020937A00089581E10E9406
:100A1000EA04BC0190E080E00E948C0080E10E942A
:100A2000EA04BC01725081E090E00E948C008FE0EB
:100A30000E94EA04BC01725082E090E00E948C00A7
:100A40008EE00E94EA04BC01725083E090E00E94B4
:100A50008C0085E10E94EA04BC01725084E090E0C1
:100A60000C948C00FB0101900020E9F73197AF0155
:100A7000461B570BDC01ED91FC910280F381E02DC8
:100A800009948F929F92AF92BF920F931F93CF932F
:100A9000DF93CDB7DEB7A1970FB6F894DEBF0FBED8
:100AA000CDBF19A2423008F44AE08E010F5D1F4FFE
:100AB000842E912CB12CA12CA50194010E949C1193
:100AC000E62FB901CA01EA3004F5E05DD801EE93E2
:100AD0008D01232B242B252B79F790E080E01097B4
:100AE00029F0BD018AE094E00E943205A1960FB67C
:100AF000F894DEBF0FBECDBFDF91CF911F910F9154
:100B0000BF90AF909F908F900895E95CDFCFCF9218
:100B1000DF92EF92FF92CF93DF936C01990FEE0873
:100B2000FF08F7FE19C06DE28AE094E00E944103DD
:100B3000EC0166277727CB016C197D098E099F0987
:100B40004AE00E9441058C0F9D1FDF91CF91FF90DD
:100B5000EF90DF90CF9008954AE0C701B601DF9192
:100B6000CF91FF90EF90DF90CF900C944105BC01A6
:100B70008AE094E00C943205CF93DF93672B81F4E5
:100B8000EC01BC01645C7F4F21F08AE094E00E949C
:100B9000320566E671E08AE094E00E9432051CAE00
:100BA000DF91CF9108956FEF74E087EA94E00E949F
:100BB00032051092FF040895CF93DF9385ED809363
:100BC000BC0080916E0390916F03A0917003B0916F
:100BD00071030796A11DB11D23E0B695A7959795C2
:100BE00087952A95D1F72091BC0024FD03C010926F
:100BF000B60336C040916E0350916F03609170034D
:100C000070917103452B462B472B69F30097A10583
:100C1000B10541F02AE22A95F1F700C00197A10938
:100C2000B109E1CF80916D0391E090936C0388232B
:100C3000B9F0C091B800D091BA008091BC008A7B15
:100C40008093BC0060E082E10E94E10160E083E10A
:100C50000E94E1010E94D603D093BA00C093B8006D
:100C6000DF91CF9108958F929F92AF92BF92CF92D2
:100C7000DF92EF92FF920F931F93CF93DF93EC01DC
:100C80007B016A01890169E671E0C7010E942012B7
:100C9000892B09F041C0DE01A45ABF4FFE01EC537D
:100CA000FE4F2D913C91A081B1810E94DD119B01ED
:100CB000AC01ADE0B0E00E94FB1120E034E040E088
:100CC00050E00E94BE113F932F938DE691E09F93D9
:100CD0008F93C80124E0880F991F2A95E1F7CC96DD
:100CE0008C0F9D1F9F938F930E9429120F900F903E
:100CF0000F900F900F900F90B801CE01DF91CF9120
:100D00001F910F91FF90EF90DF90CF90BF90AF9029
:100D10009F908F900C94BC0564E771E0C7010E941E
:100D20002012892BE9F4DE01A25ABF4FFE01EC53D9
:100D3000FE4F2D913C91A081B1810E94DD119B015C
:100D4000AC01A3E0B0E00E94FB1120E034E040E001
:100D500050E00E94BE113F932F9388E791E0B7CFF8
:100D60006FE771E0C7010E942012892BE9F4DE01D0
:100D7000A05ABF4FFE01EC53FE4F2D913C91A08134
:100D8000B1810E94DD119B01AC01A3E0B0E00E94A3
:100D9000FB1120E034E040E050E00E94BE113F93A0
:100DA0002F9383E891E093CF6AE871E0C7010E9436
:100DB0002012892BE9F4DE01AE59BF4FFE01EC533E
:100DC000FE4F2D913C91A081B1810E94DD119B01CC
:100DD000AC01A3E0B0E00E94FB1120E034E040E071
:100DE00050E00E94BE113F932F938EE891E06FCFA9
:100DF00065E971E0C7010E942012892BE9F4DE0148
:100E0000AC59BF4FFE01EC53FE4F2D913C91A08198
:100E1000B1810E94DD119B01AC01A3E0B0E00E9412
:100E2000FB1120E034E040E050E00E94BE113F930F
:100E30002F9389E991E04BCF60EA71E0C7010E94EE
:100E40002012892B41F4CE010E943E049F938F9380
:100E500084EA91E03CCF6BEA71E0C7010E94201266
:100E6000892B51F4FE01EC53FE4F81818F938081D9
:100E70008F9380EB91E02BCF68EB71E0C7010E946C
:100E80002012892B41F489E00E94B8019F938F932F
:100E90008DEB91E01CCF65EC71E0C7010E94201240
:100EA000892B41F488E00E94B8019F938F938AECCC
:100EB00091E00DCF62ED71E0C7010E942012892BF5
:100EC00041F483E00E94B8019F938F9387ED91E0F6
:100ED000FECE6FED71E0C7010E942012892B41F414
:100EE00087E00E94B8019F938F9384EE91E0EFCE4C
:100EF0006CEE71E0C7010E942012892B79F4C601C3
:100F00000E942611BC01CE010E94DD0489E00E94EE
:100F1000B8019F938F9381EF91E0D9CE6AEF71E092
:100F2000C7010E942012892B79F4C6010E94261164
:100F3000BC01CE010E94D00488E00E94B8019F93BA
:100F40008F938FEF91E0C3CE68E072E0C7010E94FB
:100F50002012892B79F4C6010E942611BC01CE0112
:100F60000E94C30483E00E94B8019F938F938DE099
:100F700092E0ADCE66E172E0C7010E942012892B9B
:100F800079F4C6010E942611BC01CE010E94B6046C
:100F900087E00E94B8019F938F938BE192E097CEF8
:100FA00064E272E0C7010E942012892B19F5C60184
:100FB0000E9426117C016E018AE3C81A8EEFD80ABE
:100FC000B7010F2C000C880B990BF7E0660F771F09
:100FD000881F991FFA95D1F723E537E040E050E0EC
:100FE0000E94BE11D6012D933C93FF92EF9289E2AD
:100FF00092E06DCE62E372E0C7010E942012892B5D
:1010000011F5C6010E9426117C016E01B8E3CB1ACE
:10101000BEEFDB0ABC01990F880B990BE7E0660F66
:10102000771F881F991FEA95D1F723E537E040E045
:1010300050E00E94BE11F60131832083FF92EF92AF
:1010400087E392E044CE60E472E0C7010E94201280
:10105000892B11F5C6010E9426117C016E01F6E371
:10106000CF1AFEEFDF0ABC01990F880B990B57E0EE
:10107000660F771F881F991F5A95D1F723E537E030
:1010800040E050E00E94BE11D6012D933C93FF92A8
:10109000EF9285E492E01BCE6EE472E0C7010E94FD
:1010A0002012892B11F5C6010E9426117C016E01C8
:1010B000B4E3CB1ABEEFDB0ABC01990F880B990B86
:1010C00047E0660F771F881F991F4A95D1F723E5E0
:1010D00037E040E050E00E94BE11F60131832083EA
:1010E000FF92EF9283E592E0F2CD6CE572E0C701EA
:1010F0000E942012892BB9F04E01F2E08F0E911C54
:10110000B12CA12C8E899F89A816B9067CF5D40133
:10111000ED91FD914D01A801B601C7010995BFEF01
:10112000AB1ABB0AEFCFC6010E9426117C016E01EB
:1011300082E3C81A8EEFD80AB7010F2C000C880B77
:10114000990B37E0660F771F881F991F3A95D1F7E3
:1011500023E537E040E050E00E94BE11D6012D9318
:101160003C93FF92EF9281E692E0B1CDDF91CF9177
:101170001F910F91FF90EF90DF90CF90BF90AF90B5
:101180009F908F9008950F931F93CF93DF938B01C0
:1011900065EC72E00E944411EC0167E671E090E0BA
:1011A00080E00E9444119801AC01BE0183EB94E001
:1011B000DF91CF911F910F910C9433068F929F92E4
:1011C000AF92BF92CF92DF92EF92FF920F931F9355
:1011D000CF93DF938AE094E00E94FF02EC01892B19
:1011E00039F18AE094E00E94DD022091DB04309125
:1011F000DC04F901ED54FB4F808F2F5F3F4F30939C
:10120000DC042093DB048A3019F02F30310511F70C
:101210002D543B4FD90158961C921092DC04109229
:10122000DB0470E060E08BEC94E00E94C308D2CF56
:1012300020911105309112058091790690917A06DE
:101240008217930734F470E060E083EB94E00E942F
:10125000DD04209113053091140580917B06909157
:101260007C068217930734F470E060E083EB94E02F
:101270000E94D004209115053091160580917D06BD
:1012800090917E068217930734F470E060E083EB60
:1012900094E00E94C30420911705309118058091B5
:1012A0007F06909180068217930734F470E060E027
:1012B00083EB94E00E94B604809111059091120591
:1012C0002091130530911405820F931F209115056D
:1012D00030911605820F931F209117053091180544
:1012E000820F931F209181063091820628173907BB
:1012F000C4F470E060E083EB94E00E94DD0470E0F1
:1013000060E083EB94E00E94D00470E060E083EB47
:1013100094E00E94C30470E060E083EB94E00E94DC
:10132000B60400910F0510911005C0901105D090E2
:1013300012058091130590911405C80ED91E809155
:10134000150590911605C80ED91E8091170590912C
:101350001805C80ED91E8091480390914903C80E04
:10136000D91E8091460390914703C81AD90A0D2CC3
:10137000000CEE08FF0860918F0670919006809136
:10138000910690919206A70196010E94781120E0A3
:1013900034E040E050E00E94BE11200F311F8091E8
:1013A000ED039091EE03821793070CF03FC08091FC
:1013B000FD039091FE03281739070CF0A4C0EFEE4F
:1013C000F3E0819191918217930724F42196C8301C
:1013D000D105B9F7CC0FDD1FFE01E351FC4F408171
:1013E0005181CE010296FC01E351FC4F6081718175
:1013F000C25FDE4F0990D881C02D825F9E4FDC0115
:10140000ED91FC914617570789F0EC1BFD0B241B4F
:10141000350BE29FC001E39F900DF29F900D1124C8
:10142000641B750B0E948811C60FD71FD0934B0306
:10143000C0934A038091FF03909100040817190795
:1014400010F02A97D4F589E00E94B801892B09F49D
:101450005DC061E089E00E940F0261E088E00E94C7
:101460000F0261E083E00E940F0261E087E00E94CA
:101470000F0260E089E00E94E10160E088E00E94E4
:10148000E10160E083E00E94E10160E087E00E940A
:10149000E1018BE39CE90197F1F760E089E00E94AC
:1014A0000F0260E088E00E940F0260E083E00E948B
:1014B0000F0260E087E00E940F028091420390914A
:1014C0004303A0914403B09145030196A11DB11DB2
:1014D000893EE3E09E07A105B1055CF580934203D8
:1014E00090934303A0934403B0934503DF91CF91BE
:1014F0001F910F91FF90EF90DF90CF90BF90AF9032
:101500009F908F900895C4E6D0E090CF88E00E942D
:10151000B801892B09F09DCF83E00E94B801892B87
:1015200009F097CF87E00E94B801892B09F091CF8D
:10153000C4CF1092420310924303109244031092BE
:1015400045030E9427018091170590911805E2E359
:10155000F3E020E433E0812C912C5401428153814B
:1015600041935193052E000C660B770B840E951E4C
:10157000A61EB71E2E173F0789F79093410380934D
:1015800040038091320390913303092E000CAA0B83
:10159000BB0BBC01CD01680D791D8A1D9B1D809080
:1015A000EB039090EC03092C000CAA08BB0828E080
:1015B00030E040E050E00E94BE1182169306A4067F
:1015C000B50634F470E060E083EB94E00E94B6046A
:1015D0008AE692E00E94B70589E00E94B8010E9465
:1015E000870588E00E94B8010E94870583E00E9479
:1015F000B8010E94870587E00E94B8010E94870514
:1016000082E792E00E94B705809177069091780674
:101610000E94870589E792E00E94B70520910F0597
:1016200030911005A0917706B09178060E94DD11E7
:101630009B01AC01ADE0B0E00E94FB11812C24E0E5
:10164000922EA12CB12CA50194010E94BE11CA01B9
:10165000B901882799274AE00E94410583E892E072
:101660000E94B70580914A0390914B030E94870521
:101670008CE892E00E94B705209111053091120587
:10168000A0917706B09178060E94DD119B01AC0114
:10169000A3E0B0E00E94FB11A50194010E94BE11DD
:1016A000C9010E94870583E992E00E94B705209155
:1016B000130530911405A0917706B09178060E9429
:1016C000DD119B01AC01A3E0B0E00E94FB11A5017C
:1016D00094010E94BE11C9010E9487058BE992E026
:1016E0000E94B7052091150530911605A091770647
:1016F000B09178060E94DD119B01AC01A3E0B0E03F
:101700000E94FB11A50194010E94BE11C9010E9413
:10171000870583EA92E00E94B70520911705309172
:101720001805A0917706B09178060E94DD119B0103
:10173000AC01A3E0B0E00E94FB11A50194010E945E
:10174000BE11C9010E9487058BEA92E00E94B7058D
:1017500083EB94E00E943E040E94870585EB92E0B3
:101760000E94B705C8010E9487058FEB92E00E9496
:10177000B70560918F0670919006809191069091C7
:101780009206A70196010E947811A50194010E947A
:10179000BE11C9010E94870566E671E08AE094E007
:1017A000DF91CF911F910F91FF90EF90DF90CF903D
:1017B000BF90AF909F908F900C9432050F931F9322
:1017C000CF93DF938C01C3EBD4E0CE01835B9440D5
:1017D0008017910744F487EA94E00E9404048AA7E2
:1017E0001BA62196F2CFE3EBF4E0CF01835B94409C
:1017F0008017910724F483A582A73196F6CF61E084
:1018000070E08DED94E0DF91CF911F910F910C94DA
:10181000C308EF92FF920F931F93CF93DF937C0146
:10182000EB018A0167EC72E00E942012892B39F5E6
:1018300080914B038F9380914A038F938CEC92E0BD
:101840009F938F93C80124E0880F991F2A95E1F791
:1018500081519B4F9F938F930E9429120F900F905D
:101860000F900F900F900F90B80183EB94E0DF91F1
:10187000CF911F910F91FF90EF900C94BC0564EDF8
:1018800072E0C7010E942012892BE9F4CE010E9468
:10189000261125E531E0DC010E94F4112091770644
:1018A00030917806032E000C440B550B0E94BE119C
:1018B0003093470320934603DF91CF911F910F91FF
:1018C000FF90EF90089569ED72E0C7010E94201229
:1018D000892BB9F4CE010E94261125E531E0DC0107
:1018E0000E94F4112091770630917806032E000CA7
:1018F000440B550B0E94BE113093490320934803BB
:10190000DBCF6EED72E0C7010E942012892B39F403
:1019100082EE92E09F938F9383EF92E091CFCE017E
:101920000E942611EC016AEF72E0C7010E942012AA
:10193000892B09F5C130D10589F489E00E94B801ED
:10194000892B61F491E080E020914A0330914B03B0
:10195000293131050CF490E0C92FD82FBE0183EB5B
:1019600094E00E94DD0489E00E94B8019F938F9368
:101970008FEF92E065CF68E073E0C7010E9420120C
:10198000892B09F5C130D10589F488E00E94B8019E
:10199000892B61F491E080E020914A0330914B0360
:1019A000293131050CF490E0C92FD82FBE0183EB0B
:1019B00094E00E94D00488E00E94B8019F938F9326
:1019C0008DE093E03DCF66E173E0C7010E942012F5
:1019D000892B09F5C130D10589F483E00E94B80153
:1019E000892B61F491E080E020914A0330914B0310
:1019F000293131050CF490E0C92FD82FBE0183EBBB
:101A000094E00E94C30483E00E94B8019F938F93E7
:101A10008BE193E015CF64E273E0C7010E942012CE
:101A2000892B09F021CFC130D10589F487E00E94CC
:101A3000B801892B61F491E080E020914A03309154
:101A40004B03293131050CF490E0C92FD82FBE018A
:101A500083EB94E00E94B60487E00E94B8019F9354
:101A60008F9389E293E0ECCE1F920F920FB60F9204
:101A700011242F933F938F939F93AF93BF938091A4
:101A8000060490910704A0910804B09109043091D4
:101A9000050423E0230F2D3758F50196A11DB11D34
:101AA000209305048093060490930704A0930804F0
:101AB000B09309048091010490910204A091030461
:101AC000B09104040196A11DB11D8093010490936F
:101AD0000204A0930304B0930404BF91AF919F91BB
:101AE0008F913F912F910F900FBE0F901F901895DF
:101AF00026E8230F0296A11DB11DD2CF1F920F928F
:101B00000FB60F9211242F933F934F935F936F93D0
:101B10007F938F939F93AF93BF93EF93FF938AE04D
:101B200094E00E941F03FF91EF91BF91AF919F91AD
:101B30008F917F916F915F914F913F912F910F9076
:101B40000FBE0F901F9018951F920F920FB60F9215
:101B500011242F938F939F93EF93FF93E0911A0497
:101B6000F0911B048081E0912004F091210482FD1A
:101B70001BC09081809123048F5F8F732091240478
:101B8000821741F0E0912304F0E0E65FFB4F958F70
:101B900080932304FF91EF919F918F912F910F904C
:101BA0000FBE0F901F9018958081F4CF1F920F9257
:101BB0000FB60F9211242F933F934F935F936F9320
:101BC0007F938F939F93AF93BF93EF93FF93E09196
:101BD0000001F09101010995FF91EF91BF91AF9143
:101BE0009F918F917F916F915F914F913F912F9135
:101BF0000F900FBE0F901F9018951F920F920FB667
:101C00000F9211242F933F934F935F936F937F9382
:101C10008F939F93AF93BF93EF93FF938091B900FE
:101C2000887F803609F44AC0F0F5883209F4A7C0ED
:101C300018F5803109F49BC0B8F4882309F4F9C081
:101C4000883009F494C0FF91EF91BF91AF919F91BB
:101C50008F917F916F915F914F913F912F910F9055
:101C60000FBE0F901F901895883109F488C08032FC
:101C700051F78093B50314C0803409F49DC040F43B
:101C80008033B9F38833F9F68093B50385ECB0C09F
:101C9000803509F485C0883509F496C0883499F6F2
:101CA0000E94DC05D0CF883909F48CC038F588371C
:101CB00029F050F4883611F0803729F683E08093BC
:101CC000B6031092B40357C0883809F47BC080393A
:101CD00019F0803809F0B7CF8091B403803208F052
:101CE00071C0E091B40381E08E0F8093B4038091C2
:101CF000BB00F0E0EC56FC4F80833DC0803B39F0E8
:101D0000E0F4803A09F479C0883A09F09CCF84E085
:101D10008093B6031092930310929203E091E20332
:101D2000F091E30309958091920381110FC081E046
:101D3000809392031092720309C0803C09F4A6CFED
:101D4000883C09F4A3CF883B09F07DCFE091930351
:101D500081E08E0F80939303F0E0EE58FC4F80817A
:101D60008093BB00909193038091920329C080914E
:101D7000DB038093BB0085EC8093BC0064CF909123
:101D8000DA038091D903981758F5E091DA0381E0DE
:101D90008E0F8093DA03F0E0E754FC4F8081E9CFA7
:101DA000E091DA0381E08E0F8093DA038091BB002B
:101DB000F0E0E754FC4F80839091DA038091D903DF
:101DC0009817C8F285E8D8CFE091DA0381E08E0F4A
:101DD0008093DA038091BB00F0E0E754FC4F8083EE
:101DE0008091B80381115CCF81E08093B70384EACE
:101DF0008093BC001092B60326CF85EC8093BC0084
:101E00001092B6038091B403803230F4E091B403B1
:101E1000F0E0EC56FC4F10826091B40370E0E0916A
:101E2000E003F091E10384E993E009951092B40393
:101E30000ACF1092B50334CFEAE0F4E013821282A5
:101E400088EE93E0A0E0B0E084839583A683B78317
:101E500020E431E03183208325EC30E0358724878E
:101E600024EC30E03787268720EC30E0318B208B64
:101E700021EC30E0338B228B22EC30E0358B248B4D
:101E800026EC30E0378B268B118E128E138E148E3B
:101E9000E7EAF4E01382128284839583A683B783F2
:101EA00082E591E091838083E3EBF4E0178A168A60
:101EB00011A610A613AE12AE84E691E09183808342
:101EC0008CEB91E090937A068093790690937C0650
:101ED00080937B0690937E0680937D069093800688
:101EE00080937F0680EF96E0909382068093810630
:101EF00088E0E2E0F1E0A3E8B6E001900D928A9577
:101F0000E1F780910A0190910B01A0910C01B09131
:101F10000D0180938B0690938C06A0938D06B09351
:101F20008E0610928F0610929006109291061092D3
:101F300092060895789484B5826084BD84B58160EA
:101F400084BD85B5826085BD85B5816085BD809184
:101F50006E00816080936E001092810080918100FC
:101F600082608093810080918100816080938100F4
:101F7000809180008160809380008091B1008460B6
:101F80008093B1008091B00081608093B000809117
:101F90007A00846080937A0080917A0082608093D6
:101FA0007A0080917A00816080937A0080917A0033
:101FB000806880937A001092C10061E082E00E9404
:101FC0000F0261E084E00E940F0260E089E00E945D
:101FD0000F0260E088E00E940F0260E083E00E9450
:101FE0000F0260E087E00E940F0260E081E10E9442
:101FF0000F0260E080E10E940F0260E08FE00E942B
:102000000F0260E08EE00E940F0260E085E10E9416
:102010000F020E942701C0E2D0E00E94060521972E
:10202000E1F789E991E090937A068093790690939D
:102030007C0680937B0690937E0680937D068AEAD9
:1020400092E09093800680937F0680E094E09093E6
:102050008206809381068091C9049091CA048A30D7
:10206000910574F40196FC01EE0FFF1FED54FB4F38
:1020700029E03CE0318320839093CA048093C90413
:10208000E0911A04F0911B0482E08083E091160431
:10209000F09117041082E0911804F091190483E381
:1020A000808310922204E0911E04F0911F0486E0C8
:1020B0008083E0911C04F0911D0480818061808305
:1020C000E0911C04F0911D04808188608083E09180
:1020D0001C04F0911D04808180688083E0911C04C1
:1020E000F0911D0480818F7D80831092E703109210
:1020F000E6031092E5031092E4030E94D6038BE6F8
:1021000092E09093E3038093E20387E792E0909359
:10211000E1038093E00380E18093BA008EED9BE0C1
:102120009093DF038093DE0383ED95E09093DD03CE
:102130008093DC03C0907706D09078060D2C000CBD
:10214000EE08FF0860E175E88AE190E0A7019601DA
:102150000E94BE11309300042093FF038AE190E0B7
:10216000A0E0B0E080938F0690939006A093910634
:10217000B0939206C0E2D1E00DEE13E029913991BF
:10218000AFE4B0E00E94E511A70196010E94BE11E4
:10219000F801219331938F01F1E0C233DF0771F72A
:1021A00088EC90E0909384068093830690938A064F
:1021B0008093890688EE93E0909386068093850647
:1021C000909388068093870610928E0661E087E0E0
:1021D0000E940F022091770630917806032E000CA2
:1021E000440B550B68E274E08AE190E00E94BE1156
:1021F0003093EC032093EB0380E1809381001092F5
:10220000800081E08093EA0320E43FE13093E9031A
:102210002093E803309387002093860091E1909308
:1022200081002EED38E0309301012093000180936E
:102230006F00C0E0D0E00E9406052097E1F30E9405
:102240000B038823C1F30E940000F5CFFC0188270F
:102250009927E89421912032E9F3293010F02E30AB
:10226000C8F32B3241F02D3239F4689404C00E9437
:102270007011820F911D219120532A30C0F31EF45A
:10228000909581959F4F089543E956E00E9449112A
:102290000895FA01A191B081009719F41097E1F027
:1022A000CD01DC01CD010D90002011F4C00113C05F
:1022B000FB012191222319F02015D9F7F3CFFB015F
:1022C0002191201519F41E92119606C02223C1F700
:1022D0000D900020A1F7D001FA01A193B0830895D9
:1022E0007AE0979F902D879F802D910D112408955E
:1022F000DB018F939F930E94FB11BF91AF91A29F2F
:10230000800D911DA39F900DB29F900D11240895F3
:1023100097FB072E16F4009407D077FD09D00E9492
:10232000061207FC05D03EF4909581959F4F0895C5
:10233000709561957F4F0895A1E21A2EAA1BBB1BD1
:10234000FD010DC0AA1FBB1FEE1FFF1FA217B30781
:10235000E407F50720F0A21BB30BE40BF50B661F97
:10236000771F881F991F1A9469F76095709580955B
:1023700090959B01AC01BD01CF010895052E97FBFF
:102380001EF400940E94D51157FD07D00E949C11A5
:1023900007FC03D04EF40C94D51150954095309520
:1023A00021953F4F4F4F5F4F0895909580957095C1
:1023B00061957F4F8F4F9F4F08950E94E511332302
:1023C00012F48A1B9B0B0C94F611A29FB001B39FD1
:1023D000C001A39F700D811D1124911DB29F700D2E
:1023E000811D1124911D08950E94E511B7FF0895E4
:1023F000821B930B08950E94E511A59F900DB49F39
:10240000900DA49F800D911D11240895AA1BBB1B44
:1024100051E107C0AA1FBB1FA617B70710F0A61BE4
:10242000B70B881F991F5A95A9F780959095BC0105
:10243000CD010895EE0FFF1F0590F491E02D099452
:10244000FB01DC018D91019080190110D9F3990BEA
:102450000895AEE0B0E0EFE2F2E10C94D8140D89FB
:102460001E8986E08C831A8309838FEF9FE79E8302
:102470008D83AE01475E5F4F6F89788DCE010196E7
:102480000E944C122F813885020F131FF801108211
:102490002E96E4E00C94F414ABE0B0E0E2E5F2E157
:1024A0000C94CA147C013B018A01FC01178216823C
:1024B000838181FFC8C1CE0101965C01F701938140
:1024C000F30193FD859193FF81913F01882309F4E6
:1024D00053C1853239F493FD859193FF81913F017A
:1024E000853229F4B70190E00E943C14E7CF912C8B
:1024F000212C312CFFE1F31538F08B3211F190F4DF
:10250000803209F1833229F137FC3CC020ED280FDD
:102510002A3050F536FE20C08AE0989E200D112406
:10252000922E06C08D3291F0803371F7689430F8A6
:10253000F30193FD859193FF81913F018111DACFE2
:1025400021C0689431F8689432F8F2CF689433F877
:10255000EFCF689434F8ECCFEAE02E9E200D1124E2
:10256000222E689435F8E4CF8E3229F436FC04C16B
:10257000689436F8DDCF8C3619F4689437F8D8CFE4
:102580008836B1F2982F9F7D95549330E0F08336D2
:10259000A1F18337C1F1833509F063C02801F2E06E
:1025A0004F0E511CF801C080D180692D70E036FCBF
:1025B00002C06FEF7FEFC6010E9426144C016894A1
:1025C00037F882010AC00C5F1F4FFFE3F9838824AC
:1025D0008394912C6501E89437F833FE2DC0522C7A
:1025E0008114910471F5552009F468CFB70180E298
:1025F00090E00E943C145A94F6CFF80180818983C0
:102600000E5F1F4FE4CF2801F2E04F0E511CF8017E
:10261000C080D180692D70E036FC02C06FEF7FEF83
:10262000C6010E9431144C018201D5CFB70180E26E
:1026300090E00E943C142A942814190409F0B0F781
:10264000CECFF60137FC859137FE81916F01B7013E
:1026500090E00E943C1451105A94F1E08F1A9108B6
:10266000BFCF843619F0893609F077C0F80137FEFC
:102670006BC060817181828193810C5F1F4FF32D4C
:10268000FF763F2E97FF09C09095809570956195D4
:102690007F4F8F4F9F4F689437F82AE030E0A501B5
:1026A0000E946C14C82ECA188C2C432C36FE0CC009
:1026B000E89440F8C91440F434FE05C032FC03C06D
:1026C000F32DFE7E4F2E892C44FE95C0FE01EC0DAD
:1026D000F11D8081803309F087C0242D297E422E90
:1026E000842D8870582E43FC95C040FE8FC09C2CD2
:1026F000821418F42C0C922C981844FE91C0B70147
:1027000080E390E00E943C1442FE09C088E790E01C
:1027100041FE02C088E590E0B7010E943C14C91454
:1027200008F48AC0CA94D12C9FEFC91AD90ACA0CDE
:10273000DB1CF60182916F01B70190E00E943C140E
:10274000AC14BD04B1F74FCF60817181072E000C2E
:10275000880B990B0E5F1F4F92CFD32CE894D4F8BF
:102760002AE030E0853739F1232D297FD22E8F36AC
:1027700001F148F48835A9F0F701868197812B96FD
:10278000E2E10C94E614803749F08837A9F7D4FECB
:1027900002C06894D2F820E130E00DC06894D4F80B
:1027A000F6CF34FE03C0822F8660D82E20E132E0BF
:1027B00002C028E030E0F801D7FE0FC060817181CF
:1027C000828193810C5F1F4FA5010E946C14C82E5B
:1027D000CA183D2CE89437F867CF6081718190E08A
:1027E00080E00E5F1F4FF0CF42FC02C0839478CF91
:1027F0008394839475CF842D867809F471CFF6CFB6
:10280000B70180E290E00E943C1483948214C0F3EC
:10281000512C73CF522C5818821408F46ECFF8CF75
:10282000842D867809F47BCF8BE241FE80E247FC61
:102830008DE2B70190E071CFB70180E390E00E9494
:102840003C149A946CCF8FEF9FEF99CFFC010590C9
:10285000615070400110D8F7809590958E0F9F1FA2
:102860000895FC016150704001900110D8F78095E7
:1028700090958E0F9F1F08950F931F93CF93DF9313
:10288000182F092FEB018B8181FD09C01FEF0FEF7E
:10289000812F902FDF91CF911F910F91089582FF8B
:1028A00014C02E813F818C819D81281739073CF40B
:1028B000E881F981CF0101969983888310838E8105
:1028C0009F8101969F838E83E3CFE885F985812FD1
:1028D0000995892BA1F3DACFFA01AA27283051F103
:1028E000203181F1E8946F936E7F6E5F7F4F8F4F41
:1028F0009F4FAF4FB1E03ED0B4E03CD0670F781FA0
:10290000891F9A1FA11D680F791F8A1F911DA11D84
:102910006A0F711D811D911DA11D20D009F46894BD
:102920003F912AE0269F11243019305D3193DEF665
:10293000CF010895462F4770405D4193B3E00FD01B
:10294000C9F7F6CF462F4F70405D4A3318F0495D06
:1029500031FD4052419302D0A9F7EACFB4E0A695E9
:102960009795879577956795BA95C9F7009761050B
:10297000710508959B01AC010A2E06945795479561
:1029800037952795BA95C9F7620F731F841F951F56
:10299000A01D08952F923F924F925F926F927F9267
:1029A0008F929F92AF92BF92CF92DF92EF92FF925F
:1029B0000F931F93CF93DF93CDB7DEB7CA1BDB0B0B
:1029C0000FB6F894DEBF0FBECDBF09942A883988B0
:1029D00048885F846E847D848C849B84AA84B984B7
:1029E000C884DF80EE80FD800C811B81AA81B981C3
:1029F000CE0FD11D0FB6F894DEBF0FBECDBFED01D7
:062A00000895F894FFCFD9
:102A0600AE03320032003200320001010101000043
:102A16000100030005000800330056005F00640053
:102A2600D854DB59305E006142630A672767DB676B
:102A36006169200020002000200020000000000026
:102A46004103A102CE028E03FF02DD02F102000065
:102A5600000029041E043A04F40317040404F503D1
:102A66000000000033060D0A005256420057564237
:102A76003A257500524931005749313A25640052CA
:102A86004932005749323A256400524933005749C2
:102A9600333A256400524934005749343A256400D4
:102AA600524954005749543A25640052564343004C
:102AB600575643433A25640052434831005743482A
:102AC600313A2564005243483200574348323A258A
:102AD60064005243483300574348333A2564005252
:102AE60043483400574348343A2564005743483135
:102AF60000574348313A3D25640057434832005752
:102B06004348323A3D25640057434833005743480B
:102B1600333A3D2564005743483400574348343A16
:102B26003D25640057494C310057494C313A3D2503
:102B3600640057494C320057494C323A3D256400EF
:102B460057494C330057494C333A3D2564005749A1
:102B56004C340057494C343A3D25640057494C548F
:102B66000057494C543A3D25640053746174653AE4
:102B760020002C205643433D006D562C20564275AE
:102B8600733D006D562C20736F633D00252C204944
:102B9600313D006D412C2049323D006D412C2049CC
:102BA600333D006D412C2049343D006D412C2049B8
:102BB600546F743D006D412C20766261743A002C8E
:102BC60020766472703A0052534F430057534F4376
:102BD6003A25640057494549005749454F00524632
:102BE6004E004261747465727950616E656C2E692F
:102BF6006E6F0057464E3A257300574350310057C3
:102C06004350313A3D2564005743503200574350F4
:102C1600323A3D2564005743503300574350333A08
:102C26003D2564005743503400574350343A3D2500
:022C3600640038
:00000001FF
