:020000040000FA
:100000000C9462000C948A000C948A000C948A0070
:100010000C948A000C948A000C948A000C948A0038
:100020000C948A000C948A000C948A000C948A0028
:100030000C948A000C94D60B0C948A000C948A00C1
:100040000C94340B0C948A000C94A40B0C947E0B2F
:100050000C948A000C948A000C948A000C948A00F8
:100060000C94FD0B0C948A00000000002400270073
:100070002A0000000000250028002B0000000000DE
:1000800023002600290004040404040404040202DA
:100090000202020203030303030301020408102007
:1000A0004080010204081020010204081020000012
:1000B0000008000201000003040700000000000027
:1000C00000001C0D11241FBECFEFD8E0DEBFCDBF56
:1000D00025E0ACEAB2E001C01D92A132B207E1F71F
:1000E00012E0A0E0B1E0E6ECF4E202C005900D926F
:1000F000AC3AB107D9F710E0C2E6D0E004C02197CE
:10010000FE010E947A0FC136D107C9F70E94870D00
:100110000C9461120C9400007F928F929F92AF9288
:10012000BF92CF92DF92EF92FF920F931F93CF93E4
:10013000DF93C4E0D0E0C12CD12C76018EE4782E80
:100140000BE31FE194EB892E9BE2992E91E1A92EFE
:10015000B12C70927C00C8010197F1F780917A0070
:10016000806480937A0080917A0086FDFCCF809134
:10017000780020917900322F282F032E000C440B99
:10018000550BC501B4010E942A0F032E000C440B2D
:10019000550BC20ED31EE41EF51E2197D1F6C701E2
:1001A000B60124E030E040E050E00E942A0F2635FE
:1001B00083E1380794F030930E0520930D05DF910D
:1001C000CF911F910F91FF90EF90DF90CF90BF9054
:1001D000AF909F908F907F90089588E893E19093DF
:1001E0000E0580930D05EBCF6F927F928F929F92B9
:1001F000AF92BF92CF92DF92EF92FF920F931F9335
:10020000CF93DF933C01EB012DEA34E082E06816E6
:100210007104B1F04CF42DE834E0B1E06B167104D8
:1002200079F025E834E00CC02DEC34E0E3E06E1604
:10023000710431F02DEE34E0F4E06F16710489F7AB
:100240008301000F111F05581B4FF801A081B181D8
:10025000AA0FBB1FA20FB31FF301EE0FFF1FEE0F7C
:10026000FF1FE959FB4FCD90DC9011970D2C000C2E
:10027000EE08FF0880809180A280B3808C189D08D2
:10028000AE08BF08CD93DC93D801ED90FC90A70198
:10029000440F551F240F351FD9014D915C91052E38
:1002A000000C660B770BCB01BA01680D791D8A1D16
:1002B0009B1D6083718382839383F301EE0FFF1F85
:1002C000EE5FFE4FC080D1809301220F331FE90102
:1002D000C35ADB4F96010D2C000C440B550B0E94AA
:1002E0002A0F39832883BFEFEB1AFB0AEC14FD04B5
:1002F00094F4F801F182E082DF91CF911F910F9188
:10030000FF90EF90DF90CF90BF90AF909F908F9035
:100310007F906F900895D8011D921C92EDCF83308D
:1003200081F028F4813099F08230A9F00895873067
:10033000A9F08830C9F08430B1F4809180008F7DBD
:1003400003C0809180008F7780938000089584B5EA
:100350008F7784BD089584B58F7DFBCF8091B000E9
:100360008F778093B00008958091B0008F7DF9CF92
:10037000CF93DF93282F30E0F901E255FF4F8491AE
:10038000F901E656FF4FD491F901EA57FF4FC491A6
:10039000CC23A1F081110E948F01EC2FF0E0EE0F31
:1003A000FF1FE458FF4FA591B491EC91ED2381E03C
:1003B00090E009F480E0DF91CF91089580E090E033
:1003C000FACF1F93CF93DF93282F30E0F901E25546
:1003D000FF4F8491F901E656FF4FD491F901EA5796
:1003E000FF4FC491CC23A9F0162F81110E948F01D9
:1003F000EC2FF0E0EE0FFF1FEE58FF4FA591B491E8
:100400008FB7F894EC91111108C0D095DE23DC93DE
:100410008FBFDF91CF911F910895DE2BF8CFCF933F
:10042000DF9390E0FC01E656FF4F24918A579F4FDF
:10043000FC0184918823D1F090E0880F991FFC0182
:10044000E859FF4FA591B491FC01EE58FF4FC591BB
:10045000D49161110EC09FB7F8948C91E22FE09572
:100460008E238C932881E223E8839FBFDF91CF9175
:1004700008958FB7F894EC91E22BEC938FBFF6CFF1
:100480000F931F93CF93DF93182F062FEA0161E09C
:100490000E940F02602F812F0E94E101C230D1051E
:1004A00038F0CC0FDD1FCC0FDD1F25972197F1F71A
:1004B00060E0812FDF91CF911F910F910C940F027B
:1004C0000895E0914003F0914103309729F0109294
:1004D00049031092480309940895CF93DF93AC0128
:1004E000E0914203F09143033097F1F090914B0378
:1004F00080914A039817C0F090E0292F30E026172A
:10050000370754F4D901A055BD4F240F351FE90119
:1005100028812C939F5FF1CF10924B0360934A0385
:10052000CB01DF91CF910994DF91CF910895AF92E4
:10053000BF92CF92DF92EF92FF920F931F93CF93D0
:10054000DF936C017B018B01040F151FEB015E0132
:10055000AE18BF08C017D10759F06991D601ED91C7
:10056000FC910190F081E02DC6010995892B79F766
:10057000C501DF91CF911F910F91FF90EF90DF9018
:10058000CF90BF90AF900895FC01538D448D252FDF
:1005900030E0842F90E0821B930B541710F0CF961D
:1005A000089501970895FC01918D828D981761F04F
:1005B000A28DAE0FBF2FB11D5D968C91928D9F5F66
:1005C0009F73928F90E008958FEF9FEF0895FC0145
:1005D000918D828D981731F0828DE80FF11D858DF8
:1005E00090E008958FEF9FEF0895FC01918D228D8B
:1005F000892F90E0805C9F4F821B91098F73992710
:10060000089588E593E00E94F50221E0892B09F422
:1006100020E0822F089580E090E0892B29F00E944D
:10062000010381110C9400000895FC01A48DA80F12
:10063000B92FB11DA35ABF4F2C91848D90E0019624
:100640008F739927848FA689B7892C93A089B18944
:100650008C91837080648C93938D848D981306C0E5
:100660000288F389E02D80818F7D80830895EF9249
:10067000FF920F931F93CF93DF93EC0181E0888F5C
:100680009B8D8C8D98131AC0E889F989808185FF2C
:1006900015C09FB7F894EE89FF896083E889F989CE
:1006A00080818370806480839FBF81E090E0DF91D0
:1006B000CF911F910F91FF90EF900895F62E0B8D23
:1006C00010E00F5F1F4F0F731127E02E8C8D8E11DE
:1006D0000CC00FB607FCFACFE889F989808185FF45
:1006E000F5CFCE010E941503F1CFEB8DEC0FFD2F5E
:1006F000F11DE35AFF4FF0829FB7F8940B8FEA8900
:10070000FB8980818062CFCFCF93DF93EC01888D0E
:100710008823B9F0AA89BB89E889F9898C9185FD7C
:1007200003C0808186FD0DC00FB607FCF7CF8C910A
:1007300085FFF2CF808185FFEDCFCE010E941503AA
:10074000E9CFDF91CF9108952091F602260F33274C
:10075000331F21323105ECF420911A03FC0190E0A3
:1007600080E0243069F082E00895A091F6022191A2
:10077000AC014A525D4FA40FB52FB11D2C930196C9
:10078000861798F38091F602680F6093F60280E076
:10079000089581E0089510921A0381E080931C036C
:1007A00010921B0361E082E10E94E10161E083E1BC
:1007B0000E94E101E9EBF0E080818E7F80838081FF
:1007C0008D7F808388E48093B80085E48093BC00AB
:1007D00008950895E0914B0380914A03E81730F49F
:1007E000F0E0E055FD4F808190E008958FEF9FEF9E
:1007F000089590914B0380914A032FEF3FEF981794
:1008000048F4E92FF0E0E055FD4F208130E09F5F94
:1008100090934B03C901089580914A0390914B0333
:10082000891B990B0895CF93DF93CB01EA01642FC5
:100830000E94A403CE01DF91CF910895CF93DF935F
:100840001F92CDB7DEB7698361E0CE0101960E94A9
:10085000A40381E090E00F90DF91CF91089590E0A4
:1008600080E0089508954F925F926F927F928F92E9
:100870009F92AF92BF92EF92FF920F931F93CF93ED
:10088000DF938C01FC01E45FFE4FE080F180EC5AC5
:10089000F109A081B18197010E94490F9B01AC0130
:1008A000A3E0B0E00E94670F812C24E0922EA12CDF
:1008B000B12CA50194010E942A0F2901F801E25AE6
:1008C000FF4FA081B18197010E94490F9B01AC01AC
:1008D000A3E0B0E00E94670FA50194010E942A0FD7
:1008E000E201C20FD31FF801EE59FF4FA081B18181
:1008F00097010E94490F9B01AC01A3E0B0E00E9468
:10090000670FA50194010E942A0FC20FD31FF8019F
:10091000EC59FF4FA081B18197010E94490F9B01C3
:10092000AC01A3E0B0E00E94670FA50194010E9412
:100930002A0FCE01820F931FDF91CF911F910F914C
:10094000FF90EF90BF90AF909F908F907F906F90AF
:100950005F904F90089520917A0090917A00987F4F
:10096000946090937A008E50806480937C00809194
:100970007A00806480937A0080917A0086FDFCCFB3
:10098000809178009091790020937A00089581E118
:100990000E94AB04BC0190E080E00E94F40080E182
:1009A0000E94AB04BC01725081E090E00E94F40010
:1009B0008FE00E94AB04BC01725082E090E00E9484
:1009C000F4008EE00E94AB04BC01725083E090E022
:1009D0000E94F40085E10E94AB04BC01725084E0E7
:1009E00090E00C94F400FB0101900020E9F73197AE
:1009F000AF01461B570BDC01ED91FC910280F381A6
:100A0000E02D09948F929F92AF92BF920F931F9304
:100A1000CF93DF93CDB7DEB7A1970FB6F894DEBFC3
:100A20000FBECDBF19A2423008F44AE08E010F5D1F
:100A30001F4F842E912CB12CA12CA50194010E9452
:100A4000080FE62FB901CA01EA3004F5E05DD801CC
:100A5000EE938D01232B242B252B79F790E080E05A
:100A6000109729F0BD0188E593E00E94F304A19658
:100A70000FB6F894DEBF0FBECDBFDF91CF911F91AF
:100A80000F91BF90AF909F908F900895E95CDFCF5A
:100A9000CF92DF92EF92FF92CF93DF936C01990F89
:100AA000EE08FF08F7FE19C06DE288E593E00E94AA
:100AB0003703EC0166277727CB016C197D098E0976
:100AC0009F094AE00E9402058C0F9D1FDF91CF9184
:100AD000FF90EF90DF90CF9008954AE0C701B601F4
:100AE000DF91CF91FF90EF90DF90CF900C940205B3
:100AF000BC0188E593E00C94F304CF93DF93D0E03E
:100B0000C0E0009731F0BC0188E593E00E94F30457
:100B1000EC0166E371E088E593E00E94F3048C0F3A
:100B20009D1FDF91CF910895CF93DF9361157105DC
:100B300031F06130710549F0DF91CF910895EC01FA
:100B4000CC960E947D051CAEF7CF845B9F4FDF9152
:100B5000CF910C947D056DE474E085EF93E00E94E5
:100B6000F30410924D040895CF93DF9385ED8093A5
:100B7000BC008091D2029091D302A091D402B09196
:100B8000D5020796A11DB11D23E0B695A7959795AF
:100B900087952A95D1F72091BC0024FD03C01092BF
:100BA0001A0336C04091D2025091D3026091D40210
:100BB0007091D502452B462B472B69F30097A10571
:100BC000B10541F02AE22A95F1F700C00197A10989
:100BD000B109E1CF8091D10291E09093D0028823B6
:100BE000B9F0C091B800D091BA008091BC008A7B66
:100BF0008093BC0060E082E10E94E10160E083E15B
:100C00000E94E1010E94CB03D093BA00C093B800C8
:100C1000DF91CF910895CF93DF93EA0169E371E00B
:100C20000E94800F892B09F58DE391E09F938F93AC
:100C30008EE491E09F938F93CE0124E0880F991F5B
:100C40002A95E1F7835C9B4F9F938F930E94890FB6
:100C50000F900F900F900F900F900F90BE0181E0BA
:100C600094E0DF91CF910C949405DF91CF9108959A
:100C70008F929F92AF92BF92CF92DF92EF92FF92AC
:100C80000F931F93CF93DF93EC017B016A018901DE
:100C900065E571E0C7010E94800F892B09F041C012
:100CA000DE01A45ABF4FFE01E45FFE4F2D913C913F
:100CB000A081B1810E94490F9B01AC01ADE0B0E081
:100CC0000E94670F20E034E040E050E00E942A0FCD
:100CD0003F932F9389E591E09F938F93C80124E080
:100CE000880F991F2A95E1F7CC968C0F9D1F9F9333
:100CF0008F930E94890F0F900F900F900F900F907D
:100D00000F90B801CE01DF91CF911F910F91FF900D
:100D1000EF90DF90CF90BF90AF909F908F900C940A
:100D2000940560E671E0C7010E94800F892BE9F409
:100D3000DE01A25ABF4FFE01E45FFE4F2D913C91B0
:100D4000A081B1810E94490F9B01AC01A3E0B0E0FA
:100D50000E94670F20E034E040E050E00E942A0F3C
:100D60003F932F9384E691E0B7CF6BE671E0C70124
:100D70000E94800F892BE9F4DE01A05ABF4FFE01CB
:100D8000E45FFE4F2D913C91A081B1810E94490FFB
:100D90009B01AC01A3E0B0E00E94670F20E034E0CB
:100DA00040E050E00E942A0F3F932F938FE691E09E
:100DB00093CF66E771E0C7010E94800F892BE9F4A9
:100DC000DE01AE59BF4FFE01E45FFE4F2D913C9115
:100DD000A081B1810E94490F9B01AC01A3E0B0E06A
:100DE0000E94670F20E034E040E050E00E942A0FAC
:100DF0003F932F938AE791E06FCF61E871E0C701DD
:100E00000E94800F892BE9F4DE01AC59BF4FFE012F
:100E1000E45FFE4F2D913C91A081B1810E94490F6A
:100E20009B01AC01A3E0B0E00E94670F20E034E03A
:100E300040E050E00E942A0F3F932F9385E891E015
:100E40004BCF6CE871E0C7010E94800F892B41F401
:100E5000CE010E9433049F938F9380E991E03CCFB1
:100E600067E971E0C7010E94800F892B51F4FE01F0
:100E7000E45FFE4F81818F9380818F938CE991E0B5
:100E80002BCF64EA71E0C7010E94800F892B41F4E7
:100E900089E00E94B8019F938F9389EA91E01CCF6B
:100EA00061EB71E0C7010E94800F892B41F488E05B
:100EB0000E94B8019F938F9386EB91E00DCF6EEB6C
:100EC00071E0C7010E94800F892B41F483E00E94EA
:100ED000B8019F938F9383EC91E0FECE6BEC71E0B1
:100EE000C7010E94800F892B41F487E00E94B8015E
:100EF0009F938F9380ED91E0EFCE68ED71E0C70195
:100F00000E94800F892BA9F4C6010E94B60EF82E0C
:100F1000E92EFE01E85EFE4F40815181682F792F56
:100F200089E090E00E944002EF92FF928DED91E007
:100F3000D3CE66EE71E0C7010E94800F892BA9F421
:100F4000C6010E94B60EF82EE92EFE01E85EFE4FA5
:100F500040815181682F792F88E090E00E94400203
:100F6000EF92FF928BEE91E0B7CE64EF71E0C70194
:100F70000E94800F892BA9F4C6010E94B60EF82E9C
:100F8000E92EFE01E85EFE4F40815181682F792FE6
:100F900083E090E00E944002EF92FF9289EF91E09F
:100FA0009BCE62E072E0C7010E94800F892BA9F4FA
:100FB000C6010E94B60EF82EE92EFE01E85EFE4F35
:100FC00040815181682F792F87E090E00E94400294
:100FD000EF92FF9287E092E07FCE60E172E0C7017E
:100FE0000E94800F892B19F5C6010E94B60E7C0164
:100FF0006E0182EFC81A8EEFD80AB7010F2C000CD1
:10100000880B990BF7E0660F771F881F991FFA95D9
:10101000D1F723E537E040E050E00E942A0FD601E7
:101020002D933C93FF92EF9285E192E055CE6EE1D5
:1010300072E0C7010E94800F892B11F5C6010E9442
:10104000B60E7C016E01B0EFCB1ABEEFDB0ABC011D
:10105000990F880B990BE7E0660F771F881F991F80
:10106000EA95D1F723E537E040E050E00E942A0FEF
:10107000F60131832083FF92EF9283E292E02CCE3F
:101080006CE272E0C7010E94800F892B11F5C60146
:101090000E94B60E7C016E01FEEECF1AFEEFDF0A53
:1010A000BC01990F880B990B57E0660F771F881FBB
:1010B000991F5A95D1F723E537E040E050E00E94B0
:1010C0002A0FD6012D933C93FF92EF9281E392E099
:1010D00003CE6AE372E0C7010E94800F892B11F5ED
:1010E000C6010E94B60E7C016E01BCEECB1ABEEFAB
:1010F000DB0ABC01990F880B990B47E0660F771F3D
:10110000881F991F4A95D1F723E537E040E050E06A
:101110000E942A0FF60131832083FF92EF928FE322
:1011200092E0DACD68E472E0C7010E94800F892B5B
:10113000B9F04E01F2E08F0E911CB12CA12C8E89DA
:101140009F89A816B9067CF5D401ED91FD914D015A
:10115000A801B601C7010995BFEFAB1ABB0AEFCFD3
:10116000C6010E94B60E7C016E018AEEC81A8EEF8F
:10117000D80AB7010F2C000C880B990B37E0660FCB
:10118000771F881F991F3A95D1F723E537E040E094
:1011900050E00E942A0FD6012D933C93FF92EF92CC
:1011A0008DE492E099CDDF91CF911F910F91FF9047
:1011B000EF90DF90CF90BF90AF909F908F90089569
:1011C0000F931F93CF93DF938B0169EA72E00E9424
:1011D000D40EEC0167E371E090E080E00E94D40E51
:1011E0009801AC01BE0181E094E0DF91CF911F91A5
:1011F0000F910C9438064F925F926F927F92AF924C
:10120000BF92CF92DF92EF92FF920F931F93CF93F3
:10121000DF9388E593E00E94F502892B31F188E5A0
:1012200093E00E94D3022091290430912A04F9010D
:10123000EF5FFB4F808F2F5F3F4F30932A04209347
:1012400029048A3019F02F30310519F72F5F3B4FF1
:10125000F901108E10922A041092290470E060E0C7
:1012600089E194E00E94E008D4CF0E94C704209155
:101270005F043091600480910F05909110058217F2
:10128000930754F44091190550911A0570E060E0FD
:1012900089E090E00E944002209161043091620454
:1012A00080911105909112058217930754F4409193
:1012B000190550911A0570E060E088E090E00E9406
:1012C0004002209163043091640480911305909151
:1012D00014058217930754F44091190550911A058B
:1012E00070E060E083E090E00E944002209165049D
:1012F0003091660480911505909116058217930729
:1013000054F44091190550911A0570E060E087E0AF
:1013100090E00E94400280915F04909160042091CF
:10132000610430916204820F931F20916304309115
:101330006404820F931F2091650430916604820F2C
:10134000931F20911705309118052817390744F588
:101350004091190550911A0570E060E089E090E035
:101360000E9440024091190550911A0570E060E01A
:1013700088E090E00E9440024091190550911A05C2
:1013800070E060E083E090E00E9440024091190527
:1013900050911A0570E060E087E090E00E94400202
:1013A0008091AC029091AD02A091AE02B091AF02DB
:1013B0000196A11DB11D893EF3E09F07A105B1056E
:1013C000BCF48093AC029093AD02A093AE02B093B4
:1013D000AF02DF91CF911F910F91FF90EF90DF90BF
:1013E000CF90BF90AF907F906F905F904F90089597
:1013F000A0905D04B0905E04C0915F04D091600441
:10140000C0906104D0906204E0906304F0906404A2
:1014100000916504109166041092AC021092AD0226
:101420001092AE021092AF020E948C0086E592E00C
:101430000E94780589E00E94B8010E94480588E072
:101440000E94B8010E94480583E00E94B8010E94F2
:10145000480587E00E94B8010E9448058EE592E0A9
:101460000E94780580910D0590910E050E94480517
:1014700085E692E00E94780520915D0430915E043B
:10148000A0910D05B0910E050E94490F9B01AC0182
:10149000ADE0B0E00E94670F412C24E0522E612C99
:1014A000712CA30192010E942A0FCA01B901882759
:1014B00099274AE00E9402058FE692E00E94780593
:1014C00020915F0430916004A0910D05B0910E054C
:1014D0000E94490F9B01AC01A3E0B0E00E94670F9E
:1014E000A30192010E942A0FC9010E94480587E7C3
:1014F00092E00E9478052091610430916204A091ED
:101500000D05B0910E050E94490F9B01AC01A3E0AF
:10151000B0E00E94670FA30192010E942A0FC90147
:101520000E9448058FE792E00E94780520916304AD
:1015300030916404A0910D05B0910E050E94490FF1
:101540009B01AC01A3E0B0E00E94670FA3019201F0
:101550000E942A0FC9010E94480587E892E00E9474
:1015600078052091650430916604A0910D05B09135
:101570000E050E94490F9B01AC01A3E0B0E00E9460
:10158000670FA30192010E942A0FC9010E9448051A
:101590008FE892E00E94780581E094E00E94330495
:1015A0000E94480589E992E00E947805C5010E94E1
:1015B000480583EA92E00E947805DE01AC0DBD1D6E
:1015C000AE0DBF1DA00FB11F20911B0530911C0552
:1015D00040911D0550911E050E94720FA3019201BA
:1015E0000E942A0FC9010E94480566E371E088E560
:1015F00093E0DF91CF911F910F91FF90EF90DF90DB
:10160000CF90BF90AF907F906F905F904F900C9471
:10161000F3040F931F93CF93DF938C01C1E0D4E0C9
:10162000CE01815094408017910744F485EF93E0F8
:101630000E94F9038AA71BA62196F2CFE1E0F4E00D
:10164000CF01815094408017910724F483A582A78D
:101650003196F6CF61E070E08BE294E0DF91CF91BC
:101660001F910F910C94E0081F920F920FB60F92EA
:1016700011242F933F938F939F93AF93BF938091A8
:10168000540390915503A0915603B09157033091A4
:10169000530323E0230F2D3758F50196A11DB11DEB
:1016A000209353038093540390935503A0935603C0
:1016B000B093570380914F0390915003A091510331
:1016C000B09152030196A11DB11D80934F039093D9
:1016D0005003A0935103B0935203BF91AF919F91D8
:1016E0008F913F912F910F900FBE0F901F901895E3
:1016F00026E8230F0296A11DB11DD2CF1F920F9293
:101700000FB60F9211242F933F934F935F936F93D4
:101710007F938F939F93AF93BF93EF93FF9388E54E
:1017200093E00E941503FF91EF91BF91AF919F91BC
:101730008F917F916F915F914F913F912F910F907A
:101740000FBE0F901F9018951F920F920FB60F9219
:1017500011242F938F939F93EF93FF93E09168034E
:10176000F09169038081E0916E03F0916F0382FD37
:101770001BC09081809171038F5F8F7320917203E2
:10178000821741F0E0917103F0E0E85AFC4F958F29
:1017900080937103FF91EF919F918F912F910F9003
:1017A0000FBE0F901F9018958081F4CF1F920F925B
:1017B0000FB60F9211242F933F934F935F936F9324
:1017C0007F938F939F93AF93BF93EF93FF93E0919A
:1017D0000001F09101010995FF91EF91BF91AF9147
:1017E0009F918F917F916F915F914F913F912F9139
:1017F0000F900FBE0F901F9018951F920F920FB66B
:101800000F9211242F933F934F935F936F937F9386
:101810008F939F93AF93BF93EF93FF938091B90002
:10182000887F803609F44AC0F0F5883209F4A7C0F1
:1018300018F5803109F49BC0B8F4882309F4F9C085
:10184000883009F494C0FF91EF91BF91AF919F91BF
:101850008F917F916F915F914F913F912F910F9059
:101860000FBE0F901F901895883109F488C0803200
:1018700051F78093190314C0803409F49DC040F4DB
:101880008033B9F38833F9F68093190385ECB0C03F
:10189000803509F485C0883509F496C0883499F6F6
:1018A0000E94B405D0CF883909F48CC038F5883748
:1018B00029F050F4883611F0803729F683E08093C0
:1018C0001A031092180357C0883809F47BC0803976
:1018D00019F0803809F0B7CF80911803803208F0F2
:1018E00071C0E091180381E08E0F809318038091FE
:1018F000BB00F0E0E850FD4F80833DC0803B39F0F5
:10190000E0F4803A09F479C0883A09F09CCF84E089
:1019100080931A031092F7021092F602E0914603A8
:10192000F091470309958091F60281110FC081E083
:101930008093F6021092D60209C0803C09F4A6CF2B
:10194000883C09F4A3CF883B09F07DCFE091F702F2
:1019500081E08E0F8093F702F0E0EA52FD4F808124
:101960008093BB009091F7028091F60229C080918C
:101970003F038093BB0085EC8093BC0064CF9091C3
:101980003E0380913D03981758F5E0913E0381E0B6
:101990008E0F80933E03F0E0E35EFC4F8081E9CF41
:1019A000E0913E0381E08E0F80933E038091BB0067
:1019B000F0E0E35EFC4F808390913E0380913D0315
:1019C0009817C8F285E8D8CFE0913E0381E08E0FEA
:1019D00080933E038091BB00F0E0E35EFC4F808388
:1019E00080911C0381115CCF81E080931B0384EA0A
:1019F0008093BC0010921A0326CF85EC8093BC0024
:101A000010921A0380911803803230F4E091180389
:101A1000F0E0E850FD4F10826091180370E0E09113
:101A20004403F091450388EF92E009951092180362
:101A30000ACF1092190334CFE8E5F3E01382128243
:101A400088EE93E0A0E0B0E084839583A683B7831B
:101A500020E131E03183208325EC30E03587248795
:101A600024EC30E03787268720EC30E0318B208B68
:101A700021EC30E0338B228B22EC30E0358B248B51
:101A800026EC30E0378B268B118E128E138E148E3F
:101A9000E5EFF3E01382128284839583A683B783F4
:101AA00082E291E091838083E1E0F4E0178A168A74
:101AB00011A610A613AE12AE84E391E09183808349
:101AC0008CEB91E09093100580930F059093120595
:101AD0008093110590931405809313059093160538
:101AE0008093150580EF96E0909318058093170575
:101AF00084E190E090931A058093190510921B05DC
:101B000010921C0510921D0510921E0508957894E0
:101B100084B5826084BD84B5816084BD85B58260F2
:101B200085BD85B5816085BD80916E0081608093A3
:101B30006E0010928100809181008260809381000C
:101B4000809181008160809381008091800081601C
:101B5000809380008091B10084608093B100809177
:101B6000B00081608093B00080917A00846080939F
:101B70007A0080917A00826080937A0080917A0066
:101B8000816080937A0080917A00806880937A00E7
:101B90001092C10061E082E00E940F0261E084E0E7
:101BA0000E940F0260E089E00E940F0260E088E07E
:101BB0000E940F0260E083E00E940F0260E087E075
:101BC0000E940F0260E081E10E940F0260E080E16C
:101BD0000E940F0260E08FE00E940F0260E08EE042
:101BE0000E940F0260E085E10E940F020E948C00BB
:101BF000C0E1D0E00E94C7042197E1F789E991E0B4
:101C00009093100580930F05909312058093110512
:101C100090931405809313059093160580931505F2
:101C200090931805809317058091170490911804DC
:101C30008A30910574F40196FC01EE0FFF1FEF5FEF
:101C4000FB4F2BE036E03183208390931804809380
:101C50001704E0916803F091690382E08083E091CA
:101C60006403F09165031082E0916603F0916703CD
:101C700083E3808310927003E0916C03F0916D0315
:101C800086E08083E0916A03F0916B03808180613C
:101C90008083E0916A03F0916B0380818860808388
:101CA000E0916A03F0916B03808180688083E0910A
:101CB0006A03F0916B0380818F7D808310924B03C8
:101CC00010924A0310924903109248030E94CB03DA
:101CD00081E692E090934703809346038DE692E07D
:101CE000909345038093440380E18093BA0029E0F8
:101CF0003BE030934303209342032BEA35E03093DB
:101D00004103209340034FE250E060E070E04093D5
:101D10001B0550931C0560931D0570931E05809351
:101D200081001092800081E080934E0320E43FE127
:101D300030934D0320934C0330938700209386000B
:101D400091E1909381002BEF38E0309301012093D3
:101D5000000180936F00C0E0D0E02097F1F30E9473
:101D600001038823D1F30E940000F7CFFC018827EC
:101D70009927E89421912032E9F3293010F02E3090
:101D8000C8F32B3241F02D3239F4689404C00E941C
:101D9000000F820F911D219120532A30C0F31EF4B1
:101DA000909581959F4F08954FE155E00E94D90E7F
:101DB0000895FA01A191B081009719F41097E1F00C
:101DC000CD01DC01CD010D90002011F4C00113C044
:101DD000FB012191222319F02015D9F7F3CFFB0144
:101DE0002191201519F41E92119606C02223C1F7E5
:101DF0000D900020A1F7D001FA01A193B0830895BE
:101E00007AE0979F902D879F802D910D1124089542
:101E1000A1E21A2EAA1BBB1BFD010DC0AA1FBB1FEE
:101E2000EE1FFF1FA217B307E407F50720F0A21B60
:101E3000B30BE40BF50B661F771F881F991F1A94CD
:101E400069F760957095809590959B01AC01BD01F7
:101E5000CF010895052E97FB1EF400940E94410FB8
:101E600057FD07D00E94080F07FC03D04EF40C94D6
:101E7000410F50954095309521953F4F4F4F5F4F03
:101E8000089590958095709561957F4F8F4F9F4FE6
:101E900008950E94510F332312F48A1B9B0B0C945C
:101EA000620FA29FB001B39FC001A39F700D811D5F
:101EB0001124911DB29F700D811D1124911D089553
:101EC0000E94510FB7FF0895821B930B08950E9443
:101ED000510FA59F900DB49F900DA49F800D911D53
:101EE00011240895B7FF0C94670F0E94670F821B9F
:101EF000930B0895EE0FFF1F0590F491E02D0994C8
:101F0000FB01DC018D91019080190110D9F3990B2F
:101F10000895AEE0B0E0EFE8FFE00C9438120D89D0
:101F20001E8986E08C831A8309838FEF9FE79E8347
:101F30008D83AE01475E5F4F6F89788DCE0101962C
:101F40000E94AC0F2F813885020F131FF8011082F9
:101F50002E96E4E00C945412ABE0B0E0E2EBFFE02C
:101F60000C942A127C013B018A01FC011782168223
:101F7000838181FFC8C1CE0101965C01F701938185
:101F8000F30193FD859193FF81913F01882309F42B
:101F900053C1853239F493FD859193FF81913F01BF
:101FA000853229F4B70190E00E949C11E7CF912C73
:101FB000212C312CFFE1F31538F08B3211F190F424
:101FC000803209F1833229F137FC3CC020ED280F23
:101FD0002A3050F536FE20C08AE0989E200D11244C
:101FE000922E06C08D3291F0803371F7689430F8EC
:101FF000F30193FD859193FF81913F018111DACF28
:1020000021C0689431F8689432F8F2CF689433F8BC
:10201000EFCF689434F8ECCFEAE02E9E200D112427
:10202000222E689435F8E4CF8E3229F436FC04C1B0
:10203000689436F8DDCF8C3619F4689437F8D8CF29
:102040008836B1F2982F9F7D95549330E0F0833617
:10205000A1F18337C1F1833509F063C02801F2E0B3
:102060004F0E511CF801C080D180692D70E036FC04
:1020700002C06FEF7FEFC6010E9486114C01689489
:1020800037F882010AC00C5F1F4FFFE3F9838824F1
:102090008394912C6501E89437F833FE2DC0522CBF
:1020A0008114910471F5552009F468CFB70180E2DD
:1020B00090E00E949C115A94F6CFF80180818983A8
:1020C0000E5F1F4FE4CF2801F2E04F0E511CF801C4
:1020D000C080D180692D70E036FC02C06FEF7FEFC9
:1020E000C6010E9491114C018201D5CFB70180E257
:1020F00090E00E949C112A942814190409F0B0F76A
:10210000CECFF60137FC859137FE81916F01B70183
:1021100090E00E949C1151105A94F1E08F1A91089E
:10212000BFCF843619F0893609F077C0F80137FE41
:102130006BC060817181828193810C5F1F4FF32D91
:10214000FF763F2E97FF09C0909580957095619519
:102150007F4F8F4F9F4F689437F82AE030E0A501FA
:102160000E94CC11C82ECA188C2C432C36FE0CC0F1
:10217000E89440F8C91440F434FE05C032FC03C0B2
:10218000F32DFE7E4F2E892C44FE95C0FE01EC0DF2
:10219000F11D8081803309F087C0242D297E422ED5
:1021A000842D8870582E43FC95C040FE8FC09C2C17
:1021B000821418F42C0C922C981844FE91C0B7018C
:1021C00080E390E00E949C1142FE09C088E790E005
:1021D00041FE02C088E590E0B7010E949C11C9143D
:1021E00008F48AC0CA94D12C9FEFC91AD90ACA0C24
:1021F000DB1CF60182916F01B70190E00E949C11F7
:10220000AC14BD04B1F74FCF60817181072E000C73
:10221000880B990B0E5F1F4F92CFD32CE894D4F804
:102220002AE030E0853739F1232D297FD22E8F36F1
:1022300001F148F48835A9F0F701868197812B9642
:10224000E2E10C944612803749F08837A9F7D4FEB2
:1022500002C06894D2F820E130E00DC06894D4F850
:10226000F6CF34FE03C0822F8660D82E20E132E004
:1022700002C028E030E0F801D7FE0FC06081718114
:10228000828193810C5F1F4FA5010E94CC11C82E43
:10229000CA183D2CE89437F867CF6081718190E0CF
:1022A00080E00E5F1F4FF0CF42FC02C0839478CFD6
:1022B0008394839475CF842D867809F471CFF6CFFB
:1022C000B70180E290E00E949C1183948214C0F3D5
:1022D000512C73CF522C5818821408F46ECFF8CFBB
:1022E000842D867809F47BCF8BE241FE80E247FCA7
:1022F0008DE2B70190E071CFB70180E390E00E94DA
:102300009C119A946CCF8FEF9FEF99CFFC010590B1
:10231000615070400110D8F7809590958E0F9F1FE7
:102320000895FC016150704001900110D8F780952C
:1023300090958E0F9F1F08950F931F93CF93DF9358
:10234000182F092FEB018B8181FD09C01FEF0FEFC3
:10235000812F902FDF91CF911F910F91089582FFD0
:1023600014C02E813F818C819D81281739073CF450
:10237000E881F981CF0101969983888310838E814A
:102380009F8101969F838E83E3CFE885F985812F16
:102390000995892BA1F3DACFFA01AA27283051F148
:1023A000203181F1E8946F936E7F6E5F7F4F8F4F86
:1023B0009F4FAF4FB1E03ED0B4E03CD0670F781FE5
:1023C000891F9A1FA11D680F791F8A1F911DA11DCA
:1023D0006A0F711D811D911DA11D20D009F4689403
:1023E0003F912AE0269F11243019305D3193DEF6AB
:1023F000CF010895462F4770405D4193B3E00FD061
:10240000C9F7F6CF462F4F70405D4A3318F0495D4B
:1024100031FD4052419302D0A9F7EACFB4E0A6952E
:102420009795879577956795BA95C9F70097610550
:10243000710508959B01AC010A2E069457954795A6
:1024400037952795BA95C9F7620F731F841F951F9B
:10245000A01D08952F923F924F925F926F927F92AC
:102460008F929F92AF92BF92CF92DF92EF92FF92A4
:102470000F931F93CF93DF93CDB7DEB7CA1BDB0B50
:102480000FB6F894DEBF0FBECDBF09942A883988F5
:1024900048885F846E847D848C849B84AA84B984FC
:1024A000C884DF80EE80FD800C811B81AA81B98108
:1024B000CE0FD11D0FB6F894DEBF0FBECDBFED011C
:1024C0000895F894FFCF600204001000100010007F
:1024D00010000000000037039702C4028403F502D5
:1024E000D302E702000000001E0413042F04E903D6
:1024F0000C04F903EA030000000038060D0A00523C
:10250000464E00345F536D61727450616E656C2E7F
:10251000696E6F0057464E3A257300525642005777
:1025200056423A256400524931005749313A2564F0
:1025300000524932005749323A256400524933006B
:102540005749333A256400524934005749343A25F3
:102550006400524954005749543A25640052564386
:102560004300575643433A256400524348310057CD
:102570004348313A256400524348320057434832B9
:102580003A2564005243483300574348333A2564A0
:10259000005243483400574348343A2564005743B7
:1025A000483100574348313A3D256400574348328B
:1025B00000574348323A3D2564005743483300579B
:1025C0004348333A3D256400574348340057434855
:1025D000343A3D25640057494C310057494C313A53
:1025E0003D25640057494C320057494C323A3D254D
:1025F000640057494C330057494C333A3D25640039
:1026000057494C340057494C343A3D2564005749EA
:102610004C540057494C543A3D256400537461743E
:10262000653A20002C205643433D006D562C205621
:102630004275733D006D562C2049313D006D412C93
:102640002049323D006D412C2049333D006D412C25
:102650002049343D006D412C2049546F743D006D7C
:10266000412C20766261743A002C20766472703AB4
:02267000000068
:107E0000112484B714BE81FFF0D085E080938100F7
:107E100082E08093C00088E18093C10086E0809377
:107E2000C20080E18093C4008EE0C9D0259A86E02C
:107E300020E33CEF91E0309385002093840096BBD3
:107E4000B09BFECF1D9AA8958150A9F7CC24DD24C4
:107E500088248394B5E0AB2EA1E19A2EF3E0BF2EE7
:107E6000A2D0813461F49FD0082FAFD0023811F036
:107E7000013811F484E001C083E08DD089C08234E0
:107E800011F484E103C0853419F485E0A6D080C0E4
:107E9000853579F488D0E82EFF2485D0082F10E0AE
:107EA000102F00270E291F29000F111F8ED06801E7
:107EB0006FC0863521F484E090D080E0DECF843638
:107EC00009F040C070D06FD0082F6DD080E0C81688
:107ED00080E7D80618F4F601B7BEE895C0E0D1E017
:107EE00062D089930C17E1F7F0E0CF16F0E7DF06D8
:107EF00018F0F601B7BEE89568D007B600FCFDCFD4
:107F0000A601A0E0B1E02C9130E011968C91119780
:107F100090E0982F8827822B932B1296FA010C0160
:107F200087BEE89511244E5F5F4FF1E0A038BF0790
:107F300051F7F601A7BEE89507B600FCFDCF97BE46
:107F4000E89526C08437B1F42ED02DD0F82E2BD052
:107F50003CD0F601EF2C8F010F5F1F4F84911BD097
:107F6000EA94F801C1F70894C11CD11CFA94CF0C13
:107F7000D11C0EC0853739F428D08EE10CD085E9AC
:107F80000AD08FE07ACF813511F488E018D01DD067
:107F900080E101D065CF982F8091C00085FFFCCF94
:107FA0009093C60008958091C00087FFFCCF809118
:107FB000C00084FD01C0A8958091C6000895E0E648
:107FC000F0E098E1908380830895EDDF803219F02E
:107FD00088E0F5DFFFCF84E1DECF1F93182FE3DFCA
:107FE0001150E9F7F2DF1F91089580E0E8DFEE27F6
:047FF000FF270994CA
:027FFE00040479
:00000001FF
