:020000040000FA
:100000000C9462000C948A000C948A000C948A0070
:100010000C948A000C948A000C948A000C948A0038
:100020000C948A000C948A000C948A000C948A0028
:100030000C948A000C94B20D0C948A000C948A00E3
:100040000C94100D0C948A000C94800D0C945A0D95
:100050000C948A000C948A000C948A000C948A00F8
:100060000C94D90D0C948A00000000002400270095
:100070002A0000000000250028002B0000000000DE
:1000800023002600290004040404040404040202DA
:100090000202020203030303030301020408102007
:1000A0004080010204081020010204081020000012
:1000B0000008000201000003040700000000000027
:1000C0000000F80E11241FBECFEFD8E0DEBFCDBF79
:1000D00026E0AEE2B3E001C01D92AF38B207E1F70F
:1000E00013E0A0E0B1E0EEEBF9E202C005900D9262
:1000F000AE32B107D9F710E0C2E6D0E004C02197D4
:10010000FE010E94F611C136D107C9F70E94760F91
:100110000C94DD140C9400006F927F928F929F924A
:10012000AF92BF92CF92DF92EF92FF920F931F9305
:10013000CF93DF933C01EB0121EB35E082E06816C1
:100140007104B1F04CF421E735E0B1E06B167104B5
:1001500079F021E335E00CC021EF35E0E3E06E16E5
:10016000710431F021E336E0F4E06F16710489F791
:100170008301000F111F095D1A4FF801A081B181A1
:10018000AA0FBB1FA20FB31FF301EE0FFF1FEE0F4D
:10019000FF1FED5EFA4FCD90DC9011970D2C000CF7
:1001A000EE08FF0880809180A280B3808C189D08A3
:1001B000AE08BF08CD93DC93D801ED90FC90A70169
:1001C000440F551F240F351FD9014D915C91052E09
:1001D000000C660B770BCB01BA01680D791D8A1DE7
:1001E0009B1D6083718382839383F301EE0FFF1F56
:1001F000EE5CFE4FC080D1809301220F331FE901D6
:10020000C75FDA4F96010D2C000C440B550B0E9472
:100210009A1139832883BFEFEB1AFB0AEC14FD0413
:1002200094F4F801F182E082DF91CF911F910F9158
:10023000FF90EF90DF90CF90BF90AF909F908F9006
:100240007F906F900895D8011D921C92EDCF7F9200
:100250008F929F92AF92BF92CF92DF92EF92FF92D6
:100260000F931F93CF93DF93C4E0D0E0C12CD12C28
:1002700076018EE4782E0BE31FE194EB892E9BE24E
:10028000992E91E1A92EB12C70927C00C8010197A2
:10029000F1F780917A00806480937A0080917A00EF
:1002A00086FDFCCF8091780020917900322F282F95
:1002B000032E000C440B550BC501B4010E949A118A
:1002C000032E000C440B550BC20ED31EE41EF51E6C
:1002D0002197D1F6C701B60124E030E040E050E0BC
:1002E0000E949A11263583E1380794F03093720604
:1002F00020937106DF91CF911F910F91FF90EF90A6
:10030000DF90CF90BF90AF909F908F907F90089597
:1003100088E893E19093720680937106EBCF833067
:1003200081F028F4813099F08230A9F00895873067
:10033000A9F08830C9F08430B1F4809180008F7DBD
:1003400003C0809180008F7780938000089584B5EA
:100350008F7784BD089584B58F7DFBCF8091B000E9
:100360008F778093B00008958091B0008F7DF9CF92
:10037000CF93DF93282F30E0F901E255FF4F8491AE
:10038000F901E656FF4FD491F901EA57FF4FC491A6
:10039000CC23A1F081110E948F01EC2FF0E0EE0F31
:1003A000FF1FE458FF4FA591B491EC91ED2381E03C
:1003B00090E009F480E0DF91CF91089580E090E033
:1003C000FACF1F93CF93DF93282F30E0F901E25546
:1003D000FF4F8491F901E656FF4FD491F901EA5796
:1003E000FF4FC491CC23A9F0162F81110E948F01D9
:1003F000EC2FF0E0EE0FFF1FEE58FF4FA591B491E8
:100400008FB7F894EC91111108C0D095DE23DC93DE
:100410008FBFDF91CF911F910895DE2BF8CFCF933F
:10042000DF9390E0FC01E656FF4F24918A579F4FDF
:10043000FC0184918823D1F090E0880F991FFC0182
:10044000E859FF4FA591B491FC01EE58FF4FC591BB
:10045000D49161110EC09FB7F8948C91E22FE09572
:100460008E238C932881E223E8839FBFDF91CF9175
:1004700008958FB7F894EC91E22BEC938FBFF6CFF1
:10048000FF920F931F93CF93DF93182FF62E042F15
:10049000E90161E00E940F026F2D812F0E94E101AE
:1004A000002399F0C230D10538F0CC0FDD1FCC0FFE
:1004B000DD1F25972197F1F760E0812FDF91CF9124
:1004C0001F910F91FF900C940F02DF91CF911F911C
:1004D0000F91FF900895E091D603F091D7033097E4
:1004E00029F01092DF031092DE0309940895CF9350
:1004F000DF93AC01E091D803F091D9033097F1F08C
:100500009091E1038091E0039817C0F090E0292FCB
:1005100030E02617370754F4D901AA5BBC4F240FEB
:10052000351FE90128812C939F5FF1CF1092E103E1
:100530006093E003CB01DF91CF910994DF91CF91DC
:100540000895AF92BF92CF92DF92EF92FF920F93F6
:100550001F93CF93DF936C017B018B01040F151F59
:10056000EB015E01AE18BF08C017D10759F06991C1
:10057000D601ED91FC910190F081E02DC601099525
:10058000892B79F7C501DF91CF911F910F91FF90D2
:10059000EF90DF90CF90BF90AF900895FC01538D06
:1005A000448D252F30E0842F90E0821B930B54174D
:1005B00010F0CF96089501970895FC01918D828DDA
:1005C000981761F0A28DAE0FBF2FB11D5D968C9173
:1005D000928D9F5F9F73928F90E008958FEF9FEFB2
:1005E0000895FC01918D828D981731F0828DE80F6E
:1005F000F11D858D90E008958FEF9FEF0895FC0128
:10060000918D228D892F90E0805C9F4F821B9109F4
:100610008F739927089584E094E00E94FF0221E0FF
:10062000892B09F420E0822F089580E090E0892B47
:1006300029F00E940B0381110C9400000895FC0125
:10064000A48DA80FB92FB11DA35ABF4F2C91848D33
:1006500090E001968F739927848FA689B7892C9390
:10066000A089B1898C91837080648C93938D848DE3
:10067000981306C00288F389E02D80818F7D8083E6
:100680000895EF92FF920F931F93CF93DF93EC01A6
:1006900081E0888F9B8D8C8D98131AC0E889F98929
:1006A000808185FF15C09FB7F894EE89FF8960832C
:1006B000E889F98980818370806480839FBF81E0AD
:1006C00090E0DF91CF911F910F91FF90EF900895EF
:1006D000F62E0B8D10E00F5F1F4F0F731127E02ECA
:1006E0008C8D8E110CC00FB607FCFACFE889F98902
:1006F000808185FFF5CFCE010E941F03F1CFEB8DE6
:10070000EC0FFD2FF11DE35AFF4FF0829FB7F894D5
:100710000B8FEA89FB8980818062CFCFCF93DF93F3
:10072000EC01888D8823B9F0AA89BB89E889F98909
:100730008C9185FD03C0808186FD0DC00FB607FC3E
:10074000F7CF8C9185FFF2CF808185FFEDCFCE0171
:100750000E941F03E9CFDF91CF9108950895209162
:100760008C03260F3327331F21323105ECF42091FF
:10077000B003FC0190E080E0243069F082E008954D
:10078000A0918C032191AC0144595C4FA40FB52F6B
:10079000B11D2C930196861798F380918C03680FF6
:1007A00060938C0380E0089581E008951092B00377
:1007B00081E08093B2031092B10361E082E10E9474
:1007C000E10161E083E10E94E101E9EBF0E0808179
:1007D0008E7F808380818D7F808388E48093B800C2
:1007E00085E48093BC0008950895E091E103809131
:1007F000E003E81730F4F0E0EA5BFC4F808190E022
:1008000008958FEF9FEF08959091E1038091E003A9
:100810002FEF3FEF981748F4E92FF0E0EA5BFC4F29
:10082000208130E09F5F9093E103C901089580919A
:10083000E0039091E103891B990B0895CF93DF9317
:10084000CB01EA01642F0E94AF03CE01DF91CF916B
:100850000895CF93DF931F92CDB7DEB7698361E030
:10086000CE0101960E94AF0381E090E00F90DF91EE
:10087000CF91089590E080E0089508954F925F929F
:100880006F927F928F929F92AF92BF92EF92FF9260
:100890000F931F93CF93DF938C01FC01EC53FE4F1A
:1008A000E080F180E456F140A081B18197010E947F
:1008B000B9119B01AC01A3E0B0E00E94D711812CDB
:1008C00024E0922EA12CB12CA50194010E949A1132
:1008D0002901F801E25AFF4FA081B18197010E94DE
:1008E000B9119B01AC01A3E0B0E00E94D711A501B2
:1008F00094010E949A11E201C20FD31FF801EE5930
:10090000FF4FA081B18197010E94B9119B01AC01F9
:10091000A3E0B0E00E94D711A50194010E949A11B2
:10092000C20FD31FF801EC59FF4FA081B18197018D
:100930000E94B9119B01AC01A3E0B0E00E94D71165
:10094000A50194010E949A11CE01820F931FDF919D
:10095000CF911F910F91FF90EF90BF90AF909F901C
:100960008F907F906F905F904F900895FC01EA52B6
:10097000FE4F2081318185529E4FFC01408187E0EE
:1009800090E00C944002FC01EC52FE4F208131813A
:1009900086529E4FFC01408183E090E00C9440021F
:1009A000FC01EE52FE4F2081318187529E4FFC01A7
:1009B000408188E090E00C944002FC01E053FE4F3F
:1009C0002081318188529E4FFC01408189E090E076
:1009D0000C94400220917A0090917A00987F946064
:1009E00090937A008E50806480937C0080917A008E
:1009F000806480937A0080917A0086FDFCCF80919C
:100A000078009091790020937A00089581E10E9406
:100A1000EA04BC0190E080E00E948C0080E10E942A
:100A2000EA04BC01725081E090E00E948C008FE0EB
:100A30000E94EA04BC01725082E090E00E948C00A7
:100A40008EE00E94EA04BC01725083E090E00E94B4
:100A50008C0085E10E94EA04BC01725084E090E0C1
:100A60000C948C00FB0101900020E9F73197AF0155
:100A7000461B570BDC01ED91FC910280F381E02DC8
:100A800009948F929F92AF92BF920F931F93CF932F
:100A9000DF93CDB7DEB7A1970FB6F894DEBF0FBED8
:100AA000CDBF19A2423008F44AE08E010F5D1F4FFE
:100AB000842E912CB12CA12CA50194010E947811B7
:100AC000E62FB901CA01EA3004F5E05DD801EE93E2
:100AD0008D01232B242B252B79F790E080E01097B4
:100AE00029F0BD0184E094E00E943205A1960FB682
:100AF000F894DEBF0FBECDBFDF91CF911F910F9154
:100B0000BF90AF909F908F900895E95CDFCFCF9218
:100B1000DF92EF92FF92CF93DF936C01990FEE0873
:100B2000FF08F7FE19C06DE284E094E00E944103E3
:100B3000EC0166277727CB016C197D098E099F0987
:100B40004AE00E9441058C0F9D1FDF91CF91FF90DD
:100B5000EF90DF90CF9008954AE0C701B601DF9192
:100B6000CF91FF90EF90DF90CF900C944105BC01A6
:100B700084E094E00C943205CF93DF93672B81F4EB
:100B8000EC01BC01645C7F4F21F084E094E00E94A2
:100B9000320566E671E084E094E00E9432051CAE06
:100BA000DF91CF91089569EF74E081EA94E00E94AB
:100BB00032051092F9040895CF93DF9385ED809369
:100BC000BC008091680390916903A0916A03B09181
:100BD0006B030796A11DB11D23E0B695A7959795C8
:100BE00087952A95D1F72091BC0024FD03C010926F
:100BF000B00336C0409168035091690360916A0365
:100C000070916B03452B462B472B69F30097A10589
:100C1000B10541F02AE22A95F1F700C00197A10938
:100C2000B109E1CF8091670391E090936603882337
:100C3000B9F0C091B800D091BA008091BC008A7B15
:100C40008093BC0060E082E10E94E10160E083E10A
:100C50000E94E1010E94D603D093BA00C093B8006D
:100C6000DF91CF9108958F929F92AF92BF92CF92D2
:100C7000DF92EF92FF920F931F93CF93DF93EC01DC
:100C80007B016A01890169E671E0C7010E94FC11DC
:100C9000892B09F041C0DE01A45ABF4FFE01EC537D
:100CA000FE4F2D913C91A081B1810E94B9119B0111
:100CB000AC01ADE0B0E00E94D71120E034E040E0AC
:100CC00050E00E949A113F932F938DE691E09F93FD
:100CD0008F93C80124E0880F991F2A95E1F7CC96DD
:100CE0008C0F9D1F9F938F930E9405120F900F9062
:100CF0000F900F900F900F90B801CE01DF91CF9120
:100D00001F910F91FF90EF90DF90CF90BF90AF9029
:100D10009F908F900C94BC0564E771E0C7010E941E
:100D2000FC11892BE9F4DE01A25ABF4FFE01EC53FE
:100D3000FE4F2D913C91A081B1810E94B9119B0180
:100D4000AC01A3E0B0E00E94D71120E034E040E025
:100D500050E00E949A113F932F9388E791E0B7CF1C
:100D60006FE771E0C7010E94FC11892BE9F4DE01F5
:100D7000A05ABF4FFE01EC53FE4F2D913C91A08134
:100D8000B1810E94B9119B01AC01A3E0B0E00E94C7
:100D9000D71120E034E040E050E00E949A113F93E8
:100DA0002F9383E891E093CF6AE871E0C7010E9436
:100DB000FC11892BE9F4DE01AE59BF4FFE01EC5363
:100DC000FE4F2D913C91A081B1810E94B9119B01F0
:100DD000AC01A3E0B0E00E94D71120E034E040E095
:100DE00050E00E949A113F932F938EE891E06FCFCD
:100DF00065E971E0C7010E94FC11892BE9F4DE016D
:100E0000AC59BF4FFE01EC53FE4F2D913C91A08198
:100E1000B1810E94B9119B01AC01A3E0B0E00E9436
:100E2000D71120E034E040E050E00E949A113F9357
:100E30002F9389E991E04BCF60EA71E0C7010E94EE
:100E4000FC11892B41F4CE010E943E049F938F93A5
:100E500084EA91E03CCF6BEA71E0C7010E94FC118B
:100E6000892B51F4FE01EC53FE4F81818F938081D9
:100E70008F9380EB91E02BCF68EB71E0C7010E946C
:100E8000FC11892B41F489E00E94B8019F938F9354
:100E90008DEB91E01CCF65EC71E0C7010E94FC1165
:100EA000892B41F488E00E94B8019F938F938AECCC
:100EB00091E00DCF62ED71E0C7010E94FC11892B1A
:100EC00041F483E00E94B8019F938F9387ED91E0F6
:100ED000FECE6FED71E0C7010E94FC11892B41F439
:100EE00087E00E94B8019F938F9384EE91E0EFCE4C
:100EF0006CEE71E0C7010E94FC11892B79F4C601E8
:100F00000E940211BC01CE010E94DD0489E00E9412
:100F1000B8019F938F9381EF91E0D9CE6AEF71E092
:100F2000C7010E94FC11892B79F4C6010E940211AD
:100F3000BC01CE010E94D00488E00E94B8019F93BA
:100F40008F938FEF91E0C3CE68E072E0C7010E94FB
:100F5000FC11892B79F4C6010E940211BC01CE015B
:100F60000E94C30483E00E94B8019F938F938DE099
:100F700092E0ADCE66E172E0C7010E94FC11892BC0
:100F800079F4C6010E940211BC01CE010E94B60490
:100F900087E00E94B8019F938F938BE192E097CEF8
:100FA00064E272E0C7010E94FC11892B19F5C601A9
:100FB0000E9402117C016E018AE3C81A8EEFD80AE2
:100FC000B7010F2C000C880B990BF7E0660F771F09
:100FD000881F991FFA95D1F723E537E040E050E0EC
:100FE0000E949A11D6012D933C93FF92EF9289E2D1
:100FF00092E06DCE62E372E0C7010E94FC11892B82
:1010000011F5C6010E9402117C016E01B8E3CB1AF2
:10101000BEEFDB0ABC01990F880B990BE7E0660F66
:10102000771F881F991FEA95D1F723E537E040E045
:1010300050E00E949A11F60131832083FF92EF92D3
:1010400087E392E044CE60E472E0C7010E94FC11A5
:10105000892B11F5C6010E9402117C016E01F6E395
:10106000CF1AFEEFDF0ABC01990F880B990B57E0EE
:10107000660F771F881F991F5A95D1F723E537E030
:1010800040E050E00E949A11D6012D933C93FF92CC
:10109000EF9285E492E01BCE6EE472E0C7010E94FD
:1010A000FC11892B11F5C6010E9402117C016E0111
:1010B000B4E3CB1ABEEFDB0ABC01990F880B990B86
:1010C00047E0660F771F881F991F4A95D1F723E5E0
:1010D00037E040E050E00E949A11F601318320830E
:1010E000FF92EF9283E592E0F2CD6CE572E0C701EA
:1010F0000E94FC11892BB9F04E01F2E08F0E911C79
:10110000B12CA12C8E899F89A816B9067CF5D40133
:10111000ED91FD914D01A801B601C7010995BFEF01
:10112000AB1ABB0AEFCFC6010E9402117C016E010F
:1011300082E3C81A8EEFD80AB7010F2C000C880B77
:10114000990B37E0660F771F881F991F3A95D1F7E3
:1011500023E537E040E050E00E949A11D6012D933C
:101160003C93FF92EF9281E692E0B1CDDF91CF9177
:101170001F910F91FF90EF90DF90CF90BF90AF90B5
:101180009F908F9008950F931F93CF93DF938B01C0
:1011900065EC72E00E942011EC0167E671E090E0DE
:1011A00080E00E9420119801AC01BE018DEA94E01C
:1011B000DF91CF911F910F910C9433068F929F92E4
:1011C000AF92BF92CF92DF92EF92FF920F931F9355
:1011D000CF93DF9384E094E00E94FF02EC01892B1F
:1011E00039F184E094E00E94DD022091D504309131
:1011F000D604F901E355FB4F808F2F5F3F4F3093AB
:10120000D6042093D5048A3019F02F30310511F718
:1012100023553B4FD90158961C921092D604109238
:10122000D50470E060E085EC94E00E94C308D2CF62
:1012300020910B0530910C058091730690917406F6
:101240008217930734F470E060E08DEA94E00E9426
:10125000DD0420910D0530910E0580917506909169
:1012600076068217930734F470E060E08DEA94E02C
:101270000E94D00420910F053091100580917706CF
:10128000909178068217930734F470E060E08DEA5D
:1012900094E00E94C30420911105309112058091C1
:1012A000790690917A068217930734F470E060E033
:1012B0008DEA94E00E94B60480910B0590910C0594
:1012C00020910D0530910E05820F931F20910F057F
:1012D00030911005820F931F209111053091120556
:1012E000820F931F20917B0630917C0628173907C7
:1012F000C4F470E060E08DEA94E00E94DD0470E0E8
:1013000060E08DEA94E00E94D00470E060E08DEA35
:1013100094E00E94C30470E060E08DEA94E00E94D3
:10132000B6040091090510910A05C0900B05D090F4
:101330000C0580910D0590910E05C80ED91E809167
:101340000F0590911005C80ED91E8091110590913E
:101350001205C80ED91E8091420390914303C81A0A
:10136000D90A0D2C000CEE08FF08609189067091D7
:101370008A0680918B0690918C06A70196010E94A7
:10138000541120E034E040E050E00E949A11200F18
:10139000311F8091E7039091E803821793070CF0C7
:1013A0003FC08091F7039091F803281739070CF09C
:1013B000A4C0E9EEF3E0819191918217930724F4A0
:1013C0002196C830D105B9F7CC0FDD1FFE01E951D8
:1013D000FC4F40815181CE010296FC01E951FC4F46
:1013E00060817181C25FDE4F0990D881C02D825F1C
:1013F0009E4FDC01ED91FC914617570789F0EC1BDD
:10140000FD0B241B350BE29FC001E39F900DF29F63
:10141000900D1124641B750B0E946411C60FD71F19
:10142000D0934503C09344038091F9039091FA034C
:101430000817190710F02A97D4F589E00E94B8011F
:10144000892B09F45DC061E089E00E940F0261E030
:1014500088E00E940F0261E083E00E940F0261E0D9
:1014600087E00E940F0260E089E00E94E10160E0F5
:1014700088E00E94E10160E083E00E94E10160E019
:1014800087E00E94E1018BE39CE90197F1F760E0BE
:1014900089E00E940F0260E088E00E940F0260E095
:1014A00083E00E940F0260E087E00E940F028091BB
:1014B0003E0390913F03A0914003B09141030196F8
:1014C000A11DB11D893EE3E09E07A105B1055CF5B4
:1014D00080933E0390933F03A0934003B093410356
:1014E000DF91CF911F910F91FF90EF90DF90CF9000
:1014F000BF90AF909F908F900895C4E6D0E090CFBA
:1015000088E00E94B801892B09F09DCF83E00E94FA
:10151000B801892B09F097CF87E00E94B801892B89
:1015200009F091CFC4CF10923E0310923F03109266
:101530004003109241030E94270180911105909170
:101540001205EEE2F3E02CE333E0812C912C540100
:101550004281538141935193052E000C660B770B0A
:10156000840E951EA61EB71E2E173F0789F790936F
:101570003D0380933C0380912E0390912F03092E0D
:10158000000CAA0BBB0BBC01CD01680D791D8A1D97
:101590009B1D8090E5039090E603092C000CAA089F
:1015A000BB0828E030E040E050E00E949A1182162B
:1015B0009306A406B50634F470E060E08DEA94E08A
:1015C0000E94B6048AE692E00E94B70589E00E9474
:1015D000B8010E94870588E00E94B8010E94870533
:1015E00083E00E94B8010E94870587E00E94B8014D
:1015F0000E94870582E792E00E94B70580917106FC
:10160000909172060E94870589E792E00E94B705D3
:101610002091090530910A05A0917106B0917206DA
:101620000E94B9119B01AC01ADE0B0E00E94D7115E
:10163000812C24E0922EA12CB12CA50194010E94B2
:101640009A11CA01B901882799274AE00E944105E9
:1016500083E892E00E94B70580914403909145038E
:101660000E9487058CE892E00E94B70520910B0547
:1016700030910C05A0917106B09172060E94B911CB
:101680009B01AC01A3E0B0E00E94D711A501940139
:101690000E949A11C9010E94870583E992E00E9485
:1016A000B70520910D0530910E05A0917106B091FE
:1016B00072060E94B9119B01AC01A3E0B0E00E9448
:1016C000D711A50194010E949A11C9010E948705B2
:1016D0008BE992E00E94B70520910F05309110052B
:1016E000A0917106B09172060E94B9119B01AC01E4
:1016F000A3E0B0E00E94D711A50194010E949A11C5
:10170000C9010E94870583EA92E00E94B7052091F3
:10171000110530911205A0917106B09172060E94D8
:10172000B9119B01AC01A3E0B0E00E94D711A50163
:1017300094010E949A11C9010E9487058BEA92E0E8
:101740000E94B7058DEA94E00E943E040E9487053E
:1017500085EB92E00E94B705C8010E9487058FEBD8
:1017600092E00E94B7056091890670918A06809187
:101770008B0690918C06A70196010E945411A50139
:1017800094010E949A11C9010E94870566E671E0E2
:1017900084E094E0DF91CF911F910F91FF90EF9043
:1017A000DF90CF90BF90AF909F908F900C943205B8
:1017B0000F931F93CF93DF938C01CDEAD4E0CE013A
:1017C0008D5A94408017910744F481EA94E00E9476
:1017D00004048AA71BA62196F2CFEDEAF4E0CF011C
:1017E0008D5A94408017910724F483A582A73196DF
:1017F000F6CF61E070E087ED94E0DF91CF911F912B
:101800000F910C94C308EF92FF920F931F93CF9305
:10181000DF937C01EB018A0167EC72E00E94FC110E
:10182000892B39F5809145038F93809144038F93E1
:101830008CEC92E09F938F93C80124E0880F991F4E
:101840002A95E1F787519B4F9F938F930E94051232
:101850000F900F900F900F900F900F90B8018DEA9E
:1018600094E0DF91CF911F910F91FF90EF900C9436
:10187000BC0564ED72E0C7010E94FC11892BE9F4FC
:10188000CE010E94021125E531E0DC010E94D01159
:101890002091710630917206032E000C440B550BFB
:1018A0000E949A113093430320934203DF91CF911A
:1018B0001F910F91FF90EF9008956AED72E0C701BC
:1018C0000E94FC11892B39F48EED92E09F938F9347
:1018D0008FEE92E0AFCFCE010E940211EC0166EFD5
:1018E00072E0C7010E94FC11892B09F5C130D105B6
:1018F00089F489E00E94B801892B61F491E080E0CD
:101900002091440330914503293131050CF490E0D6
:10191000C92FD82FBE018DEA94E00E94DD0489E032
:101920000E94B8019F938F938BEF92E083CF64E086
:1019300073E0C7010E94FC11892B09F5C130D10564
:1019400089F488E00E94B801892B61F491E080E07D
:101950002091440330914503293131050CF490E086
:10196000C92FD82FBE018DEA94E00E94D00488E0F0
:101970000E94B8019F938F9389E093E05BCF62E16F
:1019800073E0C7010E94FC11892B09F5C130D10514
:1019900089F483E00E94B801892B61F491E080E032
:1019A0002091440330914503293131050CF490E036
:1019B000C92FD82FBE018DEA94E00E94C30483E0B2
:1019C0000E94B8019F938F9387E193E033CF60E249
:1019D00073E0C7010E94FC11892B09F03FCFC13091
:1019E000D10589F487E00E94B801892B61F491E068
:1019F00080E02091440330914503293131050CF4F6
:101A000090E0C92FD82FBE018DEA94E00E94B60461
:101A100087E00E94B8019F938F9385E293E00ACFFD
:101A20001F920F920FB60F9211242F933F938F9313
:101A30009F93AF93BF938091000490910104A09174
:101A40000204B09103043091FF0323E0230F2D37EC
:101A500058F50196A11DB11D2093FF03809300044A
:101A600090930104A0930204B09303048091FB03BC
:101A70009091FC03A091FD03B091FE030196A11D7E
:101A8000B11D8093FB039093FC03A093FD03B093DF
:101A9000FE03BF91AF919F918F913F912F910F9036
:101AA0000FBE0F901F90189526E8230F0296A11DD8
:101AB000B11DD2CF1F920F920FB60F9211242F9308
:101AC0003F934F935F936F937F938F939F93AF93C6
:101AD000BF93EF93FF9384E094E00E941F03FF9174
:101AE000EF91BF91AF919F918F917F916F915F9196
:101AF0004F913F912F910F900FBE0F901F9018950F
:101B00001F920F920FB60F9211242F938F939F93D2
:101B1000EF93FF93E0911404F09115048081E0911C
:101B20001A04F0911B0482FD1BC0908180911D045A
:101B30008F5F8F7320911E04821741F0E0911D0486
:101B4000F0E0EC5FFB4F958F80931D04FF91EF91C8
:101B50009F918F912F910F900FBE0F901F9018950E
:101B60008081F4CF1F920F920FB60F9211242F9302
:101B70003F934F935F936F937F938F939F93AF9315
:101B8000BF93EF93FF93E0910001F091010109955C
:101B9000FF91EF91BF91AF919F918F917F916F9145
:101BA0005F914F913F912F910F900FBE0F901F901B
:101BB00018951F920F920FB60F9211242F933F93F7
:101BC0004F935F936F937F938F939F93AF93BF9345
:101BD000EF93FF938091B900887F803609F44AC063
:101BE000F0F5883209F4A7C018F5803109F49BC0DC
:101BF000B8F4882309F4F9C0883009F494C0FF913F
:101C0000EF91BF91AF919F918F917F916F915F9174
:101C10004F913F912F910F900FBE0F901F901895ED
:101C2000883109F488C0803251F78093AF0314C023
:101C3000803409F49DC040F48033B9F38833F9F659
:101C40008093AF0385ECB0C0803509F485C088353A
:101C500009F496C0883499F60E94DC05D0CF883903
:101C600009F48CC038F5883729F050F4883611F023
:101C7000803729F683E08093B0031092AE0357C0FB
:101C8000883809F47BC0803919F0803809F0B7CF63
:101C90008091AE03803208F071C0E091AE0381E024
:101CA0008E0F8093AE038091BB00F0E0E257FC4FB3
:101CB00080833DC0803B39F0E0F4803A09F479C07C
:101CC000883A09F09CCF84E08093B00310928D0392
:101CD00010928C03E091DC03F091DD030995809173
:101CE0008C0381110FC081E080938C0310926C03F0
:101CF00009C0803C09F4A6CF883C09F4A3CF883BF7
:101D000009F07DCFE0918D0381E08E0F80938D03EC
:101D1000F0E0E459FC4F80818093BB0090918D03EB
:101D200080918C0329C08091D5038093BB0085EC02
:101D30008093BC0064CF9091D4038091D303981713
:101D400058F5E091D40381E08E0F8093D403F0E046
:101D5000ED54FC4F8081E9CFE091D40381E08E0FF8
:101D60008093D4038091BB00F0E0ED54FC4F80835E
:101D70009091D4038091D3039817C8F285E8D8CF07
:101D8000E091D40381E08E0F8093D4038091BB0057
:101D9000F0E0ED54FC4F80838091B20381115CCF61
:101DA00081E08093B10384EA8093BC001092B00379
:101DB00026CF85EC8093BC001092B0038091AE03D7
:101DC000803230F4E091AE03F0E0E257FC4F108235
:101DD0006091AE0370E0E091DA03F091DB038EE8EE
:101DE00093E009951092AE030ACF1092AF0334CF5F
:101DF000E4E0F4E01382128288EE93E0A0E0B0E029
:101E000084839583A683B78320E431E031832083E4
:101E100025EC30E03587248724EC30E037872687AF
:101E200020EC30E0318B208B21EC30E0338B228BA7
:101E300022EC30E0358B248B26EC30E0378B268B80
:101E4000118E128E138E148EE1EAF4E01382128248
:101E500084839583A683B78382E591E09183808311
:101E6000EDEAF4E0178A168A11A610A613AE12AE98
:101E700084E691E0918380838CEB91E090937406EB
:101E800080937306909376068093750690937806F8
:101E90008093770690937A068093790680EF96E098
:101EA00090937C0680937B0688E0E2E0F1E0ADE76A
:101EB000B6E001900D928A95E1F780910A01909128
:101EC0000B01A0910C01B0910D01809385069093B8
:101ED0008606A0938706B093880610928906109212
:101EE0008A0610928B0610928C060895789484B519
:101EF000826084BD84B5816084BD85B5826085BD06
:101F000085B5816085BD80916E00816080936E0093
:101F10001092810080918100826080938100809185
:101F20008100816080938100809180008160809336
:101F300080008091B10084608093B1008091B000F6
:101F400081608093B00080917A00846080937A00F1
:101F500080917A00826080937A0080917A0081601B
:101F600080937A0080917A00806880937A00109242
:101F7000C10061E082E00E940F0261E084E00E9403
:101F80000F0260E089E00E940F0260E088E00E949A
:101F90000F0260E083E00E940F0260E087E00E9491
:101FA0000F0260E081E10E940F0260E080E10E9488
:101FB0000F0260E08FE00E940F0260E08EE00E945E
:101FC0000F0260E085E10E940F020E942701C0E23B
:101FD000D0E00E9406052197E1F789E991E090930E
:101FE000740680937306909376068093750690939B
:101FF0007806809377068AEA92E090937A06809337
:10200000790680E094E090937C0680937B06809133
:10201000C3049091C4048A30910574F40196FC01C4
:10202000EE0FFF1FE355FB4F23E03CE0318320839D
:102030009093C4048093C304E0911404F0911504B8
:1020400082E08083E0911004F09111041082E0910D
:102050001204F091130483E3808310921C04E09136
:102060001804F091190486E08083E0911604F09141
:102070001704808180618083E0911604F091170439
:10208000808188608083E0911604F091170480813C
:1020900080688083E0911604F091170480818F7D21
:1020A00080831092E1031092E0031092DF031092FC
:1020B000DE030E94D6038BE692E09093DD038093CB
:1020C000DC0387E792E09093DB038093DA0380E1FF
:1020D0008093BA0088ED9BE09093D9038093D80356
:1020E00083ED95E09093D7038093D603C09071065B
:1020F000D09072060D2C000CEE08FF0860E175E828
:102100008AE190E0A70196010E949A113093FA03A8
:102110002093F9038AE190E0A0E0B0E08093890683
:1021200090938A06A0938B06B0938C06C0E2D1E010
:1021300007EE13E029913991AFE4B0E00E94C1119C
:10214000A70196010E949A11F801219331938F0102
:10215000F1E0C233DF0771F788EC90E090937E06E0
:1021600080937D06909384068093830688EE93E0A7
:102170009093800680937F069093820680938106D9
:102180001092880661E087E00E940F02209171069C
:1021900030917206032E000C440B550B68E274E07C
:1021A0008AE190E00E949A113093E6032093E503C0
:1021B00080E1809381001092800081E08093E403AD
:1021C00020E43FE13093E3032093E2033093870060
:1021D0002093860091E1909381002EED38E03093BA
:1021E00001012093000180936F00C0E0D0E00E94C5
:1021F00006052097E1F30E940B038823C1F30E9498
:102200000000F5CFFC0188279927E894219120321E
:10221000E9F3293010F02E30C8F32B3241F02D3283
:1022200039F4689404C00E944C11820F911D2191D1
:1022300020532A30C0F31EF4909581959F4F089546
:102240004DE856E00E9425110895FA01A191B08150
:10225000009719F41097E1F0CD01DC01CD010D904C
:10226000002011F4C00113C0FB012191222319F0B9
:102270002015D9F7F3CFFB012191201519F41E92F7
:10228000119606C02223C1F70D900020A1F7D001BE
:10229000FA01A193B08308957AE0979F902D879FCC
:1022A000802D910D11240895DB018F939F930E943F
:1022B000D711BF91AF91A29F800D911DA39F900D4B
:1022C000B29F900D1124089597FB072E16F40094E9
:1022D00007D077FD09D00E94E21107FC05D03EF43B
:1022E000909581959F4F0895709561957F4F0895C2
:1022F000A1E21A2EAA1BBB1BFD010DC0AA1FBB1F0A
:10230000EE1FFF1FA217B307E407F50720F0A21B7B
:10231000B30BE40BF50B661F771F881F991F1A94E8
:1023200069F760957095809590959B01AC01BD0112
:10233000CF010895052E97FB1EF400940E94B11161
:1023400057FD07D00E94781107FC03D04EF40C947F
:10235000B11150954095309521953F4F4F4F5F4FAC
:10236000089590958095709561957F4F8F4F9F4F01
:1023700008950E94C111332312F48A1B9B0B0C9405
:10238000D211A29FB001B39FC001A39F700D811D08
:102390001124911DB29F700D811D1124911D08956E
:1023A0000E94C111B7FF0895821B930B08950E94EC
:1023B000C111A59F900DB49F900DA49F800D911DFC
:1023C00011240895AA1BBB1B51E107C0AA1FBB1F04
:1023D000A617B70710F0A61BB70B881F991F5A95B1
:1023E000A9F780959095BC01CD010895EE0FFF1FD0
:1023F0000590F491E02D0994FB01DC018D91019091
:1024000080190110D9F3990B0895AEE0B0E0EBE02C
:10241000F2E10C94B4140D891E8986E08C831A8332
:1024200009838FEF9FE79E838D83AE01475E5F4FE9
:102430006F89788DCE0101960E9428122F813885F0
:10244000020F131FF80110822E96E4E00C94D014B2
:10245000ABE0B0E0EEE2F2E10C94A6147C013B01AB
:102460008A01FC0117821682838181FFC8C1CE01D7
:1024700001965C01F7019381F30193FD859193FF30
:1024800081913F01882309F453C1853239F493FDCA
:10249000859193FF81913F01853229F4B70190E046
:1024A0000E941814E7CF912C212C312CFFE1F31559
:1024B00038F08B3211F190F4803209F1833229F136
:1024C00037FC3CC020ED280F2A3050F536FE20C0E6
:1024D0008AE0989E200D1124922E06C08D3291F034
:1024E000803371F7689430F8F30193FD859193FF81
:1024F00081913F018111DACF21C0689431F868944D
:1025000032F8F2CF689433F8EFCF689434F8ECCF18
:10251000EAE02E9E200D1124222E689435F8E4CF97
:102520008E3229F436FC04C1689436F8DDCF8C363F
:1025300019F4689437F8D8CF8836B1F2982F9F7D78
:1025400095549330E0F08336A1F18337C1F18335A0
:1025500009F063C02801F2E04F0E511CF801C08061
:10256000D180692D70E036FC02C06FEF7FEFC601AD
:102570000E9402144C01689437F882010AC00C5F73
:102580001F4FFFE3F98388248394912C6501E8941D
:1025900037F833FE2DC0522C8114910471F555206B
:1025A00009F468CFB70180E290E00E9418145A94B1
:1025B000F6CFF801808189830E5F1F4FE4CF280199
:1025C000F2E04F0E511CF801C080D180692D70E0FF
:1025D00036FC02C06FEF7FEFC6010E940D144C0164
:1025E0008201D5CFB70180E290E00E9418142A94AE
:1025F0002814190409F0B0F7CECFF60137FC859105
:1026000037FE81916F01B70190E00E9418145110BC
:102610005A94F1E08F1A9108BFCF843619F08936A9
:1026200009F077C0F80137FE6BC06081718182814B
:1026300093810C5F1F4FF32DFF763F2E97FF09C04C
:1026400090958095709561957F4F8F4F9F4F6894BF
:1026500037F82AE030E0A5010E944814C82ECA18B5
:102660008C2C432C36FE0CC0E89440F8C91440F47E
:1026700034FE05C032FC03C0F32DFE7E4F2E892CA4
:1026800044FE95C0FE01EC0DF11D8081803309F000
:1026900087C0242D297E422E842D8870582E43FC1D
:1026A00095C040FE8FC09C2C821418F42C0C922CE8
:1026B000981844FE91C0B70180E390E00E9418147E
:1026C00042FE09C088E790E041FE02C088E590E044
:1026D000B7010E941814C91408F48AC0CA94D12CF6
:1026E0009FEFC91AD90ACA0CDB1CF60182916F014F
:1026F000B70190E00E941814AC14BD04B1F74FCF9D
:1027000060817181072E000C880B990B0E5F1F4FA3
:1027100092CFD32CE894D4F82AE030E0853739F111
:10272000232D297FD22E8F3601F148F48835A9F068
:10273000F701868197812B96E2E10C94C2148037D1
:1027400049F08837A9F7D4FE02C06894D2F820E196
:1027500030E00DC06894D4F8F6CF34FE03C0822F69
:102760008660D82E20E132E002C028E030E0F80197
:10277000D7FE0FC060817181828193810C5F1F4FF2
:10278000A5010E944814C82ECA183D2CE89437F8B9
:1027900067CF6081718190E080E00E5F1F4FF0CFC6
:1027A00042FC02C0839478CF8394839475CF842DA8
:1027B000867809F471CFF6CFB70180E290E00E94ED
:1027C000181483948214C0F3512C73CF522C5818D0
:1027D000821408F46ECFF8CF842D867809F47BCF6D
:1027E0008BE241FE80E247FC8DE2B70190E071CFC1
:1027F000B70180E390E00E9418149A946CCF8FEF99
:102800009FEF99CFFC010590615070400110D8F7FF
:10281000809590958E0F9F1F0895FC016150704028
:1028200001900110D8F7809590958E0F9F1F089505
:102830000F931F93CF93DF93182F092FEB018B81F9
:1028400081FD09C01FEF0FEF812F902FDF91CF91F6
:102850001F910F91089582FF14C02E813F818C81BA
:102860009D81281739073CF4E881F981CF01019651
:102870009983888310838E819F8101969F838E83A5
:10288000E3CFE885F985812F0995892BA1F3DACF6C
:10289000FA01AA27283051F1203181F1E8946F9391
:1028A0006E7F6E5F7F4F8F4F9F4FAF4FB1E03ED037
:1028B000B4E03CD0670F781F891F9A1FA11D680FD5
:1028C000791F8A1F911DA11D6A0F711D811D911D08
:1028D000A11D20D009F468943F912AE0269F11247D
:1028E0003019305D3193DEF6CF010895462F4770E1
:1028F000405D4193B3E00FD0C9F7F6CF462F4F703C
:10290000405D4A3318F0495D31FD4052419302D099
:10291000A9F7EACFB4E0A69597958795779567953F
:10292000BA95C9F700976105710508959B01AC013F
:102930000A2E06945795479537952795BA95C9F766
:10294000620F731F841F951FA01D08952F923F9241
:102950004F925F926F927F928F929F92AF92BF92AF
:10296000CF92DF92EF92FF920F931F93CF93DF935B
:10297000CDB7DEB7CA1BDB0B0FB6F894DEBF0FBEB8
:10298000CDBF09942A88398848885F846E847D8405
:102990008C849B84AA84B984C884DF80EE80FD8007
:1029A0000C811B81AA81B981CE0FD11D0FB6F8947D
:1029B000DEBF0FBECDBFED010895F894FFCFAE038B
:1029C000320032003200320001010101000001003A
:1029D000030005000800330056005F006400D8546F
:1029E000DB59305E006142630A672767DB67616914
:1029F00020002000200020002000000000004103F3
:102A0000A102CE028E03FF02DD02F10200000000EF
:102A100029041E043A04F40317040404F503000017
:102A2000000033060D0A00525642005756423A251E
:102A30007500524931005749313A256400524932F4
:102A4000005749323A256400524933005749333A16
:102A5000256400524934005749343A2564005249EC
:102A600054005749543A2564005256434300575680
:102A700043433A2564005243483100574348313AB2
:102A80002564005243483200574348323A256400D7
:102A90005243483300574348333A25640052434871
:102AA0003400574348343A256400574348310057AF
:102AB0004348313A3D256400574348320057434864
:102AC000323A3D2564005743483300574348333A70
:102AD0003D2564005743483400574348343A3D2568
:102AE000640057494C310057494C313A3D25640048
:102AF00057494C320057494C323A3D2564005749FA
:102B00004C330057494C333A3D25640057494C3407
:102B10000057494C343A3D25640057494C540057FE
:102B2000494C543A3D25640053746174653A200061
:102B30002C205643433D006D562C20564275733D64
:102B4000006D562C20736F633D00252C2049313DCC
:102B5000006D412C2049323D006D412C2049333D10
:102B6000006D412C2049343D006D412C2049546FAB
:102B7000743D006D412C20766261743A002C207601
:102B80006472703A0052534F430057534F433A25F3
:102B90006400574942494E0052464E0042617474E7
:102BA00065727950616E656C2E696E6F0057464E86
:102BB0003A2573005743503100574350313A3D2571
:102BC00064005743503200574350323A3D25640069
:102BD0005743503300574350333A3D256400574321
:0C2BE000503400574350343A3D25640047
:107E0000112484B714BE81FFF0D085E080938100F7
:107E100082E08093C00088E18093C10086E0809377
:107E2000C20080E18093C4008EE0C9D0259A86E02C
:107E300020E33CEF91E0309385002093840096BBD3
:107E4000B09BFECF1D9AA8958150A9F7CC24DD24C4
:107E500088248394B5E0AB2EA1E19A2EF3E0BF2EE7
:107E6000A2D0813461F49FD0082FAFD0023811F036
:107E7000013811F484E001C083E08DD089C08234E0
:107E800011F484E103C0853419F485E0A6D080C0E4
:107E9000853579F488D0E82EFF2485D0082F10E0AE
:107EA000102F00270E291F29000F111F8ED06801E7
:107EB0006FC0863521F484E090D080E0DECF843638
:107EC00009F040C070D06FD0082F6DD080E0C81688
:107ED00080E7D80618F4F601B7BEE895C0E0D1E017
:107EE00062D089930C17E1F7F0E0CF16F0E7DF06D8
:107EF00018F0F601B7BEE89568D007B600FCFDCFD4
:107F0000A601A0E0B1E02C9130E011968C91119780
:107F100090E0982F8827822B932B1296FA010C0160
:107F200087BEE89511244E5F5F4FF1E0A038BF0790
:107F300051F7F601A7BEE89507B600FCFDCF97BE46
:107F4000E89526C08437B1F42ED02DD0F82E2BD052
:107F50003CD0F601EF2C8F010F5F1F4F84911BD097
:107F6000EA94F801C1F70894C11CD11CFA94CF0C13
:107F7000D11C0EC0853739F428D08EE10CD085E9AC
:107F80000AD08FE07ACF813511F488E018D01DD067
:107F900080E101D065CF982F8091C00085FFFCCF94
:107FA0009093C60008958091C00087FFFCCF809118
:107FB000C00084FD01C0A8958091C6000895E0E648
:107FC000F0E098E1908380830895EDDF803219F02E
:107FD00088E0F5DFFFCF84E1DECF1F93182FE3DFCA
:107FE0001150E9F7F2DF1F91089580E0E8DFEE27F6
:047FF000FF270994CA
:027FFE00040479
:00000001FF
