:020000040000FA
:100000000C9462000C948A000C948A000C948A0070
:100010000C948A000C948A000C948A000C948A0038
:100020000C948A000C948A000C948A000C948A0028
:100030000C948A000C9483120C948A000C948A000D
:100040000C94E1110C948A000C9451120C942B1214
:100050000C948A000C948A000C948A000C948A00F8
:100060000C94AA120C948A000000000023002600C1
:10007000290000000000240027002A0000000000E2
:10008000250028002B0004040404040404040202D4
:100090000202020203030303030301020408102007
:1000A0004080010204081020010204081020000012
:1000B0000008000201000003040700000000000027
:1000C0000000C91311241FBECFEFD8E0DEBFCDBFA3
:1000D00026E0AAE8B3E001C01D92AF33B207E1F712
:1000E00013E0A0E0B1E0EEEDF4E302C005900D9264
:1000F000AA38B107D9F710E0C2E6D0E004C02197D2
:10010000FE010E947F17C136D107C9F70E9458141B
:100110000C946D1A0C9400008F929F92AF92BF9234
:10012000CF92DF92EF92FF920F931F93CF93DF93C3
:10013000EB012FEC35E083309105C1F06CF427EA38
:1001400035E08130910591F02FEA35E0823091055C
:1001500069F02FE935E00AC02FEE35E084309105D3
:1001600029F027EF35E08530910599F78C01000FD4
:10017000111F0D561A4FF801A081B181AA0FBB1FA4
:10018000A20FB31FFC01EE0FFF1FEE0FFF1FE5587C
:10019000FA4FCD90DC9011970D2C000CEE08FF0863
:1001A00080809180A280B3808C189D08AE08BF0823
:1001B000CD93DC93D801ED90FC90A701440F551F1F
:1001C000240F351FD9014D915C91052E000C660B53
:1001D000770B840E951EA61EB71E80829182A28286
:1001E000B382FC01EE0FFF1FEC5BFE4FC080D1809D
:1001F000880F991FEC01C159DA4F96010D2C000CA4
:10020000440B550BC501B4010E942F173983288375
:10021000BFEFEB1AFB0AEC14FD0484F4F801F18241
:10022000E082DF91CF911F910F91FF90EF90DF90CF
:10023000CF90BF90AF909F908F900895D8011D925E
:100240001C92EFCF7F928F929F92AF92BF92CF92EC
:10025000DF92EF92FF920F931F93CF93DF93C4E04F
:10026000D0E0C12CD12C76018EE4782E0BE31FE177
:1002700094EB892E9BE2992E91E1A92EB12C7092DC
:100280007C00C8010197F1F780917A008064809327
:100290007A0080917A0086FDFCCF809178002091D1
:1002A0007900322F282F032E000C440B550BC5016B
:1002B000B4010E942F17032E000C440B550BC20EE5
:1002C000D31EE41EF51E2197D1F6C701B60124E026
:1002D00030E040E050E00E942F17263583E13807D8
:1002E00094F0309300062093FF05DF91CF911F918A
:1002F0000F91FF90EF90DF90CF90BF90AF909F90C5
:100300008F907F90089588E893E190930006809302
:10031000FF05EBCFCF93DF93ECE0F1E021E030E09D
:100320003496608171818617970754F5F901EE0FB5
:10033000FF1FEE0FFF1FE85FFE4FA081B181C2815A
:10034000D381220F331F220F331FF901E45FFE4FC9
:1003500022813381AC014A1B5B0B2C1B3D0B429F5E
:10036000C001439F900D529F900D11246A1B7B0B7F
:100370000E94F916CB018C0F9D1FDF91CF9108953C
:100380002F5F3F4F2E30310559F630E020E0D0E0AE
:10039000C0E070E060E0B0E0A0E0DCCF20912F068C
:1003A00030913006EBE0F6E090E080E082179307B2
:1003B000CCF04091310650913206809165059091C4
:1003C00066056AE0689F9001699F300D1124EBE19A
:1003D000F6E090E080E08417950744F42193319390
:1003E0000196F9CF119211920196E0CF08958330D2
:1003F00081F028F4813099F08230A9F00895873097
:10040000A9F08830C9F08430B1F4809180008F7DEC
:1004100003C0809180008F7780938000089584B519
:100420008F7784BD089584B58F7DFBCF8091B00018
:100430008F778093B00008958091B0008F7DF9CFC1
:100440001F93CF93DF93282F30E0F901E255FF4F40
:100450008491F901E656FF4FD491F901EA57FF4F15
:10046000C491CC23A9F0162F81110E94F701EC2F23
:10047000F0E0EE0FFF1FE458FF4FA591B4918FB746
:10048000F894EC91111108C0D095DE23DC938FBF56
:10049000DF91CF911F910895DE2BF8CF80916B05EE
:1004A00090916C05A0916D05B0916E0580936705E4
:1004B00090936805A0936905B0936A0560E088E0B1
:1004C0000E94200261E088E00C94200261E087E055
:1004D0000E94200260E089E00E94200261E088E042
:1004E0000E9420020C944E02CF93DF9390E0FC0117
:1004F000E656FF4F24918A579F4FFC018491882331
:10050000D1F090E0880F991FFC01EE58FF4FA591A4
:10051000B491FC01E458FF4FC591D49161110EC014
:100520009FB7F8948C91E22FE0958E238C932881CD
:10053000E223E8839FBFDF91CF9108958FB7F894AE
:10054000EC91E22BEC938FBFF6CF90933C06809317
:100550003B0661E086E00E94740260E086E00E9453
:1005600020028BE39CE90197F1F760E086E00C94B0
:1005700074020895E0912E04F0912F04309729F031
:10058000109237041092360409940895CF93DF93A4
:10059000AC01E0913004F09131043097F1F090918A
:1005A0003904809138049817C0F090E0292F30E08A
:1005B0002617370754F4D901A256BC4F240F351F14
:1005C000E90128812C939F5FF1CF10923904609349
:1005D0003804CB01DF91CF910994DF91CF91089539
:1005E000AF92BF92CF92DF92EF92FF920F931F9341
:1005F000CF93DF936C017B018B01040F151FEB017F
:100600005E01AE18BF08C017D10759F06991D60135
:10061000ED91FC910190F081E02DC6010995892BA7
:1006200079F7C501DF91CF911F910F91FF90EF9066
:10063000DF90CF90BF90AF900895FC01538D448D13
:10064000252F30E0842F90E0821B930B541710F07D
:10065000CF96089501970895FC01918D828D98178A
:1006600061F0A28DAE0FBF2FB11D5D968C91928D62
:100670009F5F9F73928F90E008958FEF9FEF089593
:10068000FC01918D828D981731F0828DE80FF11D5C
:10069000858D90E008958FEF9FEF0895FC01918D77
:1006A000228D892F90E0805C9F4F821B91098F7370
:1006B0009927089580E694E00E944E0321E0892B5B
:1006C00009F420E0822F089580E090E0892B29F042
:1006D0000E945A0381110C9400000895FC01A48D1E
:1006E000A80FB92FB11DA35ABF4F2C91848D90E054
:1006F00001968F739927848FA689B7892C93A08937
:10070000B1898C91837080648C93938D848D9813C0
:1007100006C00288F389E02D80818F7D8083089553
:10072000EF92FF920F931F93CF93DF93EC0181E041
:10073000888F9B8D8C8D98131AC0E889F9898081E8
:1007400085FF15C09FB7F894EE89FF896083E8891B
:10075000F98980818370806480839FBF81E090E00D
:10076000DF91CF911F910F91FF90EF900895F62E9A
:100770000B8D10E00F5F1F4F0F731127E02E8C8D34
:100780008E110CC00FB607FCFACFE889F989808179
:1007900085FFF5CFCE010E946E03F1CFEB8DEC0FFC
:1007A000FD2FF11DE35AFF4FF0829FB7F8940B8F96
:1007B000EA89FB8980818062CFCFCF93DF93EC0100
:1007C000888D8823B9F0AA89BB89E889F9898C9139
:1007D00085FD03C0808186FD0DC00FB607FCF7CFF5
:1007E0008C9185FFF2CF808185FFEDCFCE010E94F5
:1007F0006E03E9CFDF91CF9108952091E403260F96
:100800003327331F21323105ECF420910804FC0119
:1008100090E080E0243069F082E00895A091E40344
:100820002191AC014C535C4FA40FB52FB11D2C93FB
:100830000196861798F38091E403680F6093E403B0
:1008400080E0089581E008951092080481E080938B
:100850000A041092090461E082E10E94200261E032
:1008600083E10E942002E9EBF0E080818E7F8083AB
:1008700080818D7F808388E48093B80085E48093B5
:10088000BC0008950895E091390480913804E81778
:1008900030F4F0E0E256FC4F808190E008958FEF55
:1008A0009FEF089590913904809138042FEF3FEF26
:1008B000981748F4E92FF0E0E256FC4F208130E031
:1008C0009F5F90933904C9010895809138049091F5
:1008D0003904891B990B0895CF93DF93CB01EA016B
:1008E000642F0E94FD03CE01DF91CF910895CF9335
:1008F000DF931F92CDB7DEB7698361E0CE01019629
:100900000E94FD0381E090E00F90DF91CF91089568
:1009100090E080E00895089520917A0090917A0007
:10092000987F946090937A008E50806480937C00CE
:1009300080917A00806480937A0080917A0086FDAD
:10094000FCCF809178009091790020937A000895EF
:100950008FE00E948C04BC0184E090E00E948C0037
:100960008EE00E948C04BC0185E090E00C948C0029
:1009700081E10E948C04BC0190E080E00E948C0028
:1009800085E10E948C04BC0181E090E00E948C0013
:1009900080E10E948C04BC01725082E090E00E94D1
:1009A0008C0084E10E948C04BC01725083E090E0D2
:1009B0000C948C0040914D0450914E04841795077F
:1009C00008F5209145043091460450E040E08091C4
:1009D000940390919503821793070CF056C00196EB
:1009E0009093950380939403809192039091930345
:1009F000841795070CF04BC0019690939303809356
:100A0000920308952091490430914A048217930774
:100A100090F42091450430914604841B950B60911D
:100A20003F0470914004869FA001879F500D969FC0
:100A3000500D1124CCCF4091430450914404209197
:100A40004704309148048217930728F42091450405
:100A500030914604BCCF20914B0430914C04821756
:100A6000930780F4B901681B790BCB0160914104B5
:100A700070914204869F9001879F300D969F300DA4
:100A80001124A5CF30E020E0A2CF0197A9CF019794
:100A9000B4CF909391038093900384E090E090937F
:100AA0003E0480933D040C94A502CF92DF92EF9216
:100AB000FF929C018436910514F023E630E0121673
:100AC000130614F021E030E03093660520936505AD
:100AD000922F83E2233308F083E38093B00089E010
:100AE0008093B1008FE98093B300933358F184E68B
:100AF000C82ED12CC21AD30A0D2C000CEE08FF0808
:100B0000A091B300B0E011962AE030E00E94651792
:100B10009B01AC01C701B6010E94D51628EE33E057
:100B200040E050E00E940D17215031094109510960
:100B30002093B40061E083E0FF90EF90DF90CF90CE
:100B40000C947402C92ED12CF12CE12CD9CF0E9427
:100B5000550561E085E00E9420028BEC97E001974B
:100B6000F1F760E085E00E94200210923C061092AE
:100B70003B060895A0917105B091720540916F05F3
:100B80005091700581309105C1F12CF4892B99F0B9
:100B900081E090E030C08230910509F440C083309C
:100BA0009105B1F790933E0480933D0410920101AA
:100BB000109200010895A417B507DCF410923E04CA
:100BC00010923D0483E090E0909301018093000136
:100BD000109295031092940324E630E00E9465176A
:100BE0009A01550F440B550B0E942F17C9010C9405
:100BF000A70582E090E00C944905A417B507CCF74F
:100C000090933E0480933D0483E090E09093010133
:100C1000809300011092930310929203DDCFA417EA
:100C2000B5073CF790933E0480933D041092010178
:100C30001092000180914504909146049093950391
:100C40008093940380914304909144049093930380
:100C500080939203C1CFFB0101900020E9F7319707
:100C6000AF01461B570BDC01ED91FC910280F38133
:100C7000E02D09948F929F92AF92BF920F931F9392
:100C8000CF93DF93CDB7DEB7A1970FB6F894DEBF51
:100C90000FBECDBF19A2423008F44AE08E010F5DAD
:100CA0001F4F842E912CB12CA12CA50194010E94E0
:100CB0000D17E62FB901CA01EA3004F5E05DD8014D
:100CC000EE938D01232B242B252B79F790E080E0E8
:100CD000109729F0BD0180E694E00E942B06A196B2
:100CE0000FB6F894DEBF0FBECDBFDF91CF911F913D
:100CF0000F91BF90AF909F908F900895E95CDFCFE8
:100D0000CF92DF92EF92FF92CF93DF936B017C0142
:100D10006DE280E694E00E949003EC01662777275D
:100D2000CB016C197D098E099F094AE00E943A06A1
:100D30008C0F9D1FDF91CF91FF90EF90DF90CF90B0
:100D40000895BC01990F880B990B97FD0C948006B0
:100D50004AE00C943A06BC0190E080E04AE00C9432
:100D60003A06CF93DF93D0E0C0E0009731F0BC01AA
:100D700080E694E00E942B06EC016AE771E080E6D1
:100D800094E00E942B068C0F9D1FDF91CF91089558
:100D9000CF93DF936115710531F06130710549F032
:100DA000DF91CF910895EC01CC960E94B1061CAE64
:100DB000F7CF845B9F4FDF91CF910C94B106BC01BC
:100DC00080E694E00C942B068DE791E00E94B1063A
:100DD00065E575E08DEF94E00E942B0610925505B5
:100DE0000895CF93DF9385ED8093BC008091C0037D
:100DF0009091C103A091C203B091C3030796A11DB6
:100E0000B11D23E0B695A795979587952A95D1F7BB
:100E10002091BC0024FD03C01092080436C040910C
:100E2000C0035091C1036091C2037091C303452B6D
:100E3000462B472B69F30097A105B10541F02AE243
:100E40002A95F1F700C00197A109B109E1CF80917E
:100E5000BF0391E09093BE038823B9F0C091B8001E
:100E6000D091BA008091BC008A7B8093BC0060E086
:100E700082E10E94200260E083E10E9420020E9441
:100E80002404D093BA00C093B800DF91CF910895A5
:100E90008F929F92AF92BF92CF92DF92EF92FF928A
:100EA0000F931F93CF93DF93EC017B016A018901BC
:100EB00067E871E0C7010E948517892B09F041C0DE
:100EC000DE01AA59BF4FFE01EA50FF4F2D913C9120
:100ED000A081B1810E944E179B01AC01ADE0B0E052
:100EE0000E946C1720E034E040E050E00E942F1791
:100EF0003F932F938BE891E09F938F93C80124E059
:100F0000880F991F2A95E1F7CC968C0F9D1F9F9310
:100F10008F930E9495170F900F900F900F900F9046
:100F20000F90B801CE01DF91CF911F910F91FF90EB
:100F3000EF90DF90CF90BF90AF909F908F900C94E8
:100F4000C80662E971E0C7010E948517892BE9F4A0
:100F5000DE01A859BF4FFE01EA50FF4F2D913C9191
:100F6000A081B1810E944E179B01AC01ADE0B0E0C1
:100F70000E946C1720E034E040E050E00E942F1700
:100F80003F932F9386E991E0B7CF6DE971E0C701F8
:100F90000E948517892BE9F4DE01A659BF4FFE0197
:100FA000EA50FF4F2D913C91A081B1810E944E17D4
:100FB0009B01AC01A3E0B0E00E946C1720E034E09C
:100FC00040E050E00E942F173F932F9381EA91E079
:100FD00093CF68EA71E0C7010E948517892BE9F475
:100FE000DE01A459BF4FFE01EA50FF4F2D913C9105
:100FF000A081B1810E944E179B01AC01A3E0B0E03B
:101000000E946C1720E034E040E050E00E942F176F
:101010003F932F938CEA91E06FCF63EB71E0C701B0
:101020000E948517892B61F4FE01E059FF4F8081F2
:1010300091810E948A019F938F9387EB91E05CCF0F
:101040006EEB71E0C7010E948517892B61F4FE01E8
:10105000E059FF4F808191810E948A019F938F9375
:1010600082EC91E049CF69EC71E0C7010E948517DD
:10107000892B51F4FE01EA50FF4F81818F938081CB
:101080008F938EEC91E038CF66ED71E0C7010E943E
:101090008517892B51F4FE01E45AFF4F81818F930C
:1010A00080818F938BED91E027CF63EE71E0C701D4
:1010B0000E948517892BB1F4FE01E250FF4F208179
:1010C000318142815381ACEDB0E10E946C1720E088
:1010D00034E040E050E00E942F173F932F9388EEBA
:1010E00091E00ACF60EF71E0C7010E948517892B5C
:1010F00011F5C6010E9483167C016E0188EFC80EAF
:10110000D11CB7010F2C000C880B990B57E0660F10
:10111000771F881F991F5A95D1F723E537E040E0E4
:1011200050E00E942F17D6012D933C93FF92EF922F
:1011300085EF91E0E1CE6EEF71E0C7010E94851767
:10114000892B09F5C6010E9483167C016E01BAEF56
:10115000CB0ED11CBC01990F880B990B47E0660F91
:10116000771F881F991F4A95D1F723E537E040E0A4
:1011700050E00E942F17F60131832083FF92EF92F7
:1011800083E092E0B9CE6CE072E0C7010E9485175F
:10119000892B69F4C6010E948316FE01E450FF4FBB
:1011A000808391839F938F9381E192E0A5CE6AE142
:1011B00072E0C7010E948517892BB9F04E01F2E059
:1011C0008F0E911CB12CA12C8E899F89A816B9066F
:1011D0008CF5D401ED91FD914D01A801B601C70137
:1011E0000995BFEFAB1ABB0AEFCFC6010E94831669
:1011F0007C016E018EEFC80ED11CB7010F2C000CC4
:10120000880B990B3AE0660F771F881F991F3A9554
:10121000D1F72CED30E140E050E00E942F17D601CD
:101220002D933D934D935C931397FF92EF928FE133
:1012300092E062CEDF91CF911F910F91FF90EF90DE
:10124000DF90CF90BF90AF909F908F9008950F93B5
:101250001F93CF93DF938B016BE772E00E94A1167F
:10126000EC016BE771E090E080E00E94A11698012C
:10127000AC01BE0189E095E0DF91CF911F910F9104
:101280000C9448072F923F924F925F926F927F92F9
:101290008F929F92AF92BF92CF92DF92EF92FF9286
:1012A0000F931F93CF93DF9380E694E00E944E0349
:1012B000892B39F180E694E00E942C0320913105BE
:1012C00030913205F901E75FFA4F808F2F5F3F4F72
:1012D00030933205209331058A3019F02F303105D3
:1012E00019F7275F3A4FD90158961C921092320590
:1012F0001092310570E060E081E295E00E942709DC
:10130000D3CF0E94B8042091730530917405809169
:1013100001069091020682179307BCF09195819582
:101320009109281739078CF02091750530917605C1
:1013300080910306909104068217930734F09195EB
:10134000819591092817390724F482E090E00E94E2
:10135000A5028091670590916805A0916905B091FB
:101360006A050197A109B109809367059093680503
:10137000A0936905B0936A05181619061A061B068C
:1013800014F00E944E02C0907105D0907205A0909A
:101390007505B0907605EE24FF24EA18FB0800914D
:1013A0006F0510917005409073055090740551942D
:1013B00041945108A7010F2C000C660B770B80910C
:1013C000960390919703A0919803B0919903840F8D
:1013D000951FA61FB71F8093960390939703A09322
:1013E0009803B093990380913D0490913E04009737
:1013F00009F089C08091530490915404801791079B
:10140000B0F483E090E0DF91CF911F910F91FF90B6
:10141000EF90DF90CF90BF90AF909F908F907F9094
:101420006F905F904F903F902F900C944905809162
:101430005104909152040817190718F484E090E0C1
:10144000E2CF80918E0390918F03853FB1E09B079F
:1014500024F1C6010E94DA0410928F0310928E03C9
:1014600080914F04909150048C159D05E0F482E02A
:1014700090E0DF91CF911F910F91FF90EF90DF905F
:10148000CF90BF90AF909F908F907F906F905F9024
:101490004F903F902F900C94BA05019690938F0334
:1014A00080938E03DDCF8091000190910101833004
:1014B0009105E9F480914B0490914C048C159D05A5
:1014C00040F482E090E090930101809300010E943B
:1014D000CE018091000190910101039709F009C1AB
:1014E000C0919403D0919503CA0DDB1D6FC0029784
:1014F00081F780919403909195038E159F054CF789
:1015000083E090E0E0CF8130910509F077C08091D1
:101510005304909154048017910718F485E090E0EB
:1015200072CF80915104909152040817190718F452
:1015300086E090E068CF80918E0390918F03853F85
:10154000E1E09E075CF1C6010E94DA0410928F036D
:1015500010928E03809100019091010183309105DA
:1015600019F580914D0490914E04C816D90640F4A7
:1015700082E090E090930101809300010E94CE01EF
:1015800080910001909101010397D1F48091920321
:1015900090919303E501C81BD90B18C00196909355
:1015A0008F0380938E03D6CF029751F780919203D9
:1015B000909193038A159B051CF783E090E0DACFA6
:1015C000C0914D04D0914E04CC19DD09E0912F0655
:1015D000F0913006CF01DF01AA0FBB1FA95FB94F01
:1015E0000197181619060CF0C7C12D913C9111975F
:1015F00013963C932E9312971297F2CF8230910557
:1016000009F097C08091530490915404801791077A
:1016100018F487E090E0F7CE809151049091520445
:101620000817190718F488E090E0EDCEC6010E9473
:10163000DA048091000190910101009719F0833044
:101640009105F1F420914B0430914C042C153D058B
:10165000A8F482E090E090930101809300010E9441
:10166000CE019924939480910001909101018330DF
:101670009105D1F5992009F489CF32CF009721F057
:101680008230910509F032C4209194033091950382
:101690002E153F051CF483E090E0DDCF009719F094
:1016A0008330910599F420914D0430914E04C21677
:1016B000D30650F482E090E0909301018093000102
:1016C0000E94CE01912CCFCF009719F0029709F01C
:1016D00011C480919203909193038A159B050CF09D
:1016E00009C483E090E0E8CF029741F4992009F41F
:1016F00067CFC0914B04D0914C0466CF2091070670
:10170000309108064091090650910A06D2010E94C4
:10171000771720E034E040E050E00E942F178091DE
:10172000550490915604E801C81BD90BC20FD31F72
:101730004DCF039709F0CBC0C0908A03D0908B03A4
:10174000E0908C03F0908D03D701C6010196A11D96
:10175000B11D80938A0390938B03A0938C03B09365
:101760008D032091450430914604309395032093D6
:1017700094032091430430914404309393032093C5
:101780009203803DF7E09F07A105B10521F561E0D7
:1017900089E00E94200260E087E00E94200261E070
:1017A00088E00E9420020E944E028AE590E0DF91CC
:1017B000CF911F910F91FF90EF90DF90CF90BF904E
:1017C000AF909F908F907F906F905F904F903F90E1
:1017D0002F900C94A705883928E09207A105B10540
:1017E000B1F486E490E0DF91CF911F910F91FF90CB
:1017F000EF90DF90CF90BF90AF909F908F907F90B1
:101800006F905F904F903F902F900C9455058036CD
:10181000E9E09E07A105B10519F482E390E0E3CF6A
:101820008832FAE09F07A105B10519F48EE190E036
:10183000DACF803F2AE09207A105B10519F48AE0CA
:1018400090E0D1CF883BEBE09E07A105B10529F4DC
:101850000E9466028AE590E0C6CF8D3A9D40A105C0
:10186000B105DCF0809155049091560408171907D2
:1018700038F5809165059091660501970E945505A0
:1018800023E6C21AD108E108F108C0928A03D09277
:101890008B03E0928C03F0928D03DF91CF911F9127
:1018A0000F91FF90EF90DF90CF90BF90AF909F90FF
:1018B0008F907F906F905F904F903F902F90089502
:1018C00082E090E090933E0480933D04E6CF109236
:1018D00095031092940310929303109292038091B7
:1018E0009003909191038430910519F1ECF48230CA
:1018F0009105F9F00397E9F080919003909191039D
:101900008430910569F580915104909152048017BB
:10191000910708F05BCE90E080E00E94BA0510923B
:1019200091031092900352CE8730910511F00897E1
:1019300019F7809151049091520480179107E0F6B5
:10194000809153049091540408171907A8F690E069
:1019500080E00E94BA051092910310929003CCCFC0
:10196000039709F033CE80915304909154040817E3
:10197000190708F02BCECFCFD0930C06C0930B06DF
:101980002091310630913206C901D901AA0FBB1F3F
:10199000A95EB94F0197181619064CF44D915C9148
:1019A000119713965C934E9312971297F3CF8091F1
:1019B0003D0490913E04029709F099C08091000186
:1019C00090910101009709F092C0409173055091E8
:1019D00074054D5C5F4F4736510508F488C05BE0E5
:1019E000252E56E0352E60902B0670902C06812C0B
:1019F000912C54018E179F0754F160902D06709022
:101A00002E064DE1242E46E0342E630182E0C80EFE
:101A1000D11CE1E0F0E0E217F30794F5D1016D91FC
:101A20007D911D01D6014D915D916D01649FC001B5
:101A3000659F900D749F900D1124092E000CAA0B28
:101A4000BB0B881A990AAA0ABB0A3196E4CFD101C6
:101A5000CD90DD901D01D3016D917D913D01C69E1C
:101A6000A001C79E500DD69E500D1124052E000CCE
:101A7000660B770B840E951EA61EB71E0196BACF75
:101A8000F30120813181032E000C440B550BC5015D
:101A9000B4010E942F1730931C0620931B06A4E666
:101AA000B0E00E946C1720E034E040E050E00E947B
:101AB0002F17C9010E94550580918A0390918B03CD
:101AC000A0918C03B0918D030196A11DB11D893E9B
:101AD000F3E09F07A105B1050CF05DC080938A0378
:101AE00090938B03A0938C03B0938D03D6CE8091FB
:101AF0003306909134060196909334068093330612
:101B0000209135063091360682179307ACF2C090CB
:101B10003906D0903A06CC0EDD1ED0923A06C0921D
:101B200039068090370690903806280D391D281701
:101B3000390714F6A0906505B0906605B5010B2C29
:101B4000000C880B990B3AE0660F771F881F991FCE
:101B50003A95D1F724E630E040E050E00E942F179C
:101B600030931C0620931B06109234061092330605
:101B700010923A0610923906C601B4010E94F91675
:101B8000C5010196161617060CF494CFD7FF94CF13
:101B9000C50101978FCF10928A0310928B03109288
:101BA0008C0310928D030E9422010E94A804809150
:101BB0007705909178050E948A01C0900506D09023
:101BC0000606C816D9064CF08091790590917A05E1
:101BD0000E948A01C816D90624F483E090E00E948E
:101BE000A50260919603709197038091980390915C
:101BF000990328EE33E040E050E00E942F17C9011E
:101C00002091FF0530910006DC010E944E179B01D8
:101C1000AC01A3E0B0E00E946C17812C24E0922E6E
:101C2000A12CB12CA50194010E942F17C901330FDB
:101C3000AA0BBB0B40919A0350919B0360919C03AC
:101C400070919D03840F951FA61FB71F80939A0361
:101C500090939B03A0939C03B0939D0310929603D3
:101C600010929703109298031092990388E292E0E1
:101C70000E94DF0680913D0490913E040E94A106DF
:101C80008DE292E00E94DF068091000190910101B7
:101C90000E94A10684E392E00E94DF068091650520
:101CA000909166050E94A1068BE392E00E94DF06F8
:101CB000C8010E94A10683E492E00E94DF068091A1
:101CC0005104909152040E94AB0683E492E00E947A
:101CD000DF0680915504909156040E94AB0683E480
:101CE00092E00E94DF0680915304909154040E9478
:101CF000AB0685E492E00E94DF0620910706309152
:101D000008064091090650910A06D2010E947717F1
:101D1000A50194010E942F17C9010E94A1068DE41C
:101D200092E00E94DF0680914D0490914E040E9443
:101D3000AB0683E492E00E94DF0680914904909113
:101D40004A040E94AB0683E492E00E94DF06809181
:101D50007105909172050E94A10683E492E00E94B1
:101D6000DF0680914704909148040E94AB0683E40B
:101D700092E00E94DF0680914B0490914C040E94F7
:101D8000AB0685E592E00E94DF0620917105309157
:101D90007205A091FF05B09100060E944E179B01AD
:101DA000AC01ADE0B0E00E946C17A50194010E9467
:101DB0002F17C9010E94AB068DE592E00E94DF0655
:101DC00080919403909195030E94A10685E692E08C
:101DD0000E94DF0680919203909193030E94A106D6
:101DE0008DE692E00E94DF06C7010E94A10685E70A
:101DF00092E00E94DF062091750530917605A09152
:101E0000FF05B09100060E944E179B01AC01A3E0B4
:101E1000B0E00E946C17A50194010E942F17C90120
:101E20000E94A1068DE792E00E94DF06CE010E948B
:101E3000A10684E892E00E94DF0660919A03709107
:101E40009B0380919C0390919D0397FF39C00E9452
:101E500080068CE892E00E94DF06E4EBF0E08491DB
:101E6000E0EAF0E0D491ECE8F0E0C491C1112CC0BC
:101E700080913B0690913C060E94A10683E992E086
:101E80000E94DF0680919003909191030E94A10629
:101E90006AE771E080E694E0DF91CF911F910F91A6
:101EA000FF90EF90DF90CF90BF90AF909F908F907A
:101EB0007F906F905F904F903F902F900C942B06E7
:101EC0004AE00E943A06C5CF81110E94F701EC2F2B
:101ED000F0E0EE0FFF1FE859FF4FA591B491EC9190
:101EE000ED2309F4C5CF8FEF9FEFC6CF8330910567
:101EF00009F4D9CB809192039091930397FD0196B9
:101F0000959587959195819591098E159F050CF072
:101F1000AACB809194039091950397FD0196959596
:101F20008795E816F9060CF09ECB809149049091B4
:101F30004A048C159D0508F096CB8091470490913A
:101F40004804C816D90608F08ECB109201011092F1
:101F5000000189CB0F931F93CF93DF938C0189E905
:101F600092E00E94B106C9E0D5E0CE0189509540CB
:101F70008017910744F48DEF94E00E9452048AA7E1
:101F80001BA62196F2CFE9E0F5E0CF0189509540FC
:101F90008017910724F483A582A73196F6CF61E0DC
:101FA00070E083E395E0DF91CF911F910F910C9446
:101FB0002709EF92FF920F931F93CF93DF938C012A
:101FC0007B01EA0162EA72E00E948517892B29F5FC
:101FD00086EA92E09F938F938BEB92E09F938F938F
:101FE000CE0154E0880F991F5A95E1F78B5B9A4F09
:101FF0009F938F930E9495170F900F900F900F90C3
:102000000F900F90BE0189E095E0DF91CF911F9175
:102010000F91FF90EF900C94C80662EC72E0C8013B
:102020000E948517892BA9F56EED72E0C7010E9409
:102030008517892B69F490E080E00E94BA058091B1
:102040003E048F9380913D048F9388EC92E0C6CF3D
:1020500069EE72E0C7010E948517892B19F481E0AF
:1020600090E0EBCF64EF72E0C7010E948517892BE7
:1020700019F482E090E0E1CF6FEF72E0C7010E94B7
:102080008517892B19F483E090E0D7CF84E090E0A6
:10209000D4CF62ED72E0C8010E948517892B29F523
:1020A00020913D0430913E04CE0144E0880F991FF9
:1020B0004A95E1F78B5B9A4F68ED72E02115310587
:1020C00089F063EE72E02130310561F06EEE72E06E
:1020D0002230310539F069EF72E02330310511F01B
:1020E00063E073E00E948E178DCF6EE073E0C8014D
:1020F0000E948517892B99F5C7010E9483168C01D0
:10210000093B8BE0180710F008EB1BE09801A5E5F0
:10211000B1E00E9456172091FF0530910006032E72
:10212000000C440B550B0E942F173093460420934C
:10213000450460914B0470914C0480914704909148
:102140004804681B790BC9010E94E516709342048C
:10215000609341041F930F9384E193E03FCF6EE1BE
:1021600073E0C8010E948517892BD9F4209145049A
:1021700030914604A091FF05B09100060E944E17D1
:102180009B01AC01A3E0B0E00E946C1720E034E0BA
:1021900040E050E00E942F173F932F9384E293E09A
:1021A0001DCF6DE273E0C8010E948517892B99F558
:1021B000C7010E9483168C01093893E1190710F0BA
:1021C00008E813E19801A5E5B1E00E9456172091B7
:1021D000FF0530910006032E000C440B550B0E94A6
:1021E0002F17309344042093430460914904709165
:1021F0004A0480914D0490914E04681B790BC901EB
:102200000E94E5167093400460933F041F930F9360
:1022100083E393E0E3CE6DE373E0C8010E9485178A
:10222000892BB9F4A0914304B091440425E531E031
:102230000E9465172091FF0530910006032E000CC7
:10224000440B550B0E942F173F932F9383E493E089
:10225000C5CE6CE473E0C8010E948517892B11F587
:10226000C7010E9483168C01093189E7180710F015
:1022700008E119E79801AFE4B0E00E9456172091F9
:10228000FF0530910006032E000C440B550B0E94F5
:102290002F1730935604209355041F930F9382E514
:1022A00093E09CCE6CE573E0C8010E948517892BF2
:1022B000D9F42091550430915604A091FF05B091B6
:1022C00000060E944E179B01AC01ADE0B0E00E94F9
:1022D0006C1720E034E040E050E00E942F173F935D
:1022E0002F9382E693E07ACE6BE673E0C8010E94FA
:1022F0008517892B59F560919A0370919B03809102
:102300009C0390919D0320E13EE040E050E00E945C
:102310002F175F934F933F932F9381E793E09F9302
:102320008F93CE0134E0880F991F3A95E1F78B5BCC
:102330009A4F9F938F930E9495178DB79EB70896DB
:102340000FB6F8949EBF0FBE8DBF5CCE6AE773E0F8
:10235000C8010E948517892B69F510929A03109283
:102360009B0310929C0310929D031092960310926F
:10237000970310929803109299031F921F921F9235
:102380001F9280E893E09F938F93CE0124E0880F03
:10239000991F2A95E1F78B5B9A4F9F938F930E9429
:1023A00095178DB79EB708960FB6F8949EBF0FBECF
:1023B0008DBF28CEDF91CF911F910F91FF90EF90AD
:1023C00008951F920F920FB60F9211242F933F93EF
:1023D0008F939F93AF93BF9380915C0490915D0422
:1023E000A0915E04B0915F0430915B0423E0230F61
:1023F0002D3758F50196A11DB11D20935B048093E4
:102400005C0490935D04A0935E04B0935F0480919C
:10241000570490915804A0915904B0915A04019620
:10242000A11DB11D8093570490935804A0935904A3
:10243000B0935A04BF91AF919F918F913F912F918B
:102440000F900FBE0F901F90189526E8230F02964D
:10245000A11DB11DD2CF1F920F920FB60F92112462
:102460002F933F934F935F936F937F938F939F939C
:10247000AF93BF93EF93FF9380E694E00E946E03C7
:10248000FF91EF91BF91AF919F918F917F916F914C
:102490005F914F913F912F910F900FBE0F901F9022
:1024A00018951F920F920FB60F9211242F938F93AE
:1024B0009F93EF93FF93E0917004F09171048081FA
:1024C000E0917604F091770482FD1BC090818091A9
:1024D00079048F5F8F7320917A04821741F0E09125
:1024E0007904F0E0E05AFB4F958F80937904FF91D7
:1024F000EF919F918F912F910F900FBE0F901F9092
:1025000018958081F4CF1F920F920FB60F9211246D
:102510002F933F934F935F936F937F938F939F93EB
:10252000AF93BF93EF93FF93E0910201F09103010A
:102530000995FF91EF91BF91AF919F918F917F91FD
:102540006F915F914F913F912F910F900FBE0F9020
:102550001F9018951F920F920FB60F9211242F9370
:102560003F934F935F936F937F938F939F93AF931B
:10257000BF93EF93FF938091B900887F803609F471
:102580004AC0F0F5883209F4A7C018F5803109F483
:102590009BC0B8F4882309F4F9C0883009F494C0CA
:1025A000FF91EF91BF91AF919F918F917F916F912B
:1025B0005F914F913F912F910F900FBE0F901F9001
:1025C0001895883109F488C0803251F78093070448
:1025D00014C0803409F49DC040F48033B9F38833CB
:1025E000F9F68093070485ECB0C0803509F485C006
:1025F000883509F496C0883499F60E94F106D0CF48
:10260000883909F48CC038F5883729F050F48836B9
:1026100011F0803729F683E08093080410920604B5
:1026200057C0883809F47BC0803919F0803809F028
:10263000B7CF80910604803208F071C0E0910604A3
:1026400081E08E0F809306048091BB00F0E0EA5198
:10265000FC4F80833DC0803B39F0E0F4803A09F4C0
:1026600079C0883A09F09CCF84E0809308041092E6
:10267000E5031092E403E0913404F09135040995E8
:102680008091E40381110FC081E08093E4031092F4
:10269000C40309C0803C09F4A6CF883C09F4A3CF49
:1026A000883B09F07DCFE091E50381E08E0F8093B8
:1026B000E503F0E0EC53FC4F80818093BB009091E8
:1026C000E5038091E40329C080912D048093BB0031
:1026D00085EC8093BC0064CF90912C0480912B04F6
:1026E000981758F5E0912C0481E08E0F80932C040C
:1026F000F0E0E55FFB4F8081E9CFE0912C0481E0C1
:102700008E0F80932C048091BB00F0E0E55FFB4FBF
:10271000808390912C0480912B049817C8F285E84F
:10272000D8CFE0912C0481E08E0F80932C0480910F
:10273000BB00F0E0E55FFB4F808380910A048111CC
:102740005CCF81E08093090484EA8093BC001092FE
:10275000080426CF85EC8093BC0010920804809179
:102760000604803230F4E0910604F0E0EA51FC4FB8
:1027700010826091060470E0E0913204F09133041D
:1027800086EE93E00995109206040ACF1092070492
:1027900034CFE0E6F4E01382128288EE93E0A0E00A
:1027A000B0E084839583A683B78324E531E0318349
:1027B000208325EC30E03587248724EC30E0378710
:1027C000268720EC30E0318B208B21EC30E0338BFE
:1027D000228B22EC30E0358B248B26EC30E0378BDB
:1027E000268B118E128E138E148EEDEFF4E0138271
:1027F000128284839583A683B78386E691E09183D2
:102800008083E9E0F5E0178A168A11A610A613AEB8
:1028100012AE88E791E09183808382E390E0909309
:102820006605809365051092670510926805109201
:10283000690510926A058CEB91E0909302068093F3
:102840000106909304068093030680E590E0909340
:10285000060680930506109207061092080610924D
:10286000090610920A0680E1EBE0F6E0DF01982FFE
:102870001D929A95E9F7EBE1F6E0DF011D928A954A
:10288000E9F7109234061092330684E090E09093BA
:10289000360680933506909338068093370610925B
:1028A0003A061092390610923C0610923B060895A3
:1028B000CF93DF93CDB7DEB72C970FB6F894DEBF7A
:1028C0000FBECDBF789484B5826084BD84B581602D
:1028D00084BD85B5826085BD85B5816085BD8091EB
:1028E0006E00816080936E00109281008091810063
:1028F000826080938100809181008160809381005B
:10290000809180008160809380008091B10084601C
:102910008093B1008091B00081608093B00080917D
:102920007A00846080937A0080917A00826080933C
:102930007A0080917A00816080937A0080917A0099
:10294000806880937A001092C10061E082E00E946A
:10295000740261E084E00E94740261E083E00E94FE
:10296000740261E088E00E94740261E089E00E94E4
:10297000740261E087E00E94740261E085E00E94D9
:10298000740260E086E00E94740260E081E10E94CF
:10299000740260E080E10E94740260E085E10E94C0
:1029A000740260E084E10E94740260E08FE00E94A3
:1029B000740260E08EE00E94740281E090E00E9468
:1029C000A5020E942201F12CE12C0E94B8040E9471
:1029D000A8048FEFE81AF80A90E1E916F104A9F7C4
:1029E0008BEB91E09093020680930106909304068E
:1029F0008093030680E590E0909306068093050699
:102A000088E091E090932C0680932B0684E091E07F
:102A100090932E0680932D0682E090E090933006EE
:102A200080932F0690933206809331068FE290E0D8
:102A3000A0E0B0E08093070690930806A0930906F3
:102A4000B0930A0680911F05909120058A30910568
:102A500074F40196FC01EE0FFF1FE75FFA4F29EDBA
:102A60003FE0318320839093200580931F05E09100
:102A70007004F091710482E08083E0916C04F09125
:102A80006D041082E0916E04F0916F0483E3808303
:102A900010927804E0917404F091750486E08083CC
:102AA000E0917204F0917304808180618083E091F1
:102AB0007204F0917304808188608083E0917204D5
:102AC000F0917304808180688083E0917204F091BA
:102AD000730480818F7D80831092390410923804B2
:102AE00010923704109236040E9424048AEB92E07C
:102AF000909335048093340486EC92E090933304F1
:102B00008093320484E08093BA008AEA9FE0909335
:102B100031048093300484EE96E090932F048093E8
:102B20002E04C090FF05D09000060D2C000CEE087E
:102B3000FF0860E47EEE8CE190E0A70196010E9420
:102B40002F17309356042093550460E073E986E212
:102B500090E0A70196010E942F1730935404209310
:102B6000530460E879E483E190E0A70196010E94B4
:102B70002F1730935204209351046CE671E18FE0DB
:102B800090E0A70196010E942F17309350042093E4
:102B90004F0468E872E48DE090E0A70196010E947E
:102BA0002F1729833A834B835C8389819A81909381
:102BB0004E0480934D0460E570EE80E190E0A70143
:102BC00096010E942F17490130934C0420934B0427
:102BD0006AEF79E28EE090E0A70196010E942F173C
:102BE0002D833E834F8358878D819E8190934A0425
:102BF000809349046EED78EF8FE090E0A701960195
:102C00000E942F1729873A874B875C8789859A8589
:102C1000909348048093470468E67AE081E090E06E
:102C2000A70196010E942F17290130934604209393
:102C300045046CE07EEC87E090E0A70196010E94DD
:102C40002F1769013093440420934304B40189850C
:102C50009A85681B790BC2010E94E51670934204A5
:102C6000609341046D817E8189819A81681B790B13
:102C7000C6010E94E5167093400460933F04809162
:102C80007105909172050E94DA040E94660280919B
:102C90003D0490913E040E94BA0580E1809381003A
:102CA0001092800081E080933C0420E43FE1309367
:102CB0003B0420933A04309387002093860091E1EF
:102CC0009093810022E439E03093030120930201C4
:102CD00080936F0081E090E0A0E0B0E080936B050E
:102CE00090936C05A0936D05B0936E050E944E0203
:102CF00080E090E0892BE1F30E945A038823C1F31E
:102D00000E940000F5CFFC0188279927E8942191C3
:102D10002032E9F3293010F02E30C8F32B3241F085
:102D20002D3239F4689404C00E94CD16820F911D93
:102D3000219120532A30C0F31EF4909581959F4F26
:102D400008954DE356E00E94A6160895FA01A19158
:102D5000B081009719F41097E1F0CD01DC01CD01AD
:102D60000D90002011F4C00113C0FB01219122231A
:102D700019F02015D9F7F3CFFB012191201519F493
:102D80001E92119606C02223C1F70D900020A1F7D4
:102D9000D001FA01A193B08308957AE0979F902D16
:102DA000879F802D910D11240895DB018F939F93B0
:102DB0000E946C17BF91AF91A29F800D911DA39FA0
:102DC000900DB29F900D11240895AA1BBB1B51E1D9
:102DD00007C0AA1FBB1FA617B70710F0A61BB70B8B
:102DE000881F991F5A95A9F780959095BC01CD0130
:102DF000089597FB072E16F4009407D077FD09D0AD
:102E00000E94E51607FC05D03EF4909581959F4FF2
:102E10000895709561957F4F0895A1E21A2EAA1B1F
:102E2000BB1BFD010DC0AA1FBB1FEE1FFF1FA2177A
:102E3000B307E407F50720F0A21BB30BE40BF50B77
:102E4000661F771F881F991F1A9469F76095709500
:102E5000809590959B01AC01BD01CF010895052E91
:102E600097FB1EF400940E94461757FD07D00E945E
:102E70000D1707FC03D04EF40C944617509540955F
:102E8000309521953F4F4F4F5F4F08959095809516
:102E9000709561957F4F8F4F9F4F08950E945617F1
:102EA000332312F48A1B9B0B0C946717A29FB0016B
:102EB000B39FC001A39F700D811D1124911DB29F6E
:102EC000700D811D1124911D08950E945617B7FFA2
:102ED0000895821B930B08950E945617A59F900D8D
:102EE000B49F900DA49F800D911D11240895B7FFEC
:102EF0000C946C170E946C17821B930B0895EE0FB5
:102F0000FF1F0590F491E02D0994FB01DC018D91E8
:102F1000019080190110D9F3990B0895FB01DC0190
:102F200001900D920020E1F70895AEE0B0E0EBE9EA
:102F3000F7E10C94441A0D891E8986E08C831A836C
:102F400009838FEF9FE79E838D83AE01475E5F4FBE
:102F50006F89788DCE0101960E94B8172F81388530
:102F6000020F131FF80110822E96E4E00C94601AF1
:102F7000ABE0B0E0EEEBF7E10C94361A7C013B01DC
:102F80008A01FC0117821682838181FFC8C1CE01AC
:102F900001965C01F7019381F30193FD859193FF05
:102FA00081913F01882309F453C1853239F493FD9F
:102FB000859193FF81913F01853229F4B70190E01B
:102FC0000E94A819E7CF912C212C312CFFE1F31599
:102FD00038F08B3211F190F4803209F1833229F10B
:102FE00037FC3CC020ED280F2A3050F536FE20C0BB
:102FF0008AE0989E200D1124922E06C08D3291F009
:10300000803371F7689430F8F30193FD859193FF55
:1030100081913F018111DACF21C0689431F8689421
:1030200032F8F2CF689433F8EFCF689434F8ECCFED
:10303000EAE02E9E200D1124222E689435F8E4CF6C
:103040008E3229F436FC04C1689436F8DDCF8C3614
:1030500019F4689437F8D8CF8836B1F2982F9F7D4D
:1030600095549330E0F08336A1F18337C1F1833575
:1030700009F063C02801F2E04F0E511CF801C08036
:10308000D180692D70E036FC02C06FEF7FEFC60182
:103090000E9492194C01689437F882010AC00C5FB3
:1030A0001F4FFFE3F98388248394912C6501E894F2
:1030B00037F833FE2DC0522C8114910471F5552040
:1030C00009F468CFB70180E290E00E94A8195A94F1
:1030D000F6CFF801808189830E5F1F4FE4CF28016E
:1030E000F2E04F0E511CF801C080D180692D70E0D4
:1030F00036FC02C06FEF7FEFC6010E949D194C01A4
:103100008201D5CFB70180E290E00E94A8192A94ED
:103110002814190409F0B0F7CECFF60137FC8591D9
:1031200037FE81916F01B70190E00E94A8195110FC
:103130005A94F1E08F1A9108BFCF843619F089367E
:1031400009F077C0F80137FE6BC060817181828120
:1031500093810C5F1F4FF32DFF763F2E97FF09C021
:1031600090958095709561957F4F8F4F9F4F689494
:1031700037F82AE030E0A5010E94D819C82ECA18F5
:103180008C2C432C36FE0CC0E89440F8C91440F453
:1031900034FE05C032FC03C0F32DFE7E4F2E892C79
:1031A00044FE95C0FE01EC0DF11D8081803309F0D5
:1031B00087C0242D297E422E842D8870582E43FCF2
:1031C00095C040FE8FC09C2C821418F42C0C922CBD
:1031D000981844FE91C0B70180E390E00E94A819BE
:1031E00042FE09C088E790E041FE02C088E590E019
:1031F000B7010E94A819C91408F48AC0CA94D12C36
:103200009FEFC91AD90ACA0CDB1CF60182916F0123
:10321000B70190E00E94A819AC14BD04B1F74FCFDC
:1032200060817181072E000C880B990B0E5F1F4F78
:1032300092CFD32CE894D4F82AE030E0853739F1E6
:10324000232D297FD22E8F3601F148F48835A9F03D
:10325000F701868197812B96E2E10C94521A803710
:1032600049F08837A9F7D4FE02C06894D2F820E16B
:1032700030E00DC06894D4F8F6CF34FE03C0822F3E
:103280008660D82E20E132E002C028E030E0F8016C
:10329000D7FE0FC060817181828193810C5F1F4FC7
:1032A000A5010E94D819C82ECA183D2CE89437F8F9
:1032B00067CF6081718190E080E00E5F1F4FF0CF9B
:1032C00042FC02C0839478CF8394839475CF842D7D
:1032D000867809F471CFF6CFB70180E290E00E94C2
:1032E000A81983948214C0F3512C73CF522C581810
:1032F000821408F46ECFF8CF842D867809F47BCF42
:103300008BE241FE80E247FC8DE2B70190E071CF95
:10331000B70180E390E00E94A8199A946CCF8FEFD8
:103320009FEF99CFFC010590615070400110D8F7D4
:10333000809590958E0F9F1F0895FC0161507040FD
:1033400001900110D8F7809590958E0F9F1F0895DA
:103350000F931F93CF93DF93182F092FEB018B81CE
:1033600081FD09C01FEF0FEF812F902FDF91CF91CB
:103370001F910F91089582FF14C02E813F818C818F
:103380009D81281739073CF4E881F981CF01019626
:103390009983888310838E819F8101969F838E837A
:1033A000E3CFE885F985812F0995892BA1F3DACF41
:1033B000FA01AA27283051F1203181F1E8946F9366
:1033C0006E7F6E5F7F4F8F4F9F4FAF4FB1E03ED00C
:1033D000B4E03CD0670F781F891F9A1FA11D680FAA
:1033E000791F8A1F911DA11D6A0F711D811D911DDD
:1033F000A11D20D009F468943F912AE0269F112452
:103400003019305D3193DEF6CF010895462F4770B5
:10341000405D4193B3E00FD0C9F7F6CF462F4F7010
:10342000405D4A3318F0495D31FD4052419302D06E
:10343000A9F7EACFB4E0A695979587957795679514
:10344000BA95C9F700976105710508959B01AC0114
:103450000A2E06945795479537952795BA95C9F73B
:10346000620F731F841F951FA01D08952F923F9216
:103470004F925F926F927F928F929F92AF92BF9284
:10348000CF92DF92EF92FF920F931F93CF93DF9330
:10349000CDB7DEB7CA1BDB0B0FB6F894DEBF0FBE8D
:1034A000CDBF09942A88398848885F846E847D84DA
:1034B0008C849B84AA84B984C884DF80EE80FD80DC
:1034C0000C811B81AA81B981CE0FD11D0FB6F89452
:1034D000DEBF0FBECDBFED010895F894FFCF03000E
:1034E000B9020800F8FF080000008B000A00D300B2
:1034F00014002D011E0094012800FE013200640218
:103500003C0092024100BD024600E4024B00080369
:1035100050002703550043035A005B035F0070030C
:103520006400040004001000100004000400000007
:1035300000009003F0021D03DD034E032C03400343
:103540000000000077046C048804420465045204FF
:1035500043040000000048070D0A0072657175659C
:103560007374656400525631005756313A25640031
:10357000525632005756323A2564005249310057AC
:1035800049313A256400524932005749323A25649C
:1035900000525431005754313A25640052543200DD
:1035A0005754323A2564005256434300575643431A
:1035B0003A2564005244555400574455543A256402
:1035C000005244525000574452503A256400574923
:1035D000533100574953313A3D256400574953321E
:1035E00000574953323A3D2564005754534400571D
:1035F0005453443A3D2564005744525000574452B6
:10360000503A3D256400424D6F3A002C204F4D6FDB
:103610003A002C206475743A002C20766275733A57
:10362000002C002C20766472703A002C20766261A7
:10363000743A002C20426174563A002C2063526583
:10364000663A002C20645265663A002C206942617B
:10365000743A002C20426174493A002C2065727241
:103660003A002C2063636E743A002C206773643A2E
:10367000002C2064633A00726563656976656400B6
:1036800052464E0042617474657279436F6E76657E
:10369000727465722E696E6F0057464E3A2573003C
:1036A000574D4F444500574D4F44453A3D25640022
:1036B000524D4F444500574D4F44453A46434847C5
:1036C00000574D4F44453A4644495300574D4F44E7
:1036D000453A464F524D00574D4F44453A464353A5
:1036E00000574D4F44453A444953430057494348D6
:1036F000470057494348473A3D25640052494348EB
:10370000470057494348473A2564005749444953BD
:103710000057494449533A3D2564005249444953AE
:103720000057494449533A256400575642555300BF
:1037300057564255533A3D25640052564255530060
:1037400057564255533A2564005243434E5400574E
:1037500043434E543A2564005752434E5400575247
:08376000434E543A3D2564007C
:107E0000112484B714BE81FFF0D085E080938100F7
:107E100082E08093C00088E18093C10086E0809377
:107E2000C20080E18093C4008EE0C9D0259A86E02C
:107E300020E33CEF91E0309385002093840096BBD3
:107E4000B09BFECF1D9AA8958150A9F7CC24DD24C4
:107E500088248394B5E0AB2EA1E19A2EF3E0BF2EE7
:107E6000A2D0813461F49FD0082FAFD0023811F036
:107E7000013811F484E001C083E08DD089C08234E0
:107E800011F484E103C0853419F485E0A6D080C0E4
:107E9000853579F488D0E82EFF2485D0082F10E0AE
:107EA000102F00270E291F29000F111F8ED06801E7
:107EB0006FC0863521F484E090D080E0DECF843638
:107EC00009F040C070D06FD0082F6DD080E0C81688
:107ED00080E7D80618F4F601B7BEE895C0E0D1E017
:107EE00062D089930C17E1F7F0E0CF16F0E7DF06D8
:107EF00018F0F601B7BEE89568D007B600FCFDCFD4
:107F0000A601A0E0B1E02C9130E011968C91119780
:107F100090E0982F8827822B932B1296FA010C0160
:107F200087BEE89511244E5F5F4FF1E0A038BF0790
:107F300051F7F601A7BEE89507B600FCFDCF97BE46
:107F4000E89526C08437B1F42ED02DD0F82E2BD052
:107F50003CD0F601EF2C8F010F5F1F4F84911BD097
:107F6000EA94F801C1F70894C11CD11CFA94CF0C13
:107F7000D11C0EC0853739F428D08EE10CD085E9AC
:107F80000AD08FE07ACF813511F488E018D01DD067
:107F900080E101D065CF982F8091C00085FFFCCF94
:107FA0009093C60008958091C00087FFFCCF809118
:107FB000C00084FD01C0A8958091C6000895E0E648
:107FC000F0E098E1908380830895EDDF803219F02E
:107FD00088E0F5DFFFCF84E1DECF1F93182FE3DFCA
:107FE0001150E9F7F2DF1F91089580E0E8DFEE27F6
:047FF000FF270994CA
:027FFE00040479
:00000001FF
