:020000040000FA
:100000000C9462000C948A000C948A000C948A0070
:100010000C948A000C948A000C948A000C948A0038
:100020000C948A000C948A000C948A000C948A0028
:100030000C948A000C94CD0D0C948A000C948A00C8
:100040000C942B0D0C948A000C949B0D0C94750D44
:100050000C948A000C948A000C948A000C948A00F8
:100060000C94F40D0C948A0000000000230026007C
:10007000290000000000240027002A0000000000E2
:10008000250028002B0004040404040404040202D4
:100090000202020203030303030301020408102007
:1000A0004080010204081020010204081020000012
:1000B0000008000201000003040700000000000027
:1000C00000000F0F11241FBECFEFD8E0DEBFCDBF61
:1000D00024E0A6EBB2E001C01D92AC3FB207E1F70D
:1000E00012E0A0E0B1E0EEEAFAE202C005900D9263
:1000F000A63BB107D9F710E0C2E6D0E004C02197D3
:10010000FE010E946712C136D107C9F70E94C30FD2
:100110000C9455150C9400000F931F93CF93DF930D
:10012000AB0120915A0430915B04FC01FA96DF0187
:10013000AA0FBB1FAC50BC4FC1E0D0E0C217D30721
:1001400064F40D911C9111971D961C930E931C97AE
:10015000400F511F21961C96F1CFEE0FFF1FEC5060
:10016000FC4F60837183FC01EE0FFF1FE45AFB4FCD
:10017000CA01B9010E94D51171836083DF91CF91CB
:100180001F910F9108957F928F929F92AF92BF928D
:10019000CF92DF92EF92FF920F931F93CF93DF9353
:1001A000C4E0D0E0C12CD12C76018EE4782E0BE394
:1001B0001FE194EB892E9BE2992E91E1A92EB12C9F
:1001C00070927C00C8010197F1F780917A008064F9
:1001D00080937A0080917A0086FDFCCF8091780030
:1001E00020917900322F282F032E000C440B550B41
:1001F000C501B4010E941F12032E000C440B550BC5
:10020000C20ED31EE41EF51E2197D1F6C701B6011A
:1002100024E030E040E050E00E941F12263583E1E8
:10022000380794F03093C9042093C804DF91CF912C
:100230001F910F91FF90EF90DF90CF90BF90AF9004
:100240009F908F907F90089588E893E19093C904E0
:100250008093C804EBCF2091F2043091F304EEECCC
:10026000F4E090E080E082179307CCF04091F40432
:100270005091F50480915004909151046AE0689F78
:100280009001699F300D1124EEEDF4E090E080E0E4
:100290008417950744F4219331930196F9CF119275
:1002A00011920196E0CF0895CF93DF93EEE0F1E055
:1002B00021E030E03496608171818617970754F50C
:1002C000F901EE0FFF1FEE0FFF1FE65FFE4FA0814B
:1002D000B181C281D381220F331F220F331FF90155
:1002E000E25FFE4F22813381AC014A1B5B0B2C1B6A
:1002F0003D0B429FC001439F900D529F900D1124D2
:100300006A1B7B0B0E94E911CB018C0F9D1FDF91B3
:10031000CF9108952F5F3F4F2E30310559F630E0D1
:1003200020E0D0E0C0E070E060E0B0E0A0E0DCCF32
:10033000833081F028F4813099F08230A9F008955B
:100340008730A9F08830C9F08430B1F48091800002
:100350008F7D03C0809180008F7780938000089507
:1003600084B58F7784BD089584B58F7DFBCF809150
:10037000B0008F778093B00008958091B0008F7D9A
:10038000F9CF1F93CF93DF93282F30E0F901E25587
:10039000FF4F8491F901E656FF4FD491F901EA57D6
:1003A000FF4FC491CC23A9F0162F81110E94980110
:1003B000EC2FF0E0EE0FFF1FE458FF4FA591B49132
:1003C0008FB7F894EC91111108C0D095DE23DC931F
:1003D0008FBFDF91CF911F910895DE2BF8CF8091D1
:1003E000560490915704A0915804B09159048093F9
:1003F000520490935304A0935404B093550460E0C6
:1004000088E00E94C10161E088E00C94C10161E0D4
:1004100085E00E94C1018BEC97E00197F1F760E065
:1004200085E00C94C10161E087E00E94C10160E0B9
:1004300089E00E94C10161E088E00E94C1010C9442
:10044000EF01CF93DF9390E0FC01E656FF4F24913C
:100450008A579F4FFC0184918823D1F090E0880F48
:10046000991FFC01EE58FF4FA591B491FC01E4588F
:10047000FF4FC591D49161110EC09FB7F8948C9134
:10048000E22FE0958E238C932881E223E8839FBF9F
:10049000DF91CF9108958FB7F894EC91E22BEC9314
:1004A0008FBFF6CF61E082E00E94210261E084E02C
:1004B0000E94210261E083E00E94210261E088E065
:1004C0000E94210261E089E00E94210261E087E050
:1004D0000E94210261E085E00E94210260E086E046
:1004E0000E94210260E081E10E94210260E080E13F
:1004F0000E94210260E085E10E94210260E084E127
:100500000E94210260E08FE00E94210260E08EE004
:100510000C94210261E086E00E94210260E086E006
:100520000E94C1018BE39CE90197F1F760E086E04E
:100530000C9421020895AF92BF92CF92DF92EF9276
:10054000FF920F931F93CF93DF936C017B018B017D
:10055000040F151FEB015E01AE18BF08C017D107CD
:1005600059F06991D601ED91FC910190F081E02D57
:10057000C6010995892B79F7C501DF91CF911F91AC
:100580000F91FF90EF90DF90CF90BF90AF900895C4
:10059000FC01538D448D252F30E0842F90E0821B89
:1005A000930B541710F0CF96089501970895FC010E
:1005B000918D828D981761F0A28DAE0FBF2FB11D66
:1005C0005D968C91928D9F5F9F73928F90E00895BE
:1005D0008FEF9FEF0895FC01918D828D981731F078
:1005E000828DE80FF11D858D90E008958FEF9FEFCC
:1005F0000895FC01918D228D892F90E0805C9F4FA2
:10060000821B91098F739927089587E593E00E94D3
:10061000F90221E0892B09F420E0822F089580E07F
:1006200090E0892B29F00E94050381110C940000B1
:100630000895FC01A48DA80FB92FB11DA35ABF4F77
:100640002C91848D90E001968F739927848FA689D1
:10065000B7892C93A089B1898C91837080648C9325
:10066000938D848D981306C00288F389E02D8081D4
:100670008F7D80830895EF92FF920F931F93CF9306
:10068000DF93EC0181E0888F9B8D8C8D98131AC0CD
:10069000E889F989808185FF15C09FB7F894EE89B4
:1006A000FF896083E889F989808183708064808311
:1006B0009FBF81E090E0DF91CF911F910F91FF905C
:1006C000EF900895F62E0B8D10E00F5F1F4F0F7304
:1006D0001127E02E8C8D8E110CC00FB607FCFACFBF
:1006E000E889F989808185FFF5CFCE010E94190341
:1006F000F1CFEB8DEC0FFD2FF11DE35AFF4FF08290
:100700009FB7F8940B8FEA89FB8980818062CFCFF5
:10071000CF93DF93EC01888D8823B9F0AA89BB8938
:10072000E889F9898C9185FD03C0808186FD0DC023
:100730000FB607FCF7CF8C9185FFF2CF808185FF44
:10074000EDCFCE010E941903E9CFDF91CF9108953B
:100750002091ED02260F3327331F21323105ECF4AF
:1007600020911103FC0190E080E0243069F082E0E8
:100770000895A091ED022191AC0143535D4FA40F68
:10078000B52FB11D2C930196861798F38091ED0239
:10079000680F6093ED0280E0089581E00895089568
:1007A0008FEF9FEF08958FEF9FEF08958091C6021E
:1007B00090E09195819591090895CF93DF93CB01B6
:1007C000EA01642F0E94A803CE01DF91CF91089522
:1007D000CF93DF931F92CDB7DEB7698361E0CE017F
:1007E00001960E94A80381E090E00F90DF91CF91E5
:1007F000089590E080E00895089520917A00909106
:100800007A00987F946090937A008E5080648093F1
:100810007C0080917A00806480937A0080917A00D5
:1008200086FDFCCF809178009091790020937A002A
:1008300008958FE00E94FD03BC0184E090E00E94D7
:100840008C008EE00E94FD03BC0185E090E00C94DA
:100850008C0081E10E94FD03BC0190E080E00E94D9
:100860008C0085E10E94FD03BC0181E090E00E94C4
:100870008C0080E10E94FD03BC0182E090E00E94B8
:100880008C0084E10E94FD03BC0183E090E00C94A5
:100890008C0040914803509149038417950708F54F
:1008A000209140033091410350E040E08091BC0230
:1008B0009091BD02821793070CF056C00196909359
:1008C000BD028093BC028091BA029091BB02841752
:1008D00095070CF04BC001969093BB028093BA022F
:1008E000089520914403309145038217930790F4B3
:1008F0002091400330914103841B950B60913A0392
:1009000070913B03869FA001879F500D969F500DCD
:100910001124CCCF40913E0350913F0320914203DC
:10092000309143038217930728F4209140033091BC
:100930004103BCCF209146033091470382179307B0
:1009400080F4B901681B790BCB0160913C03709175
:100950003D03869F9001879F300D969F300D112497
:10096000A5CF30E020E0A2CF0197A9CF0197B4CF67
:10097000CF93DF93D0E0C0E0009771F0FC010190CD
:100980000020E9F73197AF01481B590BBC0187E5FF
:1009900093E00E949B02EC0142E050E06EE571E0C2
:1009A00087E593E00E949B028C0F9D1FDF91CF9102
:1009B0000895CF93DF936115710531F061307105B2
:1009C00049F0DF91CF910895EC01CC960E94B804D4
:1009D0001CAEF7CF845B9F4FDF91CF910C94B8048E
:1009E000CF92DF92EF92FF929C018436910514F032
:1009F00023E630E01216130614F021E030E03093C5
:100A0000510420935004922F83E2233308F083E3B0
:100A10008093B00089E08093B1008FE98093B300A8
:100A2000933358F184E6C82ED12CC21AD30A0D2C68
:100A3000000CEE08FF08A091B300B0E011962AE088
:100A400030E00E9455129B01AC01C701B6010E9423
:100A5000C51128EE33E040E050E00E94FD11215026
:100A60003109410951092093B40061E083E0FF900E
:100A7000EF90DF90CF900C942102C92ED12CF12C55
:100A8000E12CD9CF1F93CF93DF9385ED8093BC00EA
:100A90008091C9029091CA02A091CB02B091CC0280
:100AA0000796A11DB11D23E0B695A795979587954B
:100AB0002A95D1F72091BC0024FD03C010921103A8
:100AC00052C04091C9025091CA026091CB0270910C
:100AD000CC02452B462B472B69F30097A105B105A6
:100AE00041F02AE22A95F1F700C00197A109B10966
:100AF000E1CF8091C802C1E0C093C702882399F179
:100B0000D091B8001091BA008091BC008A7B80938C
:100B1000BC0060E082E10E94C10160E083E10E94CC
:100B2000C10110921103C09313031092120361E0EC
:100B300082E10E94C10161E083E10E94C1018091D4
:100B4000B9008E7F8093B9008091B9008D7F80932A
:100B5000B90088E48093B80085E48093BC001093CA
:100B6000BA00D093B800DF91CF911F9108958F9272
:100B70009F92AF92BF92CF92DF92EF92FF920F932C
:100B80001F93CF93DF93EC017B015A01890161E64A
:100B900071E0C7010E946D12892B09F041C0DE018E
:100BA000A859BF4FFE01EC52FF4F2D913C91A081FF
:100BB000B1810E943E129B01AC01ADE0B0E00E9409
:100BC0005C1220E034E040E050E00E941F123F93AE
:100BD0002F9385E691E09F938F93C80124E0880FBF
:100BE000991F2A95E1F7CC968C0F9D1F9F938F93A9
:100BF0000E947D120F900F900F900F900F900F900A
:100C0000B801CE01DF91CF911F910F91FF90EF902E
:100C1000DF90CF90BF90AF909F908F900C94D904AD
:100C20006CE671E0C7010E946D12892BE9F4DE01C8
:100C3000A659BF4FFE01EC52FF4F2D913C91A08170
:100C4000B1810E943E129B01AC01ADE0B0E00E9478
:100C50005C1220E034E040E050E00E941F123F931D
:100C60002F9380E791E0B7CF67E771E0C7010E945B
:100C70006D12892BE9F4FE01E459FF4F2081318187
:100C80003250E859FF4FA081B1810E943E129B0172
:100C9000AC01A3E0B0E00E945C1220E034E040E050
:100CA00050E00E941F123F932F938BE791E093CF68
:100CB00062E871E0C7010E946D12892BE9F4FE0120
:100CC000E259FF4F208131813250EA59FF4FA08114
:100CD000B1810E943E129B01AC01A3E0B0E00E94F2
:100CE0005C1220E034E040E050E00E941F123F938D
:100CF0002F9386E891E06FCF6DE871E0C7010E9405
:100D00006D12892B61F4FE01EE58FF4F80819181B5
:100D10000E9454019F938F9381E991E05CCF68E931
:100D200071E0C7010E946D12892B61F4FE01EE583B
:100D3000FF4F808191810E9454019F938F938CE992
:100D400091E049CF63EA71E0C7010E946D12892BDF
:100D500051F4FE01EC52FF4F81818F9380818F937C
:100D600088EA91E038CF60EB71E0C7010E946D1214
:100D7000892B51F4FE01E45AFF4F81818F938081CA
:100D80008F9385EB91E027CF6DEB71E0C7010E9457
:100D90006D12892B11F5C5010E9473117C016E0142
:100DA00086EDC80ED11CB7010F2C000C880B990BD7
:100DB00037E0660F771F881F991F3A95D1F723E513
:100DC00037E040E050E00E941F12D6012D933C9383
:100DD000FF92EF9282EC91E0FECE6BEC71E0C701E6
:100DE0000E946D12892BB9F04E01B2E08B0E911C5E
:100DF000D12CC12C8E899F89C816D906CCF4D40178
:100E0000ED91FD914D01A801B501C7010995BFEF15
:100E1000CB1ADB0AEFCFC5010E947311FE01E85225
:100E2000FF4F808391839F938F9380ED91E0D3CE8A
:100E3000DF91CF911F910F91FF90EF90DF90CF90B6
:100E4000BF90AF909F908F900895EF92FF920F9375
:100E50001F93CF93DF938C017B01EA0169ED71E071
:100E60000E946D12892B29F58DED91E09F938F9350
:100E700085EE91E09F938F93CE0154E0880F991FE8
:100E80005A95E1F7805D9B4F9F938F930E947D124F
:100E90000F900F900F900F900F900F90BE0184EF66
:100EA00093E0DF91CF911F910F91FF90EF900C9401
:100EB000D9046CEE71E0C8010E946D12892B09F013
:100EC00040C068E072E0C7010E946D12892B69F48E
:100ED0001092050110920401809105018F93809179
:100EE00004018F9382EF91E0C5CF63E172E0C70107
:100EF0000E946D12892B39F481E090E090930501F6
:100F000080930401E9CF6EE172E0C7010E946D1287
:100F1000892B19F482E090E0F1CF63E372E0C7011E
:100F20000E946D12892B19F483E090E0E7CF69E20B
:100F300072E0C7010E946D12892B71F684E090E087
:100F4000DDCF6CEF71E0C8010E946D12892B39F57D
:100F50002091040130910501CE0144E0880F991FD2
:100F60004A95E1F7805D9B4F62E072E02115310503
:100F700089F06DE072E02130310561F068E172E0E6
:100F80002230310539F063E272E02430310511F08E
:100F90006DE272E00E9476120E942B017FCF68E31F
:100FA00072E0C8010E946D12892B99F5C7010E9459
:100FB00073118C01093B8BE0180710F008EB1BE064
:100FC0009801A5E5B1E00E9446122091C804309135
:100FD000C904032E000C440B550B0E941F123093C2
:100FE0004103209340036091460370914703809131
:100FF000420390914303681B790BC9010E94D511EC
:1010000070933D0360933C031F930F938EE392E034
:1010100031CF68E472E0C8010E946D12892BD9F4C7
:101020002091400330914103A091C804B091C904BC
:101030000E943E129B01AC01A3E0B0E00E945C1252
:1010400020E034E040E050E00E941F123F932F93D5
:101050008EE492E00FCF67E572E0C8010E946D1246
:10106000892B99F5C7010E9473118C01093893E10E
:10107000190710F008E813E19801A5E5B1E00E9416
:1010800046122091C8043091C904032E000C440B71
:10109000550B0E941F1230933F0320933E03609133
:1010A0004403709145038091480390914903681B64
:1010B000790BC9010E94D51170933B0360933A03E9
:1010C0001F930F938DE592E0D5CE67E672E0C801DD
:1010D0000E946D12892BB9F4A0913E03B0913F0399
:1010E00025E531E00E9455122091C8043091C904D1
:1010F000032E000C440B550B0E941F123F932F939D
:101100008DE692E0B7CE66E772E0C8010E946D12EC
:10111000892B11F5C7010E9473118C01093789E6EB
:10112000180710F008E719E69801AFE4B0E00E9454
:1011300046122091C8043091C904032E000C440BC0
:10114000550B0E941F1230934D0320934C031F93A5
:101150000F938CE792E08ECE66E872E0C8010E94A1
:101160006D12892BD9F420914C0330914D03A0913D
:10117000C804B091C9040E943E129B01AC01ADE0CD
:10118000B0E00E945C1220E034E040E050E00E94B9
:101190001F123F932F938CE892E06CCE65E972E0CA
:1011A000C8010E946D12892B59F56091C20270919D
:1011B000C3028091C4029091C50220E13EE040E06C
:1011C00050E00E941F125F934F933F932F938BE940
:1011D00092E09F938F93CE0134E0880F991F3A9548
:1011E000E1F7805D9B4F9F938F930E947D128DB797
:1011F0009EB708960FB6F8949EBF0FBE8DBF4ECE19
:1012000064EA72E0C8010E946D12892B69F51092A0
:10121000C2021092C3021092C4021092C502109230
:10122000BE021092BF021092C0021092C1021F9221
:101230001F921F921F928AEA92E09F938F93CE0192
:1012400024E0880F991F2A95E1F7805D9B4F9F93BB
:101250008F930E947D128DB79EB708960FB6F894B3
:101260009EBF0FBE8DBF1ACEDF91CF911F910F9100
:10127000FF90EF9008958F929F92AF92BF92EF925E
:10128000FF920F931F93CF93DF9387E593E00E9424
:10129000F902892BA9F187E593E00E94D7022091FA
:1012A0001C0430911D04F901EC50FC4F808F2F5F1E
:1012B0003F4F30931D0420931C048A3019F02F30C7
:1012C000310519F72C503C4FF901108E10921D0476
:1012D00010921C0464EB72E08CE094E00E94911187
:1012E0008C016FE571E090E080E00E94911130E0A8
:1012F00020E0AC01B80184EF93E00E94B705C5CFB0
:101300000E94290420916004309161046091CA0414
:101310007091CB04AB015E5F421753078CF080E005
:1013200092E0861B970B2817390754F0209162042E
:1013300030916304421753071CF02817390714F43F
:101340000E948A028091520490915304A091540407
:10135000B09155040197A109B1098093520490936B
:101360005304A0935404B0935504B7FD0E94EF01B9
:10137000E0905E04F0905F048091620490916304B9
:1013800000E012E0081B190BA0905C04B0905D0413
:10139000A801012E000C660B770B8091BE02909184
:1013A000BF02A091C002B091C102840F951FA61F79
:1013B000B71F8093BE029093BF02A093C002B09368
:1013C000C102C7010E944904809104019091050166
:1013D000009771F580910001909101018330910592
:1013E000D9F480914603909147038E159F0540F4F0
:1013F00082E090E090930101809300010E942B0114
:101400008091000190910101039709F0DCC0C09127
:10141000BC02D091BD0233C0029791F78091BC020B
:101420009091BD02801791075CF783E090E0E2CFD6
:101430008130910509F053C0809100019091010124
:1014400083309105B1F58091480390914903E816E6
:10145000F90640F482E090E090930101809300014E
:101460000E942B018091000190910101039781F569
:10147000C091BA02D091BB02D195C195D109C01BD0
:10148000D10BE091F204F091F304CF01DF01AA0F38
:10149000BB1FA653BB4F0197181619060CF056C177
:1014A0002D913C91119713963C932E93129712977E
:1014B000F2CF0297B9F68091BA029091BB02919552
:1014C00081959109081719076CF683E090E0C4CF65
:1014D000C0914803D0914903CE19DF09D2CF8230A1
:1014E000910509F07DC080914A0390914B038A15C4
:1014F0009B0530F483E090E0909305018093040114
:101500008091000190910101009721F083309105B5
:1015100009F09CC220914603309147032E153F05E8
:10152000A0F482E090E090930101809300010E947A
:101530002B01D1E080910001909101018330910550
:10154000E9F5DD2309F494CF62CF009721F08230D2
:10155000910509F049C22091BC023091BD022017CB
:1015600031071CF483E090E0DECF009719F0833060
:10157000910599F42091480330914903E216F3064E
:1015800050F482E090E090930101809300010E946A
:101590002B01D0E0CFCF009719F0029709F028C2B5
:1015A0008091BA029091BB0291958195910908179B
:1015B00019070CF01DC283E090E0E5CF029741F4DB
:1015C000DD2309F485CFC0914603D091470384CF32
:1015D00080914C0390914D03E501C81BD90B51CF6D
:1015E000049709F087C08091B6029091B702A0914C
:1015F000B802B091B9020196A11DB11D8093B60247
:101600009093B702A093B802B093B9028838F3E17F
:101610009F07A105B105F1F461E089E00E94C101D5
:1016200060E087E00E94C10161E088E00E94C101A2
:101630000E94EF018AE590E00E94F004DF91CF91D3
:101640001F910F91FF90EF90BF90AF909F908F9060
:101650000C940702803524E19207A105B10571F4CD
:1016600086E490E0DF91CF911F910F91FF90EF9072
:10167000BF90AF909F908F900C94F0048831E5E17B
:101680009E07A105B10519F482E390E0EBCF803EFF
:10169000F5E19F07A105B10519F48EE190E0E2CFD5
:1016A000883A26E19207A105B10519F48AE090E095
:1016B000D9CF8037E7E19E07A105B10529F40E9443
:1016C00013028AE590E0CECF85369941A105B10598
:1016D00034F082E090E09093050180930401DF9163
:1016E000CF911F910F91FF90EF90BF90AF909F907F
:1016F0008F90089583E090E0909301018093000122
:10170000CC27DD27C01BD10BAE14BF040CF0B9CE23
:10171000E4EBF0E08491E0EAF0E00491ECE8F0E042
:101720001491112309F4ADCE81110E949801E12F8B
:10173000F0E0EE0FFF1FE859FF4FA591B491EC9137
:10174000E02309F49ECE0E948A029BCED093CF0460
:10175000C093CE042091F4043091F504C901D9015D
:10176000AA0FBB1FA652BB4F0197181619064CF4BF
:101770004D915C91119713965C934E93129712972B
:10178000F3CF8091040190910501029709F08BC07D
:101790008091000190910101009709F084C040916F
:1017A0006004509161044D5C51404736510508F486
:1017B0007AC0CEECD4E0A091EE04B091EF04812C7D
:1017C000912C54018E179F0714F10091F004109191
:1017D000F104A0EEB4E0F801329681E090E08217C7
:1017E000930754F5CD91DD9161917191C69FA00150
:1017F000C79F500DD69F500D1124052E000C660B6F
:10180000770B841A950AA60AB70A0196E8CFE990E1
:10181000F9900D911D91E09EA001E19E500DF09E6A
:10182000500D1124052E000C660B770B840E951EAF
:10183000A61EB71E0196C6CFF80120813181032E66
:10184000000C440B550BC501B4010E941F123093CC
:10185000DF042093DE04A4E6B0E00E945C1220E0E6
:1018600034E040E050E00E941F12C9010E94F004E1
:101870008091B6029091B702A091B802B091B902DE
:101880000196A11DB11D893EF3E09F07A105B10599
:101890000CF043C08093B6029093B702A093B802B5
:1018A000B093B9021CCF8091F6049091F704019691
:1018B0009093F7048093F6042091F8043091F90492
:1018C00028173907ACF61092F7041092F60400912D
:1018D000500410915104B801012E000C880B990B93
:1018E0002AE0660F771F881F991F2A95D1F724E6F3
:1018F00030E040E050E00E941F123093DF0420935C
:10190000DE04C80101961C161D060CF4AFCFCD2BCA
:1019100009F4AECFC8010197A9CF1092B602109278
:10192000B7021092B8021092B9020E94C3000E943E
:10193000190480916404909165040E945401C0913F
:10194000CC04D091CD04C817D9074CF0809166041F
:10195000909167040E945401C817D90714F40E949B
:101960008A026091BE027091BF028091C002909184
:10197000C10228EE33E040E050E00E941F12C9018E
:101980002091C8043091C904DC010E943E129B01E1
:10199000AC01A3E0B0E00E945C1220E034E040E043
:1019A00050E00E941F12C901330FAA0BBB0B4091DC
:1019B000C2025091C3026091C4027091C502840FAB
:1019C000951FA61FB71F8093C2029093C302A093D6
:1019D000C402B093C5021092BE021092BF021092D0
:1019E000C0021092C1027BCE8330910509F4C2CDB2
:1019F0008091BA029091BB0297FD019695958795CB
:101A0000919581959109801791075CF48091BC02B2
:101A10009091BD0297FD0196959587950817190736
:101A200084F080914403909145038E159F0508F042
:101A300081CD8091420390914303E816F90608F0A6
:101A400079CD109201011092000174CD8230910580
:101A500009F481CDCDCF1F920F920FB60F921124B2
:101A60002F933F938F939F93AF93BF938091530393
:101A700090915403A0915503B091560330915203B5
:101A800023E0230F2D3758F50196A11DB11D20939A
:101A900052038093530390935403A0935503B09340
:101AA000560380914E0390914F03A0915003B09143
:101AB00051030196A11DB11D80934E0390934F03D6
:101AC000A0935003B0935103BF91AF919F918F9119
:101AD0003F912F910F900FBE0F901F90189526E801
:101AE000230F0296A11DB11DD2CF1F920F920FB6E8
:101AF0000F9211242F933F934F935F936F937F9394
:101B00008F939F93AF93BF93EF93FF9387E593E0FA
:101B10000E941903FF91EF91BF91AF919F918F9117
:101B20007F916F915F914F913F912F910F900FBED9
:101B30000F901F9018951F920F920FB60F921124BD
:101B40002F938F939F93EF93FF93E0916703F0910F
:101B500068038081E0916D03F0916E0382FD1BC0EC
:101B60009081809170038F5F8F7320917103821732
:101B700041F0E0917003F0E0E95AFC4F958F8093BB
:101B80007003FF91EF919F918F912F910F900FBE56
:101B90000F901F9018958081F4CF1F920F920FB66F
:101BA0000F9211242F933F934F935F936F937F93E3
:101BB0008F939F93AF93BF93EF93FF93E0910201B5
:101BC000F09103010995FF91EF91BF91AF919F9122
:101BD0008F917F916F915F914F913F912F910F90D6
:101BE0000FBE0F901F9018951F920F920FB60F9275
:101BF00011242F933F934F935F936F937F938F9312
:101C00009F93AF93BF93EF93FF938091B900887F29
:101C1000803609F44AC0F0F5883209F4A5C018F5F9
:101C2000803109F499C0B8F4882309F4F5C08830EC
:101C300009F492C0FF91EF91BF91AF919F918F9165
:101C40007F916F915F914F913F912F910F900FBEB8
:101C50000F901F901895883109F486C0803251F793
:101C60008093100314C0803409F49BC040F4803387
:101C7000B9F38833F9F68093100385ECAEC0803554
:101C800009F483C0883509F494C0883499F60E9419
:101C90004205D0CF883909F48AC038F5883729F051
:101CA00050F4883611F0803729F683E080931103D1
:101CB00010920F0355C0883809F479C0803919F0A3
:101CC000803809F0B7CF80910F03803208F06FC0E1
:101CD000E0910F0381E08E0F80930F038091BB0092
:101CE000F0E0E151FD4F80833BC0803B39F0D0F400
:101CF000803A09F477C0883A09F09CCF84E0809359
:101D000011031092EE021092ED02F0E0E0E009956E
:101D10008091ED0281110FC081E08093ED0210925D
:101D2000CD0209C0803C09F4A8CF883C09F4A5CFB6
:101D3000883B09F07FCFE091EE0281E08E0F809327
:101D4000EE02F0E0E353FD4F80818093BB00909161
:101D5000EE028091ED0229C0809136038093BB0092
:101D600085EC8093BC0066CF90913503809134035D
:101D7000981758F5E091350381E08E0F8093350375
:101D8000F0E0EC5EFC4F8081E9CFE091350381E02B
:101D90008E0F809335038091BB00F0E0EC5EFC4F2A
:101DA000808390913503809134039817C8F285E8B9
:101DB000D8CFE091350381E08E0F80933503809179
:101DC000BB00F0E0EC5EFC4F808380911303811137
:101DD0005ECF81E08093120384EA8093BC0010926E
:101DE000110328CF85EC8093BC00109211038091E1
:101DF0000F03803230F4E0910F03F0E0E151FD4F2A
:101E0000108260910F0370E08FEE92E0F0E0E0E06E
:101E1000099510920F030ECF1092100338CFCF9375
:101E2000DF9310925A031092590388EE93E0A0E0DA
:101E3000B0E080935B0390935C03A0935D03B09349
:101E40005E038AE491E0909358038093570385ECF6
:101E500090E0909364038093630384EC90E090930C
:101E600066038093650380EC90E090936803809311
:101E7000670381EC90E090936A038093690382EC9E
:101E800090E090936C0380936B0386EC90E09093CA
:101E90006E0380936D031092700310927103109281
:101EA00072031092730310920B0410920A041092A2
:101EB0001D0410921C0410922F0410922E048CE525
:101EC00091E09093F5038093F40382E390E0909384
:101ED00051048093500410925204109253041092B3
:101EE000540410925504C4E0D0E0D0935B04C09336
:101EF0005A0487E791E09093CB048093CA048AEA5E
:101F000090E09093CD048093CC0480E1EEECF4E07B
:101F1000DF01982F1D929A95E9F7EEEDF4E0DF01CD
:101F20001D928A95E9F71092F7041092F604D09367
:101F3000F904C093F8040E9452020E948A02D093CE
:101F40005B04C0935A040E94C300D0E0C0E08091BB
:101F50005A0490915B04C817D90734F40E942904ED
:101F60000E9419042196F3CF8BEB91E09093CB0460
:101F70008093CA0480E590E09093CD048093CC04D4
:101F8000DF91CF910895CF93DF93CDB7DEB72C9734
:101F90000FB6F894DEBF0FBECDBF789484B58260D3
:101FA00084BD84B5816084BD85B5826085BD85B5FD
:101FB000816085BD80916E00816080936E0010927B
:101FC00081008091810082608093810080918100F6
:101FD0008160809381008091800081608093800087
:101FE0008091B10084608093B1008091B0008160E5
:101FF0008093B00080917A00846080937A00809111
:102000007A00826080937A0080917A008160809368
:102010007A0080917A00806880937A001092C100E3
:102020000E94520284E090E090935B0480935A04F3
:102030000E94C300F12CE12C80915A0490915B0422
:10204000E816F90644F40E9429040E9419048FEF4F
:10205000E81AF80AF1CF8BEB91E09093CB048093D0
:10206000CA0480E590E09093CD048093CC048AE08C
:1020700091E09093EF048093EE0486E091E09093DA
:10208000F1048093F00482E090E09093F304809355
:10209000F2049093F5048093F40480910A049091E3
:1020A0000B048A30910574F40196FC01EE0FFF1FBA
:1020B000EC50FC4F25E237E03183208390930B04F2
:1020C00080930A04E0916703F091680382E08083C3
:1020D000E0916303F09164031082E0916503F09155
:1020E000660383E3808310926F03E0916B03F091AA
:1020F0006C0386E08083E0916903F0916A0380813C
:1021000080618083E0916903F0916A038081886037
:102110008083E0916903F0916A0380818068808305
:10212000E0916903F0916A0380818F7D8083C09084
:10213000C804D090C9040D2C000CEE08FF0860E420
:102140007EEE8CE190E0A70196010E941F12309371
:102150004D0320934C0360EA70EC81E290E0A7010C
:1021600096010E941F1230934B0320934A0360EFA5
:102170007DE08CE090E0A70196010E941F12298368
:102180003A834B835C8389819A819093490380933E
:10219000480360E570EE80E190E0A70196010E949F
:1021A0001F124901309347032093460368E872E405
:1021B0008DE090E0A70196010E941F122D833E83BF
:1021C0004F8358878D819E8190934503809344036C
:1021D00068EB7BEA8FE090E0A70196010E941F1256
:1021E00029873A874B875C8789859A859093430333
:1021F0008093420368E074E385E090E0A7019601D4
:102200000E941F12290130934103209340036CE088
:102210007EEC87E090E0A70196010E941F12690101
:1022200030933F0320933E03B40189859A85681B50
:10223000790BC2010E94D51170933D0360933C035A
:102240006D817E8189819A81681B790BC6010E940C
:10225000D51170933B0360933A0380915E04909193
:102260005F040E9449040E9413028091040190912E
:102270000501049711F00E94070280E1809381001C
:102280001092800081E08093390320E43FE1309395
:10229000380320933703309387002093860091E121
:1022A000909381002BE339E03093030120930201E6
:1022B00080936F008AE090E0A0E0B0E08093560445
:1022C00090935704A0935804B09359040E94EF01CF
:1022D00080E090E0892BE1F30E9405038823C1F39D
:1022E0000E940000F5CFFC0188279927E8942191EE
:1022F0002032E9F3293010F02E30C8F32B3241F0B0
:102300002D3239F4689404C00E94BD11820F911DD2
:10231000219120532A30C0F31EF4909581959F4F50
:1023200008954AEF54E00E9496110895FA01A19190
:10233000B081009719F41097E1F0CD01DC01CD01D7
:102340000D90002011F4C00113C0FB012191222344
:1023500019F02015D9F7F3CFFB012191201519F4BD
:102360001E92119606C02223C1F70D900020A1F7FE
:10237000D001FA01A193B08308957AE0979F902D40
:10238000879F802D910D11240895DB018F939F93DA
:102390000E945C12BF91AF91A29F800D911DA39FDF
:1023A000900DB29F900D11240895AA1BBB1B51E103
:1023B00007C0AA1FBB1FA617B70710F0A61BB70BB5
:1023C000881F991F5A95A9F780959095BC01CD015A
:1023D000089597FB072E16F4009407D077FD09D0D7
:1023E0000E94D51107FC05D03EF4909581959F4F32
:1023F0000895709561957F4F0895A1E21A2EAA1B4A
:10240000BB1BFD010DC0AA1FBB1FEE1FFF1FA217A4
:10241000B307E407F50720F0A21BB30BE40BF50BA1
:10242000661F771F881F991F1A9469F7609570952A
:10243000809590959B01AC01BD01CF010895052EBB
:1024400097FB1EF400940E94361257FD07D00E949D
:10245000FD1107FC03D04EF40C94361250954095B4
:10246000309521953F4F4F4F5F4F08959095809540
:10247000709561957F4F8F4F9F4F08950E94461230
:10248000332312F48A1B9B0B0C945712A29FB001AA
:10249000B39FC001A39F700D811D1124911DB29F98
:1024A000700D811D1124911D08950E944612B7FFE1
:1024B0000895821B930B08950E944612A59F900DCC
:1024C000B49F900DA49F800D911D11240895EE0FCF
:1024D000FF1F0590F491E02D0994FB01DC018D9123
:1024E000019080190110D9F3990B0895FB01DC01CB
:1024F00001900D920020E1F70895AEE0B0E0E3E82E
:10250000F2E10C942C150D891E8986E08C831A83C8
:1025100009838FEF9FE79E838D83AE01475E5F4FF8
:102520006F89788DCE0101960E94A0122F81388587
:10253000020F131FF80110822E96E4E00C94481548
:10254000ABE0B0E0E6EAF2E10C941E157C013B0141
:102550008A01FC0117821682838181FFC8C1CE01E6
:1025600001965C01F7019381F30193FD859193FF3F
:1025700081913F01882309F453C1853239F493FDD9
:10258000859193FF81913F01853229F4B70190E055
:102590000E949014E7CF912C212C312CFFE1F315F0
:1025A00038F08B3211F190F4803209F1833229F145
:1025B00037FC3CC020ED280F2A3050F536FE20C0F5
:1025C0008AE0989E200D1124922E06C08D3291F043
:1025D000803371F7689430F8F30193FD859193FF90
:1025E00081913F018111DACF21C0689431F868945C
:1025F00032F8F2CF689433F8EFCF689434F8ECCF28
:10260000EAE02E9E200D1124222E689435F8E4CFA6
:102610008E3229F436FC04C1689436F8DDCF8C364E
:1026200019F4689437F8D8CF8836B1F2982F9F7D87
:1026300095549330E0F08336A1F18337C1F18335AF
:1026400009F063C02801F2E04F0E511CF801C08070
:10265000D180692D70E036FC02C06FEF7FEFC601BC
:102660000E947A144C01689437F882010AC00C5F0A
:102670001F4FFFE3F98388248394912C6501E8942C
:1026800037F833FE2DC0522C8114910471F555207A
:1026900009F468CFB70180E290E00E9490145A9448
:1026A000F6CFF801808189830E5F1F4FE4CF2801A8
:1026B000F2E04F0E511CF801C080D180692D70E00E
:1026C00036FC02C06FEF7FEFC6010E9485144C01FB
:1026D0008201D5CFB70180E290E00E9490142A9445
:1026E0002814190409F0B0F7CECFF60137FC859114
:1026F00037FE81916F01B70190E00E949014511054
:102700005A94F1E08F1A9108BFCF843619F08936B8
:1027100009F077C0F80137FE6BC06081718182815A
:1027200093810C5F1F4FF32DFF763F2E97FF09C05B
:1027300090958095709561957F4F8F4F9F4F6894CE
:1027400037F82AE030E0A5010E94C014C82ECA184C
:102750008C2C432C36FE0CC0E89440F8C91440F48D
:1027600034FE05C032FC03C0F32DFE7E4F2E892CB3
:1027700044FE95C0FE01EC0DF11D8081803309F00F
:1027800087C0242D297E422E842D8870582E43FC2C
:1027900095C040FE8FC09C2C821418F42C0C922CF7
:1027A000981844FE91C0B70180E390E00E94901415
:1027B00042FE09C088E790E041FE02C088E590E053
:1027C000B7010E949014C91408F48AC0CA94D12C8D
:1027D0009FEFC91AD90ACA0CDB1CF60182916F015E
:1027E000B70190E00E949014AC14BD04B1F74FCF34
:1027F00060817181072E000C880B990B0E5F1F4FB3
:1028000092CFD32CE894D4F82AE030E0853739F120
:10281000232D297FD22E8F3601F148F48835A9F077
:10282000F701868197812B96E2E10C943A15803767
:1028300049F08837A9F7D4FE02C06894D2F820E1A5
:1028400030E00DC06894D4F8F6CF34FE03C0822F78
:102850008660D82E20E132E002C028E030E0F801A6
:10286000D7FE0FC060817181828193810C5F1F4F01
:10287000A5010E94C014C82ECA183D2CE89437F850
:1028800067CF6081718190E080E00E5F1F4FF0CFD5
:1028900042FC02C0839478CF8394839475CF842DB7
:1028A000867809F471CFF6CFB70180E290E00E94FC
:1028B000901483948214C0F3512C73CF522C581867
:1028C000821408F46ECFF8CF842D867809F47BCF7C
:1028D0008BE241FE80E247FC8DE2B70190E071CFD0
:1028E000B70180E390E00E9490149A946CCF8FEF30
:1028F0009FEF99CFFC010590615070400110D8F70F
:10290000809590958E0F9F1F0895FC016150704037
:1029100001900110D8F7809590958E0F9F1F089514
:102920000F931F93CF93DF93182F092FEB018B8108
:1029300081FD09C01FEF0FEF812F902FDF91CF9105
:102940001F910F91089582FF14C02E813F818C81C9
:102950009D81281739073CF4E881F981CF01019660
:102960009983888310838E819F8101969F838E83B4
:10297000E3CFE885F985812F0995892BA1F3DACF7B
:10298000FA01AA27283051F1203181F1E8946F93A0
:102990006E7F6E5F7F4F8F4F9F4FAF4FB1E03ED046
:1029A000B4E03CD0670F781F891F9A1FA11D680FE4
:1029B000791F8A1F911DA11D6A0F711D811D911D17
:1029C000A11D20D009F468943F912AE0269F11248C
:1029D0003019305D3193DEF6CF010895462F4770F0
:1029E000405D4193B3E00FD0C9F7F6CF462F4F704B
:1029F000405D4A3318F0495D31FD4052419302D0A9
:102A0000A9F7EACFB4E0A69597958795779567954E
:102A1000BA95C9F700976105710508959B01AC014E
:102A20000A2E06945795479537952795BA95C9F775
:102A3000620F731F841F951FA01D08952F923F9250
:102A40004F925F926F927F928F929F92AF92BF92BE
:102A5000CF92DF92EF92FF920F931F93CF93DF936A
:102A6000CDB7DEB7CA1BDB0B0FB6F894DEBF0FBEC7
:102A7000CDBF09942A88398848885F846E847D8414
:102A80008C849B84AA84B984C884DF80EE80FD8016
:102A90000C811B81AA81B981CE0FD11D0FB6F8948C
:102AA000DEBF0FBECDBFED010895F894FFCF030048
:102AB0009A0203000800F8FF080000008B000A00DB
:102AC000D30014002D011E0094012800FE013200E5
:102AD00064023C0092024100BD024600E4024B0049
:102AE000080350002703550043035A005B035F00AF
:102AF00070036400000000003B039B02C8028803CF
:102B0000F902D702EB0200000000B7050D0A0052DF
:102B10005631005756313A25640052563200575606
:102B2000323A256400524931005749313A25640050
:102B3000524932005749323A256400525431005705
:102B400054313A256400525432005754323A2564C5
:102B5000005256434300575643433A2564005244BB
:102B6000555400574455543A25640057495344007E
:102B7000574953443A3D2564005754534400575431
:102B800053443A3D25640052464E00424D532E694F
:102B90006E6F0057464E3A257300574D4F4445001F
:102BA000574D4F44453A3D256400524D4F44450032
:102BB000574D4F44453A4643484700574D4F4445CB
:102BC0003A4644495300574D4F44453A464F524DBB
:102BD00000574D4F44453A46435300574D4F4445E7
:102BE0003A484F4C440057494348470057494348E7
:102BF000473A3D25640052494348470057494348F6
:102C0000473A2564005749444953005749444953BA
:102C10003A3D2564005249444953005749444953B9
:102C20003A25640057564255530057564255533A79
:102C30003D25640052564255530057564255533A6B
:102C40002564005243434E54005743434E543A25A3
:102C500064005752434E54005752434E543A3D2558
:042C600064003A00D2
:107E0000112484B714BE81FFF0D085E080938100F7
:107E100082E08093C00088E18093C10086E0809377
:107E2000C20080E18093C4008EE0C9D0259A86E02C
:107E300020E33CEF91E0309385002093840096BBD3
:107E4000B09BFECF1D9AA8958150A9F7CC24DD24C4
:107E500088248394B5E0AB2EA1E19A2EF3E0BF2EE7
:107E6000A2D0813461F49FD0082FAFD0023811F036
:107E7000013811F484E001C083E08DD089C08234E0
:107E800011F484E103C0853419F485E0A6D080C0E4
:107E9000853579F488D0E82EFF2485D0082F10E0AE
:107EA000102F00270E291F29000F111F8ED06801E7
:107EB0006FC0863521F484E090D080E0DECF843638
:107EC00009F040C070D06FD0082F6DD080E0C81688
:107ED00080E7D80618F4F601B7BEE895C0E0D1E017
:107EE00062D089930C17E1F7F0E0CF16F0E7DF06D8
:107EF00018F0F601B7BEE89568D007B600FCFDCFD4
:107F0000A601A0E0B1E02C9130E011968C91119780
:107F100090E0982F8827822B932B1296FA010C0160
:107F200087BEE89511244E5F5F4FF1E0A038BF0790
:107F300051F7F601A7BEE89507B600FCFDCF97BE46
:107F4000E89526C08437B1F42ED02DD0F82E2BD052
:107F50003CD0F601EF2C8F010F5F1F4F84911BD097
:107F6000EA94F801C1F70894C11CD11CFA94CF0C13
:107F7000D11C0EC0853739F428D08EE10CD085E9AC
:107F80000AD08FE07ACF813511F488E018D01DD067
:107F900080E101D065CF982F8091C00085FFFCCF94
:107FA0009093C60008958091C00087FFFCCF809118
:107FB000C00084FD01C0A8958091C6000895E0E648
:107FC000F0E098E1908380830895EDDF803219F02E
:107FD00088E0F5DFFFCF84E1DECF1F93182FE3DFCA
:107FE0001150E9F7F2DF1F91089580E0E8DFEE27F6
:047FF000FF270994CA
:027FFE00040479
:00000001FF
