:020000040000FA
:100000000C945D000C9485000C9485000C94850084
:100010000C9485000C9485000C9485000C9485004C
:100020000C9485000C9485000C9485000C9485003C
:100030000C9485000C944E0A0C9485000C94850059
:100040000C94AC090C9485000C941C0A0C94F609D1
:100050000C9485000C9485000C9485000C9485000C
:100060000C94750A0C948500000000002400270001
:100070002A0000000000250028002B0004040404CE
:100080000404040402020202020203030303030342
:10009000010204081020408001020408102001021F
:1000A00004081020000000080002010000030407FB
:1000B0000000000000000000900B11241FBECFEFD5
:1000C000D8E0DEBFCDBF24E0A4E5B2E001C01D92C0
:1000D000AE37B207E1F712E0A0E0B1E0E6EBF2E202
:1000E00002C005900D92A435B107D9F710E0CDE517
:1000F000D0E004C02197FE010E94720ECC35D107DA
:10010000C9F70E94440C0C9459110C940000CF9331
:10011000DF93EEE0F1E021E030E034966081718120
:100120008617970754F5F901EE0FFF1FEE0FFF1F1B
:10013000E65FFE4FA081B181C281D381220F331FC0
:10014000220F331FF901E25FFE4F22813381AC01A0
:100150004A1B5B0B2C1B3D0B429FC001439F900D24
:10016000529F900D11246A1B7B0B0E94F40DCB0152
:100170008C0F9D1FDF91CF9108952F5F3F4F2E3041
:10018000310559F630E020E0D0E0C0E070E060E0FA
:10019000B0E0A0E0DCCF0F931F93CF93DF93AB01D0
:1001A0002091DC033091DD03FC01FA96DF01AA0FF8
:1001B000BB1FAA58BC4FC1E0D0E0C217D30764F4FC
:1001C0000D911C9111971D961C930E931C97400F37
:1001D000511F21961C96F1CFEE0FFF1FEA58FC4FDE
:1001E00060837183FC01EE0FFF1FE252FC4FCA01D6
:1001F000B9010E94E00D71836083DF91CF911F915F
:100200000F9108957F928F929F92AF92BF92CF925B
:10021000DF92EF92FF920F931F93CF93DF93C4E08F
:10022000D0E0C12CD12C76018EE4782E0BE31FE1B7
:1002300094EB892E9BE2992E91E1A92EB12C70921C
:100240007C00C8010197F1F780917A008064809367
:100250007A0080917A0086FDFCCF80917800209111
:100260007900322F282F032E000C440B550BC501AB
:10027000B4010E942A0E032E000C440B550BC20E33
:10028000D31EE41EF51E2197D1F6C701B60124E066
:1002900030E040E050E00E942A0E263583E1380726
:1002A00094F030934B0420934A04DF91CF911F9137
:1002B0000F91FF90EF90DF90CF90BF90AF909F9005
:1002C0008F907F90089588E893E190934B048093FA
:1002D0004A04EBCF2091740430917504E0E5F4E01A
:1002E00090E080E082179307CCF040917604509123
:1002F00077048091D2039091D3036AE0689F9001C4
:10030000699F300D1124E0E6F4E090E080E084176E
:10031000950744F4219331930196F9CF11921192EC
:100320000196E0CF089590E0FC01EC55FF4F249139
:10033000FC01E057FF4F3491FC01E458FF4FE4917A
:10034000EE23C9F0222339F0233001F1A8F4213043
:1003500019F1223029F1F0E0EE0FFF1FEE58FF4FA8
:10036000A591B4918FB7F894EC91611126C03095A6
:100370003E233C938FBF08952730A9F02830C9F061
:10038000243049F7809180008F7D03C080918000E8
:100390008F7780938000DFCF84B58F7784BDDBCFEC
:1003A00084B58F7DFBCF8091B0008F778093B000B4
:1003B000D2CF8091B0008F7DF9CF3E2BDACF8091E4
:1003C000D8039091D903A091DA03B091DB03809315
:1003D000D4039093D503A093D603B093D70360E0E2
:1003E00088E00E94930161E088E00C949301CF9330
:1003F000DF9390E0FC01E057FF4F249184589F4F1A
:10040000FC0184918823D1F090E0880F991FFC01B2
:10041000E859FF4FA591B491FC01EE58FF4FC591EB
:10042000D49161110EC09FB7F8948C91E22FE095A2
:100430008E238C932881E223E8839FBFDF91CF91A5
:1004400008958FB7F894EC91E22BEC938FBFF6CF21
:1004500061E086E00E94F70160E086E00E9493017F
:100460008BE39CE90197F1F760E086E00C94F701DB
:1004700061E082E00E94F70161E084E00E94F70100
:1004800061E083E00E94F70161E088E00E94F701EB
:1004900061E089E00E94F70161E087E00E94F701D6
:1004A00061E085E00E94F70160E086E00E94F701CC
:1004B00060E081E10E94F70160E080E10E94F701C5
:1004C00060E085E10E94F70160E084E10E94F701AD
:1004D00060E08FE00E94F70160E08EE00C94F7018D
:1004E0000895AF92BF92CF92DF92EF92FF920F9357
:1004F0001F93CF93DF936C017B018B01040F151FBA
:10050000EB015E01AE18BF08C017D10759F0699121
:10051000D601ED91FC910190F081E02DC601099585
:10052000892B79F7C501DF91CF911F910F91FF9032
:10053000EF90DF90CF90BF90AF900895FC01538D66
:10054000448D252F30E0842F90E0821B930B5417AD
:1005500010F0CF96089501970895FC01918D828D3A
:10056000981761F0A28DAE0FBF2FB11D5D968C91D3
:10057000928D9F5F9F73928F90E008958FEF9FEF12
:100580000895FC01918D828D981731F0828DE80FCE
:10059000F11D858D90E008958FEF9FEF0895FC0188
:1005A000918D228D892F90E0805C9F4F821B910955
:1005B0008F739927089589ED92E00E94CF0221E080
:1005C000892B09F420E0822F089580E090E0892BA8
:1005D00029F00E94DB0281110C9400000895FC01B7
:1005E000A48DA80FB92FB11DA35ABF4F2C91848D94
:1005F00090E001968F739927848FA689B7892C93F1
:10060000A089B1898C91837080648C93938D848D43
:10061000981306C00288F389E02D80818F7D808346
:100620000895EF92FF920F931F93CF93DF93EC0106
:1006300081E0888F9B8D8C8D98131AC0E889F98989
:10064000808185FF15C09FB7F894EE89FF8960838C
:10065000E889F98980818370806480839FBF81E00D
:1006600090E0DF91CF911F910F91FF90EF9008954F
:10067000F62E0B8D10E00F5F1F4F0F731127E02E2A
:100680008C8D8E110CC00FB607FCFACFE889F98962
:10069000808185FFF5CFCE010E94EF02F1CFEB8D77
:1006A000EC0FFD2FF11DE35AFF4FF0829FB7F89436
:1006B0000B8FEA89FB8980818062CFCFCF93DF9354
:1006C000EC01888D8823B9F0AA89BB89E889F9896A
:1006D0008C9185FD03C0808186FD0DC00FB607FC9F
:1006E000F7CF8C9185FFF2CF808185FFEDCFCE01D2
:1006F0000E94EF02E9CFDF91CF910895209181020E
:10070000260F3327331F21323105ECF42091A50247
:10071000FC0190E080E0243069F082E00895A0912F
:1007200081022191AC014F595D4FA40FB52FB11D2E
:100730002C930196861798F380918102680F60933D
:10074000810280E0089581E0089508958FEF9FEF82
:1007500008958FEF9FEF089580915A0290E0919550
:10076000819591090895CF93DF93CB01EA01642F1E
:100770000E947E03CE01DF91CF910895CF93DF9346
:100780001F92CDB7DEB7698361E0CE0101960E946A
:100790007E0381E090E00F90DF91CF91089590E08B
:1007A00080E00895089520917A0090917A00987FD2
:1007B000946090937A008E50806480937C00809146
:1007C0007A00806480937A0080917A0086FDFCCF65
:1007D000809178009091790020937A0008958FE0BD
:1007E0000E94D303BC0184E090E00E94CB008EE025
:1007F0000E94D303BC0185E090E00C94CB0081E122
:100800000E94D303BC0190E080E00E94CB0085E110
:100810000E94D303BC0181E090E00E94CB0080E104
:100820000E94D303BC0182E090E00E94CB0084E1EF
:100830000E94D303BC0183E090E00C94CB00CF92E4
:10084000DF92EF92FF929C018436910514F023E62B
:1008500030E01216130614F021E030E03093D30399
:100860002093D203922F83E2233308F083E3809313
:10087000B00089E08093B1008FE98093B300933397
:1008800058F184E6C82ED12CC21AD30A0D2C000CC4
:10089000EE08FF08A091B300B0E011962AE030E026
:1008A0000E94600E9B01AC01C701B6010E94D00DF1
:1008B00028EE33E040E050E00E94080E215031095C
:1008C000410951092093B40061E083E0FF90EF906B
:1008D000DF90CF900C94F701C92ED12CF12CE12C94
:1008E000D9CFCF93DF93D0E0C0E0009771F0FC0147
:1008F00001900020E9F73197AF01481B590BBC016B
:1009000089ED92E00E947102EC0142E050E06EE558
:1009100071E089ED92E00E9471028C0F9D1FDF91C2
:10092000CF910895CF93DF936115710531F0613058
:10093000710549F0DF91CF910895EC01CC960E94AA
:1009400071041CAEF7CF845B9F4FDF91CF910C9465
:1009500071041F93CF93DF9385ED8093BC0080914A
:100960005D0290915E02A0915F02B09160020796D5
:10097000A11DB11D23E0B695A795979587952A955A
:10098000D1F72091BC0024FD03C01092A50252C0F3
:1009900040915D0250915E0260915F027091600231
:1009A000452B462B472B69F30097A105B10541F074
:1009B0002AE22A95F1F700C00197A109B109E1CF18
:1009C00080915C02C1E0C0935B02882399F1D091D1
:1009D000B8001091BA008091BC008A7B8093BC0063
:1009E00060E082E10E94930160E083E10E94930154
:1009F0001092A502C093A7021092A60261E082E1C4
:100A00000E94930161E083E10E9493018091B9000B
:100A10008E7F8093B9008091B9008D7F8093B9005B
:100A200088E48093B80085E48093BC001093BA00FA
:100A3000D093B800DF91CF911F9108958F929F922C
:100A4000AF92BF92CF92DF92EF92FF920F931F93DC
:100A5000CF93DF93EC017B015A01890161E671E0DC
:100A6000C7010E94780E892B09F041C0DE01A85908
:100A7000BF4FFE01EC52FF4F2D913C91A081B181FF
:100A80000E94490E9B01AC01ADE0B0E00E94670EF0
:100A900020E034E040E050E00E942A0E3F932F9384
:100AA00085E691E09F938F93C80124E0880F991FFA
:100AB0002A95E1F7CC968C0F9D1F9F938F930E94F0
:100AC000810E0F900F900F900F900F900F90B80124
:100AD000CE01DF91CF911F910F91FF90EF90DF90AA
:100AE000CF90BF90AF909F908F900C9492046CE643
:100AF00071E0C7010E94780E892BE9F4DE01A65946
:100B0000BF4FFE01EC52FF4F2D913C91A081B1816E
:100B10000E94490E9B01AC01ADE0B0E00E94670E5F
:100B200020E034E040E050E00E942A0E3F932F93F3
:100B300080E791E0B7CF67E771E0C7010E94780EC8
:100B4000892BE9F4FE01E459FF4F208131813250B5
:100B5000E859FF4FA081B1810E94490E9B01AC0171
:100B6000A3E0B0E00E94670E20E034E040E050E0F7
:100B70000E942A0E3F932F938BE791E093CF62E878
:100B800071E0C7010E94780E892BE9F4FE01E25959
:100B9000FF4F208131813250EA59FF4FA081B1814E
:100BA0000E94490E9B01AC01A3E0B0E00E94670ED9
:100BB00020E034E040E050E00E942A0E3F932F9363
:100BC00086E891E06FCF6DE871E0C7010E94780E72
:100BD000892B61F4FE01EE58FF4F808191810E94C4
:100BE00087009F938F9381E991E05CCF68E971E082
:100BF000C7010E94780E892B61F4FE01EE58FF4F69
:100C0000808191810E9487009F938F938CE991E06E
:100C100049CF63EA71E0C7010E94780E892B51F435
:100C2000FE01EC52FF4F81818F9380818F9388EA80
:100C300091E038CF60EB71E0C7010E94780E892BFC
:100C400051F4FE01E45AFF4F81818F9380818F938D
:100C500085EB91E027CF6DEB71E0C7010E94780E24
:100C6000892B11F5C5010E947E0D7C016E0186ED78
:100C7000C80ED11CB7010F2C000C880B990B37E064
:100C8000660F771F881F991F3A95D1F723E537E044
:100C900040E050E00E942A0ED6012D933C93FF9233
:100CA000EF9282EC91E0FECE6BEC71E0C7010E9406
:100CB000780E892BB9F04E01B2E08B0E911CD12C2D
:100CC000C12C8E899F89C816D906CCF4D401ED9128
:100CD000FD914D01A801B501C7010995BFEFCB1AE0
:100CE000DB0AEFCFC5010E947E0DFE01E852FF4FE7
:100CF000808391839F938F9380ED91E0D3CEDF919A
:100D0000CF911F910F91FF90EF90DF90CF90BF9008
:100D1000AF909F908F900895EF92FF920F931F9343
:100D2000CF93DF938C017B01EA0169ED71E00E94B2
:100D3000780E892BA9F48DED91E09F938F938DEE22
:100D400091E09F938F93CE0124E0880F991F2A95FD
:100D5000E1F78E549C4F9F938F930E94810E72C037
:100D600064EF71E0C8010E94780E892BF1F4C7018D
:100D70000E947E0D182F092F282F392FAFE4B0E0E5
:100D80000E94510E20914A0430914B04032E000C16
:100D9000440B550B0E942A0E3093CF022093CE02B3
:100DA0000F931F938AEF91E0CCCF64E072E0C8010B
:100DB0000E94780E892BD9F42091CE023091CF0277
:100DC000A0914A04B0914B040E94490E9B01AC01D2
:100DD000ADE0B0E00E94670E20E034E040E050E07B
:100DE0000E942A0E3F932F938AE092E0AACF63E1FC
:100DF00072E0C8010E94780E892B59F5C7010E9444
:100E00007E0D8C011F938F9389E192E09F938F93C6
:100E1000CE0154E0880F991F5A95E1F78E549C4FEC
:100E20009F938F930E94810EC80165E0880F991FE0
:100E30006A95E1F76CED70E10E94F40D7093590230
:100E4000609358020F900F900F900F900F900F909B
:100E500035C063E272E0C8010E94780E892BC9F5A3
:100E600040915802509159022CED30E1429FC0014F
:100E7000439F900D529F900D112435E096958795D4
:100E80003A95E1F71F921F929F938F9389E292E028
:100E90009F938F93CE0144E0880F991F4A95E1F705
:100EA0008E549C4F9F938F930E94810E8DB79EB757
:100EB00008960FB6F8949EBF0FBE8DBFBE0186E7A1
:100EC00093E0DF91CF911F910F91FF90EF900C94E1
:100ED000920462E372E0C8010E94780E892BF1F45B
:100EE000C7010E947E0D182F092F25E531E0A82F9C
:100EF000B92F0E94600E20914A0430914B04032EBA
:100F0000000C440B550B0E942A0E309305012093D0
:100F100004010F931F9388E392E013CF62E472E021
:100F2000C8010E94780E892BD9F4209104013091D8
:100F30000501A0914A04B0914B040E94490E9B0107
:100F4000AC01A3E0B0E00E94670E20E034E040E096
:100F500050E00E942A0E3F932F9388E492E0F1CE56
:100F6000DF91CF911F910F91FF90EF900895AF9275
:100F7000BF92CF92DF92EF92FF920F931F93CF9386
:100F8000DF9389ED92E00E94CF02EC01892BA9F159
:100F900089ED92E00E94AD0220919E0330919F0363
:100FA000F901EA58FC4F808F2F5F3F4F30939F032A
:100FB00020939E038A3019F02F30310511F72A58FB
:100FC0003C4FF901108E10929F0310929E0361E531
:100FD00072E08EE893E00E949C0DEC016FE571E0F9
:100FE00090E080E00E949C0D30E020E0AC01BE016A
:100FF00086E793E00E941E05C4CF0E94FF03209164
:10100000E2033091E30360914C0470914D04AB0115
:101010005E5F421753078CF080E092E0861B970BCF
:101020002817390754F02091E4033091E503421763
:1010300053071CF02817390714F40E9428028091E6
:10104000D4039091D503A091D603B091D703019713
:10105000A109B1098093D4039093D503A093D6033B
:10106000B093D703B7FD0E94DF01A090E003B090DA
:10107000E1038091E4039091E50320E032E07901FF
:10108000E81AF90A809100019091010182309105DE
:1010900079F580910401909105018E159F0544F426
:1010A00083E090E090930101809300010E946A0127
:1010B0008091000190910101039731F500910401A5
:1010C000109105010E191F09409174045091750487
:1010D000CA01FA01EE0FFF1FE45BFB4F01971816E0
:1010E00019065CF520813181338322833297F6CF54
:1010F0000397F1F68091CE029091CF028A159B055D
:10110000BCF682E090E0CECF209158023091590297
:10111000E29EC001E39E900DF29E900D1124E5E049
:1011200096958795EA95E1F70091CE021091CF024E
:10113000081B190B0A191B09C7CF10935104009300
:101140005004A0907604B09077049501F501EE0F5D
:10115000FF1FE45AFB4F215031091216130634F4D5
:1011600060817181738362833297F5CF2091E403AC
:101170003091E5032D5C31402736310508F483C0FA
:10118000A0E5B4E0E0917004F091710460E070E0DB
:10119000CB01C417D5071CF10091720410917304A0
:1011A000A2E6B4E0F801329621E030E02A153B05D2
:1011B0005CF5CD91DD9141915191C49F6001C59F36
:1011C000D00CD49FD00C11240D2C000CEE08FF087D
:1011D0006C197D098E099F092F5F3F4FE7CFED9076
:1011E000FD9001911191E09E9001E19E300DF09EE5
:1011F000300D11248901330F220B330B600F711F47
:10120000821F931F2196C5CFF80120813181032EC3
:10121000000C440B550B0E942A0E3093610420935E
:101220006004A4E6B0E00E94670E20E034E040E0F5
:1012300050E00E942A0EC9010E941F0480915402AE
:1012400090915502A0915602B09157020196A11DAE
:10125000B11D893BFBE09F07A105B1050CF04DC016
:101260008093540290935502A0935602B093570274
:10127000DF91CF911F910F91FF90EF90DF90CF9072
:10128000BF90AF9008958091780490917904019671
:10129000909379048093780420917A0430917B04B0
:1012A000281739075CF61092790410927804C091DF
:1012B000D203D091D303BE010D2E000C880B990BE5
:1012C0002AE0660F771F881F991F2A95D1F724E619
:1012D00030E040E050E00E942A0E309361042093F9
:1012E0006004CE010196101611060CF4A5CF012B57
:1012F00009F4A4CFCE0101979FCF1092540210920F
:10130000550210925602109257020E9402010E944A
:10131000EF038091E6039091E7030E948700C0915C
:101320004E04D0914F04C817D90754F08091E803B8
:101330009091E9030E948700C817D9070CF098CF55
:10134000DF91CF911F910F91FF90EF90DF90CF90A1
:10135000BF90AF900C9428021F920F920FB60F927D
:1013600011242F933F938F939F93AF93BF938091BB
:10137000D5029091D602A091D702B091D8023091B7
:10138000D40223E0230F2D3758F50196A11DB11D7E
:101390002093D4028093D5029093D602A093D702D3
:1013A000B093D8028091D0029091D102A091D20244
:1013B000B091D3020196A11DB11D8093D0029093EC
:1013C000D102A093D202B093D302BF91AF919F916B
:1013D0008F913F912F910F900FBE0F901F901895F6
:1013E00026E8230F0296A11DB11DD2CF1F920F92A6
:1013F0000FB60F9211242F933F934F935F936F93E8
:101400007F938F939F93AF93BF93EF93FF9389ED58
:1014100092E00E94EF02FF91EF91BF91AF919F91F7
:101420008F917F916F915F914F913F912F910F908D
:101430000FBE0F901F9018951F920F920FB60F922C
:1014400011242F938F939F93EF93FF93E091E902E1
:10145000F091EA028081E091EF02F091F00282FDCA
:101460001BC090818091F2028F5F8F732091F302F5
:10147000821741F0E091F202F0E0E752FD4F958FC4
:101480008093F202FF91EF919F918F912F910F9096
:101490000FBE0F901F9018958081F4CF1F920F926E
:1014A0000FB60F9211242F933F934F935F936F9337
:1014B0007F938F939F93AF93BF93EF93FF93E091AD
:1014C0000201F09103010995FF91EF91BF91AF9156
:1014D0009F918F917F916F915F914F913F912F914C
:1014E0000F900FBE0F901F9018951F920F920FB67E
:1014F0000F9211242F933F934F935F936F937F939A
:101500008F939F93AF93BF93EF93FF938091B90015
:10151000887F803609F44AC0F0F5883209F4A5C006
:1015200018F5803109F499C0B8F4882309F4F5C09E
:10153000883009F492C0FF91EF91BF91AF919F91D4
:101540008F917F916F915F914F913F912F910F906C
:101550000FBE0F901F901895883109F486C0803215
:1015600051F78093A40214C0803409F49BC040F466
:101570008033B9F38833F9F68093A40285ECAEC0CA
:10158000803509F483C0883509F494C0883499F60D
:101590000E94A904D0CF883909F48AC038F5883769
:1015A00029F050F4883611F0803729F683E08093D3
:1015B000A5021092A30255C0883809F479C0803979
:1015C00019F0803809F0B7CF8091A302803208F07B
:1015D0006FC0E091A30281E08E0F8093A3028091FF
:1015E000BB00F0E0ED57FD4F80833BC0803B39F0FE
:1015F000D0F4803A09F477C0883A09F09CCF84E0AF
:101600008093A5021092820210928102F0E0E0E045
:1016100009958091810281110FC081E08093810240
:101620001092610209C0803C09F4A8CF883C09F4FB
:10163000A5CF883B09F07FCFE091820281E08E0F39
:1016400080938202F0E0EF59FD4F80818093BB00D0
:10165000909182028091810229C08091CA02809378
:10166000BB0085EC8093BC0066CF9091C90280914D
:10167000C802981758F5E091C90281E08E0F809357
:10168000C902F0E0E855FD4F8081E9CFE091C90241
:1016900081E08E0F8093C9028091BB00F0E0E85595
:1016A000FD4F80839091C9028091C8029817C8F2BB
:1016B00085E8D8CFE091C90281E08E0F8093C902FE
:1016C0008091BB00F0E0E855FD4F80838091A70238
:1016D00081115ECF81E08093A60284EA8093BC00F2
:1016E0001092A50228CF85EC8093BC001092A50231
:1016F0008091A302803230F4E091A302F0E0ED5734
:10170000FD4F10826091A30270E083E892E0F0E068
:10171000E0E009951092A3020ECF1092A40238CFF8
:10172000CF93DF931092DC021092DB0288EE93E0FD
:10173000A0E0B0E08093DD029093DE02A093DF0290
:10174000B093E0028AE491E09093DA028093D902A8
:1017500085EC90E09093E6028093E50284EC90E0C3
:101760009093E8028093E70280EC90E09093EA0285
:101770008093E90281EC90E09093EC028093EB027D
:1017800082EC90E09093EE028093ED0286EC90E084
:101790009093F0028093EF021092F2021092F30203
:1017A0001092F4021092F50210928D0310928C03A5
:1017B00010929F0310929E031092B1031092B003F7
:1017C0008CE591E0909377038093760382E390E039
:1017D0009093D3038093D2031092D4031092D50335
:1017E0001092D6031092D703C4E0D0E0D093DD036B
:1017F000C093DC0387E791E090934D0480934C0401
:101800008AEA90E090934F0480934E0480E1E0E5F3
:10181000F4E0DF01982F1D929A95E9F7E0E6F4E0F5
:10182000DF011D928A95E9F71092790410927804ED
:10183000D0937B04C0937A040E9438020E9428024D
:10184000D093DD03C093DC030E940201D0E0C0E02E
:101850008091DC039091DD03C817D90734F40E940E
:10186000FF030E94EF032196F3CF8BEB91E090935F
:101870004D0480934C0480E590E090934F04809356
:101880004E04DF91CF910895789484B5826084BD31
:1018900084B5816084BD85B5826085BD85B5816074
:1018A00085BD80916E00816080936E0010928100F2
:1018B00080918100826080938100809181008160AD
:1018C000809381008091800081608093800080916E
:1018D000B10084608093B1008091B00081608093FA
:1018E000B00080917A00846080937A0080917A00C1
:1018F000826080937A0080917A00816080937A0080
:1019000080917A00806880937A001092C1000E94D2
:10191000380284E090E09093DD038093DC030E9422
:101920000201F12CE12C8091DC039091DD03E8169B
:10193000F90644F40E94FF030E94EF038FEFE81AB8
:10194000F80AF1CF89E991E090934D0480934C041B
:101950008CE390E090934F0480934E0480918C032D
:1019600090918D038A30910574F40196FC01EE0F7D
:10197000FF1FEA58FC4F2CE836E031832083909318
:101980008D0380938C03E091E902F091EA0282E0FA
:101990008083E091E502F091E6021082E091E70297
:1019A000F091E80283E380831092F102E091ED026E
:1019B000F091EE0286E08083E091EB02F091EC0280
:1019C000808180618083E091EB02F091EC02808164
:1019D00088608083E091EB02F091EC028081806866
:1019E0008083E091EB02F091EC0280818F7D808317
:1019F0008AE091E0909371048093700486E091E016
:101A0000909373048093720482E090E09093750445
:101A1000809374049093770480937604C0904A0472
:101A2000D0904B040D2C000CEE08FF0868EE74E11A
:101A300082E190E0A70196010E942A0E3093CF0226
:101A40002093CE0264E172E08DE090E0A701960160
:101A50000E942A0E309305012093040161E087E083
:101A60000E94930160E089E00E94930161E088E0B8
:101A70000E9493010E94DF0180E180938100109217
:101A8000800081E08093CD0220E43FE13093CC02DE
:101A90002093CB02309387002093860091E19093AE
:101AA000810027EB37E030930301209302018093FC
:101AB0006F008AE090E0A0E0B0E08093D8039093BC
:101AC000D903A093DA03B093DB030E94DF0161E046
:101AD00085E00E9493018BEC97E00197F1F760E0BD
:101AE00085E00E949301C0E0D0E02097F1F30E94CE
:101AF000DB028823D1F30E940000F7CFFC01882786
:101B00009927E89421912032E9F3293010F02E3002
:101B1000C8F32B3241F02D3239F4689404C00E948E
:101B2000C80D820F911D219120532A30C0F31EF45D
:101B3000909581959F4F08954CE754E00E94A10D28
:101B40000895FA01A191B081009719F41097E1F07E
:101B5000CD01DC01CD010D90002011F4C00113C0B6
:101B6000FB012191222319F02015D9F7F3CFFB01B6
:101B70002191201519F41E92119606C02223C1F757
:101B80000D900020A1F7D001FA01A193B083089530
:101B90007AE0979F902D879F802D910D11240895B5
:101BA000DB018F939F930E94670EBF91AF91A29F1D
:101BB000800D911DA39F900DB29F900D112408954B
:101BC000AA1BBB1B51E107C0AA1FBB1FA617B70763
:101BD00010F0A61BB70B881F991F5A95A9F780957F
:101BE0009095BC01CD01089597FB072E16F4009443
:101BF00007D077FD09D00E94E00D07FC05D03EF428
:101C0000909581959F4F0895709561957F4F0895A8
:101C1000A1E21A2EAA1BBB1BFD010DC0AA1FBB1FF0
:101C2000EE1FFF1FA217B307E407F50720F0A21B62
:101C3000B30BE40BF50B661F771F881F991F1A94CF
:101C400069F760957095809590959B01AC01BD01F9
:101C5000CF010895052E97FB1EF400940E94410EBB
:101C600057FD07D00E94080E07FC03D04EF40C94D9
:101C7000410E50954095309521953F4F4F4F5F4F06
:101C8000089590958095709561957F4F8F4F9F4FE8
:101C900008950E94510E332312F48A1B9B0B0C945F
:101CA000620EA29FB001B39FC001A39F700D811D62
:101CB0001124911DB29F700D811D1124911D089555
:101CC0000E94510EB7FF0895821B930B08950E9446
:101CD000510EA59F900DB49F900DA49F800D911D56
:101CE00011240895EE0FFF1F0590F491E02D099443
:101CF000FB01DC018D91019080190110D9F3990B42
:101D00000895AEE0B0E0E7E8FEE00C9430110D89F4
:101D10001E8986E08C831A8309838FEF9FE79E8359
:101D20008D83AE01475E5F4F6F89788DCE0101963E
:101D30000E94A40E2F813885020F131FF801108214
:101D40002E96E4E00C944C11ABE0B0E0EAEAFEE041
:101D50000C9422117C013B018A01FC01178216823E
:101D6000838181FFC8C1CE0101965C01F701938197
:101D7000F30193FD859193FF81913F01882309F43D
:101D800053C1853239F493FD859193FF81913F01D1
:101D9000853229F4B70190E00E949410E7CF912C8E
:101DA000212C312CFFE1F31538F08B3211F190F436
:101DB000803209F1833229F137FC3CC020ED280F35
:101DC0002A3050F536FE20C08AE0989E200D11245E
:101DD000922E06C08D3291F0803371F7689430F8FE
:101DE000F30193FD859193FF81913F018111DACF3A
:101DF00021C0689431F8689432F8F2CF689433F8CF
:101E0000EFCF689434F8ECCFEAE02E9E200D112439
:101E1000222E689435F8E4CF8E3229F436FC04C1C2
:101E2000689436F8DDCF8C3619F4689437F8D8CF3B
:101E30008836B1F2982F9F7D95549330E0F0833629
:101E4000A1F18337C1F1833509F063C02801F2E0C5
:101E50004F0E511CF801C080D180692D70E036FC16
:101E600002C06FEF7FEFC6010E947E104C016894A4
:101E700037F882010AC00C5F1F4FFFE3F983882403
:101E80008394912C6501E89437F833FE2DC0522CD1
:101E90008114910471F5552009F468CFB70180E2EF
:101EA00090E00E9494105A94F6CFF80180818983C3
:101EB0000E5F1F4FE4CF2801F2E04F0E511CF801D6
:101EC000C080D180692D70E036FC02C06FEF7FEFDB
:101ED000C6010E9489104C018201D5CFB70180E272
:101EE00090E00E9494102A942814190409F0B0F785
:101EF000CECFF60137FC859137FE81916F01B70196
:101F000090E00E94941051105A94F1E08F1A9108B9
:101F1000BFCF843619F0893609F077C0F80137FE53
:101F20006BC060817181828193810C5F1F4FF32DA3
:101F3000FF763F2E97FF09C090958095709561952B
:101F40007F4F8F4F9F4F689437F82AE030E0A5010C
:101F50000E94C410C82ECA188C2C432C36FE0CC00C
:101F6000E89440F8C91440F434FE05C032FC03C0C4
:101F7000F32DFE7E4F2E892C44FE95C0FE01EC0D04
:101F8000F11D8081803309F087C0242D297E422EE7
:101F9000842D8870582E43FC95C040FE8FC09C2C29
:101FA000821418F42C0C922C981844FE91C0B7019E
:101FB00080E390E00E94941042FE09C088E790E020
:101FC00041FE02C088E590E0B7010E949410C91458
:101FD00008F48AC0CA94D12C9FEFC91AD90ACA0C36
:101FE000DB1CF60182916F01B70190E00E94941012
:101FF000AC14BD04B1F74FCF60817181072E000C86
:10200000880B990B0E5F1F4F92CFD32CE894D4F816
:102010002AE030E0853739F1232D297FD22E8F3603
:1020200001F148F48835A9F0F701868197812B9654
:10203000E2E10C943E11803749F08837A9F7D4FECD
:1020400002C06894D2F820E130E00DC06894D4F862
:10205000F6CF34FE03C0822F8660D82E20E132E016
:1020600002C028E030E0F801D7FE0FC06081718126
:10207000828193810C5F1F4FA5010E94C410C82E5E
:10208000CA183D2CE89437F867CF6081718190E0E1
:1020900080E00E5F1F4FF0CF42FC02C0839478CFE8
:1020A0008394839475CF842D867809F471CFF6CF0D
:1020B000B70180E290E00E94941083948214C0F3F0
:1020C000512C73CF522C5818821408F46ECFF8CFCD
:1020D000842D867809F47BCF8BE241FE80E247FCB9
:1020E0008DE2B70190E071CFB70180E390E00E94EC
:1020F00094109A946CCF8FEF9FEF99CFFC010590CD
:10210000615070400110D8F7809590958E0F9F1FF9
:102110000895FC016150704001900110D8F780953E
:1021200090958E0F9F1F08950F931F93CF93DF936A
:10213000182F092FEB018B8181FD09C01FEF0FEFD5
:10214000812F902FDF91CF911F910F91089582FFE2
:1021500014C02E813F818C819D81281739073CF462
:10216000E881F981CF0101969983888310838E815C
:102170009F8101969F838E83E3CFE885F985812F28
:102180000995892BA1F3DACFFA01AA27283051F15A
:10219000203181F1E8946F936E7F6E5F7F4F8F4F98
:1021A0009F4FAF4FB1E03ED0B4E03CD0670F781FF7
:1021B000891F9A1FA11D680F791F8A1F911DA11DDC
:1021C0006A0F711D811D911DA11D20D009F4689415
:1021D0003F912AE0269F11243019305D3193DEF6BD
:1021E000CF010895462F4770405D4193B3E00FD073
:1021F000C9F7F6CF462F4F70405D4A3318F0495D5E
:1022000031FD4052419302D0A9F7EACFB4E0A69540
:102210009795879577956795BA95C9F70097610562
:10222000710508959B01AC010A2E069457954795B8
:1022300037952795BA95C9F7620F731F841F951FAD
:10224000A01D08952F923F924F925F926F927F92BE
:102250008F929F92AF92BF92CF92DF92EF92FF92B6
:102260000F931F93CF93DF93CDB7DEB7CA1BDB0B62
:102270000FB6F894DEBF0FBECDBF09942A88398807
:1022800048885F846E847D848C849B84AA84B9840E
:10229000C884DF80EE80FD800C811B81AA81B9811A
:1022A000CE0FD11D0FB6F894DEBF0FBECDBFED012E
:1022B0000895F894FFCF0200700200040800F8FFB0
:1022C000080000008B000A00D30014002D011E003E
:1022D00094012800FE01320064023C009202410099
:1022E000BD024600E4024B000803500027035500DE
:1022F00043035A005B035F007003640000000000AA
:10230000110371029E025E03CF02AD02C102000002
:1023100000001E050D0A00525631005756313A256D
:102320006400525632005756323A25640052493101
:10233000005749313A256400524932005749323A30
:10234000256400525431005754313A2564005254E8
:1023500032005754323A25640052564343005756D0
:1023600043433A2564005244555400574455543A67
:102370002564005749534400574953443A3D256466
:10238000005754534400575453443A3D2564005277
:10239000464E00506F776572537570706C792E6978
:1023A0006E6F0057464E3A25730057564C494D0004
:1023B00057564C494D3A3D25640052564C494D0004
:1023C00057564C494D3A25640057524452500057D5
:1023D000524452503A3D25640052524452500057E4
:1023E000524452503A25640057494C494D005749D0
:1023F0004C494D3A3D25640052494C494D005749DE
:0A2400004C494D3A2564003A0000F3
:107E0000112484B714BE81FFF0D085E080938100F7
:107E100082E08093C00088E18093C10086E0809377
:107E2000C20080E18093C4008EE0C9D0259A86E02C
:107E300020E33CEF91E0309385002093840096BBD3
:107E4000B09BFECF1D9AA8958150A9F7CC24DD24C4
:107E500088248394B5E0AB2EA1E19A2EF3E0BF2EE7
:107E6000A2D0813461F49FD0082FAFD0023811F036
:107E7000013811F484E001C083E08DD089C08234E0
:107E800011F484E103C0853419F485E0A6D080C0E4
:107E9000853579F488D0E82EFF2485D0082F10E0AE
:107EA000102F00270E291F29000F111F8ED06801E7
:107EB0006FC0863521F484E090D080E0DECF843638
:107EC00009F040C070D06FD0082F6DD080E0C81688
:107ED00080E7D80618F4F601B7BEE895C0E0D1E017
:107EE00062D089930C17E1F7F0E0CF16F0E7DF06D8
:107EF00018F0F601B7BEE89568D007B600FCFDCFD4
:107F0000A601A0E0B1E02C9130E011968C91119780
:107F100090E0982F8827822B932B1296FA010C0160
:107F200087BEE89511244E5F5F4FF1E0A038BF0790
:107F300051F7F601A7BEE89507B600FCFDCF97BE46
:107F4000E89526C08437B1F42ED02DD0F82E2BD052
:107F50003CD0F601EF2C8F010F5F1F4F84911BD097
:107F6000EA94F801C1F70894C11CD11CFA94CF0C13
:107F7000D11C0EC0853739F428D08EE10CD085E9AC
:107F80000AD08FE07ACF813511F488E018D01DD067
:107F900080E101D065CF982F8091C00085FFFCCF94
:107FA0009093C60008958091C00087FFFCCF809118
:107FB000C00084FD01C0A8958091C6000895E0E648
:107FC000F0E098E1908380830895EDDF803219F02E
:107FD00088E0F5DFFFCF84E1DECF1F93182FE3DFCA
:107FE0001150E9F7F2DF1F91089580E0E8DFEE27F6
:047FF000FF270994CA
:027FFE00040479
:00000001FF
