:020000040000FA
:100000000C9462000C948A000C948A000C948A0070
:100010000C948A000C948A000C948A000C948A0038
:100020000C948A000C948A000C948A000C948A0028
:100030000C948A000C94110A0C948A000C948A0087
:100040000C946F090C948A000C94DF090C94B90984
:100050000C948A000C948A000C948A000C948A00F8
:100060000C94380A0C948A00000000002400270039
:100070002A0000000000250028002B0000000000DE
:1000800023002600290004040404040404040202DA
:100090000202020203030303030301020408102007
:1000A0004080010204081020010204081020000012
:1000B0000008000201000003040700000000000027
:1000C0000000570B11241FBECFEFD8E0DEBFCDBF1D
:1000D00025E0A4E6B2E001C01D92AB39B207E1F71A
:1000E00012E0A0E0B1E0E6E3F1E202C005900D927B
:1000F000A436B107D9F710E0C2E6D0E004C02197DA
:10010000FE010E94B20DC136D107C9F70E94D50B7E
:100110000C9499100C9400007F928F929F92AF9252
:10012000BF92CF92DF92EF92FF920F931F93CF93E4
:10013000DF93C4E0D0E0C12CD12C76018EE4782E80
:100140000BE31FE194EB892E9BE2992E91E1A92EFE
:10015000B12C70927C00C8010197F1F780917A0070
:10016000806480937A0080917A0086FDFCCF809134
:10017000780020917900322F282F032E000C440B99
:10018000550BC501B4010E94480D032E000C440B11
:10019000550BC20ED31EE41EF51E2197D1F6C701E2
:1001A000B60124E030E040E050E00E94480D2635E2
:1001B00083E1380794F030937E0520937D05DF912D
:1001C000CF911F910F91FF90EF90DF90CF90BF9054
:1001D000AF909F908F907F90089588E893E19093DF
:1001E0007E0580937D05EBCF6F927F928F929F92D9
:1001F000AF92BF92CF92DF92EF92FF920F931F9335
:10020000CF93DF933C01EB012DEB34E082E06816E5
:100210007104B1F04CF42DE734E0B1E06B167104D9
:1002200079F02DE334E00CC02DEF34E0E3E06E16FE
:10023000710431F02DE335E0F4E06F16710489F7B5
:100240008301000F111F0D5C1B4FF801A081B181CC
:10025000AA0FBB1FA20FB31FF301EE0FFF1FEE0F7C
:10026000FF1FE15EFB4FCD90DC9011970D2C000C31
:10027000EE08FF0880809180A280B3808C189D08D2
:10028000AE08BF08CD93DC93D801ED90FC90A70198
:10029000440F551F240F351FD9014D915C91052E38
:1002A000000C660B770BCB01BA01680D791D8A1D16
:1002B0009B1D6083718382839383F301EE0FFF1F85
:1002C000E25FFE4FC080D1809301220F331FE9010E
:1002D000CB5EDB4F96010D2C000C440B550B0E949E
:1002E000480D39832883BFEFEB1AFB0AEC14FD0499
:1002F00094F4F801F182E082DF91CF911F910F9188
:10030000FF90EF90DF90CF90BF90AF909F908F9035
:100310007F906F900895D8011D921C92EDCF83308D
:1003200081F028F4813099F08230A9F00895873067
:10033000A9F08830C9F08430B1F4809180008F7DBD
:1003400003C0809180008F7780938000089584B5EA
:100350008F7784BD089584B58F7DFBCF8091B000E9
:100360008F778093B00008958091B0008F7DF9CF92
:10037000CF93DF93282F30E0F901E255FF4F8491AE
:10038000F901E656FF4FD491F901EA57FF4FC491A6
:10039000CC23A1F081110E948F01EC2FF0E0EE0F31
:1003A000FF1FE458FF4FA591B491EC91ED2381E03C
:1003B00090E009F480E0DF91CF91089580E090E033
:1003C000FACF1F93CF93DF93282F30E0F901E25546
:1003D000FF4F8491F901E656FF4FD491F901EA5796
:1003E000FF4FC491CC23A9F0162F81110E948F01D9
:1003F000EC2FF0E0EE0FFF1FEE58FF4FA591B491E8
:100400008FB7F894EC91111108C0D095DE23DC93DE
:100410008FBFDF91CF911F910895DE2BF8CFCF933F
:10042000DF9390E0FC01E656FF4F24918A579F4FDF
:10043000FC0184918823D1F090E0880F991FFC0182
:10044000E859FF4FA591B491FC01EE58FF4FC591BB
:10045000D49161110EC09FB7F8948C91E22FE09572
:100460008E238C932881E223E8839FBFDF91CF9175
:1004700008958FB7F894EC91E22BEC938FBFF6CFF1
:10048000FF920F931F93CF93DF93182FF62E042F15
:10049000E90161E00E940F026F2D812F0E94E101AE
:1004A000002399F0C230D10538F0CC0FDD1FCC0FFE
:1004B000DD1F25972197F1F760E0812FDF91CF9124
:1004C0001F910F91FF900C940F02DF91CF911F911C
:1004D0000F91FF900895E091F802F091F9023097A2
:1004E00029F0109201031092000309940895CF930C
:1004F000DF93AC01E091FA02F091FB023097F1F04A
:1005000090910303809102039817C0F090E0292F87
:1005100030E02617370754F4D901A859BD4F240FEE
:10052000351FE90128812C939F5FF1CF10920303BF
:1005300060930203CB01DF91CF910994DF91CF91BA
:100540000895AF92BF92CF92DF92EF92FF920F93F6
:100550001F93CF93DF936C017B018B01040F151F59
:10056000EB015E01AE18BF08C017D10759F06991C1
:10057000D601ED91FC910190F081E02DC601099525
:10058000892B79F7C501DF91CF911F910F91FF90D2
:10059000EF90DF90CF90BF90AF900895FC01538D06
:1005A000448D252F30E0842F90E0821B930B54174D
:1005B00010F0CF96089501970895FC01918D828DDA
:1005C000981761F0A28DAE0FBF2FB11D5D968C9173
:1005D000928D9F5F9F73928F90E008958FEF9FEFB2
:1005E0000895FC01918D828D981731F0828DE80F6E
:1005F000F11D858D90E008958FEF9FEF0895FC0128
:10060000918D228D892F90E0805C9F4F821B9109F4
:100610008F739927089580E193E00E94FF0221E003
:10062000892B09F420E0822F089580E090E0892B47
:1006300029F00E940B0381110C9400000895FC0125
:10064000A48DA80FB92FB11DA35ABF4F2C91848D33
:1006500090E001968F739927848FA689B7892C9390
:10066000A089B1898C91837080648C93938D848DE3
:10067000981306C00288F389E02D80818F7D8083E6
:100680000895EF92FF920F931F93CF93DF93EC01A6
:1006900081E0888F9B8D8C8D98131AC0E889F98929
:1006A000808185FF15C09FB7F894EE89FF8960832C
:1006B000E889F98980818370806480839FBF81E0AD
:1006C00090E0DF91CF911F910F91FF90EF900895EF
:1006D000F62E0B8D10E00F5F1F4F0F731127E02ECA
:1006E0008C8D8E110CC00FB607FCFACFE889F98902
:1006F000808185FFF5CFCE010E941F03F1CFEB8DE6
:10070000EC0FFD2FF11DE35AFF4FF0829FB7F894D5
:100710000B8FEA89FB8980818062CFCFCF93DF93F3
:10072000EC01888D8823B9F0AA89BB89E889F98909
:100730008C9185FD03C0808186FD0DC00FB607FC3E
:10074000F7CF8C9185FFF2CF808185FFEDCFCE0171
:100750000E941F03E9CFDF91CF9108950895209162
:10076000AE02260F3327331F21323105ECF42091DE
:10077000D202FC0190E080E0243069F082E008952C
:10078000A091AE022191AC0142575D4FA40FB52F4D
:10079000B11D2C930196861798F38091AE02680FD5
:1007A0006093AE0280E0089581E008951092D20235
:1007B00081E08093D4021092D30261E082E10E9432
:1007C000E10161E083E10E94E101E9EBF0E0808179
:1007D0008E7F808380818D7F808388E48093B800C2
:1007E00085E48093BC0008950895E091030380910F
:1007F0000203E81730F4F0E0E859FD4F808190E003
:1008000008958FEF9FEF0895909103038091020365
:100810002FEF3FEF981748F4E92FF0E0E859FD4F2C
:10082000208130E09F5F90930303C9010895809178
:10083000020390910303891B990B0895CF93DF93D3
:10084000CB01EA01642F0E94AF03CE01DF91CF916B
:100850000895CF93DF931F92CDB7DEB7698361E030
:10086000CE0101960E94AF0381E090E00F90DF91EE
:10087000CF91089590E080E008950895FC01EA5238
:10088000FE4F2081318185529E4FFC01408187E0DF
:1008900090E00C944002FC01EC52FE4F208131812B
:1008A00086529E4FFC01408183E090E00C94400210
:1008B000FC01EE52FE4F2081318187529E4FFC0198
:1008C000408188E090E00C944002FC01E053FE4F30
:1008D0002081318188529E4FFC01408189E090E067
:1008E0000C94400220917A0090917A00987F946055
:1008F00090937A008E50806480937C0080917A007F
:10090000806480937A0080917A0086FDFCCF80918C
:1009100078009091790020937A00089581E10E94F7
:100920007204BC0190E080E00E94F40080E10E942B
:100930007204BC01725081E090E00E94F4008FE0EC
:100940000E947204BC01725082E090E00E94F400A8
:100950008EE00E947204BC01725083E090E00E941D
:10096000F40085E10E947204BC01725084E090E0C2
:100970000C94F400FB0101900020E9F73197AF01DE
:10098000461B570BDC01ED91FC910280F381E02DB9
:10099000099465E074E08DEA93E00E94BA04109235
:1009A00005040895CF93DF93672B81F4EC01BC011C
:1009B000645C7F4F21F080E193E00E94BA0462E41E
:1009C00071E080E193E00E94BA041CAEDF91CF9108
:1009D0000895CF93DF9385ED8093BC0080918A02C8
:1009E00090918B02A0918C02B0918D020796A11D6F
:1009F000B11D23E0B695A795979587952A95D1F7D0
:100A00002091BC0024FD03C01092D20236C0409158
:100A10008A0250918B0260918C0270918D02452B5D
:100A2000462B472B69F30097A105B10541F02AE257
:100A30002A95F1F700C00197A109B109E1CF809192
:100A4000890291E0909388028823B9F0C091B800A0
:100A5000D091BA008091BC008A7B8093BC0060E09A
:100A600082E10E94E10160E083E10E94E1010E94D5
:100A7000D603D093BA00C093B800DF91CF91089508
:100A8000CF93DF93EA0165E471E00E94B80D892BF2
:100A900009F589E491E09F938F938AE591E09F9314
:100AA0008F93CE0124E0880F991F2A95E1F78B5090
:100AB0009C4F9F938F930E94C10D0F900F900F90AA
:100AC0000F900F900F90BE0189EB93E0DF91CF91D3
:100AD0000C94D204DF91CF9108954F925F926F9260
:100AE0007F928F929F92AF92BF92CF92DF92EF92BE
:100AF000FF920F931F93CF93DF93EC017B016A0169
:100B0000890161E671E0C7010E94B80D892B09F0E7
:100B100045C0DE01A45ABF4FFE01EC53FE4F2D919C
:100B20003C91A081B1810E94670D9B01AC01ADE0B9
:100B3000B0E00E94850D20E034E040E050E00E94EB
:100B4000480D3F932F9385E691E09F938F93C801C3
:100B500024E0880F991F2A95E1F7CC968C0F9D1FF2
:100B60009F938F930E94C10D0F900F900F900F9045
:100B70000F900F90B801CE01DF91CF911F910F918F
:100B8000FF90EF90DF90CF90BF90AF909F908F90AD
:100B90007F906F905F904F900C94D2046CE671E060
:100BA000C7010E94B80D892BE9F4DE01A25ABF4F9C
:100BB000FE01EC53FE4F2D913C91A081B1810E942A
:100BC000670D9B01AC01A3E0B0E00E94850D20E021
:100BD00034E040E050E00E94480D3F932F9380E7BF
:100BE00091E0B3CF67E771E0C7010E94B80D892B90
:100BF000E9F4DE01A05ABF4FFE01EC53FE4F2D91E8
:100C00003C91A081B1810E94670D9B01AC01A3E0E2
:100C1000B0E00E94850D20E034E040E050E00E940A
:100C2000480D3F932F938BE791E08FCF62E871E0FF
:100C3000C7010E94B80D892BE9F4DE01AE59BF4F00
:100C4000FE01EC53FE4F2D913C91A081B1810E9499
:100C5000670D9B01AC01A3E0B0E00E94850D20E090
:100C600034E040E050E00E94480D3F932F9386E827
:100C700091E06BCF6DE871E0C7010E94B80D892B40
:100C8000E9F4DE01AC59BF4FFE01EC53FE4F2D914C
:100C90003C91A081B1810E94670D9B01AC01A3E052
:100CA000B0E00E94850D20E034E040E050E00E947A
:100CB000480D3F932F9381E991E047CF68E971E0B8
:100CC000C7010E94B80D892B09F05EC0FE01EC53EC
:100CD000FE4FC080D180E456F140A081B1819601E1
:100CE0000E94670D9B01AC01A3E0B0E00E94850D5E
:100CF000812CA4E09A2EA12CB12CA50194010E9474
:100D0000480D2901FE01E25AFF4FA081B1819601F1
:100D10000E94670D9B01AC01A3E0B0E00E94850D2D
:100D2000A50194010E94480D7201E20EF31EFE011E
:100D3000EE59FF4FA081B18196010E94670D9B0182
:100D4000AC01A3E0B0E00E94850DA50194010E94D2
:100D5000480DE20EF31EFE01EC59FF4FA081B18158
:100D600096010E94670D9B01AC01A3E0B0E00E94D8
:100D7000850DA50194010E94480D2E0D3F1D3F9346
:100D80002F938CE991E0E1CE63EA71E0C7010E9404
:100D9000B80D892B51F4FE01EC53FE4F81818F93E6
:100DA00080818F9388EA91E0D0CE60EB71E0C7013B
:100DB0000E94B80D892B41F489E00E94B8019F93ED
:100DC0008F9385EB91E0C1CE6DEB71E0C7010E947E
:100DD000B80D892B41F488E00E94B8019F938F934E
:100DE00082EC91E0B2CE6AEC71E0C7010E94B80DCE
:100DF000892B41F483E00E94B8019F938F938FEC7D
:100E000091E0A3CE67ED71E0C7010E94B80D892B78
:100E100041F487E00E94B8019F938F938CED91E09D
:100E200094CE64EE71E0C7010E94B80D892B79F46D
:100E3000C6010E94F60CBC01CE010E94650489E047
:100E40000E94B8019F938F9389EE91E07ECE62EF6E
:100E500071E0C7010E94B80D892B79F4C6010E9488
:100E6000F60CBC01CE010E94580488E00E94B80133
:100E70009F938F9387EF91E068CE60E072E0C701A7
:100E80000E94B80D892B79F4C6010E94F60CBC01B2
:100E9000CE010E944B0483E00E94B8019F938F9380
:100EA00085E092E052CE6EE072E0C7010E94B80D7C
:100EB000892B79F4C6010E94F60CBC01CE010E9478
:100EC0003E0487E00E94B8019F938F9383E192E0F4
:100ED0003CCE6CE172E0C7010E94B80D892B19F578
:100EE000C6010E94F60C7C016E018AE3C81A8EEFDF
:100EF000D80AB7010F2C000C880B990BF7E0660F8E
:100F0000771F881F991FFA95D1F723E537E040E056
:100F100050E00E94480DD6012D933C93FF92EF9232
:100F200081E292E012CE6AE272E0C7010E94B80D3F
:100F3000892B11F5C6010E94F60C7C016E01B8E305
:100F4000CB1ABEEFDB0ABC01990F880B990BE7E0C7
:100F5000660F771F881F991FEA95D1F723E537E0C1
:100F600040E050E00E94480DF60131832083FF925B
:100F7000EF928FE292E0E9CD68E372E0C7010E9450
:100F8000B80D892B11F5C6010E94F60C7C016E018B
:100F9000F6E3CF1AFEEFDF0ABC01990F880B990B1D
:100FA00057E0660F771F881F991F5A95D1F723E5E1
:100FB00037E040E050E00E94480DD6012D933C936D
:100FC000FF92EF928DE392E0C0CD66E472E0C7013C
:100FD0000E94B80D892B11F5C6010E94F60C7C0108
:100FE0006E01B4E3CB1ABEEFDB0ABC01990F880B8C
:100FF000990B47E0660F771F881F991F4A95D1F715
:1010000023E537E040E050E00E94480DF6013183CF
:101010002083FF92EF928BE492E097CD64E572E03B
:10102000C7010E94B80D892BB9F04E01F2E08F0E76
:10103000911CB12CA12C8E899F89A816B9067CF52C
:10104000D401ED91FD914D01A801B601C7010995AB
:10105000BFEFAB1ABB0AEFCFC6010E94F60C7C01B2
:101060006E0182E3C81A8EEFD80AB7010F2C000C6C
:10107000880B990B37E0660F771F881F991F3A95E9
:10108000D1F723E537E040E050E00E94480DD6015B
:101090002D933C93FF92EF9289E592E056CDDF913C
:1010A000CF911F910F91FF90EF90DF90CF90BF9065
:1010B000AF909F908F907F906F905F904F9008952A
:1010C0000F931F93CF93DF938B0162E672E00E9430
:1010D000140DEC0163E471E090E080E00E94140DD7
:1010E0009801AC01BE0189EB93E0DF91CF911F9194
:1010F0000F910C946D0580E193E00E94FF02892B13
:1011000031F180E193E00E94DD022091E103309112
:10111000E203F901E754FC4F808F2F5F3F4F30937C
:10112000E2032093E1038A3019F02F30310519F7DB
:1011300027543C4FF901108E1092E2031092E10304
:1011400070E060E081ED93E00E946008D4CF2091D0
:1011500017043091180480917F05909180058217C3
:10116000930734F470E060E089EB93E00E9465043B
:101170002091190430911A04809181059091820583
:101180008217930734F470E060E089EB93E00E94EB
:10119000580420911B0430911C0480918305909188
:1011A00084058217930734F470E060E089EB93E0E4
:1011B0000E944B0420911D0430911E0480918505EE
:1011C000909186058217930734F470E060E089EB14
:1011D00093E00E943E04809117049091180420919E
:1011E000190430911A04820F931F20911B0430912F
:1011F0001C04820F931F20911D0430911E04820F46
:10120000931F209187053091880528173907C4F46A
:1012100070E060E089EB93E00E94650470E060E0BC
:1012200089EB93E00E94580470E060E089EB93E062
:101230000E944B0470E060E089EB93E00E943E0462
:101240008091640290916502A0916602B09167025C
:101250000196A11DB11D893EF3E09F07A105B105CF
:101260004CF48093640290936502A0936602B0935D
:10127000670208951092640210926502109266024D
:10128000109267020C948C000F931F93CF93DF93FF
:101290008C01C9EBD3E0CE01895B934080179107A5
:1012A00044F48DEA93E00E9404048AA71BA62196C9
:1012B000F2CFE9EBF3E0CF01895B93408017910710
:1012C00024F483A582A73196F6CF61E070E083EE27
:1012D00093E0DF91CF911F910F910C9460081F92C2
:1012E0000F920FB60F9211242F933F938F939F93DA
:1012F000AF93BF9380910C0390910D03A0910E03C7
:10130000B0910F0330910B0323E0230F2D3758F5D5
:101310000196A11DB11D20930B0380930C039093A4
:101320000D03A0930E03B0930F03809107039091D8
:101330000803A0910903B0910A030196A11DB11DF4
:101340008093070390930803A0930903B0930A03C3
:10135000BF91AF919F918F913F912F910F900FBEB1
:101360000F901F90189526E8230F0296A11DB11D1E
:10137000D2CF1F920F920FB60F9211242F933F934B
:101380004F935F936F937F938F939F93AF93BF938D
:10139000EF93FF9380E193E00E941F03FF91EF9191
:1013A000BF91AF919F918F917F916F915F914F917D
:1013B0003F912F910F900FBE0F901F9018951F9285
:1013C0000F920FB60F9211242F938F939F93EF9349
:1013D000FF93E0912003F09121038081E0912603A7
:1013E000F091270382FD1BC09081809129038F5FBC
:1013F0008F7320912A03821741F0E0912903F0E0D6
:10140000E05FFC4F958F80932903FF91EF919F91AF
:101410008F912F910F900FBE0F901F901895808184
:10142000F4CF1F920F920FB60F9211242F933F9378
:101430004F935F936F937F938F939F93AF93BF93DC
:10144000EF93FF93E0910001F09101010995FF9165
:10145000EF91BF91AF919F918F917F916F915F912C
:101460004F913F912F910F900FBE0F901F901895A5
:101470001F920F920FB60F9211242F933F934F9309
:101480005F936F937F938F939F93AF93BF93EF93EC
:10149000FF938091B900887F803609F44AC0F0F547
:1014A000883209F4A7C018F5803109F49BC0B8F45C
:1014B000882309F4F9C0883009F494C0FF91EF91B2
:1014C000BF91AF919F918F917F916F915F914F915C
:1014D0003F912F910F900FBE0F901F90189588315C
:1014E00009F488C0803251F78093D10214C080344F
:1014F00009F49DC040F48033B9F38833F9F6809342
:10150000D10285ECB0C0803509F485C0883509F476
:1015100096C0883499F60E94E904D0CF883909F43E
:101520008CC038F5883729F050F4883611F08037B0
:1015300029F683E08093D2021092D00257C08838F7
:1015400009F47BC0803919F0803809F0B7CF809159
:10155000D002803208F071C0E091D00281E08E0F9D
:101560008093D0028091BB00F0E0E055FD4F808376
:101570003DC0803B39F0E0F4803A09F479C0883A04
:1015800009F09CCF84E08093D2021092AF021092B7
:10159000AE02E091FE02F091FF0209958091AE0249
:1015A00081110FC081E08093AE0210928E0209C0BB
:1015B000803C09F4A6CF883C09F4A3CF883B09F00E
:1015C0007DCFE091AF0281E08E0F8093AF02F0E01B
:1015D000E257FD4F80818093BB009091AF028091D4
:1015E000AE0229C08091F7028093BB0085EC809306
:1015F000BC0064CF9091F6028091F502981758F5DF
:10160000E091F60281E08E0F8093F602F0E0EB525B
:10161000FD4F8081E9CFE091F60281E08E0F80934B
:10162000F6028091BB00F0E0EB52FD4F8083909179
:10163000F6028091F5029817C8F285E8D8CFE091BC
:10164000F60281E08E0F8093F6028091BB00F0E0FD
:10165000EB52FD4F80838091D40281115CCF81E0F9
:101660008093D30284EA8093BC001092D20226CFEA
:1016700085EC8093BC001092D2028091D00280321F
:1016800030F4E091D002F0E0E055FD4F108260911F
:10169000D00270E0E091FC02F091FD0280EB92E05C
:1016A00009951092D0020ACF1092D10234CFE0E116
:1016B000F3E01382128288EE93E0A0E0B0E084832E
:1016C0009583A683B7832CE131E03183208325EC19
:1016D00030E03587248724EC30E03787268720ECFC
:1016E00030E0318B208B21EC30E0338B228B22ECED
:1016F00030E0358B248B26EC30E0378B268B118E37
:10170000128E138E148EEDEAF3E01382128284831C
:101710009583A683B7838EE291E091838083E9EB82
:10172000F3E0178A168A11A610A613AE12AE80E453
:1017300091E0918380838CEB91E09093800580937E
:101740007F05909382058093810590938405809313
:101750008305909386058093850580EF96E09093AE
:1017600088058093870588E0E2E0F1E0A9E8B5E02C
:1017700001900D928A95E1F780910A0190910B01F9
:10178000A0910C01B0910D01809391059093920569
:10179000A0939305B0939405109295051092960529
:1017A00010929705109298050895789484B58260F8
:1017B00084BD84B5816084BD85B5826085BD85B5F5
:1017C000816085BD80916E00816080936E00109273
:1017D00081008091810082608093810080918100EE
:1017E000816080938100809180008160809380007F
:1017F0008091B10084608093B1008091B0008160DD
:101800008093B00080917A00846080937A00809108
:101810007A00826080937A0080917A008160809360
:101820007A0080917A00806880937A001092C100DB
:1018300061E082E00E940F0261E084E00E940F02FA
:1018400060E089E00E940F0260E088E00E940F02E1
:1018500060E083E00E940F0260E087E00E940F02D8
:1018600060E081E10E940F0260E080E10E940F02CF
:1018700060E08FE00E940F0260E08EE00E940F02A5
:1018800060E085E10E940F020E948C00C0E2D0E07F
:101890000E948E042197E1F789E991E090938005F9
:1018A00080937F05909382058093810590938405B2
:1018B0008093830590938605809385058091CF035F
:1018C0009091D0038A30910574F40196FC01EE0FDB
:1018D000FF1FE754FC4F20E435E0318320839093D1
:1018E000D0038093CF03E0912003F091210382E0A5
:1018F0008083E0911C03F0911D031082E0911E0390
:10190000F0911F0383E3808310922803E091240366
:10191000F091250386E08083E0912203F091230378
:10192000808180618083E0912203F0912303808194
:1019300088608083E0912203F09123038081806896
:101940008083E0912203F091230380818F7D808347
:1019500010920303109202031092010310920003ED
:101960000E94D6038BE692E09093FF028093FE02E2
:1019700087E792E09093FD028093FC0280E18093E0
:10198000BA0024E439E03093FB022093FA0229ECF8
:1019900034E03093F9022093F80280938100109292
:1019A000800081E08093060320E43FE1309305034B
:1019B00020930403309387002093860091E1909355
:1019C00081002BE738E030930101209300018093E0
:1019D0006F00C0E0D0E00E948E042097E1F30E94E7
:1019E0000B038823C1F30E940000F5CFFC01882778
:1019F0009927E89421912032E9F3293010F02E3014
:101A0000C8F32B3241F02D3239F4689404C00E949F
:101A1000400D820F911D219120532A30C0F31EF4F6
:101A2000909581959F4F089549E955E00E94190DC1
:101A30000895FA01A191B081009719F41097E1F08F
:101A4000CD01DC01CD010D90002011F4C00113C0C7
:101A5000FB012191222319F02015D9F7F3CFFB01C7
:101A60002191201519F41E92119606C02223C1F768
:101A70000D900020A1F7D001FA01A193B083089541
:101A80007AE0979F902D879F802D910D11240895C6
:101A9000052E97FB1EF400940E945F0D57FD07D0A2
:101AA0000E94900D07FC03D04EF40C945F0D5095EE
:101AB0004095309521953F4F4F4F5F4F089590953A
:101AC0008095709561957F4F8F4F9F4F08950E942D
:101AD0006F0D332312F48A1B9B0B0C94800DA29F75
:101AE000B001B39FC001A39F700D811D1124911DF2
:101AF000B29F700D811D1124911D08950E946F0DDC
:101B0000B7FF0895821B930B08950E946F0DA59F48
:101B1000900DB49F900DA49F800D911D11240895E8
:101B2000A1E21A2EAA1BBB1BFD010DC0AA1FBB1FE1
:101B3000EE1FFF1FA217B307E407F50720F0A21B53
:101B4000B30BE40BF50B661F771F881F991F1A94C0
:101B500069F760957095809590959B01AC01BD01EA
:101B6000CF010895EE0FFF1F0590F491E02D099429
:101B7000FB01DC018D91019080190110D9F3990BC3
:101B80000895AEE0B0E0E7ECFDE00C9470100D8934
:101B90001E8986E08C831A8309838FEF9FE79E83DB
:101BA0008D83AE01475E5F4F6F89788DCE010196C0
:101BB0000E94E40D2F813885020F131FF801108257
:101BC0002E96E4E00C948C10ABE0B0E0EAEEFDE081
:101BD0000C9462107C013B018A01FC011782168281
:101BE000838181FFC8C1CE0101965C01F701938119
:101BF000F30193FD859193FF81913F01882309F4BF
:101C000053C1853239F493FD859193FF81913F0152
:101C1000853229F4B70190E00E94D40FE7CF912CD0
:101C2000212C312CFFE1F31538F08B3211F190F4B7
:101C3000803209F1833229F137FC3CC020ED280FB6
:101C40002A3050F536FE20C08AE0989E200D1124DF
:101C5000922E06C08D3291F0803371F7689430F87F
:101C6000F30193FD859193FF81913F018111DACFBB
:101C700021C0689431F8689432F8F2CF689433F850
:101C8000EFCF689434F8ECCFEAE02E9E200D1124BB
:101C9000222E689435F8E4CF8E3229F436FC04C144
:101CA000689436F8DDCF8C3619F4689437F8D8CFBD
:101CB0008836B1F2982F9F7D95549330E0F08336AB
:101CC000A1F18337C1F1833509F063C02801F2E047
:101CD0004F0E511CF801C080D180692D70E036FC98
:101CE00002C06FEF7FEFC6010E94BE0F4C016894E7
:101CF00037F882010AC00C5F1F4FFFE3F983882485
:101D00008394912C6501E89437F833FE2DC0522C52
:101D10008114910471F5552009F468CFB70180E270
:101D200090E00E94D40F5A94F6CFF8018081898305
:101D30000E5F1F4FE4CF2801F2E04F0E511CF80157
:101D4000C080D180692D70E036FC02C06FEF7FEF5C
:101D5000C6010E94C90F4C018201D5CFB70180E2B4
:101D600090E00E94D40F2A942814190409F0B0F7C7
:101D7000CECFF60137FC859137FE81916F01B70117
:101D800090E00E94D40F51105A94F1E08F1A9108FC
:101D9000BFCF843619F0893609F077C0F80137FED5
:101DA0006BC060817181828193810C5F1F4FF32D25
:101DB000FF763F2E97FF09C09095809570956195AD
:101DC0007F4F8F4F9F4F689437F82AE030E0A5018E
:101DD0000E940410C82ECA188C2C432C36FE0CC04E
:101DE000E89440F8C91440F434FE05C032FC03C046
:101DF000F32DFE7E4F2E892C44FE95C0FE01EC0D86
:101E0000F11D8081803309F087C0242D297E422E68
:101E1000842D8870582E43FC95C040FE8FC09C2CAA
:101E2000821418F42C0C922C981844FE91C0B7011F
:101E300080E390E00E94D40F42FE09C088E790E062
:101E400041FE02C088E590E0B7010E94D40FC9149A
:101E500008F48AC0CA94D12C9FEFC91AD90ACA0CB7
:101E6000DB1CF60182916F01B70190E00E94D40F54
:101E7000AC14BD04B1F74FCF60817181072E000C07
:101E8000880B990B0E5F1F4F92CFD32CE894D4F898
:101E90002AE030E0853739F1232D297FD22E8F3685
:101EA00001F148F48835A9F0F701868197812B96D6
:101EB000E2E10C947E10803749F08837A9F7D4FE10
:101EC00002C06894D2F820E130E00DC06894D4F8E4
:101ED000F6CF34FE03C0822F8660D82E20E132E098
:101EE00002C028E030E0F801D7FE0FC060817181A8
:101EF000828193810C5F1F4FA5010E940410C82EA0
:101F0000CA183D2CE89437F867CF6081718190E062
:101F100080E00E5F1F4FF0CF42FC02C0839478CF69
:101F20008394839475CF842D867809F471CFF6CF8E
:101F3000B70180E290E00E94D40F83948214C0F332
:101F4000512C73CF522C5818821408F46ECFF8CF4E
:101F5000842D867809F47BCF8BE241FE80E247FC3A
:101F60008DE2B70190E071CFB70180E390E00E946D
:101F7000D40F9A946CCF8FEF9FEF99CFFC0105900F
:101F8000615070400110D8F7809590958E0F9F1F7B
:101F90000895FC016150704001900110D8F78095C0
:101FA00090958E0F9F1F08950F931F93CF93DF93EC
:101FB000182F092FEB018B8181FD09C01FEF0FEF57
:101FC000812F902FDF91CF911F910F91089582FF64
:101FD00014C02E813F818C819D81281739073CF4E4
:101FE000E881F981CF0101969983888310838E81DE
:101FF0009F8101969F838E83E3CFE885F985812FAA
:102000000995892BA1F3DACFFA01AA27283051F1DB
:10201000203181F1E8946F936E7F6E5F7F4F8F4F19
:102020009F4FAF4FB1E03ED0B4E03CD0670F781F78
:10203000891F9A1FA11D680F791F8A1F911DA11D5D
:102040006A0F711D811D911DA11D20D009F4689496
:102050003F912AE0269F11243019305D3193DEF63E
:10206000CF010895462F4770405D4193B3E00FD0F4
:10207000C9F7F6CF462F4F70405D4A3318F0495DDF
:1020800031FD4052419302D0A9F7EACFB4E0A695C2
:102090009795879577956795BA95C9F700976105E4
:1020A000710508959B01AC010A2E0694579547953A
:1020B00037952795BA95C9F7620F731F841F951F2F
:1020C000A01D08952F923F924F925F926F927F9240
:1020D0008F929F92AF92BF92CF92DF92EF92FF9238
:1020E0000F931F93CF93DF93CDB7DEB7CA1BDB0BE4
:1020F0000FB6F894DEBF0FBECDBF09942A88398889
:1021000048885F846E847D848C849B84AA84B9848F
:10211000C884DF80EE80FD800C811B81AA81B9819B
:10212000CE0FD11D0FB6F894DEBF0FBECDBFED01AF
:102130000895F894FFCFAE0332003200320032002F
:1021400001010101200020002000200020000000EB
:1021500000004103A102CE028E03FF02DD02F10264
:102160000000000029041E043A04F40317040404C8
:10217000F503000000006D050D0A0052464E0034C4
:102180005F536D61727450616E656C2E696E6F0085
:1021900057464E3A257300525642005756423A254A
:1021A0007500524931005749313A2564005249328D
:1021B000005749323A256400524933005749333AAF
:1021C000256400524934005749343A256400524985
:1021D00054005749543A2564005256434300575619
:1021E00043433A2564005243483100574348313A4B
:1021F0002564005243483200574348323A25640070
:102200005243483300574348333A25640052434809
:102210003400574348343A25640057434831005747
:102220004348313A3D2564005743483200574348FC
:10223000323A3D2564005743483300574348333A08
:102240003D2564005743483400574348343A3D2500
:10225000640057494C310057494C313A3D256400E0
:1022600057494C320057494C323A3D256400574992
:102270004C330057494C333A3D25640057494C34A0
:102280000057494C343A3D25640057494C54005797
:0A229000494C543A3D2564003A0021
:107E0000112484B714BE81FFF0D085E080938100F7
:107E100082E08093C00088E18093C10086E0809377
:107E2000C20080E18093C4008EE0C9D0259A86E02C
:107E300020E33CEF91E0309385002093840096BBD3
:107E4000B09BFECF1D9AA8958150A9F7CC24DD24C4
:107E500088248394B5E0AB2EA1E19A2EF3E0BF2EE7
:107E6000A2D0813461F49FD0082FAFD0023811F036
:107E7000013811F484E001C083E08DD089C08234E0
:107E800011F484E103C0853419F485E0A6D080C0E4
:107E9000853579F488D0E82EFF2485D0082F10E0AE
:107EA000102F00270E291F29000F111F8ED06801E7
:107EB0006FC0863521F484E090D080E0DECF843638
:107EC00009F040C070D06FD0082F6DD080E0C81688
:107ED00080E7D80618F4F601B7BEE895C0E0D1E017
:107EE00062D089930C17E1F7F0E0CF16F0E7DF06D8
:107EF00018F0F601B7BEE89568D007B600FCFDCFD4
:107F0000A601A0E0B1E02C9130E011968C91119780
:107F100090E0982F8827822B932B1296FA010C0160
:107F200087BEE89511244E5F5F4FF1E0A038BF0790
:107F300051F7F601A7BEE89507B600FCFDCF97BE46
:107F4000E89526C08437B1F42ED02DD0F82E2BD052
:107F50003CD0F601EF2C8F010F5F1F4F84911BD097
:107F6000EA94F801C1F70894C11CD11CFA94CF0C13
:107F7000D11C0EC0853739F428D08EE10CD085E9AC
:107F80000AD08FE07ACF813511F488E018D01DD067
:107F900080E101D065CF982F8091C00085FFFCCF94
:107FA0009093C60008958091C00087FFFCCF809118
:107FB000C00084FD01C0A8958091C6000895E0E648
:107FC000F0E098E1908380830895EDDF803219F02E
:107FD00088E0F5DFFFCF84E1DECF1F93182FE3DFCA
:107FE0001150E9F7F2DF1F91089580E0E8DFEE27F6
:047FF000FF270994CA
:027FFE00040479
:00000001FF
