:020000040000FA
:100000000C945D000C9485000C9485000C94850084
:100010000C9485000C9485000C9485000C9485004C
:100020000C9485000C9485000C9485000C9485003C
:100030000C9485000C94ED0A0C9485000C948500BA
:100040000C944B0A0C9485000C94BB0A0C94950AF2
:100050000C9485000C9485000C9485000C9485000C
:100060000C94140B0C948500000000002400270061
:100070002A0000000000250028002B0004040404CE
:100080000404040402020202020203030303030342
:10009000010204081020408001020408102001021F
:1000A00004081020000000080002010000030407FB
:1000B0000000000000000000330C11241FBECFEF31
:1000C000D8E0DEBFCDBF24E0A8E7B2E001C01D92BA
:1000D000A93DB207E1F712E0A0E0B1E0E8E6F4E202
:1000E00002C005900D92A837B107D9F710E0CDE511
:1000F000D0E004C02197FE010E944B0FCC35D10700
:10010000C9F70E94F90C0C9432120C940000CF93A2
:10011000DF93EEE0F1E021E030E034966081718120
:100120008617970754F5F901EE0FFF1FEE0FFF1F1B
:10013000E65FFE4FA081B181C281D381220F331FC0
:10014000220F331FF901E25FFE4F22813381AC01A0
:100150004A1B5B0B2C1B3D0B429FC001439F900D24
:10016000529F900D11246A1B7B0B0E94CD0ECB0178
:100170008C0F9D1FDF91CF9108952F5F3F4F2E3041
:10018000310559F630E020E0D0E0C0E070E060E0FA
:10019000B0E0A0E0DCCF0F931F93CF93DF93AB01D0
:1001A0002091370430913804FC01FA96DF01AA0F40
:1001B000BB1FAF52BC4FC1E0D0E0C217D30764F4FD
:1001C0000D911C9111971D961C930E931C97400F37
:1001D000511F21961C96F1CFEE0FFF1FEF52FC4FDF
:1001E00060837183FC01EE0FFF1FE75CFB4FCA01C8
:1001F000B9010E94B90E71836083DF91CF911F9185
:100200000F9108957F928F929F92AF92BF92CF925B
:10021000DF92EF92FF920F931F93CF93DF93C4E08F
:10022000D0E0C12CD12C76018EE4782E0BE31FE1B7
:1002300094EB892E9BE2992E91E1A92EB12C70921C
:100240007C00C8010197F1F780917A008064809367
:100250007A0080917A0086FDFCCF80917800209111
:100260007900322F282F032E000C440B550BC501AB
:10027000B4010E94030F032E000C440B550BC20E59
:10028000D31EE41EF51E2197D1F6C701B60124E066
:1002900030E040E050E00E94030F263583E138074C
:1002A00094F03093A6042093A504DF91CF911F9181
:1002B0000F91FF90EF90DF90CF90BF90AF909F9005
:1002C0008F907F90089588E893E19093A60480939F
:1002D000A504EBCF2091CF043091D004EBEAF4E0F9
:1002E00090E080E082179307CCF04091D1045091C8
:1002F000D20480912D0490912E046AE0689F9001B1
:10030000699F300D1124EBEBF4E090E080E084175E
:10031000950744F4219331930196F9CF11921192EC
:100320000196E0CF089590E0FC01EC55FF4F249139
:10033000FC01E057FF4F3491FC01E458FF4FE4917A
:10034000EE23C9F0222339F0233001F1A8F4213043
:1003500019F1223029F1F0E0EE0FFF1FEE58FF4FA8
:10036000A591B4918FB7F894EC91611126C03095A6
:100370003E233C938FBF08952730A9F02830C9F061
:10038000243049F7809180008F7D03C080918000E8
:100390008F7780938000DFCF84B58F7784BDDBCFEC
:1003A00084B58F7DFBCF8091B0008F778093B000B4
:1003B000D2CF8091B0008F7DF9CF3E2BDACF8091E4
:1003C000330490913404A0913504B09136048093A5
:1003D0002F0490933004A0933104B093320460E072
:1003E00088E00E94930161E088E00C949301CF9330
:1003F000DF9390E0FC01E057FF4F249184589F4F1A
:10040000FC0184918823D1F090E0880F991FFC01B2
:10041000E859FF4FA591B491FC01EE58FF4FC591EB
:10042000D49161110EC09FB7F8948C91E22FE095A2
:100430008E238C932881E223E8839FBFDF91CF91A5
:1004400008958FB7F894EC91E22BEC938FBFF6CF21
:1004500061E086E00E94F70160E086E00E9493017F
:100460008BE39CE90197F1F760E086E00C94F701DB
:1004700061E082E00E94F70161E084E00E94F70100
:1004800061E083E00E94F70161E088E00E94F701EB
:1004900061E089E00E94F70161E087E00E94F701D6
:1004A00061E085E00E94F70160E086E00E94F701CC
:1004B00060E081E10E94F70160E080E10E94F701C5
:1004C00060E085E10E94F70160E084E10E94F701AD
:1004D00060E08FE00E94F70160E08EE00C94F7018D
:1004E0000895E0910E03F0910F03309729F01092D8
:1004F00017031092160309940895CF93DF93AC016C
:10050000E0911003F09111033097F1F090911903ED
:10051000809118039817C0F090E0292F30E026173B
:10052000370754F4D901A258BD4F240F351FE901F4
:1005300028812C939F5FF1CF1092190360931803C9
:10054000CB01DF91CF910994DF91CF910895AF92C4
:10055000BF92CF92DF92EF92FF920F931F93CF93B0
:10056000DF936C017B018B01040F151FEB015E0112
:10057000AE18BF08C017D10759F06991D601ED91A7
:10058000FC910190F081E02DC6010995892B79F746
:10059000C501DF91CF911F910F91FF90EF90DF90F8
:1005A000CF90BF90AF900895FC01538D448D252FBF
:1005B00030E0842F90E0821B930B541710F0CF96FD
:1005C000089501970895FC01918D828D981761F02F
:1005D000A28DAE0FBF2FB11D5D968C91928D9F5F46
:1005E0009F73928F90E008958FEF9FEF0895FC0125
:1005F000918D828D981731F0828DE80FF11D858DD8
:1006000090E008958FEF9FEF0895FC01918D228D6A
:10061000892F90E0805C9F4F821B91098F739927EF
:10062000089588E293E00E94050321E0892B09F4F4
:1006300020E0822F089580E090E0892B29F00E942D
:10064000110381110C9400000895FC01A48DA80FE2
:10065000B92FB11DA35ABF4F2C91848D90E0019604
:100660008F739927848FA689B7892C93A089B18924
:100670008C91837080648C93938D848D981306C0C5
:100680000288F389E02D80818F7D80830895EF9229
:10069000FF920F931F93CF93DF93EC0181E0888F3C
:1006A0009B8D8C8D98131AC0E889F989808185FF0C
:1006B00015C09FB7F894EE89FF896083E889F989AE
:1006C00080818370806480839FBF81E090E0DF91B0
:1006D000CF911F910F91FF90EF900895F62E0B8D03
:1006E00010E00F5F1F4F0F731127E02E8C8D8E11BE
:1006F0000CC00FB607FCFACFE889F989808185FF25
:10070000F5CFCE010E942503F1CFEB8DEC0FFD2F2D
:10071000F11DE35AFF4FF0829FB7F8940B8FEA89DF
:10072000FB8980818062CFCFCF93DF93EC01888DEE
:100730008823B9F0AA89BB89E889F9898C9185FD5C
:1007400003C0808186FD0DC00FB607FCF7CF8C91EA
:1007500085FFF2CF808185FFEDCFCE010E9425037A
:10076000E9CFDF91CF9108952091C402260F33275E
:10077000331F21323105ECF42091E802FC0190E0B6
:1007800080E0243069F082E00895A091C4022191B4
:10079000AC014C555D4FA40FB52FB11D2C930196A4
:1007A000861798F38091C402680F6093C40280E0BA
:1007B000089581E008951092E80281E08093EA02B2
:1007C0001092E90261E082E10E94930161E083E11D
:1007D0000E949301E9EBF0E080818E7F808380812D
:1007E0008D7F808388E48093B80085E48093BC008B
:1007F00008950895E091190380911803E81730F4E3
:10080000F0E0E258FD4F808190E008958FEF9FEF78
:10081000089590911903809118032FEF3FEF9817D7
:1008200048F4E92FF0E0E258FD4F208130E09F5F6F
:1008300090931903C90108958091180390911903A9
:10084000891B990B0895CF93DF93CB01EA01642FA5
:100850000E94B403CE01DF91CF910895CF93DF932F
:100860001F92CDB7DEB7698361E0CE0101960E9489
:10087000B40381E090E00F90DF91CF91089590E074
:1008800080E00895089520917A0090917A00987FF1
:10089000946090937A008E50806480937C00809165
:1008A0007A00806480937A0080917A0086FDFCCF84
:1008B000809178009091790020937A0008958FE0DC
:1008C0000E944304BC0184E090E00E94CB008EE0D3
:1008D0000E944304BC0185E090E00C94CB0081E1D0
:1008E0000E944304BC0190E080E00E94CB0085E1BF
:1008F0000E944304BC0181E090E00E94CB0080E1B3
:100900000E944304BC0182E090E00E94CB0084E19D
:100910000E944304BC0183E090E00C94CB00CF9292
:10092000DF92EF92FF929C018436910514F023E64A
:1009300030E01216130614F021E030E030932E045C
:1009400020932D04922F83E2233308F083E38093D6
:10095000B00089E08093B1008FE98093B3009333B6
:1009600058F184E6C82ED12CC21AD30A0D2C000CE3
:10097000EE08FF08A091B300B0E011962AE030E045
:100980000E94390F9B01AC01C701B6010E94A90E5C
:1009900028EE33E040E050E00E94E10E21503109A2
:1009A000410951092093B40061E083E0FF90EF908A
:1009B000DF90CF900C94F701C92ED12CF12CE12CB3
:1009C000D9CFFB0101900020E9F73197AF01461B19
:1009D000570BDC01ED91FC910280F381E02D09942D
:1009E000CF93DF93D0E0C0E0009731F0BC0188E204
:1009F00093E00E94E104EC0160E771E088E293E09B
:100A00000E94E1048C0F9D1FDF91CF910895CF9339
:100A1000DF936115710531F06130710549F0DF91A7
:100A2000CF910895EC01CC960E94F0041CAEF7CF54
:100A3000845B9F4FDF91CF910C94F00483E791E0AA
:100A40000E94F0046DE174E085EC93E00E94E10403
:100A500010921D040895CF93DF9385ED8093BC0021
:100A60008091A0029091A102A091A202B091A30254
:100A70000796A11DB11D23E0B695A795979587957B
:100A80002A95D1F72091BC0024FD03C01092E80202
:100A900036C04091A0025091A1026091A2027091D3
:100AA000A302452B462B472B69F30097A105B105FF
:100AB00041F02AE22A95F1F700C00197A109B10996
:100AC000E1CF80919F0291E090939E028823B9F03C
:100AD000C091B800D091BA008091BC008A7B80930D
:100AE000BC0060E082E10E94930160E083E10E942B
:100AF00093010E94DB03D093BA00C093B800DF914A
:100B0000CF9108958F929F92AF92BF92CF92DF9232
:100B1000EF92FF920F931F93CF93DF93EC017B0132
:100B20005A0189016DE771E0C7010E94510F892BBD
:100B300009F041C0DE01A859BF4FFE01EC52FF4F42
:100B40002D913C91A081B1810E94220F9B01AC01AB
:100B5000ADE0B0E00E94400F20E034E040E050E023
:100B60000E94030F3F932F9381E891E09F938F930F
:100B7000C80124E0880F991F2A95E1F7CC968C0FC5
:100B80009D1F9F938F930E945A0F0F900F900F906D
:100B90000F900F900F90B801CE01DF91CF911F9170
:100BA0000F91FF90EF90DF90CF90BF90AF909F900C
:100BB0008F900C94070568E871E0C7010E94510FFF
:100BC000892BE9F4DE01A659BF4FFE01EC52FF4F1D
:100BD0002D913C91A081B1810E94220F9B01AC011B
:100BE000ADE0B0E00E94400F20E034E040E050E093
:100BF0000E94030F3F932F938CE891E0B7CF63E9F6
:100C000071E0C7010E94510F892BE9F4FE01E459FC
:100C1000FF4F208131813250E859FF4FA081B181CF
:100C20000E94220F9B01AC01A3E0B0E00E94400FA4
:100C300020E034E040E050E00E94030F3F932F9308
:100C400087E991E093CF6EE971E0C7010E94510FEF
:100C5000892BE9F4FE01E259FF4F208131813250A6
:100C6000EA59FF4FA081B1810E94220F9B01AC0184
:100C7000A3E0B0E00E94400F20E034E040E050E00C
:100C80000E94030F3F932F9382EA91E06FCF69EAAE
:100C900071E0C7010E94510F892B61F4FE01EE58EB
:100CA000FF4F808191810E9487009F938F938DEAEF
:100CB00091E05CCF64EB71E0C7010E94510F892B7A
:100CC00061F4FE01EE58FF4F808191810E94870000
:100CD0009F938F9388EB91E049CF6FEB71E0C70151
:100CE0000E94510F892B51F4FE01EC52FF4F81817C
:100CF0008F9380818F9384EC91E038CF6CEC71E01E
:100D0000C7010E94510F892B51F4FE01E45AFF4F95
:100D100081818F9380818F9381ED91E027CF69ED61
:100D200071E0C7010E94510F892B11F5C5010E9486
:100D3000570E7C016E0186EDC80ED11CB7010F2C39
:100D4000000C880B990B37E0660F771F881F991FDF
:100D50003A95D1F723E537E040E050E00E94030FD9
:100D6000D6012D933C93FF92EF928EED91E0FECE53
:100D700067EE71E0C7010E94510F892BB9F04E0157
:100D8000B2E08B0E911CD12CC12C8E899F89C81684
:100D9000D906CCF4D401ED91FD914D01A801B50126
:100DA000C7010995BFEFCB1ADB0AEFCFC5010E943F
:100DB000570EFE01E852FF4F808391839F938F93DC
:100DC0008CEE91E0D3CEDF91CF911F910F91FF90E8
:100DD000EF90DF90CF90BF90AF909F908F9008954D
:100DE0000F931F93CF93DF938B0165EF71E00E9408
:100DF000750EEC0161E771E090E080E00E94750EF5
:100E00009801AC01BE0181ED93E0DF91CF911F917C
:100E10000F910C948205AF92BF92CF92DF92EF9226
:100E2000FF920F931F93CF93DF9388E293E00E948A
:100E30000503EC01892B31F188E293E00E94E30283
:100E40002091F9033091FA03F901EF52FC4F808FA2
:100E50002F5F3F4F3093FA032093F9038A3019F044
:100E60002F30310511F72F523C4FF901108E10929F
:100E7000FA031092F90370E060E089EE93E00E94BB
:100E8000F006D3CF0E946F0420913D0430913E04C0
:100E90006091A7047091A804AB015E5F42175307ED
:100EA0008CF080E092E0861B970B2817390754F0EE
:100EB00020913F0430914004421753071CF028173B
:100EC000390714F40E94280280912F049091300475
:100ED000A0913104B09132040197A109B109809326
:100EE0002F0490933004A0933104B0933204B7FDE3
:100EF0000E94DF01A0903B04B0903C0480913F042D
:100F00009091400420E032E07901E81AF90A8091DA
:100F10000001909101018230910579F580910401E1
:100F2000909105018E159F0544F483E090E0909325
:100F30000101809300010E946A018091000190915B
:100F40000101039731F500910401109105010E197B
:100F50001F094091CF045091D004CA01FA01EE0F4D
:100F6000FF1FE955FB4F0197181619065CF5208104
:100F70003181338322833297F6CF0397F1F6809144
:100F80001D0390911E038A159B05BCF682E090E03C
:100F9000CECF20917C0230917D02E29EC001E39E83
:100FA000900DF29E900D1124E5E096958795EA95B7
:100FB000E1F700911D0310911E03081B190B0A197C
:100FC0001B09C7CF1093AC040093AB04A090D104CD
:100FD000B090D2049501F501EE0FFF1FE954FB4FCD
:100FE000215031091216130634F460817181738324
:100FF00062833297F5CF20913F04309140042D5CFD
:1010000031402736310508F483C0ABEAB4E0E09103
:10101000CB04F091CC0460E070E0CB01C417D5079D
:101020001CF10091CD041091CE04ADEBB4E0F801B9
:10103000329621E030E02A153B055CF5CD91DD913B
:1010400041915191C49F6001C59FD00CD49FD00C99
:1010500011240D2C000CEE08FF086C197D098E0977
:101060009F092F5F3F4FE7CFED90FD9001911191C8
:10107000E09E9001E19E300DF09E300D112489011B
:10108000330F220B330B600F711F821F931F2196AA
:10109000C5CFF80120813181032E000C440B550B84
:1010A0000E94030F3093BC042093BB04A4E6B0E07D
:1010B0000E94400F20E034E040E050E00E94030F27
:1010C000C9010E948F048091780290917902A091C9
:1010D0007A02B0917B020196A11DB11D893BFBE014
:1010E0009F07A105B1050CF04DC080937802909345
:1010F0007902A0937A02B0937B02DF91CF911F9186
:101100000F91FF90EF90DF90CF90BF90AF90089538
:101110008091D3049091D40401969093D404809349
:10112000D3042091D5043091D604281739075CF6F2
:101130001092D4041092D304C0912D04D0912E04A7
:10114000BE010D2E000C880B990B2AE0660F771F4D
:10115000881F991F2A95D1F724E630E040E050E03F
:101160000E94030F3093BC042093BB04CE01019670
:10117000101611060CF4A5CF012B09F4A4CFCE0153
:1011800001979FCF109278021092790210927A0202
:1011900010927B020E9402010E945F048091410430
:1011A000909142040E948700C091A904D091AA04A2
:1011B000C817D90754F080914304909144040E94C9
:1011C0008700C817D9070CF098CFDF91CF911F91F6
:1011D0000F91FF90EF90DF90CF90BF90AF900C9465
:1011E00028020F931F93CF93DF938C0187EF91E039
:1011F0000E94F004C1EDD3E0CE01815D93408017E1
:10120000910744F485EC93E00E9409048AA71BA689
:101210002196F2CFE1EDF3E0CF01815D934080179D
:10122000910724F483A582A73196F6CF61E070E0A0
:101230008BEF93E0DF91CF911F910F910C94F0060B
:10124000EF92FF920F931F93CF93DF938C017B015B
:10125000EA0160E072E00E94510F892BA9F484E05A
:1012600092E09F938F9384E192E09F938F93CE01BE
:1012700024E0880F991F2A95E1F7835F9B4F9F9386
:101280008F930E945A0F72C06BE172E0C8010E94F6
:10129000510F892BF1F4C7010E94570E182F092F07
:1012A000282F392FAFE4B0E00E942A0F2091A50427
:1012B0003091A604032E000C440B550B0E94030F23
:1012C00030931E0320931D030F931F9381E292E03E
:1012D000CCCF6BE272E0C8010E94510F892BD9F488
:1012E00020911D0330911E03A091A504B091A60486
:1012F0000E94220F9B01AC01ADE0B0E00E94400FC4
:1013000020E034E040E050E00E94030F3F932F9331
:1013100081E392E0AACF6AE372E0C8010E94510F14
:10132000892B59F5C7010E94570E8C011F938F938B
:1013300080E492E09F938F93CE0154E0880F991F31
:101340005A95E1F7835F9B4F9F938F930E945A0FAB
:10135000C80165E0880F991F6A95E1F76CED70E1AF
:101360000E94CD0E70937D0260937C020F900F90CF
:101370000F900F900F900F9035C06AE472E0C80193
:101380000E94510F892BC9F540917C0250917D023A
:101390002CED30E1429FC001439F900D529F900D74
:1013A000112435E0969587953A95E1F71F921F92A3
:1013B0009F938F9380E592E09F938F93CE0144E0BB
:1013C000880F991F4A95E1F7835F9B4F9F938F93F7
:1013D0000E945A0F8DB79EB708960FB6F8949EBF1D
:1013E0000FBE8DBFBE0181ED93E0DF91CF911F91C4
:1013F0000F91FF90EF900C94070569E572E0C8012A
:101400000E94510F892BF1F4C7010E94570E182F2B
:10141000092F25E531E0A82FB92F0E94390F20911F
:10142000A5043091A604032E000C440B550B0E941A
:10143000030F30930501209304010F931F938FE551
:1014400092E013CF69E672E0C8010E94510F892B28
:10145000D9F42091040130910501A091A504B09127
:10146000A6040E94220F9B01AC01A3E0B0E00E9401
:10147000400F20E034E040E050E00E94030F3F9333
:101480002F938FE692E0F1CEDF91CF911F910F91D4
:10149000FF90EF9008951F920F920FB60F921124B4
:1014A0002F933F938F939F93AF93BF938091240388
:1014B00090912503A0912603B09127033091230337
:1014C00023E0230F2D3758F50196A11DB11D209360
:1014D00023038093240390932503A0932603B093C2
:1014E000270380911F0390912003A0912103B091C5
:1014F00022030196A11DB11D80931F039093200329
:10150000A0932103B0932203BF91AF919F918F913C
:101510003F912F910F900FBE0F901F90189526E8C6
:10152000230F0296A11DB11DD2CF1F920F920FB6AD
:101530000F9211242F933F934F935F936F937F9359
:101540008F939F93AF93BF93EF93FF9388E293E0C2
:101550000E942503FF91EF91BF91AF919F918F91D1
:101560007F916F915F914F913F912F910F900FBE9F
:101570000F901F9018951F920F920FB60F92112483
:101580002F938F939F93EF93FF93E0913803F09104
:1015900039038081E0913E03F0913F0382FD1BC03F
:1015A0009081809141038F5F8F7320914203821756
:1015B00041F0E0914103F0E0E85DFC4F958F8093AE
:1015C0004103FF91EF919F918F912F910F900FBE4B
:1015D0000F901F9018958081F4CF1F920F920FB635
:1015E0000F9211242F933F934F935F936F937F93A9
:1015F0008F939F93AF93BF93EF93FF93E09102017B
:10160000F09103010995FF91EF91BF91AF919F91E7
:101610008F917F916F915F914F913F912F910F909B
:101620000FBE0F901F9018951F920F920FB60F923A
:1016300011242F933F934F935F936F937F938F93D7
:101640009F93AF93BF93EF93FF938091B900887FEF
:10165000803609F44AC0F0F5883209F4A7C018F5BD
:10166000803109F49BC0B8F4882309F4F9C08830AC
:1016700009F494C0FF91EF91BF91AF919F918F9129
:101680007F916F915F914F913F912F910F900FBE7E
:101690000F901F901895883109F488C0803251F757
:1016A0008093E70214C0803409F49DC040F4803375
:1016B000B9F38833F9F68093E70285ECB0C0803542
:1016C00009F485C0883509F496C0883499F60E94DB
:1016D0002B05D0CF883909F48CC038F5883729F02C
:1016E00050F4883611F0803729F683E08093E802C1
:1016F0001092E60257C0883809F47BC0803919F08F
:10170000803809F0B7CF8091E602803208F071C0CE
:10171000E091E60281E08E0F8093E6028091BB00AB
:10172000F0E0EA53FD4F80833DC0803B39F0E0F4A8
:10173000803A09F479C0883A09F09CCF84E080931C
:10174000E8021092C5021092C402E0911403F091D5
:10175000150309958091C40281110FC081E0809327
:10176000C4021092A40209C0803C09F4A6CF883CB0
:1017700009F4A3CF883B09F07DCFE091C50281E059
:101780008E0F8093C502F0E0EC55FD4F8081809371
:10179000BB009091C5028091C40229C080910D03C5
:1017A0008093BB0085EC8093BC0064CF90910C03C8
:1017B00080910B03981758F5E0910C0381E08E0F90
:1017C00080930C03F0E0E551FD4F8081E9CFE0917B
:1017D0000C0381E08E0F80930C038091BB00F0E03E
:1017E000E551FD4F808390910C0380910B03981776
:1017F000C8F285E8D8CFE0910C0381E08E0F80938A
:101800000C038091BB00F0E0E551FD4F8083809197
:10181000EA0281115CCF81E08093E90284EA80933F
:10182000BC001092E80226CF85EC8093BC00109299
:10183000E8028091E602803230F4E091E602F0E0C6
:10184000EA53FD4F10826091E60270E0E0911203CE
:10185000F091130386EC92E009951092E6020ACF0C
:101860001092E70234CFCF93DF9310922B031092A4
:101870002A0388EE93E0A0E0B0E080932C039093DD
:101880002D03A0932E03B0932F032AE431E030936D
:1018900029032093280325EC30E03093350320936F
:1018A000340324EC30E0309337032093360320ECEC
:1018B00030E0309339032093380321EC30E030934B
:1018C0003B0320933A0322EC30E030933D03209316
:1018D0003C0326EC30E030933F0320933E0310920C
:1018E000410310924203109243031092440310925A
:1018F000C8031092C7038093C9039093CA03A093AF
:10190000CB03B093CC038CE591E09093C603809316
:10191000C5031092E8031092E7031092FA031092A5
:10192000F90310920C0410920B048EE691E0909350
:10193000D2038093D10382E390E090932E048093AE
:101940002D0410922F041092300410923104109242
:101950003204C4E0D0E0D0933804C093370487E762
:1019600091E09093A8048093A7048AEA90E0909372
:10197000AA048093A90480E1EBEAF4E0DF01982F48
:101980001D929A95E9F7EBEBF4E0DF011D928A9541
:10199000E9F71092D4041092D304D093D604C093E4
:1019A000D5040E9438020E942802D0933804C093C4
:1019B00037040E940201D0E0C0E08091370490918A
:1019C0003804C817D90734F40E946F040E945F04DA
:1019D0002196F3CF8BEB91E09093A8048093A7041A
:1019E00080E590E09093AA048093A904DF91CF91C1
:1019F0000895789484B5826084BD84B5816084BD87
:101A000085B5826085BD85B5816085BD80916E009C
:101A1000816080936E0010928100809181008260CD
:101A2000809381008091810081608093810080910A
:101A300080008160809380008091B10084608093F9
:101A4000B1008091B00081608093B00080917A00F5
:101A5000846080937A0080917A00826080937A001B
:101A600080917A00816080937A0080917A0080680A
:101A700080937A001092C1000E94380284E090E0C6
:101A800090933804809337040E940201F12CE12CDA
:101A90008091370490913804E816F90644F40E94C6
:101AA0006F040E945F048FEFE81AF80AF1CF89E90A
:101AB00091E09093A8048093A7048CE390E0909326
:101AC000AA048093A9048091E7039091E8038A30E7
:101AD000910574F40196FC01EE0FFF1FEF52FC4FCD
:101AE00020E239E0318320839093E8038093E70379
:101AF000E0913803F091390382E08083E091340370
:101B0000F09135031082E0913603F091370383E3BF
:101B1000808310924003E0913C03F0913D03C6E0C6
:101B2000C083E0913A03F0913B0380818061808320
:101B3000E0913A03F0913B03808188608083E091DB
:101B40003A03F0913B03808180688083E0913A03FF
:101B5000F0913B0380818F7D808310921903109256
:101B6000180310921703109216030E94DB0381E7FB
:101B700092E090931503809314038DE792E0909385
:101B8000130380931203C093BA0081EF98E09093FF
:101B90001103809310038EE195E090930F038093DF
:101BA0000E038AE091E09093CC048093CB0486E00E
:101BB00091E09093CE048093CD0482E090E09093E6
:101BC000D0048093CF049093D2048093D104C0902A
:101BD000A504D090A6040D2C000CEE08FF0868EEBA
:101BE00074E182E190E0A70196010E94030F309317
:101BF0001E0320931D0364E172E08DE090E0A701D5
:101C000096010E94030F309305012093040161E0C7
:101C100087E00E94930160E089E00E94930161E007
:101C200088E00E9493010E94DF0180E1809381009F
:101C30001092800081E080931C0320E43FE1309308
:101C40001B0320931A03309387002093860091E1B1
:101C5000909381002BE037E0309303012093020141
:101C600080936F008AE090E0A0E0B0E080933304BE
:101C700090933404A0933504B09336040E94DF019E
:101C800061E085E00E9493018BEC97E00197F1F70A
:101C900060E085E00E949301C0E0D0E02097F1F37E
:101CA0000E9411038823D1F30E940000F7CFFC01AA
:101CB00088279927E89421912032E9F3293010F000
:101CC0002E30C8F32B3241F02D3239F4689404C021
:101CD0000E94A10E820F911D219120532A30C0F342
:101CE0001EF4909581959F4F089547ED54E00E9412
:101CF0007A0E0895FA01A191B081009719F4109716
:101D0000E1F0CD01DC01CD010D90002011F4C00106
:101D100013C0FB012191222319F02015D9F7F3CF2D
:101D2000FB012191201519F41E92119606C0222361
:101D3000C1F70D900020A1F7D001FA01A193B08363
:101D400008957AE0979F902D879F802D910D112403
:101D50000895DB018F939F930E94400FBF91AF9135
:101D6000A29F800D911DA39F900DB29F900D1124F5
:101D70000895AA1BBB1B51E107C0AA1FBB1FA617D2
:101D8000B70710F0A61BB70B881F991F5A95A9F724
:101D900080959095BC01CD01089597FB072E16F410
:101DA000009407D077FD09D00E94B90E07FC05D03A
:101DB0003EF4909581959F4F0895709561957F4F62
:101DC0000895A1E21A2EAA1BBB1BFD010DC0AA1F7C
:101DD000BB1FEE1FFF1FA217B307E407F50720F094
:101DE000A21BB30BE40BF50B661F771F881F991F0F
:101DF0001A9469F760957095809590959B01AC0158
:101E0000BD01CF010895052E97FB1EF400940E949A
:101E10001A0F57FD07D00E94E10E07FC03D04EF4C5
:101E20000C941A0F50954095309521953F4F4F4F88
:101E30005F4F089590958095709561957F4F8F4F76
:101E40009F4F08950E942A0F332312F48A1B9B0B85
:101E50000C943B0FA29FB001B39FC001A39F700DD4
:101E6000811D1124911DB29F700D811D1124911DA2
:101E700008950E942A0FB7FF0895821B930B0895BF
:101E80000E942A0FA59F900DB49F900DA49F800DD6
:101E9000911D11240895EE0FFF1F0590F491E02D80
:101EA0000994FB01DC018D91019080190110D9F397
:101EB000990B0895AEE0B0E0E0E6FFE00C94091263
:101EC0000D891E8986E08C831A8309838FEF9FE733
:101ED0009E838D83AE01475E5F4F6F89788DCE0103
:101EE00001960E947D0F2F813885020F131FF80184
:101EF00010822E96E4E00C942512ABE0B0E0E3E80B
:101F0000FFE00C94FB117C013B018A01FC0117826C
:101F10001682838181FFC8C1CE0101965C01F70161
:101F20009381F30193FD859193FF81913F01882374
:101F300009F453C1853239F493FD859193FF819162
:101F40003F01853229F4B70190E00E946D11E7CF7F
:101F5000912C212C312CFFE1F31538F08B3211F14B
:101F600090F4803209F1833229F137FC3CC020ED36
:101F7000280F2A3050F536FE20C08AE0989E200DAA
:101F80001124922E06C08D3291F0803371F768943F
:101F900030F8F30193FD859193FF81913F01811109
:101FA000DACF21C0689431F8689432F8F2CF68949F
:101FB00033F8EFCF689434F8ECCFEAE02E9E200D92
:101FC0001124222E689435F8E4CF8E3229F436FCA1
:101FD00004C1689436F8DDCF8C3619F4689437F86C
:101FE000D8CF8836B1F2982F9F7D95549330E0F08A
:101FF0008336A1F18337C1F1833509F063C028012D
:10200000F2E04F0E511CF801C080D180692D70E0C4
:1020100036FC02C06FEF7FEFC6010E9457114C01E2
:10202000689437F882010AC00C5F1F4FFFE3F98301
:1020300088248394912C6501E89437F833FE2DC0F1
:10204000522C8114910471F5552009F468CFB70121
:1020500080E290E00E946D115A94F6CFF8018081E1
:1020600089830E5F1F4FE4CF2801F2E04F0E511C11
:10207000F801C080D180692D70E036FC02C06FEF9E
:102080007FEFC6010E9462114C018201D5CFB701DA
:1020900080E290E00E946D112A942814190409F03E
:1020A000B0F7CECFF60137FC859137FE81916F01F5
:1020B000B70190E00E946D1151105A94F1E08F1A0F
:1020C0009108BFCF843619F0893609F077C0F8013E
:1020D00037FE6BC060817181828193810C5F1F4FDD
:1020E000F32DFF763F2E97FF09C090958095709550
:1020F00061957F4F8F4F9F4F689437F82AE030E00B
:10210000A5010E949D11C82ECA188C2C432C36FEA6
:102110000CC0E89440F8C91440F434FE05C032FC09
:1021200003C0F32DFE7E4F2E892C44FE95C0FE0188
:10213000EC0DF11D8081803309F087C0242D297EAC
:10214000422E842D8870582E43FC95C040FE8FC0CF
:102150009C2C821418F42C0C922C981844FE91C0DC
:10216000B70180E390E00E946D1142FE09C088E74C
:1021700090E041FE02C088E590E0B7010E946D1139
:10218000C91408F48AC0CA94D12C9FEFC91AD90A7D
:10219000CA0CDB1CF60182916F01B70190E00E942E
:1021A0006D11AC14BD04B1F74FCF60817181072E62
:1021B000000C880B990B0E5F1F4F92CFD32CE89425
:1021C000D4F82AE030E0853739F1232D297FD22E4B
:1021D0008F3601F148F48835A9F0F701868197819F
:1021E0002B96E2E10C941712803749F08837A9F753
:1021F000D4FE02C06894D2F820E130E00DC06894AB
:10220000D4F8F6CF34FE03C0822F8660D82E20E1AA
:1022100032E002C028E030E0F801D7FE0FC0608154
:102220007181828193810C5F1F4FA5010E949D11D6
:10223000C82ECA183D2CE89437F867CF60817181A9
:1022400090E080E00E5F1F4FF0CF42FC02C083940D
:1022500078CF8394839475CF842D867809F471CFD9
:10226000F6CFB70180E290E00E946D118394821452
:10227000C0F3512C73CF522C5818821408F46ECF2F
:10228000F8CF842D867809F47BCF8BE241FE80E283
:1022900047FC8DE2B70190E071CFB70180E390E099
:1022A0000E946D119A946CCF8FEF9FEF99CFFC0134
:1022B0000590615070400110D8F7809590958E0F71
:1022C0009F1F0895FC016150704001900110D8F7E4
:1022D000809590958E0F9F1F08950F931F93CF9316
:1022E000DF93182F092FEB018B8181FD09C01FEFB0
:1022F0000FEF812F902FDF91CF911F910F910895B4
:1023000082FF14C02E813F818C819D81281739075F
:102310003CF4E881F981CF01019699838883108389
:102320008E819F8101969F838E83E3CFE885F98517
:10233000812F0995892BA1F3DACFFA01AA2728303A
:1023400051F1203181F1E8946F936E7F6E5F7F4F82
:102350008F4F9F4FAF4FB1E03ED0B4E03CD0670FFE
:10236000781F891F9A1FA11D680F791F8A1F911D51
:10237000A11D6A0F711D811D911DA11D20D009F4A1
:1023800068943F912AE0269F11243019305D3193E3
:10239000DEF6CF010895462F4770405D4193B3E0CC
:1023A0000FD0C9F7F6CF462F4F70405D4A3318F073
:1023B000495D31FD4052419302D0A9F7EACFB4E024
:1023C000A6959795879577956795BA95C9F70097DC
:1023D0006105710508959B01AC010A2E069457957D
:1023E000479537952795BA95C9F7620F731F841FD4
:1023F000951FA01D08952F923F924F925F926F926A
:102400007F928F929F92AF92BF92CF92DF92EF9284
:10241000FF920F931F93CF93DF93CDB7DEB7CA1B05
:10242000DB0B0FB6F894DEBF0FBECDBF09942A8830
:10243000398848885F846E847D848C849B84AA84D8
:10244000B984C884DF80EE80FD800C811B81AA8165
:10245000B981CE0FD11D0FB6F894DEBF0FBECDBF30
:10246000ED010895F894FFCF020070020004080007
:10247000F8FF080000008B000A00D30014002D01B3
:102480001E0094012800FE01320064023C0092020A
:102490004100BD024600E4024B0008035000270340
:1024A000550043035A005B035F00700364000000A3
:1024B00000004703A702D40294030503E302F702D6
:1024C000000000002E0423043F04F9031C04090447
:1024D000FA030000000082050D0A0072657175653F
:1024E0007374656400525631005756313A256400C2
:1024F000525632005756323A25640052493100573D
:1025000049313A256400524932005749323A25642C
:1025100000525431005754313A256400525432006D
:102520005754323A256400525643430057564343AA
:102530003A2564005244555400574455543A256492
:10254000005749534400574953443A3D25640057C6
:1025500054534400575453443A3D2564003A0072A2
:10256000656365697665640052464E00506F776515
:1025700072537570706C792E696E6F0057464E3AC3
:1025800025730057564C494D0057564C494D3A3D1E
:1025900025640052564C494D0057564C494D3A253A
:1025A000640057524452500057524452503A3D250D
:1025B000640052524452500057524452503A2564DB
:1025C0000057494C494D0057494C494D3A3D256407
:1025D0000052494C494D0057494C494D3A25640039
:107E0000112484B714BE81FFF0D085E080938100F7
:107E100082E08093C00088E18093C10086E0809377
:107E2000C20080E18093C4008EE0C9D0259A86E02C
:107E300020E33CEF91E0309385002093840096BBD3
:107E4000B09BFECF1D9AA8958150A9F7CC24DD24C4
:107E500088248394B5E0AB2EA1E19A2EF3E0BF2EE7
:107E6000A2D0813461F49FD0082FAFD0023811F036
:107E7000013811F484E001C083E08DD089C08234E0
:107E800011F484E103C0853419F485E0A6D080C0E4
:107E9000853579F488D0E82EFF2485D0082F10E0AE
:107EA000102F00270E291F29000F111F8ED06801E7
:107EB0006FC0863521F484E090D080E0DECF843638
:107EC00009F040C070D06FD0082F6DD080E0C81688
:107ED00080E7D80618F4F601B7BEE895C0E0D1E017
:107EE00062D089930C17E1F7F0E0CF16F0E7DF06D8
:107EF00018F0F601B7BEE89568D007B600FCFDCFD4
:107F0000A601A0E0B1E02C9130E011968C91119780
:107F100090E0982F8827822B932B1296FA010C0160
:107F200087BEE89511244E5F5F4FF1E0A038BF0790
:107F300051F7F601A7BEE89507B600FCFDCF97BE46
:107F4000E89526C08437B1F42ED02DD0F82E2BD052
:107F50003CD0F601EF2C8F010F5F1F4F84911BD097
:107F6000EA94F801C1F70894C11CD11CFA94CF0C13
:107F7000D11C0EC0853739F428D08EE10CD085E9AC
:107F80000AD08FE07ACF813511F488E018D01DD067
:107F900080E101D065CF982F8091C00085FFFCCF94
:107FA0009093C60008958091C00087FFFCCF809118
:107FB000C00084FD01C0A8958091C6000895E0E648
:107FC000F0E098E1908380830895EDDF803219F02E
:107FD00088E0F5DFFFCF84E1DECF1F93182FE3DFCA
:107FE0001150E9F7F2DF1F91089580E0E8DFEE27F6
:047FF000FF270994CA
:027FFE00040479
:00000001FF
