:100000000C9462000C948A000C948A000C948A0070
:100010000C948A000C948A000C948A000C948A0038
:100020000C948A000C948A000C948A000C948A0028
:100030000C948A000C940E090C948A000C948A008B
:100040000C946C080C948A000C94DC080C94B60890
:100050000C948A000C948A000C948A000C948A00F8
:100060000C9435090C948A0000000000240027003D
:100070002A0000000000250028002B0000000000DE
:1000800023002600290004040404040404040202DA
:100090000202020203030303030301020408102007
:1000A0004080010204081020010204081020000012
:1000B0000008000201000003040700000000000027
:1000C0000000540A11241FBECFEFD8E0DEBFCDBF21
:1000D00025E0ACE3B2E001C01D92AD39B207E1F713
:1000E00012E0A0E0B1E0E6E6FFE102C005900D926B
:1000F000AC33B107D9F710E0C2E6D0E004C02197D5
:10010000FE010E94CA0CC136D107C9F70E94990AA4
:100110000C94B10F0C9400008F929F92AF92BF92FB
:10012000CF92DF92EF92FF920F931F93CF93DF93C3
:10013000EB0129ED34E083309105C1F06CF429E541
:1001400034E08130910591F029E934E08230910565
:1001500069F029E134E00AC029E135E084309105F5
:1001600029F029E535E08530910599F78C01000FDC
:10017000111F035F1B4FF801A081B181AA0FBB1FA4
:10018000A20FB31FFC01EE0FFF1FEE0FFF1FEB507E
:10019000FC4FCD90DC9011970D2C000CEE08FF0861
:1001A00080809180A280B3808C189D08AE08BF0823
:1001B000CD93DC93D801ED90FC90A701440F551F1F
:1001C000240F351FD9014D915C91052E000C660B53
:1001D000770B840E951EA61EB71E80829182A28286
:1001E000B382FC01EE0FFF1FEE5FFE4FC080D18097
:1001F000880F991FEC01C751DC4F96010D2C000CA4
:10020000440B550BC501B4010E94820C398328832D
:10021000BFEFEB1AFB0AEC14FD0484F4F801F18241
:10022000E082DF91CF911F910F91FF90EF90DF90CF
:10023000CF90BF90AF909F908F900895D8011D925E
:100240001C92EFCF833081F028F4813099F0823016
:10025000A9F008958730A9F08830C9F08430B1F44E
:10026000809180008F7D03C0809180008F77809384
:100270008000089584B58F7784BD089584B58F7DFF
:10028000FBCF8091B0008F778093B000089580916C
:10029000B0008F7DF9CFCF93DF93282F30E0F901A5
:1002A000E255FF4F8491F901E656FF4FD491F901D1
:1002B000EA57FF4FC491CC23A1F081110E94220183
:1002C000EC2FF0E0EE0FFF1FE458FF4FA591B49123
:1002D000EC91ED2381E090E009F480E0DF91CF9193
:1002E000089580E090E0FACF1F93CF93DF93282FFB
:1002F00030E0F901E255FF4F8491F901E656FF4FD6
:10030000D491F901EA57FF4FC491CC23A9F0162FDD
:1003100081110E942201EC2FF0E0EE0FFF1FEE583A
:10032000FF4FA591B4918FB7F894EC91111108C0CB
:10033000D095DE23DC938FBFDF91CF911F9108957D
:10034000DE2BF8CFCF93DF9390E0FC01E656FF4F12
:1003500024918A579F4FFC0184918823D1F090E02B
:10036000880F991FFC01E859FF4FA591B491FC013A
:10037000EE58FF4FC591D49161110EC09FB7F8940C
:100380008C91E22FE0958E238C932881E223E883E1
:100390009FBFDF91CF9108958FB7F894EC91E22B36
:1003A000EC938FBFF6CFE091CC02F091CD02309765
:1003B00029F01092D5021092D40209940895CF9397
:1003C000DF93AC01E091CE02F091CF023097F1F0D3
:1003D0009091D7028091D6029817C0F090E0292F13
:1003E00030E02617370754F4D901A45CBD4F240F21
:1003F000351FE90128812C939F5FF1CF1092D7021E
:100400006093D602CB01DF91CF910994DF91CF9118
:100410000895AF92BF92CF92DF92EF92FF920F9327
:100420001F93CF93DF936C017B018B01040F151F8A
:10043000EB015E01AE18BF08C017D10759F06991F2
:10044000D601ED91FC910190F081E02DC601099556
:10045000892B79F7C501DF91CF911F910F91FF9003
:10046000EF90DF90CF90BF90AF900895FC01538D37
:10047000448D252F30E0842F90E0821B930B54177E
:1004800010F0CF96089501970895FC01918D828D0B
:10049000981761F0A28DAE0FBF2FB11D5D968C91A4
:1004A000928D9F5F9F73928F90E008958FEF9FEFE3
:1004B0000895FC01918D828D981731F0828DE80F9F
:1004C000F11D858D90E008958FEF9FEF0895FC0159
:1004D000918D228D892F90E0805C9F4F821B910926
:1004E0008F739927089584EE92E00E94670221E0BD
:1004F000892B09F420E0822F089580E090E0892B79
:1005000029F00E94730281110C9400000895FC01EF
:10051000A48DA80FB92FB11DA35ABF4F2C91848D64
:1005200090E001968F739927848FA689B7892C93C1
:10053000A089B1898C91837080648C93938D848D14
:10054000981306C00288F389E02D80818F7D808317
:100550000895EF92FF920F931F93CF93DF93EC01D7
:1005600081E0888F9B8D8C8D98131AC0E889F9895A
:10057000808185FF15C09FB7F894EE89FF8960835D
:10058000E889F98980818370806480839FBF81E0DE
:1005900090E0DF91CF911F910F91FF90EF90089520
:1005A000F62E0B8D10E00F5F1F4F0F731127E02EFB
:1005B0008C8D8E110CC00FB607FCFACFE889F98933
:1005C000808185FFF5CFCE010E948702F1CFEB8DB0
:1005D000EC0FFD2FF11DE35AFF4FF0829FB7F89407
:1005E0000B8FEA89FB8980818062CFCFCF93DF9325
:1005F000EC01888D8823B9F0AA89BB89E889F9893B
:100600008C9185FD03C0808186FD0DC00FB607FC6F
:10061000F7CF8C9185FFF2CF808185FFEDCFCE01A2
:100620000E948702E9CFDF91CF910895089520912C
:100630008202260F3327331F21323105ECF420913B
:10064000A602FC0190E080E0243069F082E0089589
:10065000A09182022191AC014E595D4FA40FB52F9C
:10066000B11D2C930196861798F380918202680F32
:100670006093820280E0089581E008951092A602BE
:1006800081E08093A8021092A70261E082E10E94BB
:10069000740161E083E10E947401E9EBF0E0808184
:1006A0008E7F808380818D7F808388E48093B800F3
:1006B00085E48093BC0008950895E091D70280916D
:1006C000D602E81730F4F0E0E45CFD4F808190E062
:1006D00008958FEF9FEF08959091D7028091D602F1
:1006E0002FEF3FEF981748F4E92FF0E0E45CFD4F5F
:1006F000208130E09F5F9093D702C90108958091D7
:10070000D6029091D702891B990B0895CF93DF935E
:10071000CB01EA01642F0E941703CE01DF91CF9134
:100720000895CF93DF931F92CDB7DEB7698361E061
:10073000CE0101960E94170381E090E00F90DF91B7
:10074000CF91089590E080E00895089520917A0077
:1007500090917A00987F946090937A008E50806494
:1007600080937C0080917A00806480937A008091ED
:100770007A0086FDFCCF80917800909179002093DB
:100780007A00089580E10E94A603BC0190E080E019
:100790000E948C0081E10E94A603BC0181E090E0F0
:1007A0000C948C008EE00E94A603BC0182E090E0D5
:1007B0000E948C008FE00E94A603BC0183E090E0C1
:1007C0000E948C0084E10E94A603BC0184E090E0BA
:1007D0000E948C0085E10E94A603BC0185E090E0A8
:1007E0000C948C00FB0101900020E9F73197AF01D8
:1007F000461B570BDC01ED91FC910280F381E02D4B
:1008000009948F929F92AF92BF92CF92DF92EF9214
:10081000FF920F931F93CF93DF93CDB7DEB7A197CE
:100820000FB6F894DEBF0FBECDBF6C01990FEE0876
:10083000FF08F7FE4BC06DE284EE92E00E94A90231
:100840008C0122273327A9012C193D094E095F0984
:1008500019A2CE0181967C019AE0892E912CA12CBF
:10086000B12CCA01B901A50194010E94600C605D20
:10087000F70162937F01211531054105510589F783
:1008800090E080E0309729F0BF0184EE92E00E9472
:10089000F203080F191F68E371E084EE92E00E94F2
:1008A000F203800F911FA1960FB6F894DEBF0FBE22
:1008B000CDBFDF91CF911F910F91FF90EF90DF900F
:1008C000CF90BF90AF909F908F900895A701960111
:1008D00019A28E010F5D1F4F8AE0C82ED12CE12C8A
:1008E000F12CCA01B901A70196010E94600C605D5C
:1008F000F80162938F01211531054105510589F7F2
:10090000309739F0BF0184EE92E00E94F2038C012F
:10091000C2CF10E000E0BFCFCF93DF93672B81F40D
:10092000EC01BC01645C7F4F21F084EE92E00E94F8
:10093000F20368E371E084EE92E00E94F2031CAEE1
:10094000DF91CF9108957F928F929F92AF92BF9245
:10095000CF92DF92EF92FF920F931F93CF93DF938B
:100960007C01EA016BE371E00E94D00C892BD1F588
:100970002091EF033091F003A0919905B0919A0571
:100980000E94A10C20E034E040E050E00E94820C84
:100990003F932F9380E491E09F938F93CE0124E0C7
:1009A000880F991F2A95E1F787539C4F9F938F9348
:1009B0000E94D90C0F900F900F900F900F900F90F6
:1009C000BE018DE893E0DF91CF911F910F91FF90D1
:1009D000EF90DF90CF90BF90AF909F908F907F90DF
:1009E0000C948C0468E471E0C7010E94D00C892B40
:1009F000A9F42091ED033091EE03A0919905B091F7
:100A00009A050E94A10C20E034E040E050E00E94F2
:100A1000820C3F932F938DE491E0BECF65E571E0AA
:100A2000C7010E94D00C892BA9F42091F3033091C7
:100A3000F403A0919905B0919A050E94A10C20E0C1
:100A400034E040E050E00E94820C3F932F938AE50F
:100A500091E0A2CF62E671E0C7010E94D00C892B21
:100A6000A9F42091F1033091F203A0919905B0917E
:100A70009A050E94A10C20E034E040E050E00E9482
:100A8000820C3F932F9387E691E086CF6FE671E06B
:100A9000C7010E94D00C892B09F094C02091EF036C
:100AA0003091F003A0919905B0919A050E94A10C94
:100AB000C12C44E0D42EE12CF12CA70196010E9418
:100AC000820CC9010E9401042091ED033091EE03D4
:100AD000A0919905B0919A050E94A10CA7019601D9
:100AE0000E94820CC9010E94010400919905109195
:100AF0009A05A091EF03B091F00398010E94A10C18
:100B0000A70196010E94820C4901A091ED03B091CA
:100B1000EE0398010E94A10CA70196010E94820C8D
:100B2000C401821B930B0E9401040091990510914E
:100B30009A05A091EF03B091F00398010E94A10CD7
:100B4000A70196010E94820C4901A091ED03B0918A
:100B5000EE0398010E94A10CA70196010E94820C4D
:100B6000821A930A5AE0752E789CC001799C900DE8
:100B700011240E9401040091990510919A05A091F9
:100B8000EF03B091F00398010E94A10CA701960118
:100B90000E94820C4901A091ED03B091EE039801EF
:100BA0000E94A10CA70196010E94820C821A930A4E
:100BB000789CC001799C900D11249F938F9384E7BA
:100BC00091E0EACE6CE771E0C7010E94D00C892B5E
:100BD00069F50091990510919A05A091F303B091E0
:100BE000F40398010E94A10C812C34E0932EA12CD7
:100BF000B12CA50194010E94820C6901A091F1031E
:100C0000B091F20398010E94A10CA50194010E94E9
:100C1000820CC21AD30A2AE02C9DC0012D9D900D92
:100C200011249F938F9381E891E0B6CE69E871E03B
:100C3000C7010E94D00C892B39F48DE891E09F9375
:100C40008F938BE991E0A8CEDF91CF911F910F9107
:100C5000FF90EF90DF90CF90BF90AF909F908F90DC
:100C60007F90089569ED73E081E893E00E94F203BC
:100C70001092D9030895CF93DF9385ED8093BC0044
:100C800080915E0290915F02A0916002B09161023A
:100C90000796A11DB11D23E0B695A7959795879559
:100CA0002A95D1F72091BC0024FD03C01092A60222
:100CB00036C040915E0250915F0260916002709177
:100CC0006102452B462B472B69F30097A105B1051F
:100CD00041F02AE22A95F1F700C00197A109B10974
:100CE000E1CF80915D0291E090935C028823B9F09E
:100CF000C091B800D091BA008091BC008A7B8093EB
:100D0000BC0060E082E10E94740160E083E10E9427
:100D100074010E943E03D093BA00C093B800DF91E3
:100D2000CF9108958F929F92AF92BF92CF92DF9210
:100D3000EF92FF920F931F93CF93DF93EC017B0110
:100D40006A01890162EA71E0C7010E94D00C892B17
:100D500009F041C0DE01A45ABF4FFE01E45FFD4F20
:100D60002D913C91A081B1810E94A10C9B01AC010D
:100D7000ADE0B0E00E94BF0C20E034E040E050E085
:100D80000E94820C3F932F9387EA91E09F938F9369
:100D9000C80124E0880F991F2A95E1F7CC968C0FA3
:100DA0009D1F9F938F930E94D90C0F900F900F90CF
:100DB0000F900F900F90B801CE01DF91CF911F914E
:100DC0000F91FF90EF90DF90CF90BF90AF909F90EA
:100DD0008F900C948C046FEA71E0C7010E94D00CD4
:100DE000892BE9F4DE01A25ABF4FFE01E45FFD4FFB
:100DF0002D913C91A081B1810E94A10C9B01AC017D
:100E0000ADE0B0E00E94BF0C20E034E040E050E0F4
:100E10000E94820C3F932F9384EB91E0B7CF6CEB51
:100E200071E0C7010E94D00C892B51F4FE01E45FF0
:100E3000FD4F81818F9380818F9381EC91E0A6CFCC
:100E400069EC71E0C7010E94D00C892B61F485E048
:100E50000E944B0121E0892B09F020E01F922F9383
:100E60008EEC91E093CF66ED71E0C7010E94D00C4B
:100E7000892B61F486E00E944B0121E0892B09F067
:100E800020E01F922F938BED91E080CF63EE71E015
:100E9000C7010E94D00C892B61F488E00E944B01AD
:100EA00021E0892B09F020E01F922F9388EE91E03A
:100EB0006DCF60EF71E0C7010E94D00C892B41F427
:100EC00087E00E944B019F938F9386EF91E05ECF66
:100ED0006FEF71E0C7010E94D00C892BB1F4C601FD
:100EE0000E940E0C61E0892B09F060E085E00E9411
:100EF000740185E00E944B0121E0892B09F020E07C
:100F00001F922F9384E092E041CF6DE072E0C70121
:100F10000E94D00C892BB1F4C6010E940E0C61E036
:100F2000892B09F060E086E00E94740186E00E944F
:100F30004B0121E0892B09F020E01F922F9382E1E1
:100F400092E024CF6BE172E0C7010E94D00C892BA4
:100F5000B1F4C6010E940E0C61E0892B09F060E03B
:100F600088E00E94740188E00E944B0121E0892BF7
:100F700009F020E01F922F9380E292E007CF69E210
:100F800072E0C7010E94D00C892BB9F04E0182E0BB
:100F9000880E911CB12CA12C8E899F89A816B906A8
:100FA000DCF4D401ED91FD914D01A801B601C7011A
:100FB0000995BFEFAB1ABB0AEFCFC6010E940E0C1A
:100FC000682F87E00E94740187E00E944B019F9385
:100FD0008F938FE292E0DACEDF91CF911F910F9144
:100FE000FF90EF90DF90CF90BF90AF909F908F9049
:100FF00008950F931F93CF93DF938B0169E372E002
:101000000E942C0CEC0169E371E090E080E00E940A
:101010002C0C9801AC01BE018DE893E0DF91CF91DB
:101020001F910F910C94920684EE92E00E94670249
:10103000892B31F184EE92E00E9445022091B503A4
:101040003091B603F901E357FC4F808F2F5F3F4F7C
:101050003093B6032093B5038A3019F02F30310551
:1010600019F723573C4FF901108E1092B6031092D6
:10107000B50370E060E085EA93E00E94F907D4CF01
:1010800008950F931F93CF93DF938C01CDE8D3E0A6
:10109000CE018D5893408017910744F481E893E086
:1010A0000E946C038AA71BA62196F2CFEDE8F3E01D
:1010B000CF018D5893408017910724F483A582A710
:1010C0003196F6CF61E070E087EB93E0DF91CF914E
:1010D0001F910F910C94F9071F920F920FB60F9268
:1010E00011242F933F938F939F93AF93BF9380913E
:1010F000E0029091E102A091E202B091E30230910E
:10110000DF0223E0230F2D3758F50196A11DB11DF5
:101110002093DF028093E0029093E102A093E20229
:10112000B093E3028091DB029091DC02A091DD029A
:10113000B091DE020196A11DB11D8093DB02909358
:10114000DC02A093DD02B093DE02BF91AF919F91CC
:101150008F913F912F910F900FBE0F901F90189578
:1011600026E8230F0296A11DB11DD2CF1F920F9228
:101170000FB60F9211242F933F934F935F936F936A
:101180007F938F939F93AF93BF93EF93FF9384EEDF
:1011900092E00E948702FF91EF91BF91AF919F91E2
:1011A0008F917F916F915F914F913F912F910F9010
:1011B0000FBE0F901F9018951F920F920FB60F92AF
:1011C00011242F938F939F93EF93FF93E091F40259
:1011D000F091F5028081E091FA02F091FB0282FD2C
:1011E0001BC090818091FD028F5F8F732091FE0262
:1011F000821741F0E091FD02F0E0EC51FD4F958F38
:101200008093FD02FF91EF919F918F912F910F900D
:101210000FBE0F901F9018958081F4CF1F920F92F0
:101220000FB60F9211242F933F934F935F936F93B9
:101230007F938F939F93AF93BF93EF93FF93E0912F
:101240000001F09101010995FF91EF91BF91AF91DC
:101250009F918F917F916F915F914F913F912F91CE
:101260000F900FBE0F901F9018951F920F920FB600
:101270000F9211242F933F934F935F936F937F931C
:101280008F939F93AF93BF93EF93FF938091B90098
:10129000887F803609F44AC0F0F5883209F4A7C087
:1012A00018F5803109F49BC0B8F4882309F4F9C01B
:1012B000883009F494C0FF91EF91BF91AF919F9155
:1012C0008F917F916F915F914F913F912F910F90EF
:1012D0000FBE0F901F901895883109F488C0803296
:1012E00051F78093A50214C0803409F49DC040F4E6
:1012F0008033B9F38833F9F68093A50285ECB0C04A
:10130000803509F485C0883509F496C0883499F68B
:101310000E943B06D0CF883909F48CC038F5883755
:1013200029F050F4883611F0803729F683E0809355
:10133000A6021092A40257C0883809F47BC08039F5
:1013400019F0803809F0B7CF8091A402803208F0FC
:1013500071C0E091A40281E08E0F8093A40280917D
:10136000BB00F0E0EC57FD4F80833DC0803B39F07F
:10137000E0F4803A09F479C0883A09F09CCF84E01F
:101380008093A6021092830210928202E091D20210
:10139000F091D30209958091820281110FC081E002
:1013A000809382021092620209C0803C09F4A6CFA9
:1013B000883C09F4A3CF883B09F07DCFE0918302FC
:1013C00081E08E0F80938302F0E0EE59FD4F808123
:1013D0008093BB00909183028091820229C080910A
:1013E000CB028093BB0085EC8093BC0064CF9091CE
:1013F000CA028091C902981758F5E091CA0281E0AB
:101400008E0F8093CA02F0E0E755FD4F8081E9CF4F
:10141000E091CA0281E08E0F8093CA028091BB00E6
:10142000F0E0E755FD4F80839091CA028091C90298
:101430009817C8F285E8D8CFE091CA0281E08E0FF4
:101440008093CA028091BB00F0E0E755FD4F808396
:101450008091A80281115CCF81E08093A70284EA89
:101460008093BC001092A60226CF85EC8093BC002E
:101470001092A6028091A402803230F4E091A4027E
:10148000F0E0EC57FD4F10826091A40270E0E09113
:10149000D002F091D10284E892E009951092A40262
:1014A0000ACF1092A50234CFE4EEF2E0138212824A
:1014B00088EE93E0A0E0B0E084839583A683B783B1
:1014C00022E131E03183208325EC30E03587248729
:1014D00024EC30E03787268720EC30E0318B208BFE
:1014E00021EC30E0338B228B22EC30E0358B248BE7
:1014F00026EC30E0378B268B118E128E138E148ED5
:10150000E1E8F3E01382128284839583A683B78394
:1015100084E291E091838083EDE8F3E0178A168AF4
:1015200011A610A613AE12AE86E391E091838083DC
:101530000895789484B5826084BD84B5816084BD4B
:1015400085B5826085BD85B5816085BD80916E0061
:10155000816080936E001092810080918100826092
:1015600080938100809181008160809381008091CF
:1015700080008160809380008091B10084608093BE
:10158000B1008091B00081608093B00080917A00BA
:10159000846080937A0080917A00826080937A00E0
:1015A00080917A00816080937A0080917A008068CF
:1015B00080937A001092C10061E082E00E94A20153
:1015C00061E084E00E94A20161E085E00E94A20146
:1015D00061E086E00E94A20161E088E00E94A20131
:1015E00061E087E00E94A20160E080E10E94A20128
:1015F00060E081E10E94A20160E08EE00E94A20111
:1016000060E08FE00E94A20160E084E10E94A201FC
:1016100060E085E10E94A20160E083E00E94A201F7
:1016200060E089E00E94A20161E086E00E9474010E
:1016300061E088E00E94740160E087E00E9474012C
:10164000C4E0D0E0C12CD12C76013EE4732E0BE334
:101650001FE1812C40E3942E41E1A42EB12C709225
:101660007C00C8010197F1F780917A008064809333
:101670007A0080917A0086FDFCCF809178002091DD
:101680007900322F282F032E000C440B550BC50177
:10169000B4010E94820C032E000C440B550BC20EA9
:1016A000D31EE41EF51E2197D1F6C701B60124E032
:1016B00030E040E050E00E94820C30939A05209385
:1016C0009905D0E0C0E00E94C2030E94D203219697
:1016D000C032D105C1F760E088E00E94740160E08B
:1016E00086E00E9474018091A3039091A4038A3044
:1016F000910574F40196FC01EE0FFF1FE357FC4FB8
:1017000023EA34E0318320839093A4038093A303DE
:10171000E091F402F091F50282E08083E091F00222
:10172000F091F1021082E091F202F091F30283E372
:1017300080831092FC02E091F802F091F90286E0B9
:101740008083E091F602F091F702808180618083CE
:10175000E091F602F091F702808188608083E09149
:10176000F602F091F702808180688083E091F602B2
:10177000F091F70280818F7D80831092D7021092C2
:10178000D6021092D5021092D4020E943E0383ED3D
:1017900091E09093D3028093D2028FED91E09093E9
:1017A000D1028093D0028AE08093BA0081E498E06D
:1017B0009093CF028093CE0282E396E09093CD0285
:1017C0008093CC0280E1809381001092800081E0C0
:1017D0008093DA0220E43FE13093D9022093D802CB
:1017E000309387002093860091E19093810024E15B
:1017F00038E0309301012093000180936F00C0E036
:10180000D0E00E94C2030E94D2032097D1F30E942D
:1018100073028823B1F30E940000F3CFFC018827F4
:101820009927E89421912032E9F3293010F02E30E5
:10183000C8F32B3241F02D3239F4689404C00E9471
:10184000580C820F911D219120532A30C0F31EF4B1
:10185000909581959F4F08954BE955E00E94310C7A
:101860000895FA01A191B081009719F41097E1F061
:10187000CD01DC01CD010D90002011F4C00113C099
:10188000FB012191222319F02015D9F7F3CFFB0199
:101890002191201519F41E92119606C02223C1F73A
:1018A0000D900020A1F7D001FA01A193B083089513
:1018B0007AE0979F902D879F802D910D1124089598
:1018C000A1E21A2EAA1BBB1BFD010DC0AA1FBB1F44
:1018D000EE1FFF1FA217B307E407F50720F0A21BB6
:1018E000B30BE40BF50B661F771F881F991F1A9423
:1018F00069F760957095809590959B01AC01BD014D
:10190000CF010895052E97FB1EF400940E94990CB8
:1019100057FD07D00E94600C07FC03D04EF40C94D6
:10192000990C50954095309521953F4F4F4F5F4F03
:10193000089590958095709561957F4F8F4F9F4F3B
:1019400008950E94A90C332312F48A1B9B0B0C945C
:10195000BA0CA29FB001B39FC001A39F700D811D5F
:101960001124911DB29F700D811D1124911D0895A8
:101970000E94A90CB7FF0895821B930B08950E9443
:10198000A90CA59F900DB49F900DA49F800D911D53
:1019900011240895EE0FFF1F0590F491E02D099496
:1019A000FB01DC018D91019080190110D9F3990B95
:1019B0000895AEE0B0E0EFEDFCE00C94880F0D89E7
:1019C0001E8986E08C831A8309838FEF9FE79E83AD
:1019D0008D83AE01475E5F4F6F89788DCE01019692
:1019E0000E94FC0C2F813885020F131FF801108212
:1019F0002E96E4E00C94A40FABE0B0E0E2E0FDE052
:101A00000C947A0F7C013B018A01FC01178216823B
:101A1000838181FFC8C1CE0101965C01F7019381EA
:101A2000F30193FD859193FF81913F01882309F490
:101A300053C1853239F493FD859193FF81913F0124
:101A4000853229F4B70190E00E94EC0EE7CF912C8B
:101A5000212C312CFFE1F31538F08B3211F190F489
:101A6000803209F1833229F137FC3CC020ED280F88
:101A70002A3050F536FE20C08AE0989E200D1124B1
:101A8000922E06C08D3291F0803371F7689430F851
:101A9000F30193FD859193FF81913F018111DACF8D
:101AA00021C0689431F8689432F8F2CF689433F822
:101AB000EFCF689434F8ECCFEAE02E9E200D11248D
:101AC000222E689435F8E4CF8E3229F436FC04C116
:101AD000689436F8DDCF8C3619F4689437F8D8CF8F
:101AE0008836B1F2982F9F7D95549330E0F083367D
:101AF000A1F18337C1F1833509F063C02801F2E019
:101B00004F0E511CF801C080D180692D70E036FC69
:101B100002C06FEF7FEFC6010E94D60E4C016894A1
:101B200037F882010AC00C5F1F4FFFE3F983882456
:101B30008394912C6501E89437F833FE2DC0522C24
:101B40008114910471F5552009F468CFB70180E242
:101B500090E00E94EC0E5A94F6CFF80180818983C0
:101B60000E5F1F4FE4CF2801F2E04F0E511CF80129
:101B7000C080D180692D70E036FC02C06FEF7FEF2E
:101B8000C6010E94E10E4C018201D5CFB70180E26F
:101B900090E00E94EC0E2A942814190409F0B0F782
:101BA000CECFF60137FC859137FE81916F01B701E9
:101BB00090E00E94EC0E51105A94F1E08F1A9108B7
:101BC000BFCF843619F0893609F077C0F80137FEA7
:101BD0006BC060817181828193810C5F1F4FF32DF7
:101BE000FF763F2E97FF09C090958095709561957F
:101BF0007F4F8F4F9F4F689437F82AE030E0A50160
:101C00000E941C0FC82ECA188C2C432C36FE0CC008
:101C1000E89440F8C91440F434FE05C032FC03C017
:101C2000F32DFE7E4F2E892C44FE95C0FE01EC0D57
:101C3000F11D8081803309F087C0242D297E422E3A
:101C4000842D8870582E43FC95C040FE8FC09C2C7C
:101C5000821418F42C0C922C981844FE91C0B701F1
:101C600080E390E00E94EC0E42FE09C088E790E01D
:101C700041FE02C088E590E0B7010E94EC0EC91455
:101C800008F48AC0CA94D12C9FEFC91AD90ACA0C89
:101C9000DB1CF60182916F01B70190E00E94EC0E0F
:101CA000AC14BD04B1F74FCF60817181072E000CD9
:101CB000880B990B0E5F1F4F92CFD32CE894D4F86A
:101CC0002AE030E0853739F1232D297FD22E8F3657
:101CD00001F148F48835A9F0F701868197812B96A8
:101CE000E2E10C94960F803749F08837A9F7D4FECB
:101CF00002C06894D2F820E130E00DC06894D4F8B6
:101D0000F6CF34FE03C0822F8660D82E20E132E069
:101D100002C028E030E0F801D7FE0FC06081718179
:101D2000828193810C5F1F4FA5010E941C0FC82E5A
:101D3000CA183D2CE89437F867CF6081718190E034
:101D400080E00E5F1F4FF0CF42FC02C0839478CF3B
:101D50008394839475CF842D867809F471CFF6CF60
:101D6000B70180E290E00E94EC0E83948214C0F3ED
:101D7000512C73CF522C5818821408F46ECFF8CF20
:101D8000842D867809F47BCF8BE241FE80E247FC0C
:101D90008DE2B70190E071CFB70180E390E00E943F
:101DA000EC0E9A946CCF8FEF9FEF99CFFC010590CA
:101DB000615070400110D8F7809590958E0F9F1F4D
:101DC0000895FC016150704001900110D8F7809592
:101DD00090958E0F9F1F08950F931F93CF93DF93BE
:101DE000182F092FEB018B8181FD09C01FEF0FEF29
:101DF000812F902FDF91CF911F910F91089582FF36
:101E000014C02E813F818C819D81281739073CF4B5
:101E1000E881F981CF0101969983888310838E81AF
:101E20009F8101969F838E83E3CFE885F985812F7B
:101E30000995892BA1F3DACFFA01AA27283051F1AD
:101E4000203181F1E8946F936E7F6E5F7F4F8F4FEB
:101E50009F4FAF4FB1E03ED0B4E03CD0670F781F4A
:101E6000891F9A1FA11D680F791F8A1F911DA11D2F
:101E70006A0F711D811D911DA11D20D009F4689468
:101E80003F912AE0269F11243019305D3193DEF610
:101E9000CF010895462F4770405D4193B3E00FD0C6
:101EA000C9F7F6CF462F4F70405D4A3318F0495DB1
:101EB00031FD4052419302D0A9F7EACFB4E0A69594
:101EC0009795879577956795BA95C9F700976105B6
:101ED000710508959B01AC010A2E0694579547950C
:101EE00037952795BA95C9F7620F731F841F951F01
:101EF000A01D08952F923F924F925F926F927F9212
:101F00008F929F92AF92BF92CF92DF92EF92FF9209
:101F10000F931F93CF93DF93CDB7DEB7CA1BDB0BB5
:101F20000FB6F894DEBF0FBECDBF09942A8839885A
:101F300048885F846E847D848C849B84AA84B98461
:101F4000C884DF80EE80FD800C811B81AA81B9816D
:101F5000CE0FD11D0FB6F894DEBF0FBECDBFED0181
:061F60000895F894FFCF84
:101F66001603200020002000200020002000000092
:101F76000000A90209023602F6026702450259026A
:101F86000000000091038603A2035C037F036C0339
:101F96005D030000000092060D0A00525641310012
:101FA600575641313A257500525641300057564131
:101FB600303A2575005256413700575641373A2573
:101FC60075005256413600575641363A257500522D
:101FD60049413100574941313A2569005249413753
:101FE60000574941373A25690052464E0043544D41
:101FF6006561737572652E696E6F0057464E3A2598
:1020060073005256343800575634383A2575005204
:1020160056313200575631323A2564005256434300
:1020260000575643433A25640052435049005743EC
:1020360050493A2564005243355600574335563ABF
:102046002564005243475000574347503A256400E1
:1020560052433132560057433132563A25640057BF
:1020660043504900574350493A3D2564005743358C
:102076005600574335563A3D2564005743475000AE
:10208600574347503A3D256400574331325600576F
:0C209600433132563A3D2564003A000008
:00000001FF
